:020000040800F2
:100000000020002075200008A51F0008A71F000879
:1000100000000000000000000000000000000000E0
:10002000000000000000000000000000A91F000800
:100030000000000000000000AB1F0008AD1F00081A
:10004000C5200008C5200008C5200008C5200008FC
:10005000C5200008C5200008C5200008AF1F000803
:1000600000000000B91F0008C91F0008C5200008D3
:10007000E11F0008C5200008C5200008C5200008B1
:10008000C5200008C5200008C5200008C5200008BC
:1000900000000000C5200008F11F0008C52000086E
:1000A000C5200008C5200008C5200008C52000089C
:0C00B00001200008C5200008000000002E
:1000BC0010B5064C2378002B07D1054B002B02D032
:1000CC00044800E000BF0123237010BDB8000020DD
:1000DC000000000024A40008044B10B5002B03D032
:1000EC000349044800E000BF10BDC04600000000FA
:1000FC00BC00002024A400080023C25C0133002AA9
:10010C00FBD1581E7047000002B4714649084900E3
:10011C00095649008E4402BC7047C04602B4714671
:10012C0049084900095C49008E4402BC7047C0462E
:10013C0003B47146490840004900095E49008E44E9
:10014C0003BC7047002243088B4274D303098B42D3
:10015C005FD3030A8B4244D3030B8B4228D3030C8B
:10016C008B420DD3FF22090212BA030C8B4202D32D
:10017C001212090265D0030B8B4219D300E0090A55
:10018C00C30B8B4201D3CB03C01A5241830B8B425E
:10019C0001D38B03C01A5241430B8B4201D34B0347
:1001AC00C01A5241030B8B4201D30B03C01A5241AC
:1001BC00C30A8B4201D3CB02C01A5241830A8B4231
:1001CC0001D38B02C01A5241430A8B4201D34B021A
:1001DC00C01A5241030A8B4201D30B02C01A52417E
:1001EC00CDD2C3098B4201D3CB01C01A5241830932
:1001FC008B4201D38B01C01A524143098B4201D36C
:10020C004B01C01A524103098B4201D30B01C01A96
:10021C005241C3088B4201D3CB00C01A5241830810
:10022C008B4201D38B00C01A524143088B4201D33D
:10023C004B00C01A5241411A00D20146524110469D
:10024C007047FFE701B5002000F0F0F802BDC04692
:10025C000029F7D076E7704703460B437FD4002282
:10026C0043088B4274D303098B425FD3030A8B423E
:10027C0044D3030B8B4228D3030C8B420DD3FF22A8
:10028C00090212BA030C8B4202D31212090265D076
:10029C00030B8B4219D300E0090AC30B8B4201D329
:1002AC00CB03C01A5241830B8B4201D38B03C01A70
:1002BC005241430B8B4201D34B03C01A5241030BE7
:1002CC008B4201D30B03C01A5241C30A8B4201D398
:1002DC00CB02C01A5241830A8B4201D38B02C01A43
:1002EC005241430A8B4201D34B02C01A5241030ABA
:1002FC008B4201D30B02C01A5241CDD2C3098B429F
:10030C0001D3CB01C01A524183098B4201D38B011B
:10031C00C01A524143098B4201D34B01C01A5241BE
:10032C0003098B4201D30B01C01A5241C3088B4203
:10033C0001D3CB00C01A524183088B4201D38B00EE
:10034C00C01A524143088B4201D34B00C01A524190
:10035C00411A00D201465241104670475DE0CA0F67
:10036C0000D04942031000D34042534000229C4627
:10037C0003098B422DD3030A8B4212D3FC22890131
:10038C0012BA030A8B420CD3890192118B4208D307
:10039C00890192118B4204D389013AD0921100E069
:1003AC008909C3098B4201D3CB01C01A524183097D
:1003BC008B4201D38B01C01A524143098B4201D3AA
:1003CC004B01C01A524103098B4201D30B01C01AD5
:1003DC005241C3088B4201D3CB00C01A524183084F
:1003EC008B4201D38B00C01A5241D9D243088B42A5
:1003FC0001D34B00C01A5241411A00D20146634648
:10040C0052415B10104601D34042002B00D54942AB
:10041C00704763465B1000D3404201B5002000F0EA
:10042C0005F802BD0029F8D016E770477047C046A2
:10043C00002B11D1002A0FD1002900D1002802D0A5
:10044C000021C943081C07B4024802A140180290BD
:10045C0003BDC046D9FFFFFF03B4684601B502983F
:10046C0000F006F8019B9E4602B00CBC7047C046DB
:10047C00F0B557464E464546DE46E0B504000D0045
:10048C009246994683B08B4230D82DD0494650467F
:10049C0000F0D8F829000600200000F0D3F8331A39
:1004AC009846203B9B4633D45A465346934042468B
:1004BC001F00534693401E00AF423AD8AF4200D1C2
:1004CC0078E05B46A41BBD41002B00DA75E00022EE
:1004DC0000230092019301235A4693400193012378
:1004EC0042469340009328E08242CFD90022002359
:1004FC00009201930C9B002B01D01C605D60009856
:10050C00019903B0F0BCBB46B246A946A046F0BD6B
:10051C00424620239B1A5246DA40414613004A4673
:10052C008A40170042461F43534693401E00AF4279
:10053C00C4D900220023009201934346002BD9D04A
:10054C00FB0772081A4346467B080EE0AB4201D10A
:10055C00A2420CD8A41A9D41012024196D410021FE
:10056C00013E24184D41002E06D0AB42EED9013E7F
:10057C0024196D41002EF8D1009801995B460019A1
:10058C006941002B24DB2B005A464446D3402A00F9
:10059C00E2401C005B461500002B2ADB26009E4027
:1005AC00330026004746BE403200801A9941009025
:1005BC0001919FE7A342BCD883E742462023002148
:1005CC009B1A0022009101920122DA40019286E7E7
:1005DC00424620239B1A2A0046469A402300F340A9
:1005EC00444613432A00E2401C005B461500002BD6
:1005FC00D4DA42462F002023260097409B1ADE4077
:10060C003B003343CDE7C0461C2101231B04984219
:10061C0001D3000C10391B0A984201D3000A083987
:10062C001B09984201D30009043902A2105C40183E
:10063C007047C046040302020101010100000000E2
:10064C000000000010B5002903D1FFF7DDFF2030BA
:10065C0002E0081CFFF7D8FF10BDC0467047000031
:10066C0070B51B4D1B4C2B7888B0002B16D0FA267E
:10067C001948F600018803798919867A82780296DE
:10068C00067A89B201968079009006A807F03AFFA5
:10069C00200006A907F0ACFD00232B7006252100D5
:1006AC0006A807F0FEFD0D4C2A0006A9200009F053
:1006BC0003FA1E230C220721009505A807F06EFFF4
:1006CC00210005AA06A807F059FF08B070BDC04666
:1006DC0076020020840200207802002070020020A4
:1006EC0010B50400182109F065F9200010BD0000B8
:1006FC0070B5114D2B003E331B789B0701D40020A5
:10070C0070BD0E4C0E4E236832681343F7D001F0C7
:10071C00F5FC2368FA24C01AAB8FA40063439842FB
:10072C00EDD901F0EBFC3368C31AA88F60439842F3
:10073C0080414042E4E7C046E80200206C02002001
:10074C004C030020426830B5138884891D1B8D42F0
:10075C0002DD5B1A138030BD1480037D002BFAD0B0
:10076C0005490B780133DBB20B70022BF3D14389B3
:10077C00138000230B70EEE7D500002070B50D4DF3
:10078C000D4C2B78062B02D0237C002B05D1A17BA2
:10079C00002902D02000FFF7D5FF2B780A2B02D0BE
:1007AC00A37B002B03D12000E17BFFF7CBFF636819
:1007BC00188870BD5003002098020020426830B5A4
:1007CC0013884489E51A8D4202DD5B18138030BD15
:1007DC001480037D002BFAD005490B780133DBB272
:1007EC000B70022BF3D18389138000230B70EEE77F
:1007FC00D400002070B50D4D0D4C2B78032B02D07E
:10080C00237C002B05D1A17B002902D02000FFF70F
:10081C00D5FF2B78052B02D0A37B002B03D1200016
:10082C00E17BFFF7CBFF6368188870BD5003002095
:10083C009802002010B510220249034802F012F869
:10084C0010BDC046D60000206809002070B5040019
:10085C000D0001F053FC22680300821A0020AA420A
:10086C0001D92360013070BD10B501F047FC0100C7
:10087C00014805F0CCFCF8E74C010020002210B533
:10088C00034B044904481A7007F05AFC10BDC046CB
:10089C0076020020B40200208402002070B5C288C9
:1008AC0003000020172A1CD81A893B2A19D81A8849
:1008BC0059889C885B893B2B13D8632A11D8CBB2FF
:1008CC00591E0B290DD802211D00013C8D43E4B2A9
:1008DC000100042D01D0092D04D11D23A34249414F
:1008EC00C8B270BD022B1DD1FA23DB00D21895B211
:1008FC00930706D164212800FFF7AAFC89B20029CE
:10090C0007D1C82128004900FFF7A2FC89B20029B1
:10091C0005D100201C23A3424041C0B2E1E70020D6
:10092C001B23F8E71E23F6E710B501220249034802
:10093C0005F07EF910BDC0463A020020D808002010
:10094C0013B5040001F0DAFB0190210001A8FFF7B8
:10095C007DFF0028F9D0A02001224021C00502F023
:10096C004BFB13BD10B5024805F0B2FA10BDC046E2
:10097C004002002010B50A4C200005F067FA002850
:10098C000CD0200005F0D5F9064B1880200005F09E
:10099C00D2F90122044B1870044B1A7010BDC046DA
:1009AC00400200200400002006000020B2020020BB
:1009BC0010B5FFF7DFFF10BD70B50125064C257093
:1009CC0005F0CEFB002805D005F0A2FB002800D0D6
:1009DC00257070BD2070FCE7F700002010B5FFF704
:1009EC00EBFF322001F090FB0022014B1A6010BD8E
:1009FC006C020020074B07B55B6864221888FF2344
:100A0C0000930023190005F07FFAC1B2024808F0E8
:100A1C0093FF07BD980200205C05002070B50126ED
:100A2C00164C2378BFF35B8F154D33420AD120004F
:100A3C0008F0C4FF002805D001F060FB28602000FE
:100A4C0008F0C9FF32212800FFF700FF0028E7D08B
:100A5C00FFF794FE0B4C63681888FFF7CBFF0A4D29
:100A6C00280008F0E8F863681A88A3899A42D7D15D
:100A7C002800012108F059FF70BDC0463801002044
:100A8C0058010020980200205C050020F7B50027D3
:100A9C00019001F033FB3B000200224D0600286858
:100AAC006968121A8B41204CBB4201D1642A31D99E
:100ABC0002211E4802F09AFA00281AD120686168B7
:100ACC006422002312184B412E606F602260636019
:100ADC006368002B04DC1CD12368019A934218D95B
:100AEC00FFF79CFFA02000224021C00502F084FAF1
:100AFC000FE064225242D3172068616812184B41F0
:100B0C00002B02DB22606360E2E7002200232260FC
:100B1C006360F7BDA02001224021C00502F06CFAF1
:100B2C00D6E7C04668010020700100200004005088
:100B3C00F8B5174D0021280008F0F7FE0126154CDA
:100B4C002378BFF35B8F144F33420AD1200008F097
:100B5C0035FF002805D001F0D1FA3860200008F0EC
:100B6C003AFF32213800FFF771FE0028E7D0FFF77B
:100B7C0041FE0A4C63681888FFF73CFF280008F018
:100B8C005AF863681A8863899A42D8D1F8BDC0466E
:100B9C005C0500203C0100205C0100209802002034
:100BAC0070B50A00022400290AD0074901230D78E8
:100BBC00ECB2002D06D10B700100044804F0B6F81D
:100BCC00200070BD1C00FBE7B3020020D8080020F9
:100BDC000FB413B5094C04AB04CB40212000019396
:100BEC0009F0DEF8FA2382B221009B00044804F0DD
:100BFC00A5FE13BC08BC04B01847C046F800002082
:100C0C00D8080020002370B51C000A261348144D88
:100C1C00038043808380595D3039092914D901340C
:100C2C000133112BF7D11C1B0E4BE4B21C70FFF7D8
:100C3C0035FE0D4D00280CD00C2C0AD10B48FFF7BB
:100C4C00C7FF01232B7070BD025D72435218025511
:100C5C00E6E70748FFF7BCFF0023F3E77802002024
:100C6C00FA010020F6000020760200203CA40008C7
:100C7C004DA40008F0B5424B87B0588F80231B0160
:100C8C00009300236422190005F03EF93D4B3E4DC4
:100C9C001B780490002B06D0280005F045FA05F0CF
:100CAC0067FA3A4B18703A4E0022AC5E33783948EA
:100CBC005A0014520227E95F01330391039F36490E
:100CCC0057520427ED5FAC466746344D5753344AB0
:100CDC001278002A11D1DAB257000590072A09D8E8
:100CEC00059801323C520398D2B278526046785340
:100CFC000237F3E701212A4A11700722134033709F
:100D0C0000231A0019001800234F224D5D5F401973
:100D1C00DD5F4919214D5D5F02335219102BF4D15F
:100D2C000725C3172B401818CB172B40C010591888
:100D3C00D3172B40041B9A18E317E418194E5C4088
:100D4C00039BC9107160C91ACB17C9185940634667
:100D5C00D210B260D21AD317D2185A406118124B63
:100D6C008A181A60049B30609A4207DD01F0C6F9BC
:100D7C000E4B010018600E48FFF72AFF07B0F0BDBC
:100D8C00E8020020F7000020600200200100002093
:100D9C00880100208A0100209A010020AA0100206D
:100DAC003C02002054020020680200206C0200204B
:100DBC005DA4000870B5FFF75DFF314C2378002B64
:100DCC000AD0304B5A6859891288914202D09B89BB
:100DDC00934201D100232370FFF78AFC00282DD009
:100DEC00294D2B78BFF35B8F284EDB070AD42800E4
:100DFC0008F0E4FD002805D001F080F930602800EF
:100E0C0008F0E9FD32213000FFF720FD1D4D0028D0
:100E1C0005D0FFF7B3FC6B681888FFF7EBFD6B6828
:100E2C001B481B88002B05D1012108F07EFD0123F6
:100E3C00237070BD002108F078FDFAE7154C23787B
:100E4C00BFF35B8F144DDB070AD4200008F0B6FD0E
:100E5C00002805D001F052F92860200008F0BBFDF5
:100E6C0032212800FFF7F2FC0028E2D0FFF7C2FC89
:100E7C00044B5B681888FFF7BDFD00210448DAE7D6
:100E8C000200002098020020400100206001002098
:100E9C005C0500204401002064010020FA20F0B51C
:100EAC00C00087B0FFF7F2FDC44CC54D2378002B72
:100EBC0006D0C44B2A781B789A4201D000232370A9
:100ECC0005F0C6F823782870BF4D002B05D10A28F1
:100EDC0000D143E10C2800D14AE1FFF76BFFBB497D
:100EEC00BB4B0A78002A06D11A78002A03D1227843
:100EFC00002A00D192E0002228000A7001211A7009
:100F0C0008F04CFA2378B34C002B05D0DE23582282
:100F1C009B002380B04B1A700023E75E64213800DD
:100F2C00FFF780FA0DB228000A21FFF77BFA0EB208
:100F3C00268064213800FFF78FF92C23162780B206
:100F4C005843A64AA04C80182A3B00220521019048
:100F5C000097200007F071FD0A212800FFF77CF9AB
:100F6C002C23022580B258439C4A152180180190ED
:100F7C00002220002A3B009707F05FFD2B00142273
:100F8C0024212000009507F0F9FD2C23B6B25E4316
:100F9C00924A2B00B61828210022200001960097B7
:100FAC0007F04BFD8E4B002201930E2338212000BD
:100FBC0000930D3B07F041FD874A0A21167830005B
:100FCC00FFF746F9CAB203920399834A30001170B5
:100FDC000A21FFF7B7F82C26C0B270437F4B1A22B8
:100FEC00C01805212B0001900097200007F025FD6B
:100FFC0003997A4B7143C9181A222B0020000191D6
:10100C000097152107F019FD764B1A2201930A233C
:10101C00252100932000093B07F00FFD6A4C0021AD
:10102C00200008F0BBF9704D704A2B7830215B0121
:10103C009B180193102318220093200007F071FDD8
:10104C00287805210130FFF7EDF9297002250121DF
:10105C00200008F0A3F9002140231722200000955E
:10106C0007F08CFDFFF744FB011E00D18CE0002142
:10107C00200008F093F90022200011002B000095AD
:10108C0007F07CFD0121200008F088F9584D2B78E1
:10109C00BFF35B8F574F584EDB0709D4280008F07D
:1010AC008DFC002804D0737928003B7008F093FC69
:1010BC003A787379514D9A4200D16CE001F01EF8E8
:1010CC00002628606E604C4D4A4B6A794C492000D2
:1010DC001A7008F0BFF8200008F0ADF801212000CC
:1010EC00059608F05BF9474FEA78390005A808F037
:1010FC000BFE05AB30222521200008F05BF805A87B
:10110C00FEF7FAFF3100020005A808F0F1FC2A797D
:10111C00390005A808F0F8FD05AB30223521200078
:10112C0008F048F8384D2000297808F037F92A22C1
:10113C003221200008F017F92E223221200008F06D
:10114C0012F901232A7853402B700121200008F05A
:10115C0025F9200007F06FFD07B0F0BD194B187092
:10116C0005F086F8280007F059FD01232370B4E63A
:10117C00264B5A689B8912889A4200D1ADE6114BD6
:10118C00187006F07FFFEDE702002B0020000095A1
:10119C0007F0F4FC7AE700F0B1FF002302002868A6
:1011AC006968121A8B411100002B00D086E7FA23D4
:1011BC005B00994200D381E7C7E7C0467B01002062
:1011CC0049030020780100205C050020B2020020B9
:1011DC0003000020040000200600002054A5000895
:1011EC0046A500083CA500087A0100209CA4000834
:1011FC0048010020790100207002002080010020AD
:10120C00E1B80008D2B400080000002098020020C9
:10121C00F8B5134C05002378002B15D00123114F82
:10122C0023703B78DDB2002B19D10F4E0F49327869
:10123C000F48D2B208F040FC3378DBB23B700D4B58
:10124C0035701D7025700AE00A4B1B78002B06D0F8
:10125C0000F054FF084B1B68C01AA842DED8F8BD3A
:10126C00920200209302002091020020BA0100207B
:10127C00FA010020900200209402002070B5022098
:10128C00FFF7C6FF084C2378002B0BD0074B1B78BD
:10129C00DDB2002B06D1FFF7B5FC21780448FFF72F
:1012AC007FFC257070BDC04693020020B302002065
:1012BC00FA0100200022014B1A707047B302002083
:1012CC00114B026870B59A421CD1104D104C2B7802
:1012DC00002B12D101260F4B1E7000F00FFF0E4B8E
:1012EC0018600E4B207819788A19D2B21A701B78B4
:1012FC000B4A5054402B00D92E7001222100094872
:10130C0004F096FC70BDC0460044004092020020E0
:10131C003A0200209002002094020020910200204A
:10132C00BA010020D808002013B50B4B0B4C0193CD
:10133C000C231122200000930021043B07F07DFBBD
:10134C002000074907F086FF27222A212000054BA1
:10135C0007F030FF13BDC04638A700085C0500201D
:10136C00E1B8000874B8000837B5254C200008F027
:10137C00D5FA200007F0A4FC0121200008F0D5FAD2
:10138C000121200008F00AF80021200007F00CFBD6
:10139C00200007F043FC00F0B1FE1A4DAB8FC01AD1
:1013AC00194B186000F0AAFEAB8FC01A174B1860CF
:1013BC002A8F174B3E355A815B681888FFF71AFB4A
:1013CC00200007F038FC0123124A13702A781A42C5
:1013DC0014D0FFF7A9FF200007F02DFCDE25FFF746
:1013EC00A7FB00F08BFEAD000190290001A8FFF7D0
:1013FC002DFA0028F9D0200007F010FC37BDC046AC
:10140C005C050020E80200204C0300206C02002048
:10141C00980200200200002010B56420FFF790FA1B
:10142C000021194807F00CFA00F0E4F9FFF79CFFD3
:10143C00FFF77AFAFFF722FAFFF794FAFFF7CEFAE2
:10144C00124801F0A3FA0028FAD1FFF7F3F9104C77
:10145C00012319220F49200004F0B9FE0123642254
:10146C000D49200004F0B3FE0123C8220B492000D3
:10147C0004F0ADFEFA22012309499200200004F089
:10148C00A6FEFFF7F1F9C046C8020020680900204B
:10149C004C010020A90E00086D060008BD090008CB
:1014AC008912000810B5A22200240E4B0E491A8096
:1014BC005C600E4806F0D0FF0D4B0E4A21001A60FE
:1014CC000D4A1C745A6003221A7261325A810B4AFB
:1014DC001C75DA600A4804F05FFE0A490A4804F0F9
:1014EC00E6FB10BD8402002080436D3870020020A2
:1014FC009802002094A40008B0020020000005050A
:10150C004C010020B40200204002002010B502481B
:10151C0004F047FE10BDC0464C01002010B5034836
:10152C0000F094F8024800F091F810BDB4020020CD
:10153C00BC02002001220168F0B50B688BB093430C
:10154C000B6011230693002308933D4B0600079272
:10155C00984240D180235B01A02401938023E405B1
:10156C001B010093009B200005A9059301F090FC42
:10157C006B461F8801223900200001F03DFD019BC4
:10158C00200005A9059301F083FC6B469B88012282
:10159C0019002000029301F02FFD65230393200016
:1015AC00029901F023FD0500012819D00022390011
:1015BC00200001F021FDC046C046C046C0460122B5
:1015CC003900200001F018FD039B013B0393002B15
:1015DC00E5D10BB0F0BD80231A4C0193DB18C0E7AA
:1015EC001223069300230893009B079005A9200063
:1015FC00059301F04DFC019B05A91248059301F0E0
:10160C0047FC2A003900200001F0F6FC2A00029960
:10161C00200001F0F1FC802332681B0211680B439F
:10162C001360C0463268084913680B401360C0460B
:10163C003368186805431D60300001F0D9FEC8E717
:10164C00E407002000040050FF7FFFFF012303701C
:10165C00704713B50400007800280DD0C823009300
:10166C00002349001A00606889B201F017FF431E7D
:10167C0098410123C0B2237016BD10B54068FFF726
:10168C0059FF10BD7FB505780400002D13D0FA204A
:10169C000193089B4000029000936068012392B272
:1016AC0089B202F0D9F80126002807D000252000C5
:1016BC00FFF7E3FF2670280004B070BD2670FAE730
:1016CC001FB503AC01230094FFF7DCFF207804B0B6
:1016DC0010BD7FB505780400002D13D0FA200193BE
:1016EC00089B4000029000936068012392B289B27B
:1016FC0001F0F8FF0126002807D000252000FFF795
:10170C00BCFF2670280004B070BD2670FAE71FB528
:10171C000F246C44237001230094FFF7DAFF04B00C
:10172C0010BD37B505780400002D0DD001204042C6
:10173C000090606801F0B2FE002805D02000FFF791
:10174C009CFF01230025237028003EBD37B505788A
:10175C000400002D0DD0012040420090606801F083
:10176C002FFF002805D02000FFF787FF012300255D
:10177C00237028003EBDF8B5032506000F001400A9
:10178C005D435519AC420ED0390030006378227895
:10179C00FFF7BDFF002807D0A078002801D000F08B
:1017AC00B3FC0334EEE70120F8BD0000044B054AFE
:1017BC0005495A6001221A70044B59601A7070471F
:1017CC00B402002030080020E4070020BC020020F6
:1017DC000122014B1A707047C402002010B540233F
:1017EC000021024A024806F0FFFE10BDE80200206C
:1017FC00C802002010B540230021034A034806F01C
:10180C0043FF012010BDC046E8020020C8020020A2
:10181C00064B07490022996106495A61D961012199
:10182C005A6219623F331A707047C046E8020020B2
:10183C0001000100160001000C4B0D4A10B51A6096
:10184C000A221A7100220B499A60DA601A615A63F3
:10185C00094AD9629A6301213C2219639A873E3363
:10186C00353A1A70FFF7D4FF10BDC046E8020020CD
:10187C00160006031600010032000500034B044A53
:10188C001A60044A5A6064229A607047C8020020A9
:10189C0030080020020008A010B5124B124C012297
:1018AC002360124B200063600023E260A36023617D
:1018BC006361A361E361236201F09AFD011E01D013
:1018CC0072B6FEE7200002F02FF9011E01D072B6AD
:1018DC00FEE7200002F04EF9002801D072B6FEE7B8
:1018EC0010BDC04600540040300800207321600039
:1018FC0010B59CB0382200210EA808F0F9F810227F
:10190C000021684608F0F4F82822002104A808F009
:10191C00EFF88020800002F051F980235B001193D6
:10192C000023129317930833189380239B02199367
:10193C0080239B041A938023022440229B050EA82B
:10194C000E941392159416941B9302F063F90028CD
:10195C0001D072B6FEE7072302900390210068467F
:10196C000093019402F0BEFB002801D072B6FEE792
:10197C00064B07900B9004A8049302F08FFC0028F0
:10198C0001D072B6FEE71CB010BDC046204000006E
:10199C00F0B5012502278BB000F090FBFFF7A8FFF4
:1019AC001422002105A808F0A3F80421A020874EDA
:1019BC00C005736B00242B437363736B2B40029332
:1019CC00029B736B3B437363736B3B400393039BAF
:1019DC00726B0A437263736B00220B4004937C4955
:1019EC00049B01F009FB002210217A4801F004FB52
:1019FC00A020122305A9C00505930694079501F0B4
:101A0C0047FAA020724B05A9C005059307940894CA
:101A1C00069501F03DFA6F4805A9059706940795C0
:101A2C0001F036FA40236C4805A9059306940794F7
:101A3C0001F02EFA1023674805A905930794089422
:101A4C00069501F025FA20230593842361489B0316
:101A5C0005A90693079501F01BFA2200390007200F
:101A6C0001F030F8072001F057F85C485C4B0A375E
:101A7C000360E1235B028460C46004618461C4611F
:101A8C000462446284624360476104F003F8041EFC
:101A9C0001D072B6FEE7B36B02002B43B363B36B9A
:101AAC0003212B4009200193019B01F00BF8092025
:101ABC0001F032F8220003210A2001F003F80A2079
:101ACC0001F02AF84748484B0826036082235B0044
:101ADC004360E023DB00C36080239B008361F13B08
:101AEC00FF3BC361093B846004614461046244624E
:101AFC008462C3620463466302F09EFD002801D039
:101B0C0072B6FEE7394C3A4BA0602360394B20612A
:101B1C006061A061E061206220006360E56001F01B
:101B2C0067FC011E01D072B6FEE7200001F0FCFF3D
:101B3C00011E01D072B6FEE7200002F01BF8041E55
:101B4C0001D072B6FEE7FFF7A7FE3A00210005A808
:101B5C0007F0CEFF284F294B38003B608023DB0574
:101B6C007B607B1CDC773B002C331D7005237B6377
:101B7C00BB633B003C331D701C233B6464337B64B0
:101B8C0080233C839B05BC60FC603C617E61BD7620
:101B9C00FD617C62BC623C63BC64FB6400F0CAFA0D
:101BAC00002801D072B6FEE7154B0690079005A9E8
:101BBC003800059300F0D4FC002801D072B6FEE783
:101BCC00FFF7ACFCFFF728FCFEE7C0460010024014
:101BDC00608000000004005000080050D80800206D
:101BEC00004400408007002000300140E407002042
:101BFC0000580040BC7D7010680900200024014092
:101C0C0000010020034B026810B59A4201D100F08C
:101C1C0069FA10BD0048014072B6FEE701200A4B7C
:101C2C0082B0196C0143196480211A6C4905024079
:101C3C000092009ADA6B0A43DA63DB6B0B40019378
:101C4C00019B02B07047C0460010024070B5050001
:101C5C0088B01422002103A807F04AFF224B2A68FF
:101C6C009A423FD18020214B4003196C002601433E
:101C7C00196402211A6C02400192019A5A6B1C4899
:101C8C000A435A635B6B05960B400293029B01233C
:101C9C0003935B1803A9049301F0FAF8154C164B47
:101CAC0020002360052363607B33236180336361F1
:101CBC008023DB00A3612023E361C0239B01A6608A
:101CCC00E660236200F06EFFB04201D0FFF7A4FF84
:101CDC0000220C2011002C65A56200F0F3FE0C20F4
:101CEC0000F01AFF08B070BD002401400010024043
:101CFC00000400507C0800203000024010B50400A5
:101D0C008AB01422002105A807F0F2FE2368254AA8
:101D1C00934222D10221244C2448626B0A43626311
:101D2C00636B0B400193019BC0235B0005936F3BDE
:101D3C00FF3B0693002305A90793089306330993E9
:101D4C0001F0A6F88021E26B89030A43E263E36B9E
:101D5C000B400293029B0AB010BD154A9342FAD174
:101D6C000121114CA020626BC0050A436263636BB6
:101D7C000B400393039BC0235B0105931223069333
:101D8C00002305A9079308930633099301F080F803
:101D9C008021E26BC9030A43E263E36B0B400493BB
:101DAC00049BD8E70054004000100240000400508F
:101DBC000058004030B5040089B01422002103A85B
:101DCC0007F096FE1A4B22689A422FD18020194BAD
:101DDC004001196C0225014319641A6C002402405D
:101DEC0001200092009A596B014359635A6B03A965
:101DFC0002400192019A5A6BA0202A435A635B6BF2
:101E0C00C0052B400293029B8023049503930594F9
:101E1C000694079401F03CF80823074803A90393A0
:101E2C00049505940694079401F032F809B030BD7E
:101E3C0000300140001002400004005070B5060054
:101E4C0088B01422002103A807F052FE2D4B3268F3
:101E5C009A4254D180202C4B8002D96B002501432F
:101E6C00D963DA6B02400192019A0122596BA020CE
:101E7C00114359635B6BC00513400293029B0C2307
:101E8C0003A903930A3B049305950695079200F06A
:101E9C00FFFF1E4C1E4B20002360342363604C3329
:101EAC00A560E56023616561A561E561256200F0CF
:101EBC0079FEA84201D0FFF7AFFE164BF467A6627D
:101ECC00154C8022236035236360253BA3600023DF
:101EDC002000E36022616361A361E361236200F08F
:101EEC0061FE002801D0FFF797FE00221C20110094
:101EFC00B467A66200F0E6FD1C2000F00DFE08B0F1
:101F0C0070BDC0460044004000100240CC090020C7
:101F1C00080002401C000240280A002010B50100F5
:101F2C0086B00022162000F0CDFD162000F0F4FD46
:101F3C008020144AC002116C01431164136C694671
:101F4C000340019302A8019B02F08EF902F078F98C
:101F5C000D4C0E4B0E4923600E4BE360FEF7F2F86E
:101F6C0000230138606020002361A36002F0CAFDE9
:101F7C0003000120002B02D1200002F093FC06B0DC
:101F8C0010BDC04600100240840A002000480140E9
:101F9C0040420F00E7030000FEE7FEE77047704782
:101FAC00704710B5202001F02FF810BD10B5024875
:101FBC0000F01AFF10BDC046CC09002010B5034834
:101FCC0000F012FF024800F00FFF10BD280A00209D
:101FDC007C08002010B5024800F016FA10BDC0466F
:101FEC006809002010B5024802F090FC10BDC046F4
:101FFC00840A002010B5024802F00EFF10BDC04646
:10200C00D80800200120704710B507F017FD1623E3
:10201C0003600120404210BD10B507F00FFD1623E0
:10202C000360FEE70B4A0C490300891A0B4A10B5F2
:10203C001068002801D10A4810601068C3188B4240
:10204C0006D907F0FBFC0C2303600120404210BDB5
:10205C001360FCE70004000000200020280300208F
:10206C00E80A0020704700000D488546FFF7FAFF8C
:10207C000C480D490D4A002302E0D458C4500433D7
:10208C00C4188C42F9D30A4A0A4C002301E01360AD
:10209C000432A242FBD307F0D7FCFFF779FCFEE732
:1020AC000020002000000020B4000020C8C200085E
:1020BC00B8000020E40A0020FEE700008023084A54
:1020CC005B00116810B50B4303201360FFF726FF6C
:1020DC00041E03D1FFF7A2FD200010BD0124FBE775
:1020EC0000200240034A044B11681B785B181360F4
:1020FC007047C046D00A00200C000020014B186825
:10210C007047C046D00A002070B50400FFF7F6FFF8
:10211C000500631C02D0044B1B78E418FFF7EEFF9C
:10212C00401BA042FAD370BD0C0000208068400711
:10213C00C00F70470023F0B585B004000125039350
:10214C00984200D1B7E0856D9D4205D1FFF77EFD29
:10215C0023005433E5651D70802326685B05B26847
:10216C001A4200D1AAE0B3680025DB0007D4102383
:10217C000125A26D1343A365E36D2B43E36530008A
:10218C00FFF7D4FF1022A36D1340034300D0D0E01F
:10219C00A36D6A4A1A4002231343A36523689A6805
:1021AC00D20766D4227EA07E9203667E276B94466D
:1021BC004203A168F6030192002F01D080277F0112
:1021CC00E2681143624611433143420311432269D1
:1021DC00002A00DB87E05200560822002C321278CD
:1021EC0052000A43611CC97F3A433243012905D18D
:1021FC00002800D07AE0802149020A43616A002954
:10220C0005D0E02040000140A06A01430A43D96890
:10221C004B48E76C01400A43DA60220061683C32AB
:10222C0012788E0FB60794463743012A09D1606C99
:10223C00226C0243A06C3A43024360463243104383
:10224C0007001A693F48024080203A431A614A004D
:10225C005208C00582420CD080221206914208D04E
:10226C0039483A4E02683240F026B60331401143E9
:10227C000160072070265A69616B82430A435A61D8
:10228C005869A26BB043120102435A612269002AB9
:10229C0034D1986A103A02439A6207225B69134060
:1022AC0099423AD10023E365A36D043A93431A0093
:1022BC0001231343A365280005B0F0BDB26824497F
:1022CC000A401343B360234B23491868FDF73AFFC8
:1022DC00013040000390039B002B00D143E7039B8C
:1022EC00013B0393F7E78026B60376E72020A66D23
:1022FC003043A065E06D0143E1657FE780208003FA
:10230C008242CAD11C209A6AE269013A92000240C8
:10231C002C3890400200206EBDE71222A36D0125DF
:10232C0093431A0010231343A365E36D2B43E3651A
:10233C00C1E7A36D01251A43A265BCE7FDFEFFFFB3
:10234C000102FEFF02FCFF1F08270140FFFFC3FF35
:10235C00E8FFFF6F08000020400D03007047704736
:10236C0010B5806AFFF7FBFF10BD70477047402324
:10237C00806A10B5826D134383650423C26D1343C9
:10238C00C365FFF7F3FF10BD502310B5846AA26D2F
:10239C001A422CD1A26DB133FF331343A365C02372
:1023AC0020681B01C2681A4214D1A37E002B11D1E4
:1023BC0003681B070ED5FFF7B9FE00280ED10C21C0
:1023CC00226853688B435360A36D0E4A1A40012355
:1023DC001343A3652000FFF7C1FF10BD2023A26D9E
:1023EC001343A3650123E26D1343E365F2E7A36D89
:1023FC00DB0603D52000FFF7B9FFEEE7236D5B6B1F
:10240C009847EAE7FEFEFFFFF8B5036804001E6874
:10241C005D6802231E420FD01D420DD0836DDB067A
:10242C0004D48023826D1B0113438365200000F0CC
:10243C0047FB022223681A6004231E4201D01D426E
:10244C0004D108231E422AD01D4228D0A36DDB06DE
:10245C0004D48023A26D9B001343A365C023206882
:10246C001B01C2681A4214D1A37E002B11D1036840
:10247C001B070ED5FFF75AFE002866D10C212268E7
:10248C0053688B435360A36D344A1A4001231343A2
:10249C00A3652000FFF762FF0C2223681A608027D7
:1024AC003E420BD03D4209D08023A26D5B02134308
:1024BC00A3652000FFF759FF23681F6080277F006A
:1024CC003E420BD03D4209D08023A26D9B021343A8
:1024DC00A365200000F0F2FA23681F608027BF007C
:1024EC003E420BD03D4209D08023A26DDB02134348
:1024FC00A365200000F0E3FA23681F6010231E423E
:10250C0017D01D4215D0236B002B03D02368DB683A
:10251C009B070BD08023A26DDB001343A365022322
:10252C00E26D20001343E365FFF720FF10222368C0
:10253C001A608027BF013E4206D03D4204D02000E5
:10254C0000F0BFFA23681F60F8BD2023A26D13436F
:10255C00A3650123E26D1343E3659AE7FEFEFFFFDB
:10256C000023F0B587B00593030054331A780500A7
:10257C000E000220012A00D1C3E001241C7028683F
:10258C00FFF7D4FD002800D0F9E080227368120612
:10259C000193042394462F69019A9F433368022ABE
:1025AC0000D1C2E05903490B2A68029167450FD14B
:1025BC00906A01439162B16854691802734E0140EC
:1025CC003140844321435161002B64DB002095E0B2
:1025DC001F21019F0F40BC460F2761468F40F943D6
:1025EC000391296EB9430F000299002914D1980E5A
:1025FC001F31084061468840019907438908E86902
:10260C0001312F668142D6D864469900090FA1404A
:10261C00906A039C2040CCE72342EBD1022120009E
:10262C000B42E7D1080049180B42E3D101301907DE
:10263C00E0D40130D906DDD401309906DAD401306A
:10264C005906D7D401301906D4D40130D905D1D4C8
:10265C0001309905CED401305905CBD40130190580
:10266C00C8D40130D904C5D401309904C2D4013086
:10267C005904BFD401301904BCD40130D903B9D4E6
:10268C0001309903B6D480211800C90208400B42CE
:10269C00B0D01220AEE7E0243D4A3E4811686404F5
:1026AC000C4083421AD180231B0419428ED111682D
:1026BC003948014021431943384B11601868384997
:1026CC00FDF740FD431C0C2058430590059B002B47
:1026DC0000D17BE7059B013B0593F7E7314883422B
:1026EC0011D18026080076043040314200D06DE7CD
:1026FC001168294B194021430E43166000235435B1
:10270C002B7007B0F0BD2848834200D05EE78023D1
:10271C000800DB031840194200D057E711681E4E21
:10272C00314021430B431360E8E7674505D1286826
:10273C005903826A490B8A438262002B00DB45E70E
:10274C00134A14481168834208D1A02310685B0413
:10275C001940114B03401943116037E7114883426C
:10276C0003D1C02310681B04F2E70F48834200D04A
:10277C002CE7C0204004014013680748EAE72023F7
:10278C00AA6D20001343AB65B8E7C04600FFFF07F6
:10279C0008270140001000B0FFFF3FFE080000209A
:1027AC00400D0300004000B8002000B40023F7B532
:1027BC0004000193036801209A68024201D00020B2
:1027CC00FEBD9968224A114207D01023A26D134313
:1027DC00A365E36D0343E365F2E79A681D4E32404F
:1027EC00104398601C4B1B681B0223D4637E012B87
:1027FC00E5D0FFF783FC01250700226813682B4204
:10280C00DDD193682B4203D1936833402B43936003
:10281C00FFF774FCC01B0228EFD923681B682B42FE
:10282C00EBD11023A26D01201343A365E36D1D436F
:10283C00E565C5E7094B0A491868FDF783FC0130CB
:10284C000190019B002BD1D0019B013B0193F8E738
:10285C0017000080E8FFFF7F0827014008000020D8
:10286C00400D0300F8B5040000680D001600FFF7DA
:10287C005DFC0223002840D1270054373A78012A06
:10288C003BD001223A702368D96811420CD1996867
:10289C00114205D09A681A49114002220A439A60E3
:1028AC000122D9680A43DA602000FFF77FFF031E7C
:1028BC0023D1A26D13491140802252000A43A26514
:1028CC00E065114A206D2168C262104A0263104A09
:1028DC0042631C220A603B704A68103313434B60FE
:1028EC002A003300403100F0BBF903002068044992
:1028FC008268114004220A4382601800F8BDC04669
:10290C00E8FFFF7FFEF0FFFF952300086D23000812
:10291C007B230008036870B50400012099689A684D
:10292C00024201D1002070BD02221142FAD10521D0
:10293C009D680D40012D1FD19968134801400A4331
:10294C009A6003221A60FFF7D9FB060023689B6884
:10295C002B42E7D0FFF7D2FB801B0228F6D9236865
:10296C009B682B42F2D01023A26D01201343A36568
:10297C00E36D1D43E565D6E71023A26D1343A365F4
:10298C00E36D0343E365CEE7E8FFFF7FF0B500237B
:10299C00060085B003935436337804000225012BCE
:1029AC0035D001273770FFF7B5FF2368050099680C
:1029BC000A003A40394200D071E0A16D3A48084013
:1029CC0002210143A165D96838480191D9680140B9
:1029DC00D960374908208C4667469968394080276A
:1029EC003F063943334F99609968002912DA0399ED
:1029FC00013103910399B942F6D91222A36D934385
:102A0C001A0010231343A3650023337001252800FB
:102A1C0005B0F0BD1900B4310F6800917F21013869
:102A2C000F40D2190028D7D101269868204F009961
:102A3C0038403043986008687F21D2088843009959
:102A4C0002430A600222996839400A439A60FFF7F0
:102A5C0055FB07002268936833420FD1164B01983F
:102A6C00D168184003000B43D3600322A36D93433A
:102A7C001E43A665002354342370C8E7FFF73EFBC2
:102A8C00C01B0228E6D923689B683342E2D010238E
:102A9C00A26D1343A365E36D1E43E665B6E71023F1
:102AAC00A26D1343A365E5E7FDFEFFFFFC7FFFFF6F
:102ABC00E8FFFF7FFFF102000380000070477047C2
:102ACC007047704730B5FF2503242A000440E4000A
:102ADC00A24089012940D243A140C3B200280ADB9D
:102AEC00C0240B4B80088000C018A40003591A4066
:102AFC001143015130BD0F200340083B05489B0892
:102B0C009B001B18D86902401143D961F2E7C046FB
:102B1C0000E100E000ED00E0002805DB1F23184079
:102B2C001E3B8340014A13607047C04600E100E041
:102B3C00F0B5846CC56C6560046D002C02D0446DDE
:102B4C00856D65601C25046C084E25400124AC4045
:102B5C0077683C437460046863608368102B02D10F
:102B6C00A260E160F0BDA160E260FBE70000024002
:102B7C0010B50400036C094A9B089B189B00436426
:102B8C0003681421D8B20838FDF7DCFA044BA364AF
:102B9C001F2318401E3B8340E36410BD00820010CD
:102BAC008008024070B504000120002C49D0256833
:102BBC00274B1421E818FDF7C5FA02238000A61D47
:102BCC002064F3772B68234AE16813402B60A368D9
:102BDC002A680B43216920000B4361690B43A169EF
:102BEC000B43E1690B43216A0B4313432B60FFF743
:102BFC00BFFF8023A268DB019A4201D100236360EE
:102C0C003F236268616C13400B60E06CA16C013A6D
:102C1C004860032A16D8104A104899180322013B21
:102C2C001340023A9A40A2651300002289002165E4
:102C3C0060650A60436000200123E0630534F3778C
:102C4C00E07770BD002323656365A365F3E7C04699
:102C5C00F8FFFDBF0F80FFFF3F82001040090240CC
:102C6C00F7B5451D0193EE7F04000220012E34D0F0
:102C7C000138E877A71DFE7FB4466346F6B200968E
:102C8C000026834231D10130F8772568E663286845
:102C9C00009B98432860019B2000FFF749FF226BA3
:102CAC002368B2421AD00E2219680A431A60626C69
:102CBC001168C90304D580211068490001431160D3
:102CCC00226D002A04D08021106849000143116054
:102CDC000122002019680A431A60FEBD04211A68FB
:102CEC008A431A6019680A22DFE78023E363EE77D0
:102CFC00F3E700000300F0B50120002B09D0981D6C
:102D0C00C27F5C1D022A05D00422DA630023012055
:102D1C00E377F0BD0E2519685E6C0A68AA430A6059
:102D2C003268114D2A40326001220E689446964357
:102D3C000E601C211A6C0D4E114062468A40776859
:102D4C003A437260D96C9A6C51601A6D002A05D0A6
:102D5C001168294011605A6D9B6D53600123C37734
:102D6C000020E077D5E7C046FFFEFFFF00000240E1
:102D7C00F8B5811DCB7F022B04D00423C363033B26
:102D8C001800F8BD0E240268154D1368076CA34398
:102D9C001360012314689C431460446C22682A401D
:102DAC0022601C243C40A3400E4A566833435360B7
:102DBC00C26C836C5A60036D002B05D01A682A40D4
:102DCC001A60436D826D5A6001230024CB77431D3A
:102DDC00DC77826B1300A242D2D090472300CFE75E
:102DEC00FFFEFFFF00000240F8B51C210427046C15
:102DFC00264B21403C008C401E6802681568264218
:102E0C000FD03D420DD01168890602D41168B94328
:102E1C0011605A6814435C60036B002B1BD09847FD
:102E2C0019E002273C008C40264215D03D4213D0BD
:102E3C001168890606D40A251168A943116001217D
:102E4C00821DD1775A68144300225C60431DDA77E7
:102E5C00C36A9342E3D1F8BD082427008F403E4259
:102E6C00F9D02542F7D00E251468AC43146001222A
:102E7C0015008D4029005C6821435960831DC26395
:102E8C00DA770022431DDA77436BE2E70000024059
:102E9C000023F0B585B00A681400DC4001D105B000
:102EAC00F0BD012514009D402C4001942A4200D114
:102EBC008EE04A685E009446032264462240032456
:102ECC00B440E4430294541E012C2AD88768029C17
:102EDC002740CC68B4403C43846044680127AC4331
:102EEC002500644624093C409C402C434460C56842
:102EFC00029C25408C68B4402C43C460022A12D139
:102F0C00DC080725A4000419276A03940F241D402C
:102F1C00AD00AC40A7430C69AC402743039C27622F
:102F2C0001E0032AE3D10468029DB24025402C0045
:102F3C0014430460C0246246A402224248D0254AAD
:102F4C0003259C08A400A4180F221D40ED00AA40E4
:102F5C00A027266EFF0596430022B8420CD01E4FC8
:102F6C000132B84208D01D4F0132B84204D01C4F78
:102F7C000132B84200D00232AA4067463243226680
:102F8C00144C019A2668019DD2433543FF0201D4AB
:102F9C0035001540674625606668019D3543BF02C4
:102FAC0001D435001540674665600E4C019DE66FF7
:102FBC003543BF0301D4350015406746E5670A4C1D
:102FCC00019EE56F2E43FF0301D415402E00E667EA
:102FDC00013360E700180240000400500008005064
:102FEC00000C005008180240041802400069084008
:102FFC00411E8841C0B27047002A01D081617047E0
:10300C008162FCE77047000070B5084D0400EB6866
:10301C00184202D0E860FFF7F5FF2B69234203D07A
:10302C0020002C61FEF7D4FB70BDC0460018024096
:10303C0003689A69920701D500229A620122996964
:10304C00114202D199690A439A61704730B5039CC9
:10305C0000682343120489051A43890D054B456802
:10306C000A43640D1C435200A54352082A43426094
:10307C0030BDC046FF63FF03F0B585B00292026815
:10308C000191916910230F00040000251F40194283
:10309C0008D02026D36123689A6932426ED1002D64
:1030AC002FD004278021236849009A690A4202D054
:1030BC000125D9612F438021C9000A4203D0082081
:1030CC0001250743D961802189000A425CD0022284
:1030DC00D96117432000FFF7ABFF22682D495368D5
:1030EC0001250B405360636C20221F4323004133A6
:1030FC0067641A702200002342324034137023702C
:10310C0044E0019A0132C7D0FEF7F8FF029BC01AC7
:10311C00019B984201D8002BBDD12200802742325E
:10312C0023680392586811789A693F02C9B23A42EF
:10313C000BD08022D201104207D1202905D059682A
:10314C000A435A60FEF7DAFF029023689B691F005E
:10315C00374033429FD1FEF7D1FF029BC01A19288A
:10316C00F3D9636C012533436364230041331E7030
:10317C00039B1F70230040331F70E6E70427002DCC
:10318C0090D1DE6101358DE7002DA3D1280005B06B
:10319C00F0BDC04600E800FEF8B504000D001600B6
:1031AC00042723689B693B4211D13200290020007F
:1031BC00FFF762FF002824D1202123689A690A4274
:1031CC0023D09A693A4204D0228D002A01D00020E3
:1031DC00F8BD9969102208001040114213D0DA6131
:1031EC000C3A62642021D9615A68104802405A6036
:1031FC0023002200413319700023423213704034F3
:10320C0023700120E4E76064ECE7FEF777FF801B96
:10321C00A84201D8002DC4D12022636C13436364EF
:10322C00230041331A7040340023E9E700E800FE24
:10323C00F8B504000D001600022723689B693B4279
:10324C0001D00020F8BD320029002000FFF714FF48
:10325C00002815D16B1CF0D0FEF750FF801BA84244
:10326C0001D8002DE9D12022636C13436364230041
:10327C0041331A7022000023423240341370237001
:10328C000120DFE7F8B504000D00160020272368A5
:10329C009B693B4201D00020F8BD32002900200080
:1032AC00FFF7EAFE002813D1FEF728FF801BA84287
:1032BC0001D8002DEBD12022636C134363642300EF
:1032CC0041331A70220000234232403413702370B1
:1032DC000120E1E7F8B504000E0017001D0022687C
:1032EC00936933409B1B59424B41BB4201D0002098
:1032FC0017E06B1CF4D0FEF701FF069BC01AA84226
:10330C0001D8002DEBD12022636C012013436364A0
:10331C00230041331A7022000023423240341370D0
:10332C002370F8BDF7B514001E00DAB2164B050079
:10333C0000938023089F5B04FFF788FE3900280068
:10334C00099AFFF775FF002801D00120FEBD2B68FC
:10335C00012E0DD1E4B29C62099B002200938021C6
:10336C003B002800FFF7B6FF431E9841C0B2EDE7C3
:10337C00220A9A6239002800099AFFF759FF00289F
:10338C00E3D12B68E6E7C04600200080F7B50500C6
:10339C0014001E00DAB2154B089F00930023FFF7B0
:1033AC0055FE39002800099AFFF742FF002801D08A
:1033BC000120FEBD2B68012E0DD1E4B29C62099B4D
:1033CC000022009340213B002800FFF783FF431E9F
:1033DC009841C0B2EDE7220A9A6239002800099A96
:1033EC00FFF726FF0028E3D12B68E6E700200080DA
:1033FC0070B504000120002C3FD0250041352B78FE
:10340C00DAB2002B05D12300403320001A70FEF7EE
:10341C0075FC242301212B702368E0681A68A668C8
:10342C008A431A6061681A4A0A401A619968194AF3
:10343C0011409960012821D1802109023143996002
:10344C005868154901435960D96800200A40DA6070
:10345C00616922690A43A16909020A43DA60216A97
:10346C00E2690A431A60012219680A431A60202390
:10347C0060642B7020634234207070BD842109027B
:10348C00314399600228DBD1802109015960D7E7CB
:10349C00FFFFFFF0FF7FFFFF00800002F0B587B059
:1034AC00059303004133049203931B7804000F002F
:1034BC000220202B14D1230040331A78012A0FD07C
:1034CC0001261E70FEF71AFE8021050000901923BC
:1034DC00320020000902FFF7FDFE002802D0012077
:1034EC0007B0F0BD21232600039A42361370113B1E
:1034FC003370049B60646362059B60636385628DBB
:10350C002D4BFF2A20D9FF222285009380235B04B8
:10351C0039002000FFF79AFD638D2A0020000C99DA
:10352C00002B19D1FFF7AEFE0028D8D1202123683B
:10353C00224DD9615A682A405A60230040344133E5
:10354C00197030702070CBE7628D92B22285D2B2A6
:10355C00009380239B04DBE7FFF76AFE0028BED1B3
:10356C00636A22681978013391626362638D228DDC
:10357C00013B9BB26385013A638D92B22285002B8D
:10358C00CAD0002AC8D1802120000C9B0095FFF7DF
:10359C00A1FE0028A3D1638DFF2B06D9FF23238521
:1035AC008023FF2200905B04B2E7628D92B22285E9
:1035BC00D2B20090CDE7C0460020008000E800FEAB
:1035CC00F0B587B0059303004133049203931B7845
:1035DC0004000F000220202B14D1230040331A7852
:1035EC00012A0FD001261E70FEF788FD80210500F0
:1035FC0000901923320020000902FFF76BFE00280F
:10360C0002D0012007B0F0BD22232600039A4236D7
:10361C001370123B3370049B60646362059B6063A0
:10362C006385628D2D4BFF2A20D9FF2222850093C2
:10363C0080235B0439002000FFF708FD638D2A000E
:10364C0020000C99002B19D1FFF71CFE0028D8D1B3
:10365C0020212368224DD9615A682A405A602300E0
:10366C0040344133197030702070CBE7628D92B2C8
:10367C002285D2B2009380239B04DBE7FFF78CFDFD
:10368C000028BED12368626A5B6A1370636A228D5C
:10369C0001336362638D013A013B9BB26385638D99
:1036AC0092B22285002BC9D0002AC7D180212000DC
:1036BC000C9B0095FFF70EFE0028A2D1638DFF2B0B
:1036CC0006D9FF2323858023FF2200905B04B1E7FA
:1036DC00628D92B22285D2B20090CCE70024008099
:1036EC0000E800FEF0B589B007930EAB069204CB50
:1036FC0004001B88039204930300413305931B7849
:10370C000F000220202B08D1002A02D0049B002B92
:10371C0005D180239B006364012009B0F0BD230018
:10372C00403302931B780220012BF6D00122029B1E
:10373C001A70FEF7E3FC802100900500192301228A
:10374C0020000902FFF7C6FD061EE5D12123059ACC
:10375C00390013702300423305934023059A1370EC
:10376C00039B60646362049B60636385109B200011
:10377C000093069A079B0195FFF7D4FD002802D011
:10378C00029B1E70C8E7638DFF2B54D9FF22802348
:10379C0022855B040090390020008026FFF756FC40
:1037AC00B6042A0020001099FFF742FD0028B3D17F
:1037BC00636A22681978013391626362638D228D8A
:1037CC00013B9BB26385013A638D92B22285002B3B
:1037DC0017D0002A15D180212000109B0095FFF7EF
:1037EC0079FD002800D097E7638DFF2B2BD9FF23A1
:1037FC0023858023FF2200905B0439002000FFF713
:10380C0025FC638D002BCCD12A0020001099FFF7EA
:10381C0039FD002800D07FE7202123680D4DD961A8
:10382C005A682A405A60230041331970059B403472
:10383C001870207071E78023628D9B0492B22285F0
:10384C00D2B20090A7E7628D330092B22285D2B239
:10385C000090D2E700E800FEF0B58BB0099310ABF6
:10386C00089204CB04001B88059206930300413395
:10387C0007931B780D000220202B08D1002A02D0C0
:10388C00069B002B05D180239B00636401200BB0A9
:10389C00F0BD2300403304931B780220012BF6D09B
:1038AC000127049B1F70FEF729FC802103900090D8
:1038BC0019233A0020000902FFF70CFD061EE5D182
:1038CC002223079A290013702300423307934023C5
:1038DC00079A1370059B60646362069B6063638543
:1038EC00039B20000193129B089A0093099BFFF7FE
:1038FC004DFD002802D0049B1E70C7E7628D364B2D
:10390C00FF2A59D9FF222285009380235B042900CA
:10391C0020008026FFF79AFBFF27B604039B0022AA
:10392C00009304212000129BFFF7D4FC0028ADD19A
:10393C002368626A5B6A1370636A228D0133636267
:10394C00638D013A013B9BB26385638D92B22285F4
:10395C00002B17D0002A15D1039B80210093200047
:10396C00129BFFF7B7FC002800D08FE7638DFF2B6D
:10397C002AD98023FF2227855B0400902900200090
:10398C00FFF764FB638D002BC8D12000039A1299BA
:10399C00FFF778FC002800D078E7202123680F4D32
:1039AC00D9615A682A405A60230041331970079B29
:1039BC004034187020706AE7628D92B222850093B1
:1039CC008023D2B29B04A2E7628D330092B222858F
:1039DC00D2B20090D2E7C0460024008000E800FE7E
:1039EC00F0B589B005921E00020000234132079306
:1039FC00137804000225202B5CD10368986980237E
:103A0C0007001B021F40184254D12000403003789D
:103A1C00012B4FD0012303702420890510708A0DCF
:103A2C00676404920393E368012B2BD13D4B049AFA
:103A3C00134322685360FEF761FB02902368039ADC
:103A4C009D699B696D091B09154013401D431CD0D2
:103A5C00236810279B691A003A403B422DD1029BE8
:103A6C002021009320003300FFF734FC002821D1E3
:103A7C00202322680500D3612200403441321370A8
:103A8C00207017E0A0239B01D1E7731CD6D0FEF762
:103A9C0035FB029BC01AB04201D8002ECED12200B9
:103AAC00202341321370626C01251343636400239D
:103ABC0040342370280009B0F0BD029B0022009313
:103ACC00202133002000FFF705FC021EF2D12368F1
:103ADC000598DF612027DF61079981420FD1802192
:103AEC005868C90101435960029B390000932000BA
:103AFC003300FFF7EFFB0028DCD12368DF61079B65
:103B0C00059A01330793079B934200D28BE722005F
:103B1C00202341321370626C4034134363600023E2
:103B2C002370C7E700200002F0B50400413422786E
:103B3C0003000F000220D6B2202A18D11D004035F8
:103B4C002A78012A13D0242222701B68233A196880
:103B5C0007489143196019680140002019601968E1
:103B6C003943196019680A431A6026702870F0BD31
:103B7C00FFEFFFFF0200F0B5413214780300E5B20D
:103B8C000220202C17D11C0040342678012E12D094
:103B9C00223010701B6823381E68074F86431E6046
:103BAC001E6809023E4031431960196808431860C9
:103BBC00002015702070F0BDFFF0FFFF10B5114C08
:103BCC001149236802000B4003432360802300202B
:103BDC009B009A420ED10D4B0D4918680623584391
:103BEC00FCF7B0FA8022431CD20061690800104037
:103BFC00114200D110BD002B01D0013BF5E7032091
:103C0C00F8E7C04600700040FFF9FFFF08000020F5
:103C1C0040420F00F0B5040085B0002823D00368A3
:103C2C00DB0710D423689B075ED423681B0700D5E1
:103C3C00C3E023685B0700D5F5E0E269002A00D0F9
:103C4C007CE1002029E03822B04DAB681340EA68D3
:103C5C00102B0AD1D243930709D12B689B03E1D5D2
:103C6C006368002BDED1012017E0082BF5D08022F1
:103C7C0063685202934212D12A6813432B60FEF7F9
:103C8C003DFA80270600BF022B683B42CAD1FEF7E3
:103C9C0035FA801B6428F7D9032005B0F0BDA021AC
:103CAC00C9028B4208D180232968DB020B432B60AD
:103CBC002B681A432A60E2E72A6895490A402A6071
:103CCC002A6894490A402A60002BD8D1FEF716FACC
:103CDC0080270600BF022B683B42A3D0FEF70EFAEA
:103CEC00801B6428F7D9D7E73823884DAA6813407E
:103CFC00EA68102B28D103210A40022A26D12A680F
:103D0C00520502D5E268002AADD069686269824822
:103D1C00120201400A436A60002B0DD12B687F4AC6
:103D2C001340226913432B602B687D4A9B045B0F65
:103D3C00DA4013007B4A13607B4B1868FEF7EEF8F1
:103D4C00002800D171E78EE7002BD8D0E368002B58
:103D5C0020D02B68714A802713402269FF0013433F
:103D6C002B6080232A685B0013432B60FEF7C6F997
:103D7C0006002B683B4207D06A68636966491B02E0
:103D8C000A4013436B6050E7FEF7B8F9801B02281A
:103D9C00EFD981E72B68654A802713402B60FEF72B
:103DAC00ADF90600FF002B683B4200D13DE7FEF762
:103DBC00A5F9801B0228F6D96EE73821534B9A6877
:103DCC001D000A40182A08D11B6E9B0700D430E74F
:103DDC00A369002B00D02CE745E7A2690123002A38
:103DEC0010D02A6E022713432B66FEF787F90600C4
:103DFC002B6E3B4200D01CE7FEF780F9801B02289B
:103E0C00F6D949E72A6E02279A432A66FEF776F915
:103E1C0006002B6E3B4200D10BE7FEF76FF9801BBF
:103E2C000228F6D938E73821384B9A681D000A4029
:103E3C00202A08D1DB6D9B0700D4FEE6A368002B7B
:103E4C0000D0FAE60FE780220021DB6B52050091CF
:103E5C00134208D1EB6B1343EB63EB6B13400393EF
:103E6C00039B012300938027314E7F0033683B4234
:103E7C0015D0A368012B22D1EA6D1343EB65FEF735
:103E8C003DF902270600EB6D3B4238D0009B012B1D
:103E9C0000D0D2E6EB6B274A1340EB63CDE63368D8
:103EAC003B433360FEF72AF9019033683B42E0D183
:103EBC00FEF724F9019BC01A0228F6D9ECE6EA6D4C
:103ECC00052B05D1013B1343EB65EA6D0123D4E7C8
:103EDC0001218A43EA65EA6D03318A43EA65002BC6
:103EEC00CDD1FEF70BF902270600EB6D3B42CDD08E
:103EFC00FEF704F9104B801B9842F6D9CCE6FEF77E
:103F0C00FDF80D4B801B9842BDD9C5E60010024050
:103F1C00FFFFFEFFFFFFFBFFFF80FFFFFFC7FFFF61
:103F2C000024F4000800002010000020FFFEFFFF1A
:103F3C0000700040FFFFFFEF881300003820434B58
:103F4C0099681D000140102952D01B6840490B4054
:103F5C002B60022A37D1FEF7D1F880270600BF0468
:103F6C002B683B4229D1616A236AEA680B433949C1
:103F7C0080260A401343E26AB6041343226B1343B0
:103F8C00626B1343A26A12021343EB6080232A680C
:103F9C005B0413432B608023EA685B051343EB60DF
:103FAC00FEF7ACF804002B68334200D049E6FEF76C
:103FBC00A5F8001B0228F6D96EE6FEF79FF8801BC9
:103FCC000228CDD968E6FEF799F880260400B604DD
:103FDC002B6818003040334204D1EB681E4A134062
:103FEC00EB605AE6FEF78AF8001B0228F0D953E67C
:103FFC00012A00D137E60322DB68216A1A408A4283
:10400C0000D030E67022616A1A408A4200D02AE65B
:10401C00FE21A26AC90119401202914200D022E687
:10402C00F822E16A92031A408A4200D01BE6E02291
:10403C00216B12051A408A4200D014E6626B5B0FAA
:10404C005B07934200D1FCE50DE6C0460010024030
:10405C00FFFFFFFE8C80C111FCFFFEEE38231E4AD1
:10406C0070B591681400194205D113681B489B0464
:10407C005B0FD84070BD91681940082927D0916812
:10408C001940102917D1D368D168DB437F22E5682A
:10409C004906490F2D0A013115409B0709D11048DB
:1040AC00FCF750F8E1686843490F0131FCF74AF816
:1040BC00E0E70A48F4E791681940202909D0926892
:1040CC0000201340182BD5D1FA20C001D2E70448A8
:1040DC00D0E780200002CDE7001002400024F4005D
:1040EC0000127A00F7B505000E00002801D101205E
:1040FC00FEBD07274A4C23683B408B422AD32968D4
:10410C008B073BD4CB0748D4072723683B40B342EB
:10411C000AD92368BB4333432360FDF7EFFF0190BB
:10412C0023683B40B3426BD12B683E4C5B076FD48A
:10413C00FFF794FFA3683C4A1B051B0F9B009B5881
:10414C001F221340D840394B1860394B1868FDF7C3
:10415C00E5FECDE72368BB430B432360FDF7CEFFA1
:10416C00019023683B40B342C9D0FDF7C7FF019BC8
:10417C00C01A304B9842F4D90320B9E7294A4B07AF
:10418C0004D5E0239068DB010343936093682A48CD
:10419C000340A86803439360B4E76A68214F012A7F
:1041AC0019D13B689B03A2D50721BB688B431343F2
:1041BC00BB60FDF7A3FF01903823BA681A406B6807
:1041CC00DB009A42A0D0FDF799FF019BC01A194B56
:1041DC009842F1D9D0E7022A03D13B689B01E3D482
:1041EC0085E7002A03D13B685B05DDD47FE702231A
:1041FC00032A03D1396E1942D6D178E7F96DFAE763
:10420C00FDF77CFF019BC01A0A4B984288D9B3E793
:10421C00A3680A4A1340EA681343A36088E7C046C0
:10422C000020024000100240F0B3000808000020FB
:10423C001000002088130000FFF0FFFFFF8FFFFF2E
:10424C00064B074A9B685B045B0F9B009B581F2225
:10425C001340044A1068D8407047C0460010024012
:10426C0030B4000808000020072230B5F025094BB7
:10427C0002609C682D01144044609C682C40846052
:10428C00E0249B68E4012340C360034B1B6813408C
:10429C000B6030BD0010024000200240F0B505005C
:1042AC002B68002085B09B033CD58022604C5205C6
:1042BC00E36B0090134208D1E36B1343E363E36BAE
:1042CC0013400393039B012300938027594E7F00D7
:1042DC0033683B433360FDF711FF019033683B4279
:1042EC0012D0E26DC02311009B00534E19401A42AC
:1042FC0003D06B6A994200D07AE0E36D00201E4037
:10430C006B6A1E43E66506E0FDF7F8FE019BC01ADA
:10431C000228E3D90320009B012B03D1E36B474A0E
:10432C001340E3632B68DA0706D5032440494A6D32
:10433C00A2436C6822434A65DA0606D53C49404CD8
:10434C004A6D2240AC6822434A659A0506D5384925
:10435C003C4C4A6D22406C6922434A655A0506D58D
:10436C003349394C4A6D2240AC6922434A659A065E
:10437C0006D52F49354C4A6D2240EC6822434A65DC
:10438C005A040FD52A49EC694A6D920092082243CF
:10439C004A658022D205944204D18022CC68520214
:1043AC002243CA609A020FD52149294E4A6D2C6AC4
:1043BC00324022434A658022D203944204D18022A7
:1043CC00CC6852042243CA601B050FD5184A214CF5
:1043DC00536D296923400B4353658023DB019942BC
:1043EC0004D18023D1685B020B43D36005B0F0BDD0
:1043FC008023E26DE06D11005B020343E365E36D26
:10440C00154831400340E365E165D30700D474E7F8
:10441C00FDF774FE07000222E36D134200D06CE737
:10442C00FDF76CFE0D4BC01B9842F4D972E7C046E9
:10443C000010024000700040FFFCFFFFFFFFFFEF89
:10444C00FFF3FFFFFFFFF3FFFFFFCFFFFFCFFFFFE8
:10445C00FFFFBFFFFF3FFFFFFFFFFEFF88130000C2
:10446C00F0B50E0085B015000400FDF747FEAD1940
:10447C002D1AFDF743FE8027254B01901B685B012D
:10448C001B0D6B43039322689368180038403B4222
:10449C0032D0731CF8D0FDF731FE019BC01AA84234
:1044AC002CD3E02123685A688A435A6082226168BF
:1044BC00520091420CD18021A26809028A4203D099
:1044CC008021C9008A4203D140211A688A431A60AC
:1044DC008021A26A89018A4206D119680D480140DF
:1044EC00196019680A431A60230001225D331A709F
:1044FC00002303205C34237005B0F0BD039B5A1ECF
:10450C0093415B421D40039B013B0393BBE7C046B9
:10451C0008000020FFDFFFFFF0B51700002285B078
:10452C001D0002ABDA7004000E00FDF7E7FDED197B
:10453C002D1AFDF7E3FD23222368009001932A4BEB
:10454C001B6853431B0D6B430393216802ABDA1CAE
:10455C008B681800304033423BD0C023DB009E42B6
:10456C0004D1019B1B7BDBB2137013787B1CEFD047
:10457C00FDF7C4FD009BC01AA8422CD3E021236890
:10458C005A688A435A6082226168520091420CD167
:10459C008021A26809028A4203D08021C9008A4284
:1045AC0003D140211A688A431A608021A26A8901CA
:1045BC008A4206D119680D480140196019680A43EE
:1045CC001A60230001225D331A70002303205C342F
:1045DC00237005B0F0BD039B5A1E93415B421D40F6
:1045EC00039B013BB0E7C04608000020FFDFFFFF44
:1045FC0070B513000D0016000A00C021490104001B
:10460C00FFF78AFF002805D02023226E03201343D6
:10461C0023660FE0320029002000FFF721FF00285D
:10462C00F2D1C02133002A002000C900FFF774FF2B
:10463C000028E9D170BD0000F8B504000120002C61
:10464C0067D0636A002B65D1822261685200914267
:10465C0000D0E36100232500A3625D352B78DAB22C
:10466C00002B05D123005C3320001A70FDF7A2FB50
:10467C00022340212B702268E56813688B43E021EC
:10468C001360C90000238D4248D8802040018D4220
:10469C0000D0A362822366685B0033408426A7683F
:1046AC0036023E40334302262769A1693E4033431C
:1046BC0001266769B44637403B438027BF000F4053
:1046CC003B433827E669090C37403B438027266A71
:1046DC0037403B438027A66ABF0137403B431360FA
:1046EC0010230827666A3340666B37403B43F0273C
:1046FC003F013D401D4304231940294308435060AA
:10470C00D369084900200B40D361634620665D34B1
:10471C002370F8BD0023236163619BE7F02118002F
:10472C000901B4E7FFF7FFFFF0B51E00030085B0E9
:10473C005C3301931B7804000D0017000220012B41
:10474C0000D17DE00123019A1370FDF7D7FC230003
:10475C0000905D331A78D0B2012A00D09FE0002D72
:10476C0068D0002F66D002321A700023A21D236677
:10477C002364A563A787E78702329387D3872365D2
:10478C00E3648023A16822681B02994208D140216E
:10479C0013688B43136080231168DB010B43136098
:1047AC0040231168194202D111680B431360E021B8
:1047BC00E0686368C900884244D9002B01D0012FFE
:1047CC0007D12B880235D360E38FA563013B9BB2E5
:1047DC00E38702250CE0226893682B4221D0A36B5F
:1047EC0019880233D160A363E38F013B9BB2E3874B
:1047FC00E38F002BEFD131002000009AFFF7F8FE79
:10480C00002849D1A368002B06D103932368DA68EA
:10481C0003929B680393039B206E431E9841C0B286
:10482C0008E0FDF76BFC009BC01AB042E0D3731C90
:10483C00DED0032001235D3423700023019A137012
:10484C0005B0F0BD002B01D0012F08D12B781373CC
:10485C00A36B0133A363E38F013B9BB2E387022578
:10486C000DE023689A682A420DD0A26B12781A7355
:10487C00A36B0133A363E38F013B9BB2E387E38F0D
:10488C00002BEED1B7E7FDF739FC009BC01AB04204
:10489C00F5D3731CF3D0CCE720232366B2E70220B8
:1048AC00C8E770470200030001203D3211788142B5
:1048BC001CD1022111701B68DA680243DA600E4ABF
:1048CC00934206D08022D205934202D00B4A9342E7
:1048DC000DD19A680A4900200A40062A06D00739E9
:1048EC008A4203D0012219680A431A6070471A6879
:1048FC00104318600020F9E7002C01400004004030
:10490C000700010070477047704770470222036828
:10491C0010B51969040011420ED0D96811420BD0A0
:10492C00053A1A61043202779B699B0700D186E035
:10493C00FFF7E9FF0023237704222368196911424A
:10494C0011D0D96811420ED0093A1A610732227778
:10495C009A69C0239B0020001A4200D175E0FFF732
:10496C00D2FF0023237708222368196911420ED045
:10497C00D96811420BD0113A1A610D322277DB69DA
:10498C0020009B0767D0FFF7BEFF00232377102280
:10499C0023681969114210D0D96811420DD0213AFF
:1049AC001A6119322277DA69C0239B0020001A425F
:1049BC0057D0FFF7A8FF002323770122236819693A
:1049CC00114207D0D968114204D0033A20001A6171
:1049DC00FDF718F9802223681969114208D0D968AB
:1049EC00114205D0023AFF3A20001A6100F0B5F8E6
:1049FC0023681A69D20507D5DA68120604D51C4A51
:104A0C0020001A6100F0AAF84022236819691142AB
:104A1C0007D0D968114204D0813A20001A61FFF7FF
:104A2C0074FF202223681969114207D0D9681142FA
:104A3C0004D0413A20001A6100F08EF810BDFFF747
:104A4C0061FF2000FFF760FF74E7FFF75BFF2000BA
:104A5C00FFF75AFF85E7FFF755FF2000FFF754FFDC
:104A6C0093E7FFF74FFF2000FFF74EFFA3E7C04689
:104A7C00FFFEFFFF1D4A10B50368904206D080244C
:104A8C00E405A04202D01A4CA0420CD17024A343DE
:104A9C004C68234390420FD08024E405A0420BD0F5
:104AAC00134CA04208D0134CA04205D0124CA0428B
:104ABC0002D0124CA04203D1114C2340CC682343AA
:104ACC008024A3434C69234303608B68C3620B6847
:104ADC008362904205D0084B984202D0074B984213
:104AEC0001D10B6903630123436110BD002C01400C
:104AFC0000040040002000400044014000480140F8
:104B0C00FFFCFFFF70B504000120002C23D0250012
:104B1C003D352B78DAB2002B05D123003C33200035
:104B2C001A70FFF7BEFE02232B702068211DFFF7C1
:104B3C00A1FF2200012300204832137047340A3AA7
:104B4C00137053709370D370137153719371D3713D
:104B5C00137223702B7070BD704770477047000044
:104B6C0030B5EFF31084012282F310880168134DE5
:104B7C000B682B400B6084F31088EFF3108182F3E9
:104B8C00108802680E4C93682340936081F3108860
:104B9C00C36E012B0AD1EFF3108183F3108810241C
:104BAC0002681368A343136081F31088030020226A
:104BBC0088331A600023C366036730BDDFFEFFFF36
:104BCC00FEFFFFEF30B5EFF31084012282F3108863
:104BDC00802501680B68AB430B6084F31088EFF3FE
:104BEC00108182F31088402302681068034313601D
:104BFC0081F3108830BD03000833DB6F10B5212B17
:104C0C0006D1020056321388002B02D1FFF7DAFFCF
:104C1C0010BD036D01681C7801338C620365138829
:104C2C00013B9BB21380F3E703000833DB6F10B535
:104C3C00212B06D1010056310B88002B02D1FFF736
:104C4C00C1FF10BD026D046813880232DB05DB0D59
:104C5C00A36202650B88013B9BB20B80F1E700005D
:104C6C0030B5EFF31084012282F310880168094DEE
:104C7C008B682B408B6084F31088EFF3108182F3E8
:104C8C0010884023026810680343136081F3108876
:104C9C0030BDC046FFFF7FFF03000833DB6F70B5EC
:104CAC00212B0CD10300010080246A331B88563160
:104CBC00002B04D00A88002A02D1FFF7D1FF70BD67
:104CCC000568EA69224208D0026D16780132AE629C
:104CDC0002650A88013A92B20A80013B9BB2E7E76F
:104CEC0003000833DB6F70B5212B0CD103000100DE
:104CFC0080246A331B885631002B04D00A88002A82
:104D0C0002D1FFF7ADFF70BD0668F26922420AD0EE
:104D1C00056D2A880235D205D20DB26205650A8866
:104D2C00013A92B20A80013B9BB2E5E7F0B506006E
:104D3C000836F46F03000220202C41D101380029E1
:104D4C003ED0002A3CD080209D684001854206D18F
:104D5C001869002803D11F3C2000214230D11C00CF
:104D6C00803427780220012F2AD001382070196551
:104D7C00190054310A804A801A0000218C321160CB
:104D8C0021228021F2678022586E920549019042BF
:104D9C0017D1164A8D4203D11969002900D1144A42
:104DAC0000205A672070EFF31081012282F31088E3
:104DBC001A68802394681B042343936081F3108842
:104DCC00F0BD0C4A8D4203D11969002900D10A4A61
:104DDC0000205A672070EFF31081012282F31088B3
:104DEC001A688023146823431360E7E7A54C000876
:104DFC00ED4C0008034C0008354C00087047806AE5
:104E0C000023020010B55E321380083A1380FFF7BE
:104E1C00F5FF10BD70470000F7B50168C14DCB69B7
:104E2C0004000A6888682B4210D120252B4200D13F
:104E3C0099E08026760515400640354300D192E076
:104E4C00236F2000002B00D082E082E0B64D05409D
:104E5C00AC466646B54D1540354300D183E001257F
:104E6C002B4207D0D60505D526000D628C36376847
:104E7C003D433560250002268C350195334207D021
:104E8C00C50705D5019D0E622F68B6193E432E60ED
:104E9C000426334209D0C50707D527000E628C378C
:104EAC003E68350002262E433E60082633420AD067
:104EBC002027654617402F4305D027000E628C37FC
:104ECC003D682E433E60802726003F018C363B42D6
:104EDC0006D0550104D50F62202137683943316063
:104EEC003168002935D020210B420AD01140802294
:104EFC0052051040014304D0236F002B01D0200039
:104F0C0098472268019B40271B68966828223E40E0
:104F1C00134020001E4321D0FFF722FE23689B681C
:104F2C003B4217D0EFF31081012383F310882268E2
:104F3C009368BB43936081F31088E06F002809D01D
:104F4C007B4B8363FDF714FF002802D0E06F836B6B
:104F5C009847F7BD2000FFF751FFFAE7FFF74EFF28
:104F6C00019B1E60F5E7E56E012D00D098E0102640
:104F7C00334200D194E0324200D191E00E628B6852
:104F8C00402218001040134252D0E36F19684B684E
:104F9C009BB2002BDDD020005C3000889842D8D921
:104FAC0020005E300380096820230800184001901F
:104FBC00194231D1EFF3108785F3108820685D4ECC
:104FCC0001683140016087F31088EFF3108785F397
:104FDC00108820688168A943816087F31088EFF3FB
:104FEC00108085F3108821688F6897438F6080F359
:104FFC001088220088321360019BE366EFF3108166
:10500C0085F310881020226813688343136081F3A2
:10501C001088E06FFDF76EFE230022005E335C32D9
:10502C001B881188C91A89B22000FFF7F3FE90E79C
:10503C0022005E32138812889BB2002A00D188E7C6
:10504C0022005C321188C91A89B2002900D180E78C
:10505C00EFF3108785F310882268374E13683340BE
:10506C00136087F31088EFF3108785F3108822689C
:10507C00324E93683340936087F3108823002022CC
:10508C0088331A60E0662067EFF3108085F3108890
:10509C00102522681368AB43136080F31088C3E7B4
:1050AC0080256D032B4206D0460204D520000D62EC
:1050BC0000F0FAFD4DE780210B4207D080252D042E
:1050CC0011402840084301D0636FBAE640210B42DF
:1050DC0016D00A4214D0EFF31080012383F310880A
:1050EC00226813688B43136080F3108823002022FE
:1050FC000833DA67002320006367FCF7DBF828E746
:10510C00190205D5510003D5200000F0CFFD20E792
:10511C00DB0100D41DE7002A00DB1AE7200000F0B9
:10512C00C4FD16E70F080000010000102001000468
:10513C000B4E0008FFFEFFFFDFFEFFFFFEFFFFEF41
:10514C0070B5EFF31084012282F310880168194DB9
:10515C000B682B400B6084F31088EFF3108482F300
:10516C00108801688B6893438B6084F3108803006C
:10517C001F3288331A600022C36E0267012B16D1CE
:10518C00C266EFF3108483F3108801680F330A684A
:10519C009A430A6084F310880268D169194200D0DE
:1051AC00136203005C331988FFF734FE70BDFCF703
:1051BC0087F8FBE7DFFEFFFF030088331A6810B5A2
:1051CC000368222A14D1010060315A6A0988836D60
:1051DC000A401A800200023383655E321388013B59
:1051EC009BB213801388002B01D1FFF7A9FF10BDD0
:1051FC00082299690A439A61F9E7030088331A680F
:10520C0010B50368222A15D1020060325B6A12883D
:10521C001340826D13700200836D5E32013383651F
:10522C001388013B9BB213801388002B01D1FFF72D
:10523C0087FF10BD082299690A439A61F9E70000BB
:10524C00F0B5036885B0DD691A689E6802920200A9
:10525C00883212680400222A00D0B7E003006033C1
:10526C001B880193030068331B8803932200039B64
:10527C005E32002B02D020231D4223D113889AB218
:10528C00002B1DD0230068331B88934218D9EFF3F1
:10529C001080012282F3108821684F4D8B682B40BF
:1052AC008B6080F310884D4B2367EFF3108182F3F2
:1052BC0010882023226810680343136081F3108840
:1052CC0005B0F0BD236801995B6A0B40A16D0B70B2
:1052DC00A36D0133A3651388013B9BB21380072395
:1052EC002268D5691D422DD0063B1D4208D002997B
:1052FC00C90505D5210013628C31086803430B6086
:10530C0002231D4208D0F10706D5210013628C310F
:10531C000868DB1803430B6004231D4208D0F10717
:10532C0006D5136222008C321168023B0B431360CA
:10533C0027008C373B68002B04D02000FFF75EFD64
:10534C0000233B6023005E331B889AB2002B00D0F5
:10535C008CE7EFF31087013383F310882068036820
:10536C0019001F4B1940016087F31088EFF3108070
:10537C00012383F3108821681A4F8B683B408B60A4
:10538C0080F310882300202188331960E36E226794
:10539C00012B17D1E266EFF3108083F3108821689C
:1053AC000F330A689A430A6080F310882268D16927
:1053BC00194200D0136223005C3320001988FFF7D8
:1053CC0029FD53E72000FBF77BFF4FE70822996983
:1053DC000A439A6174E7C046FFFFFFEF07520008CB
:1053EC00FFFEFFFFFEFFFFEFF0B5036885B0DD6940
:1053FC001A689E6802920200883212680400222AFF
:10540C0000D0B5E0030060331B88019303006833C0
:10541C001B8803932100039B5E31002B02D02023B9
:10542C001D4223D10B889AB2002B1DD02300683368
:10543C001B88934218D9EFF31080012282F3108855
:10544C0021684E4D8B682B408B6080F310884C4B41
:10545C002367EFF3108182F31088202322681068F1
:10546C000343136081F3108805B0F0BD2368019DE0
:10547C00586AA26D284010800232A2650A88013A4F
:10548C0092B20A800722DD6915422DD0063A1542E8
:10549C0008D00299C90505D521001A628C3108681B
:1054AC0002430A600222154208D0F10706D52100FA
:1054BC001A628C310868921802430A600422154261
:1054CC0008D0F10706D51A62220002238C3211682B
:1054DC000B43136027008C373B68002B04D0200053
:1054EC00FFF78CFC00233B6023005E331B889AB2D1
:1054FC00002B00D08EE7EFF31087013383F3108875
:10550C002068036819001F4B1940016087F310884D
:10551C00EFF31080012383F3108821681A4F8B68F6
:10552C003B408B6080F31088230020218833196066
:10553C00E36E2267012B17D1E266EFF3108083F341
:10554C00108821680F330A689A430A6080F3108828
:10555C002268D169194200D0136223005C33200009
:10556C001988FFF757FC55E72000FBF7A9FE51E718
:10557C00082299690A439A6176E7C046FFFFFFEF5C
:10558C00C5510008FFFEFFFFFEFFFFEFF8B504005A
:10559C002569A168026829436569C36929431068B4
:1055AC00704D194328400143116051686E48A5693C
:1055BC000140E06801436D485160824201D0216A8C
:1055CC000D4391686A4E314029430F259160D16A91
:1055DC00A943656A2943D16266498A4216D10321DF
:1055EC00654A526D0A408021013A0902022A00D90B
:1055FC0089E06248805C8B4260D008281CD8FAF79E
:10560C008DFDAA1B801B7D1B1B1B6B005C498A42FA
:10561C0000D19CE082420FD1C0228021564B120156
:10562C005B6D090113408B421BD007D8002B0AD0AD
:10563C008022D200934211D0012009E09342FBD189
:10564C00802636020EE0FEF7FBFD061E0AD1002076
:10565C004C4BA366002323676367F8BDFEF7FEFC83
:10566C00F3E7494E636A494A5B009F5A30003900A0
:10567C00FAF768FD032365686B438342DCD82B0380
:10568C008342D9D300233A0030001900FAF7D0FE38
:10569C000027060E0B02334302026E0892197B415F
:1056AC00100019002A003B00FAF7C2FE384BC21852
:1056BC00384B9A42C0D82368D860C8E70828BBD8B2
:1056CC00FAF722FD23BA08BA05BABABA2700FEF7D0
:1056DC00C5FC1CE02C4B1CE080200002636A2B4AAA
:1056EC005B00995AFAF72EFD65686B08C018290003
:1056FC00FAF728FD0200284B103ADAE7FEF7AEFC69
:10570C002BE02148EAE78B4225D1FEF799FD031ED9
:10571C009DD0626A1D495200515A1800FAF712FDC9
:10572C00656840006B08C0182900FAF70BFD0200F1
:10573C00194B103A9A4200D97EE70F23020000075A
:10574C009A4393B2400F22681843D0607FE78022BF
:10575C0012029342D9D0FEF773FD002800D176E7F0
:10576C00BCE7C046F369FFCFFFCFFFFF00800040CE
:10577C00FFF4FF11003801400010024050B4000843
:10578C0000440040010001000024F40054B400085F
:10579C0000FDFFFFFFFC0F00EFFF0000836A30B538
:1057AC00DA0706D50168284C4A682240C46A2243AD
:1057BC004A609A0706D50168244C4A682240046B5B
:1057CC0022434A605A0706D50168214C4A68224098
:1057DC00446B22434A601A0706D501681D4C4A687F
:1057EC002240846B22434A60DA0606D501681A4CC3
:1057FC008A682240C46B22438A609A0606D50168E7
:10580C00164C8A682240046C22438A605A0610D5D2
:10581C000168134D4A68446C2A4022434A60802236
:10582C005203944205D14A680E4C2240846C2243A8
:10583C004A601B0606D502680B4953680B40C16CC5
:10584C000B43536030BDC046FFFFFDFFFFFFFEFF63
:10585C00FFFFFBFFFF7FFFFFFFEFFFFFFFDFFFFF00
:10586C00FFFFEFFFFFFF9FFFFFFFF7FFF7B580275D
:10587C0004000D00160001933F012268D3692B40F0
:10588C005B1B59424B41B34201D000202BE0089BDB
:10589C000133F3D0FCF732FC019BC01A089B9842F1
:1058AC0001D8002B20D1EFF31080012282F3108855
:1058BC002168214D0B682B400B6080F31088EFF3AF
:1058CC00108082F3108821688B6893438B6080F37F
:1058DC001088220020230832D36780321360002303
:1058EC00032080342370FEBD042123681A680A4209
:1058FC00C3D0DA693A42C0D01F62EFF310800122A4
:10590C0082F3108821680C4D0B682B400B6080F3E0
:10591C001088EFF3108082F3108821688B68934312
:10592C008B6080F31088220020230832D3678032EA
:10593C0013605360D3E7C0465FFEFFFFF0B516005F
:10594C00020087B008320593D36F04000D000220CB
:10595C00202B53D10138002950D0002E4ED080235B
:10596C00A1685B01994204D12369002B01D1054246
:10597C0044D12300803303931B780220012B3DD0AC
:10598C00012303990B70230000218C331960212310
:10599C00D367FCF7B3FB230054331E8002331E8005
:1059AC0004938023A268070000265B019A4204D16D
:1059BC002369B34201D12E001D000023039A1370FA
:1059CC00230056331B889AB2002B0CD1059B402127
:1059DC00009320003B00FFF749FF00280DD1202346
:1059EC000834E3670AE0059B0022009380213B000A
:1059FC002000FFF73BFF002802D0032007B0F0BDCA
:105A0C002268002D0BD133880236DB05DB0D936247
:105A1C00049B049A1B88013B9BB21380D0E72B7824
:105A2C0001359362F4E70000030073B5002604000F
:105A3C008C331E60FCF762FB236805001B681B0798
:105A4C0019D423681B685B070AD58021104B0022F0
:105A5C00009320002B00C903FFF708FF002815D185
:105A6C002200202300200832D36780321360E066C6
:105A7C00803420700BE08021054B320000938903A9
:105A8C0003002000FFF7F2FE0028DAD0032076BDD9
:105A9C00FFFFFF0170B5041E01D1012070BD050090
:105AAC000835EB6F002B04D1020080321370FCF729
:105ABC00C5F9242301212268EB67136820008B436E
:105ACC001360FFF763FD0128E7D0A36A002B02D017
