:020000040800F2
:1000000000200020191A0008691900086B1900085F
:1000100000000000000000000000000000000000E0
:100020000000000000000000000000006D19000842
:1000300000000000000000006F190008711900089E
:10004000691A0008691A0008691A0008691A000884
:10005000691A0008691A0008691A0008691A000874
:10006000000000007519000885190008691A0008C9
:10007000691A0008691A0008691A0008691A000854
:10008000691A0008691A0008691A0008691A000844
:1000900000000000691A000895190008691A000894
:1000A000691A0008691A0008691A0008691A000824
:0C00B000A5190008691A000800000000F3
:1000BC0010B5064C2378002B07D1054B002B02D032
:1000CC00044800E000BF0123237010BD880000200D
:1000DC000000000000820008044B10B5002B03D078
:1000EC000349044800E000BF10BDC04600000000FA
:1000FC008C000020008200080023C25C0133002A1F
:10010C00FBD1581E7047000002B4714649084900E3
:10011C00095649008E4402BC7047C04602B4714671
:10012C0049084900095C49008E4402BC7047C0462E
:10013C0003B47146490840004900095E49008E44E9
:10014C0003BC7047002243088B4274D303098B42D3
:10015C005FD3030A8B4244D3030B8B4228D3030C8B
:10016C008B420DD3FF22090212BA030C8B4202D32D
:10017C001212090265D0030B8B4219D300E0090A55
:10018C00C30B8B4201D3CB03C01A5241830B8B425E
:10019C0001D38B03C01A5241430B8B4201D34B0347
:1001AC00C01A5241030B8B4201D30B03C01A5241AC
:1001BC00C30A8B4201D3CB02C01A5241830A8B4231
:1001CC0001D38B02C01A5241430A8B4201D34B021A
:1001DC00C01A5241030A8B4201D30B02C01A52417E
:1001EC00CDD2C3098B4201D3CB01C01A5241830932
:1001FC008B4201D38B01C01A524143098B4201D36C
:10020C004B01C01A524103098B4201D30B01C01A96
:10021C005241C3088B4201D3CB00C01A5241830810
:10022C008B4201D38B00C01A524143088B4201D33D
:10023C004B00C01A5241411A00D20146524110469D
:10024C007047FFE701B5002000F0F0F802BDC04692
:10025C000029F7D076E7704703460B437FD4002282
:10026C0043088B4274D303098B425FD3030A8B423E
:10027C0044D3030B8B4228D3030C8B420DD3FF22A8
:10028C00090212BA030C8B4202D31212090265D076
:10029C00030B8B4219D300E0090AC30B8B4201D329
:1002AC00CB03C01A5241830B8B4201D38B03C01A70
:1002BC005241430B8B4201D34B03C01A5241030BE7
:1002CC008B4201D30B03C01A5241C30A8B4201D398
:1002DC00CB02C01A5241830A8B4201D38B02C01A43
:1002EC005241430A8B4201D34B02C01A5241030ABA
:1002FC008B4201D30B02C01A5241CDD2C3098B429F
:10030C0001D3CB01C01A524183098B4201D38B011B
:10031C00C01A524143098B4201D34B01C01A5241BE
:10032C0003098B4201D30B01C01A5241C3088B4203
:10033C0001D3CB00C01A524183088B4201D38B00EE
:10034C00C01A524143088B4201D34B00C01A524190
:10035C00411A00D201465241104670475DE0CA0F67
:10036C0000D04942031000D34042534000229C4627
:10037C0003098B422DD3030A8B4212D3FC22890131
:10038C0012BA030A8B420CD3890192118B4208D307
:10039C00890192118B4204D389013AD0921100E069
:1003AC008909C3098B4201D3CB01C01A524183097D
:1003BC008B4201D38B01C01A524143098B4201D3AA
:1003CC004B01C01A524103098B4201D30B01C01AD5
:1003DC005241C3088B4201D3CB00C01A524183084F
:1003EC008B4201D38B00C01A5241D9D243088B42A5
:1003FC0001D34B00C01A5241411A00D20146634648
:10040C0052415B10104601D34042002B00D54942AB
:10041C00704763465B1000D3404201B5002000F0EA
:10042C0005F802BD0029F8D016E770477047C046A2
:10043C00002B11D1002A0FD1002900D1002802D0A5
:10044C000021C943081C07B4024802A140180290BD
:10045C0003BDC046D9FFFFFF03B4684601B502983F
:10046C0000F006F8019B9E4602B00CBC7047C046DB
:10047C00F0B557464E464546DE46E0B504000D0045
:10048C009246994683B08B4230D82DD0494650467F
:10049C0000F0D8F829000600200000F0D3F8331A39
:1004AC009846203B9B4633D45A465346934042468B
:1004BC001F00534693401E00AF423AD8AF4200D1C2
:1004CC0078E05B46A41BBD41002B00DA75E00022EE
:1004DC0000230092019301235A4693400193012378
:1004EC0042469340009328E08242CFD90022002359
:1004FC00009201930C9B002B01D01C605D60009856
:10050C00019903B0F0BCBB46B246A946A046F0BD6B
:10051C00424620239B1A5246DA40414613004A4673
:10052C008A40170042461F43534693401E00AF4279
:10053C00C4D900220023009201934346002BD9D04A
:10054C00FB0772081A4346467B080EE0AB4201D10A
:10055C00A2420CD8A41A9D41012024196D410021FE
:10056C00013E24184D41002E06D0AB42EED9013E7F
:10057C0024196D41002EF8D1009801995B460019A1
:10058C006941002B24DB2B005A464446D3402A00F9
:10059C00E2401C005B461500002B2ADB26009E4027
:1005AC00330026004746BE403200801A9941009025
:1005BC0001919FE7A342BCD883E742462023002148
:1005CC009B1A0022009101920122DA40019286E7E7
:1005DC00424620239B1A2A0046469A402300F340A9
:1005EC00444613432A00E2401C005B461500002BD6
:1005FC00D4DA42462F002023260097409B1ADE4077
:10060C003B003343CDE7C0461C2101231B04984219
:10061C0001D3000C10391B0A984201D3000A083987
:10062C001B09984201D30009043902A2105C40183E
:10063C007047C046040302020101010100000000E2
:10064C000000000010B5002903D1FFF7DDFF2030BA
:10065C0002E0081CFFF7D8FF10BDC04670B51A4D5C
:10066C001A4C2B7888B0002B15D0FA261848F600B7
:10067C000178837889194679427802960679019631
:10068C00C078009006A805F0B7FF200006A905F079
:10069C0095FE00232B700625210006A805F0E7FE29
:1006AC000C4C2A0006A9200007F0F4F81E230C229B
:1006BC000721009505A805F0E9FF210005AA06A869
:1006CC0005F0D6FF08B070BD120200201C020020FD
:1006DC00130200200C020020F0B587B004F074FB6C
:1006EC00AF4BB04C1870052807D105F0FDFD20006C
:1006FC0006F08AF9200006F094F9AB4B1A78002A20
:10070C0000D18BE00025012120001D7006F03CFD7E
:10071C00A64B642100269E5F3000FFF783FE0FB2CC
:10072C0038000A21FFF77EFE0BB20393039A9F4B0E
:10073C0064211A803000FFF78FFD2C23162680B21F
:10074C0058439B4A2A3B801805212A0001900096A9
:10075C00200006F068F80A213800FFF77DFD2C23F5
:10076C00022780B25843924A1521801801902A0022
:10077C0020002A3B009606F056F83B001422242158
:10078C002000009706F0F0F86B4699892C2359430A
:10079C00874A3B00891820002A00019100962821E5
:1007AC0006F041F8834B2A0001930E2338212000D8
:1007BC0000930D3B06F037F87F4A0A211578280084
:1007CC00FFF746FDCAB2039203997B4A28001170C9
:1007DC000A21FFF7B7FC2C25C0B26843744B1A22D0
:1007EC00C01805213B0001900096200006F01BF874
:1007FC00039A6F4B6A43D51815213B001A2220002F
:10080C000195009606F00FF86C4B1A2201930A23FF
:10081C00252100932000093B06F005F8614C0021CE
:10082C00200006F0B1FC664D664A2B7830215B0146
:10083C009B180193102318220093200006F067F8F0
:10084C00287805210130FFF7EDFD297002250121E3
:10085C00200006F099FC402317220021200000956F
:10086C0006F082F8584E3368002B00D176E001F088
:10087C0017F93368C01AFA235B00984200D96DE06F
:10088C0000222B0011002000009506F06DF84F4D52
:10089C002B78BFF35B8F4E4F4E4EDB0709D42800ED
:1008AC0006F07AFF002804D0737928003B7006F01C
:1008BC0080FF3A787379484D9A425FD001F0F0F896
:1008CC00002628606E60434D414B6A7943492000F5
:1008DC001A7006F0B5FB200006F0A3FB01212000E6
:1008EC00059606F051FC3E4FEA78390005A807F052
:1008FC00F9F805AB30222521200006F051FB05A8A4
:10090C00FFF7FAFB3100020005A806F0DFFF2A7999
:10091C00390005A807F0E6F805AB30223521200098
:10092C0006F03EFB2F4D2000297806F02DFC2A22E4
:10093C003221200006F00DFC2E223221200006F080
:10094C0008FC01232A7853402B700121200006F06B
:10095C001BFC200006F065F807B0F0BD200000215C
:10096C0006F012FC0223002220001100009305F077
:10097C00FBFF0121200006F007FC88E701F090F84E
:10098C000023020028686968121A8B411100002BA1
:10099C0000D093E7FA235B00994200D38EE7D4E7AB
:1009AC009E0200209C0400202E0200202C0200201D
:1009BC000B830008FD8200082F020020F382000840
:1009CC00110100205382000808020020E8000020DA
:1009DC00100100200C02002018010020508F00088C
:1009EC00188200080000002010B501F059F8010031
:1009FC00014804F0ACFA10BDF0000020002213B541
:100A0C000A4C0B4B20000B491A7005F071FC2000AE
:100A1C0005F0C4FC002807D00749684605F096FD90
:100A2C006946200005F0CAFC13BDC0461C0200201C
:100A3C00120200203402002080436D3810B50122D0
:100A4C000249034803F0D6FF10BDC046D801002070
:100A5C00BC07002070B5050001F022F8040001F07D
:100A6C001FF8001BA84203D20A2001F01FF8F6E77A
:100A7C00A02001224021C00501F05AFA70BD0000EF
:100A8C00F7B50027019001F00BF83B000200214D57
:100A9C00060028686968121A8B411F4CBB4201D1B1
:100AAC00642A2FD902211D4801F03CFA002818D1E4
:100ABC00206861686422002312184B412E606F601D
:100ACC00226063606368002B04DC1AD12368019AEE
:100ADC00934216D9A02000224021C00501F028FA2B
:100AEC000FE064225242D3172068616812184B4100
:100AFC00002B02DB22606360E4E70022002322600B
:100B0C006360F7BDA02001224021C00501F010FA5E
:100B1C00D8E7C04600010020080100200004005066
:100B2C0010B50D4C200006F0EFFD200005F0BEFFC7
:100B3C002000002106F0EFFD2000012106F024FB2F
:100B4C000021200005F026FE200005F05DFF2000AE
:100B5C0005F067FF10BDC0469C04002010B502488C
:100B6C0004F072F810BDC046DC01002010B50A4C30
:100B7C00200004F027F800280CD0200003F096FF8A
:100B8C00064B1880200003F093FF0122044B1870D1
:100B9C00044B1A7010BDC046DC0100202C02002052
:100BAC002F0200202E02002070B50125064C257066
:100BBC0004F076F9002805D004F04AF9002800D09A
:100BCC00257070BD2070FCE7A500002010B5FFF764
:100BDC00EBFF322000F06AFF0022014B1A6010BDBF
:100BEC000802002010B56420FFF734FF00F0CEFBA4
:100BFC00FFF796FFFFF722FFFFF700FFFFF7AEFFAF
:100C0C00FFF7E4FF0D4C0123322220000C4904F0C5
:100C1C007EF90123962220009A400A4904F077F9C4
:100C2C00012364222000084904F071F90123FA22FF
:100C3C0020009A40054904F06AF910BDF00000202C
:100C4C00E506000869060008050F0008850F000876
:100C5C0070B50A00022400290AD0074901230D7837
:100C6C00ECB2002D06D10B700100044802F040FFDD
:100C7C00200070BD1C00FBE730020020BC070020E8
:100C8C000FB413B5094C04AB04CB402120000193E5
:100C9C0006F074FFFA2382B221009B00044803F093
:100CAC002FFD13BC08BC04B01847C046A60000209A
:100CBC00BC070020F8B500240A262200304B314D29
:100CCC001C705C709C70DC701C715C71605D3038E9
:100CDC0009282DD901320134112CF7D1A41A2A4A32
:100CEC00E4B21470DA78294E172A3ED81A793B2AC6
:100CFC003BD85A793B2A38D81A78632A35D8597890
:100D0C00481E0B2831D802200D00854328009D7801
:100D1C00013DEDB2042801D009280ED11D2D24D897
:100D2C000C2C22D11A48FFF7ABFF01233370F8BD0E
:100D3C00995C714309189954CDE702291DD1FA2306
:100D4C00DB00D718930706D138006231FFF780FA21
:100D5C0089B2002907D1C82138004900FFF778FA79
:100D6C0089B2002906D11C2DDAD90A48FFF788FF71
:100D7C000023DBE71B2DF8D8D2E71E2DF5D8CFE7E3
:100D8C001302002098010020A40000201202002071
:100D9C001D8200082E820008F0B5494C01232278F0
:100DAC0085B01500BFF35B8F1D401A4212D1200095
:100DBC0006F0F2FC00280DD080231B010093642266
:100DCC002B0029000A2003F05BFF3E4B186020002B
:100DDC0006F0EFFC3C4B3D4E1B78002B06D0300050
:100DEC0004F042F804F064F8394B187039480023C9
:100DFC00F45E0178384A4B009C520225725F374FE3
:100E0C000392DA530425725F354E94469A53354B50
:100E1C0001311B78002B10D1CBB25A00072B09D80B
:100E2C002D4D0133AC52039DDBB2D5536546955322
:100E3C000232F3E701222B4B1A70072319400023CF
:100E4C0001701A0019001800254F234DEE5E234D3A
:100E5C0080195E5F8919DE5F02339219102BF4D171
:100E6C000725CE172E40C3172B407118D61718180C
:100E7C0035401D4BC010AA18C910D210041B1860A5
:100E8C0059609A60E317E4185C40039BC91ACB17AE
:100E9C00C91859406346D21AD317D2185A40611850
:100EAC00124B8A181A60074B1B689A4206DD00F039
:100EBC00F7FD0F4B18600F48FFF7E2FE05B0F0BDD1
:100ECC00EC00002054010020A5000020FC010020B3
:100EDC00010000202001002022010020320100200E
:100EEC0042010020DA010020F00100200402002061
:100EFC00080200203E82000810B5FFF74DFFFFF7F7
:100F0C0035FEFA20C000FFF7BBFD10BDF8B5134C41
:100F1C0005002378002B15D00123114F23703B784B
:100F2C00DDB2002B19D10F4E0F4932780F48D2B2D7
:100F3C0006F0B0FC3378DBB23B700D4B35701D7096
:100F4C0025700AE00A4B1B78002B06D000F0A8FD98
:100F5C00084B1B68C01AA842DED8F8BD2602002038
:100F6C0027020020250200205801002098010020B3
:100F7C00240200202802002070B50220FFF7C6FFD3
:100F8C00084C2378002B0BD0074B1B78DDB2002BC1
:100F9C0006D1FFF78FFE21780448FFF759FE257024
:100FAC0070BDC046270200203002002098010020AE
:100FBC000022014B1A70704730020020114B02685E
:100FCC0070B59A421CD1104D104C2B78002B12D1BD
:100FDC0001260F4B1E7000F063FD0E4B18600E4B7C
:100FEC00207819788A19D2B21A701B780B4A50548F
:100FFC00402B00D92E7001222100094803F0FAFC85
:10100C0070BDC0460044004026020020D8010020DC
:10101C002402002028020020250200205801002074
:10102C00BC07002010B50024074B08491C60084879
:10103C0005F08CFA2100074803F04EFF06490748DB
:10104C0003F017FD10BDC0461C02002080436D3814
:10105C000C020020F000002034020020DC010020F3
:10106C0010B5024803F03DFF10BDC046F000002053
:10107C0010B5034800F094F8024800F091F810BD48
:10108C00340200203C02002001220168F0B50B68FC
:10109C008BB093430B6011230693002308933D4BB5
:1010AC0006000792984240D180235B01A024019353
:1010BC008023E4051B010093009B200005A90593E8
:1010CC0000F082FE6B461F8801223900200000F0E0
:1010DC002FFF019B200005A9059300F075FE6B46C0
:1010EC009B88012219002000029300F021FF652348
:1010FC0003932000029900F015FF0500012819D078
:10110C0000223900200000F013FFC046C046C04644
:10111C00C04601223900200000F00AFF039B013B6E
:10112C000393002BE5D10BB0F0BD80231A4C019337
:10113C00DB18C0E71223069300230893009B07904B
:10114C0005A92000059300F03FFE019B05A912485C
:10115C00059300F039FE2A003900200000F0E8FE6B
:10116C002A000299200000F0E3FE802332681B0263
:10117C0011680B431360C0463268084913680B4072
:10118C001360C0463368186805431D60300001F0D9
:10119C00B5F8C8E72407002000040050FF7FFFFFCC
:1011AC0001230370704713B50400007800280DD09C
:1011BC00C8230093002349001A00606889B201F02B
:1011CC00F3F8431E98410123C0B2237016BD10B52D
:1011DC004068FFF759FF10BD7FB505780400002D5E
:1011EC0013D0FA200193089B400002900093606892
:1011FC00012392B289B201F0B5FA0126002807D07A
:10120C0000252000FFF7E3FF2670280004B070BD16
:10121C002670FAE71FB503AC01230094FFF7DCFF3F
:10122C00207804B010BD07B500930123FFF7D4FF5D
:10123C000EBD37B51C006B46DD1D2B00FFF7F3FF11
:10124C002B78069A234013703EBD7FB505780400B9
:10125C00002D13D0FA200193089B400002900093BC
:10126C006068012392B289B201F0C2F9012600280C
:10127C0007D000252000FFF7AAFF2670280004B035
:10128C0070BD2670FAE71FB50F246C442370012340
:10129C000094FFF7DAFF04B010BDF0B585B01C0068
:1012AC000AAB1B780500019302AB07330E00170045
:1012BC00FFF7B9FF0300002083420CD002ABDB79AF
:1012CC00019AA3431440234302AAD37131003A007C
:1012DC002800FFF7D8FF05B0F0BD37B5057804003E
:1012EC00002D0DD0012040420090606801F05CF8A8
:1012FC00002805D02000FFF76AFF0123002523708A
:10130C0028003EBD37B505780400002D0DD0012016
:10131C0040420090606801F0D9F8002805D0200008
:10132C00FFF755FF01230025237028003EBDF8B5BB
:10133C00032506000F0014005D435519AC420ED076
:10134C003900300063782278FFF79DFF002807D022
:10135C00A078002801D000F0A9FB0334EEE70120AF
:10136C00F8BD0000044B054A05495A6001221A7069
:10137C00044B59601A70704734020020700700202B
:10138C00240700203C020020704700006422114B0F
:10139C00322001211A800022D8812D385882373012
:1013AC005A809A801A815A819A81D882D98019825E
:1013BC009982094B09481A605A609A60DA609A61FE
:1013CC00DA61802252021A620722186159619A84EA
:1013DC007047C0466C020020440200201600010039
:1013EC0010B59CB0382200210EA806F06FFA10221E
:1013FC000021684606F06AFA2822002104A806F0AB
:10140C0065FA8020800001F0BBFA80235B00119309
:10141C000023129317930833189380239B0219937C
:10142C0080239B041A938023022440229B050EA840
:10143C000E941392159416941B9301F0CDFA002878
:10144C0001D072B6FEE70723029003902100684694
:10145C000093019401F028FD002801D072B6FEE73C
:10146C002023079004A8049301F0FAFD002801D072
:10147C0072B6FEE71CB010BDF0B50125022789B08D
:10148C0000F0EEFAFFF7ACFF1422002103A806F0DF
:10149C001DFAA0206B4E0022736B6B492B437363B8
:1014AC00736BC0052B400193019B736B00243B4372
:1014BC007363736B3B400293029B00F039FD002277
:1014CC001021624800F034FDA020122303A9C005AE
:1014DC0003930494059500F077FCA0205A4B03A9C4
:1014EC00C005039305940694049500F06DFC5748D1
:1014FC0003A90397049405950E3700F065FC534837
:10150C0003A9059406940397049500F05DFC5048DC
:10151C00504B84600360E1235B0243600C23C46086
:10152C0004618461C461046244628462436103F0B7
:10153C0093F9041E01D072B6FEE7B36B02002B4385
:10154C00B363B36B03212B4009200393039B00F07F
:10155C00BFFA092000F0E6FA220003210A2000F06D
:10156C00B7FA0A2000F0DEFA3B483C4B846003607B
:10157C0082235B004360E023DB00C36080239B007D
:10158C008361FA3BFF3BC362013304614461C76171
:10159C000462446284620463436301F02FFF0028F9
:1015AC0001D072B6FEE72E4C2E4BA06023602E4B62
:1015BC0020616061A061E061206220006360E560F1
:1015CC0000F09CFE011E01D072B6FEE7200001F077
:1015DC008DF9011E01D072B6FEE7200001F0ACF9C6
:1015EC00002801D072B6FEE7204C214BA06023608E
:1015FC00204B20616061A061E0612062200063608B
:10160C00E56000F07BFE011E01D072B6FEE7200003
:10161C0001F06CF9011E01D072B6FEE7200001F05A
:10162C008BF9002801D072B6FEE7A0202A004021D9
:10163C00C00500F07DFCFFF71BFDFFF7D3FAFFF7A9
:10164C00D3F9FCE700100240608000000004005059
:10165C00BC07002000440040C006002000300140C0
:10166C002407002000580040BC7D7010700700203B
:10167C000054004073216000034B026810B59A427D
:10168C0001D100F001FA10BD0048014072B6FEE72E
:10169C0001200A4B82B0196C0143196480211A6C29
:1016AC00490502400092009ADA6B0A43DA63DB6B5D
:1016BC000B400193019B02B07047C04600100240E2
:1016CC0010B504008AB01422002105A806F0FEF81B
:1016DC002368254A934222D10221244C2448626B70
:1016EC000A436263636B0B400193019BC0235B0055
:1016FC0005936F3BFF3B0693002305A907930893C3
:10170C000633099300F060FB8021E26B89030A43E6
:10171C00E263E36B0B400293029B0AB010BD154AC7
:10172C009342FAD10121114CA020626BC0050A43EF
:10173C006263636B0B400393039BC0235B010593B4
:10174C0012230693002305A90793089306330993E4
:10175C0000F03AFB8021E26BC9030A43E263E36BBE
:10176C000B400493049BD8E7005400400010024047
:10177C00000400500058004030B5040089B0142219
:10178C00002103A806F0A2F81A4B22689A422FD126
:10179C008020194B4001196C0225014319641A6C05
:1017AC000024024001200092009A596B01435963B6
:1017BC005A6B03A902400192019A5A6BA0202A434A
:1017CC005A635B6BC0052B400293029B80230495EC
:1017DC00039305940694079400F0F6FA082307483F
:1017EC0003A90393049505940694079400F0ECFA6E
:1017FC0009B030BD00300140001002400004005020
:10180C0070B5060088B01422002103A806F05EF81B
:10181C002D4B32689A4254D180202C4B8002D96BCC
:10182C0000250143D963DA6B02400192019A01222F
:10183C00596BA020114359635B6BC0051340029395
:10184C00029B0C2303A903930A3B0493059506956D
:10185C00079200F0B9FA1E4C1E4B20002360342373
:10186C0063604C33A560E56023616561A561E5614A
:10187C00256200F07DF9A84201D0FFF707FF164B57
:10188C00F467A662154C8022236035236360253BE8
:10189C00A36000232000E36022616361A361E36124
:1018AC00236200F065F9002801D0FFF7EFFE00225B
:1018BC001C201100B467A66200F00AF91C2000F08D
:1018CC0031F908B070BDC046004400400010024021
:1018DC004C080020080002401C000240A808002010
:1018EC0010B5010086B00022162000F0F1F8162089
:1018FC0000F018F98020144AC002116C01431164E5
:10190C00136C69460340019302A8019B01F08EFB06
:10191C0001F078FB0D4C0E4B0E4923600E4BE3602F
:10192C00FEF710FC00230138606020002361A360E7
:10193C0001F0CAFF03000120002B02D1200001F0AE
:10194C0093FE06B010BDC0460010024004090020F2
:10195C000048014040420F00E7030000FEE7FEE7AD
:10196C00704770477047000010B5024800F0D8F976
:10197C0010BDC0464C08002010B5024800F0D0F94C
:10198C0010BDC046A808002010B5024801F0A0FE0A
:10199C0010BDC0460409002010B5024802F01EF923
:1019AC0010BDC046BC0700200120704710B505F0E3
:1019BC0033FF162303600120404210BD10B505F023
:1019CC002BFF16230360FEE70B4A0C490300891A10
:1019DC000B4A10B51068002801D10A481060106835
:1019EC00C3188B4206D905F017FF0C2303600120A6
:1019FC00404210BD1360FCE70004000000200020F2
:101A0C008402002068090020704700000D488546BC
:101A1C00FFF7FAFF0C480D490D4A002302E0D45899
:101A2C00C4500433C4188C42F9D30A4A0A4C00231C
:101A3C0001E013600432A242FBD305F0F3FEFFF782
:101A4C001BFDFEE700200020000000208800002085
:101A5C004C9D00088800002064090020FEE700006F
:101A6C008023084A5B00116810B50B4303201360F8
:101A7C00FFF736FF041E03D1FFF70AFE200010BD4E
:101A8C000124FBE700200240034A044B11681B7839
:101A9C005B1813607047C0465009002008000020F6
:101AAC00014B18687047C0465009002070B50400FF
:101ABC00FFF7F6FF0500631C02D0044B1B78E418FB
:101ACC00FFF7EEFF401BA042FAD370BD08000020C8
:101ADC0030B5FF2503242A000440E400A24089010C
:101AEC002940D243A140C3B200280ADBC0240B4BCF
:101AFC0080088000C018A40003591A4011430151FA
:101B0C0030BD0F200340083B05489B089B001B1869
:101B1C00D86902401143D961F2E7C04600E100E008
:101B2C0000ED00E0002805DB1F2318401E3B83401E
:101B3C00014A13607047C04600E100E010B5040094
:101B4C00036C094A9B089B189B004364036814218F
:101B5C00D8B20838FEF7F6FA044BA3641F231840DA
:101B6C001E3B8340E36410BD0082001080080240DD
:101B7C0070B504000120002C49D02568274B142196
:101B8C00E818FEF7DFFA02238000A61D2064F37725
:101B9C002B68234AE16813402B60A3682A680B4327
:101BAC00216920000B4361690B43A1690B43E16977
:101BBC000B43216A0B4313432B60FFF7BFFF8023BA
:101BCC00A268DB019A4201D1002363603F23626863
:101BDC00616C13400B60E06CA16C013A4860032A05
:101BEC0016D8104A104899180322013B1340023AA8
:101BFC009A40A265130000228900216560650A6085
:101C0C00436000200123E0630534F377E07770BD77
:101C1C00002323656365A365F3E7C046F8FFFDBFAA
:101C2C000F80FFFF3F820010400902400300F0B517
:101C3C000120002B09D0981DC27F5C1D022A05D003
:101C4C000422DA6300230120E377F0BD0E25196826
:101C5C005E6C0A68AA430A603268114D2A403260F1
:101C6C0001220E68944696430E601C211A6C0D4E90
:101C7C00114062468A4077683A437260D96C9A6C1C
:101C8C0051601A6D002A05D01168294011605A6DF7
:101C9C009B6D53600123C3770020E077D5E7C046E6
:101CAC00FFFEFFFF00000240F8B5811DCB7F022B29
:101CBC0004D00423C363033B1800F8BD0E24026850
:101CCC00154D1368076CA3431360012314689C43E0
:101CDC001460446C22682A4022601C243C40A340BF
:101CEC000E4A566833435360C26C836C5A60036D62
:101CFC00002B05D01A682A401A60436D826D5A6019
:101D0C0001230024CB77431DDC77826B1300A242A6
:101D1C00D2D090472300CFE7FFFEFFFF0000024028
:101D2C00F8B51C210427046C264B21403C008C4048
:101D3C001E680268156826420FD03D420DD011680E
:101D4C00890602D41168B94311605A6814435C6067
:101D5C00036B002B1BD0984719E002273C008C40EA
:101D6C00264215D03D4213D01168890606D40A25A7
:101D7C001168A94311600121821DD1775A6814435F
:101D8C0000225C60431DDA77C36A9342E3D1F8BD4D
:101D9C00082427008F403E42F9D02542F7D00E256B
:101DAC001468AC431460012215008D4029005C6856
:101DBC0021435960831DC263DA770022431DDA7711
:101DCC00436BE2E7000002400023F0B585B00A68DF
:101DDC001400DC4001D105B0F0BD012514009D407C
:101DEC002C4001942A4200D18EE04A685E00944651
:101DFC000322644622400324B440E4430294541E5C
:101E0C00012C2AD88768029C2740CC68B4403C43FC
:101E1C00846044680127AC432500644624093C4097
:101E2C009C402C434460C568029C25408C68B4409F
:101E3C002C43C460022A12D1DC080725A400041923
:101E4C00276A03940F241D40AD00AC40A7430C69D6
:101E5C00AC402743039C276201E0032AE3D10468CA
:101E6C00029DB24025402C0014430460C0246246FD
:101E7C00A402224248D0254A03259C08A400A41899
:101E8C000F221D40ED00AA40A027266EFF059643A9
:101E9C000022B8420CD01E4F0132B84208D01D4F60
:101EAC000132B84204D01C4F0132B84200D0023289
:101EBC00AA40674632432266144C019A2668019D5B
:101ECC00D2433543FF0201D43500154067462560E7
:101EDC006668019D3543BF0201D435001540674645
:101EEC0065600E4C019DE66F3543BF0301D4350090
:101EFC0015406746E5670A4C019EE56F2E43FF03CC
:101F0C0001D415402E00E667013360E7001802404B
:101F1C000004005000080050000C0050081802404B
:101F2C000418024000690840411E8841C0B2704745
:101F3C00002A01D0816170478162FCE703689A69CD
:101F4C00920701D500229A6201229969114202D1AD
:101F5C0099690A439A61704730B5039C0068234322
:101F6C00120489051A43890D054B45680A43640D13
:101F7C001C435200A54352082A43426030BDC04660
:101F8C00FF63FF03F0B585B002920268019191697D
:101F9C0010230F00040000251F40194208D02026F2
:101FAC00D36123689A6932426ED1002D2FD0042759
:101FBC008021236849009A690A4202D00125D9611F
:101FCC002F438021C9000A4203D008200125074372
:101FDC00D961802189000A425CD00222D961174361
:101FEC002000FFF7ABFF22682D49536801250B40F9
:101FFC005360636C20221F432300413367641A70C3
:10200C0022000023423240341370237044E0019AC2
:10201C000132C7D0FFF744FD029BC01A019B9842C6
:10202C0001D8002BBDD122008027423223680392B5
:10203C00586811789A693F02C9B23A420BD0802293
:10204C00D201104207D1202905D059680A435A60A1
:10205C00FFF726FD029023689B691F00374033422F
:10206C009FD1FFF71DFD029BC01A1928F3D9636C91
:10207C00012533436364230041331E70039B1F709F
:10208C00230040331F70E6E70427002D90D1DE615A
:10209C0001358DE7002DA3D1280005B0F0BDC04659
:1020AC0000E800FEF8B504000D00160004272368B4
:1020BC009B693B4211D1320029002000FFF762FFDF
:1020CC00002824D1202123689A690A4223D09A69D6
:1020DC003A4204D0228D002A01D00020F8BD996923
:1020EC00102208001040114213D0DA610C3A6264DD
:1020FC002021D9615A68104802405A6023002200FE
:10210C004133197000234232137040342370012084
:10211C00E4E76064ECE7FFF7C3FC801BA84201D83E
:10212C00002DC4D12022636C13436364230041331C
:10213C001A7040340023E9E700E800FEF8B504000B
:10214C000D001600022723689B693B4201D000203A
:10215C00F8BD320029002000FFF714FF002815D12C
:10216C006B1CF0D0FFF79CFC801BA84201D8002D03
:10217C00E9D12022636C13436364230041331A704A
:10218C002200002342324034137023700120DFE719
:10219C00F8B504000D001600202723689B693B420C
:1021AC0001D00020F8BD320029002000FFF7EAFE24
:1021BC00002813D1FFF774FC801BA84201D8002D16
:1021CC00EBD12022636C13436364230041331A70F8
:1021DC002200002342324034137023700120E1E7C7
:1021EC00F8B504000E0017001D00226893693340F7
:1021FC009B1B59424B41BB4201D0002017E06B1C8A
:10220C00F4D0FFF74DFC069BC01AA84201D8002D54
:10221C00EBD12022636C0120134363642300413310
:10222C001A70220000234232403413702370F8BD20
:10223C00F7B514001E00DAB2164B0500009380238C
:10224C00089F5B04FFF788FE39002800099AFFF706
:10225C0075FF002801D00120FEBD2B68012E0DD189
:10226C00E4B29C62099B0022009380213B00280071
:10227C00FFF7B6FF431E9841C0B2EDE7220A9A62FF
:10228C0039002800099AFFF759FF0028E3D12B6881
:10229C00E6E7C04600200080F7B5050014001E00DC
:1022AC00DAB2154B089F00930023FFF755FE390057
:1022BC002800099AFFF742FF002801D00120FEBD3B
:1022CC002B68012E0DD1E4B29C62099B0022009375
:1022DC0040213B002800FFF783FF431E9841C0B20A
:1022EC00EDE7220A9A6239002800099AFFF726FFC7
:1022FC000028E3D12B68E6E70020008070B50400CD
:10230C000120002C3FD0250041352B78DAB2002B70
:10231C0005D12300403320001A70FFF7D1F9242394
:10232C0001212B702368E0681A68A6688A431A603A
:10233C0061681A4A0A401A619968194A11409960F1
:10234C00012821D18021090231439960586815492F
:10235C0001435960D96800200A40DA60616922693A
:10236C000A43A16909020A43DA60216AE2690A4355
:10237C001A60012219680A431A60202360642B70CA
:10238C0020634234207070BD84210902314399606E
:10239C000228DBD1802109015960D7E7FFFFFFF04C
:1023AC00FF7FFFFF00800002F0B587B005930300AC
:1023BC004133049203931B7804000F000220202B5E
:1023CC0014D1230040331A78012A0FD001261E7035
:1023DC00FFF766FB802105000090192332002000D6
:1023EC000902FFF7FDFE002802D0012007B0F0BD66
:1023FC0021232600039A42361370113B3370049B41
:10240C0060646362059B60636385628D2D4BFF2A5C
:10241C0020D9FF222285009380235B043900200001
:10242C00FFF79AFD638D2A0020000C99002B19D11F
:10243C00FFF7AEFE0028D8D120212368224DD961A8
:10244C005A682A405A602300403441331970307066
:10245C002070CBE7628D92B22285D2B2009380239A
:10246C009B04DBE7FFF76AFE0028BED1636A226893
:10247C001978013391626362638D228D013B9BB2AB
:10248C006385013A638D92B22285002BCAD0002A53
:10249C00C8D1802120000C9B0095FFF7A1FE0028DD
:1024AC00A3D1638DFF2B06D9FF2323858023FF2225
:1024BC0000905B04B2E7628D92B22285D2B200909A
:1024CC00CDE7C0460020008000E800FEF0B587B0E4
:1024DC00059303004133049203931B7804000F000F
:1024EC000220202B14D1230040331A78012A0FD05C
:1024FC0001261E70FFF7D4FA8021050000901923E5
:10250C00320020000902FFF76BFE002802D00120E8
:10251C0007B0F0BD22232600039A42361370123BFB
:10252C003370049B60646362059B60636385628D9A
:10253C002D4BFF2A20D9FF222285009380235B0498
:10254C0039002000FFF708FD638D2A0020000C994C
:10255C00002B19D1FFF71CFE0028D8D120212368AD
:10256C00224DD9615A682A405A60230040344133C5
:10257C00197030702070CBE7628D92B22285D2B286
:10258C00009380239B04DBE7FFF78CFD0028BED172
:10259C002368626A5B6A1370636A228D013363621B
:1025AC00638D013A013B9BB26385638D92B22285A8
:1025BC00002BC9D0002AC7D1802120000C9B00958C
:1025CC00FFF70EFE0028A2D1638DFF2B06D9FF2347
:1025DC0023858023FF2200905B04B1E7628D92B2C9
:1025EC002285D2B20090CCE70024008000E800FEE7
:1025FC00F0B589B007930EAB069204CB04001B8890
:10260C00039204930300413305931B780F000220BF
:10261C00202B08D1002A02D0049B002B05D180234B
:10262C009B006364012009B0F0BD2300403302938A
:10263C001B780220012BF6D00122029B1A70FFF7A7
:10264C002FFA802100900500192301222000090295
:10265C00FFF7C6FD061EE5D12123059A390013703C
:10266C002300423305934023059A1370039B606447
:10267C006362049B60636385109B20000093069A41
:10268C00079B0195FFF7D4FD002802D0029B1E701A
:10269C00C8E7638DFF2B54D9FF22802322855B046E
:1026AC000090390020008026FFF756FCB6042A0063
:1026BC0020001099FFF742FD0028B3D1636A22680D
:1026CC001978013391626362638D228D013B9BB259
:1026DC006385013A638D92B22285002B17D0002AB4
:1026EC0015D180212000109B0095FFF779FD002863
:1026FC0000D097E7638DFF2B2BD9FF2323858023F5
:10270C00FF2200905B0439002000FFF725FC638D4D
:10271C00002BCCD12A0020001099FFF739FD00289E
:10272C0000D07FE7202123680D4DD9615A682A40DB
:10273C005A60230041331970059B40341870207087
:10274C0071E78023628D9B0492B22285D2B20090F5
:10275C00A7E7628D330092B22285D2B20090D2E705
:10276C0000E800FEF0B58BB0099310AB089204CBD7
:10277C0004001B88059206930300413307931B78D2
:10278C000D000220202B08D1002A02D0069B002B22
:10279C0005D180239B00636401200BB0F0BD2300A6
:1027AC00403304931B780220012BF6D00127049BA5
:1027BC001F70FFF775F980210390009019233A00E0
:1027CC0020000902FFF70CFD061EE5D12223079A13
:1027DC00290013702300423307934023079A137088
:1027EC00059B60646362069B60636385039B2000AA
:1027FC000193129B089A0093099BFFF74DFD00284B
:10280C0002D0049B1E70C7E7628D364BFF2A59D944
:10281C00FF222285009380235B0429002000802660
:10282C00FFF79AFBFF27B604039B002200930421B9
:10283C002000129BFFF7D4FC0028ADD12368626AFC
:10284C005B6A1370636A228D01336362638D013A94
:10285C00013B9BB26385638D92B22285002B17D00E
:10286C00002A15D1039B802100932000129BFFF7B7
:10287C00B7FC002800D08FE7638DFF2B2AD980236B
:10288C00FF2227855B04009029002000FFF764FBE2
:10289C00638D002BC8D12000039A1299FFF778FCA6
:1028AC00002800D078E7202123680F4DD9615A68A1
:1028BC002A405A60230041331970079B403418702A
:1028CC0020706AE7628D92B2228500938023D2B287
:1028DC009B04A2E7628D330092B22285D2B20090A3
:1028EC00D2E7C0460024008000E800FEF0B50400EA
:1028FC004134227803000F000220D6B2202A18D1CE
:10290C001D0040352A78012A13D0242222701B681E
:10291C00233A19680748914319601968014000204F
:10292C00196019683943196019680A431A602670CE
:10293C002870F0BDFFEFFFFF0200F0B541321478B4
:10294C000300E5B20220202C17D11C00403426785D
:10295C00012E12D0223010701B6823381E68074FCE
:10296C0086431E601E6809023E4031431960196897
:10297C0008431860002015702070F0BDFFF0FFFFB9
:10298C0010B5114C1149236802000B40034323601E
:10299C00802300209B009A420ED10D4B0D491868E4
:1029AC0006235843FDF7CEFB8022431CD2006169FD
:1029BC0008001040114200D110BD002B01D0013B8A
:1029CC00F5E70320F8E7C04600700040FFF9FFFF71
:1029DC000400002040420F00F0B5040085B0002830
:1029EC0023D00368DB0710D423689B075ED42368CD
:1029FC001B0700D5C3E023685B0700D5F5E0E2694F
:102A0C00002A00D07CE1002029E03822B04DAB68D0
:102A1C001340EA68102B0AD1D243930709D12B68D3
:102A2C009B03E1D56368002BDED1012017E0082B56
:102A3C00F5D0802263685202934212D12A68134364
:102A4C002B60FFF72DF880270600BF022B683B4256
:102A5C00CAD1FFF725F8801B6428F7D9032005B0ED
:102A6C00F0BDA021C9028B4208D180232968DB026A
:102A7C000B432B602B681A432A60E2E72A689549BE
:102A8C000A402A602A6894490A402A60002BD8D14F
:102A9C00FFF706F880270600BF022B683B42A3D045
:102AAC00FEF7FEFF801B6428F7D9D7E73823884D43
:102ABC00AA681340EA68102B28D103210A40022A85
:102ACC0026D12A68520502D5E268002AADD0696881
:102ADC0062698248120201400A436A60002B0DD1E0
:102AEC002B687F4A1340226913432B602B687D4A65
:102AFC009B045B0FDA4013007B4A13607B4B186816
:102B0C00FEF7EEFE002800D171E78EE7002BD8D03F
:102B1C00E368002B20D02B68714A80271340226970
:102B2C00FF0013432B6080232A685B0013432B6048
:102B3C00FEF7B6FF06002B683B4207D06A68636954
:102B4C0066491B020A4013436B6050E7FEF7A8FF6F
:102B5C00801B0228EFD981E72B68654A8027134038
:102B6C002B60FEF79DFF0600FF002B683B4200D157
:102B7C003DE7FEF795FF801B0228F6D96EE738215A
:102B8C00534B9A681D000A40182A08D11B6E9B07EC
:102B9C0000D430E7A369002B00D02CE745E7A269ED
:102BAC000123002A10D02A6E022713432B66FEF74E
:102BBC0077FF06002B6E3B4200D01CE7FEF770FF40
:102BCC00801B0228F6D949E72A6E02279A432A6607
:102BDC00FEF766FF06002B6E3B4200D10BE7FEF7BB
:102BEC005FFF801B0228F6D938E73821384B9A68EA
:102BFC001D000A40202A08D1DB6D9B0700D4FEE69D
:102C0C00A368002B00D0FAE60FE780220021DB6BD3
:102C1C0052050091134208D1EB6B1343EB63EB6B42
:102C2C0013400393039B012300938027314E7F00B5
:102C3C0033683B4215D0A368012B22D1EA6D1343B4
:102C4C00EB65FEF72DFF02270600EB6D3B4238D0FB
:102C5C00009B012B00D0D2E6EB6B274A1340EB63B1
:102C6C00CDE633683B433360FEF71AFF01903368BF
:102C7C003B42E0D1FEF714FF019BC01A0228F6D9A3
:102C8C00ECE6EA6D052B05D1013B1343EB65EA6DD0
:102C9C000123D4E701218A43EA65EA6D03318A43B3
:102CAC00EA65002BCDD1FEF7FBFE02270600EB6D8B
:102CBC003B42CDD0FEF7F4FE104B801B9842F6D968
:102CCC00CCE6FEF7EDFE0D4B801B9842BDD9C5E658
:102CDC0000100240FFFFFEFFFFFFFBFFFF80FFFF26
:102CEC00FFC7FFFF0024F400040000200C000020AC
:102CFC00FFFEFFFF00700040FFFFFFEF8813000096
:102D0C003820434B99681D000140102952D01B6894
:102D1C0040490B402B60022A37D1FEF7C1FE8027B9
:102D2C000600BF042B683B4229D1616A236AEA681A
:102D3C000B43394980260A401343E26AB604134315
:102D4C00226B1343626B1343A26A12021343EB60B0
:102D5C0080232A685B0413432B608023EA685B059D
:102D6C001343EB60FEF79CFE04002B68334200D04B
:102D7C0049E6FEF795FE001B0228F6D96EE6FEF733
:102D8C008FFE801B0228CDD968E6FEF789FE8026CF
:102D9C000400B6042B6818003040334204D1EB68B1
:102DAC001E4A1340EB605AE6FEF77AFE001B02281F
:102DBC00F0D953E6012A00D137E60322DB68216AF9
:102DCC001A408A4200D030E67022616A1A408A4268
:102DDC0000D02AE6FE21A26AC901194012029142D2
:102DEC0000D022E6F822E16A92031A408A4200D00F
:102DFC001BE6E022216B12051A408A4200D014E631
:102E0C00626B5B0F5B07934200D1FCE50DE6C0469D
:102E1C0000100240FFFFFFFE8C80C111FCFFFEEE94
:102E2C0038231E4A70B591681400194205D11368F5
:102E3C001B489B045B0FD84070BD91681940082952
:102E4C0027D091681940102917D1D368D168DB437A
:102E5C007F22E5684906490F2D0A013115409B0771
:102E6C0009D11048FDF76EF9E1686843490F01314B
:102E7C00FDF768F9E0E70A48F4E791681940202962
:102E8C0009D0926800201340182BD5D1FA20C0012C
:102E9C00D2E70448D0E780200002CDE700100240C2
:102EAC000024F40000127A00F7B505000E0000288B
:102EBC0001D10120FEBD07274A4C23683B408B42C1
:102ECC002AD329688B073BD4CB0748D40727236820
:102EDC003B40B3420AD92368BB4333432360FEF71C
:102EEC00DFFD019023683B40B3426BD12B683E4C15
:102EFC005B076FD4FFF794FFA3683C4A1B051B0FBD
:102F0C009B009B581F221340D840394B1860394BFB
:102F1C001868FEF7E5FCCDE72368BB430B43236041
:102F2C00FEF7BEFD019023683B40B342C9D0FEF7CB
:102F3C00B7FD019BC01A304B9842F4D90320B9E776
:102F4C00294A4B0704D5E0239068DB0103439360C7
:102F5C0093682A480340A86803439360B4E76A68FF
:102F6C00214F012A19D13B689B03A2D50721BB68CD
:102F7C008B431343BB60FEF793FD01903823BA6873
:102F8C001A406B68DB009A42A0D0FEF789FD019BCA
:102F9C00C01A194B9842F1D9D0E7022A03D13B68E9
:102FAC009B01E3D485E7002A03D13B685B05DDD4A4
:102FBC007FE70223032A03D1396E1942D6D178E771
:102FCC00F96DFAE7FEF76CFD019BC01A0A4B9842AB
:102FDC0088D9B3E7A3680A4A1340EA681343A3608D
:102FEC0088E7C0460020024000100240BC8C00085C
:102FFC00040000200C00002088130000FFF0FFFFED
:10300C00FF8FFFFF064B074A9B685B045B0F9B001F
:10301C009B581F221340044A1068D8407047C04682
:10302C0000100240FC8C000804000020072230B580
:10303C00F025094B02609C682D01144044609C688B
:10304C002C408460E0249B68E4012340C360034B64
:10305C001B6813400B6030BD001002400020024082
:10306C00F0B505002B68002085B09B033CD5802271
:10307C00604C5205E36B0090134208D1E36B134391
:10308C00E363E36B13400393039B012300938027BB
:10309C00594E7F0033683B433360FEF701FD0190CE
:1030AC0033683B4212D0E26DC02311009B00534E9B
:1030BC0019401A4203D06B6A994200D07AE0E36D52
:1030CC0000201E406B6A1E43E66506E0FEF7E8FC36
:1030DC00019BC01A0228E3D90320009B012B03D1CA
:1030EC00E36B474A1340E3632B68DA0706D50324E6
:1030FC0040494A6DA2436C6822434A65DA0606D5FC
:10310C003C49404C4A6D2240AC6822434A659A05C2
:10311C0006D538493C4C4A6D22406C6922434A65BD
:10312C005A0506D53349394C4A6D2240AC692243C5
:10313C004A659A0606D52F49354C4A6D2240EC68F3
:10314C0022434A655A040FD52A49EC694A6D92000C
:10315C00920822434A658022D205944204D18022EF
:10316C00CC6852022243CA609A020FD52149294EDB
:10317C004A6D2C6A324022434A658022D203944223
:10318C0004D18022CC6852042243CA601B050FD59F
:10319C00184A214C536D296923400B4353658023F6
:1031AC00DB01994204D18023D1685B020B43D360CD
:1031BC0005B0F0BD8023E26DE06D11005B020343AE
:1031CC00E365E36D154831400340E365E165D307E2
:1031DC0000D474E7FEF764FC07000222E36D13428F
:1031EC0000D06CE7FEF75CFC0D4BC01B9842F4D989
:1031FC0072E7C0460010024000700040FFFCFFFF69
:10320C00FFFFFFEFFFF3FFFFFFFFF3FFFFFFCFFF1A
:10321C00FFCFFFFFFFFFBFFFFF3FFFFFFFFFFEFFE3
:10322C0088130000F0B50E0085B015000400FEF701
:10323C0037FCAD192D1AFEF733FC8027254B019076
:10324C001B685B011B0D6B4303932268936818008A
:10325C0038403B4232D0731CF8D0FEF721FC019B66
:10326C00C01AA8422CD3E02123685A688A435A60BA
:10327C0082226168520091420CD18021A26809021D
:10328C008A4203D08021C9008A4203D140211A68A6
:10329C008A431A608021A26A89018A4206D1196880
:1032AC000D480140196019680A431A602300012275
:1032BC005D331A70002303205C34237005B0F0BD1D
:1032CC00039B5A1E93415B421D40039B013B03939E
:1032DC00BBE7C04604000020FFDFFFFFF0B517007E
:1032EC00002285B01D0002ABDA7004000E00FEF760
:1032FC00D7FBED192D1AFEF7D3FB23222368009080
:10330C0001932A4B1B6853431B0D6B43039321689A
:10331C0002ABDA1C8B681800304033423BD0C02320
:10332C00DB009E4204D1019B1B7BDBB21370137834
:10333C007B1CEFD0FEF7B4FB009BC01AA8422CD329
:10334C00E02123685A688A435A60822261685200DD
:10335C0091420CD18021A26809028A4203D08021BB
:10336C00C9008A4203D140211A688A431A6080211D
:10337C00A26A89018A4206D119680D480140196078
:10338C0019680A431A60230001225D331A70002366
:10339C0003205C34237005B0F0BD039B5A1E93418F
:1033AC005B421D40039B013BB0E7C046040000207C
:1033BC00FFDFFFFF70B513000D0016000A00C021DF
:1033CC0049010400FFF78AFF002805D02023226E54
:1033DC000320134323660FE0320029002000FFF77F
:1033EC0021FF0028F2D1C02133002A002000C9009F
:1033FC00FFF774FF0028E9D170BD0000F8B5040098
:10340C000120002C67D0636A002B65D18222616891
:10341C005200914200D0E36100232500A3625D3588
:10342C002B78DAB2002B05D123005C3320001A7004
:10343C00FEF7A2F9022340212B702268E56813687D
:10344C008B43E0211360C90000238D4248D88020B3
:10345C0040018D4200D0A362822366685B0033403A
:10346C008426A76836023E40334302262769A169A9
:10347C003E40334301266769B44637403B438027BF
:10348C00BF000F403B433827E669090C37403B43EC
:10349C008027266A37403B438027A66ABF01374006
:1034AC003B43136010230827666A3340666B374032
:1034BC003B43F0273F013D401D4304231940294362
:1034CC0008435060D369084900200B40D361634620
:1034DC0020665D342370F8BD0023236163619BE794
:1034EC00F02118000901B4E7FFF7FFFFF0B51E004B
:1034FC00030085B05C3301931B7804000D001700AA
:10350C000220012B00D17DE00123019A1370FEF7FC
:10351C00C7FA230000905D331A78D0B2012A00D08C
:10352C009FE0002D68D0002F66D002321A70002365
:10353C00A21D23662364A563A787E78702329387BE
:10354C00D3872365E3648023A16822681B02994218
:10355C0008D1402113688B43136080231168DB0171
:10356C000B43136040231168194202D111680B43BD
:10357C001360E021E0686368C900884244D9002BDD
:10358C0001D0012F07D12B880235D360E38FA563BF
:10359C00013B9BB2E38702250CE0226893682B4227
:1035AC0021D0A36B19880233D160A363E38F013B55
:1035BC009BB2E387E38F002BEFD131002000009A00
:1035CC00FFF7F8FE002849D1A368002B06D103931E
:1035DC002368DA6803929B680393039B206E431E57
:1035EC009841C0B208E0FEF75BFA009BC01AB042EB
:1035FC00E0D3731CDED0032001235D342370002341
:10360C00019A137005B0F0BD002B01D0012F08D129
:10361C002B781373A36B0133A363E38F013B9BB232
:10362C00E38702250DE023689A682A420DD0A26B2D
:10363C0012781A73A36B0133A363E38F013B9BB224
:10364C00E387E38F002BEED1B7E7FEF729FA009B57
:10365C00C01AB042F5D3731CF3D0CCE720232366F9
:10366C00B2E70220C8E770470200030001203D3298
:10367C00117881421CD1022111701B68DA68024357
:10368C00DA600E4A934206D08022D205934202D0D1
:10369C000B4A93420DD19A680A4900200A40062A27
:1036AC0006D007398A4203D0012219680A431A60EE
:1036BC0070471A68104318600020F9E7002C01408D
:1036CC0000040040070001007047704770477047C6
:1036DC000222036810B51969040011420ED0D96892
:1036EC0011420BD0053A1A61043202779B699B0791
:1036FC0000D186E0FFF7E9FF00232377042223683B
:10370C001969114211D0D96811420ED0093A1A61C7
:10371C00073222779A69C0239B0020001A4200D1FD
:10372C0075E0FFF7D2FF002323770822236819697D
:10373C0011420ED0D96811420BD0113A1A610D32D8
:10374C002277DB6920009B0767D0FFF7BEFF0023C1
:10375C002377102223681969114210D0D9681142BD
:10376C000DD0213A1A6119322277DA69C0239B00F5
:10377C0020001A4257D0FFF7A8FF0023237701221D
:10378C0023681969114207D0D968114204D0033A51
:10379C0020001A61FDF770FF80222368196911421D
:1037AC0008D0D968114205D0023AFF3A20001A61BC
:1037BC0000F0B5F823681A69D20507D5DA68120645
:1037CC0004D51C4A20001A6100F0AAF84022236894
:1037DC001969114207D0D968114204D0813A2000EE
:1037EC001A61FFF774FF202223681969114207D070
:1037FC00D968114204D0413A20001A6100F08EF8C9
:10380C0010BDFFF761FF2000FFF760FF74E7FFF7C3
:10381C005BFF2000FFF75AFF85E7FFF755FF2000FD
:10382C00FFF754FF93E7FFF74FFF2000FFF74EFF22
:10383C00A3E7C046FFFEFFFF1D4A10B50368904288
:10384C0006D08024E405A04202D01A4CA0420CD130
:10385C007024A3434C68234390420FD08024E4058A
:10386C00A0420BD0134CA04208D0134CA04205D060
:10387C00124CA04202D0124CA04203D1114C234056
:10388C00CC6823438024A3434C69234303608B6897
:10389C00C3620B688362904205D0084B984202D0F9
:1038AC00074B984201D10B6903630123436110BD9F
:1038BC00002C014000040040002000400044014066
:1038CC0000480140FFFCFFFF70B504000120002CF4
:1038DC0023D025003D352B78DAB2002B05D12300FF
:1038EC003C3320001A70FFF7BEFE02232B702068B9
:1038FC00211DFFF7A1FF2200012300204832137085
:10390C0047340A3A137053709370D3701371537118
:10391C009371D371137223702B7070BD7047704705
:10392C007047000030B5EFF31084012282F3108849
:10393C000168134D0B682B400B6084F31088EFF378
:10394C00108182F3108802680E4C936823409360B8
:10395C0081F31088C36E012B0AD1EFF3108183F32E
:10396C001088102402681368A343136081F3108835
:10397C000300202288331A600023C366036730BD1E
:10398C00DFFEFFFFFEFFFFEF30B5EFF310840122E7
:10399C0082F31088802501680B68AB430B6084F3BD
:1039AC001088EFF3108182F31088402302681068AE
:1039BC000343136081F3108830BD03000833DB6FC1
:1039CC0010B5212B06D1020056321388002B02D1E0
:1039DC00FFF7DAFF10BD036D01681C7801338C62B0
:1039EC0003651388013B9BB21380F3E70300083394
:1039FC00DB6F10B5212B06D1010056310B88002B43
:103A0C0002D1FFF7C1FF10BD026D046813880232AA
:103A1C00DB05DB0DA36202650B88013B9BB20B80BF
:103A2C00F1E7000030B5EFF31084012282F3108827
:103A3C000168094D8B682B408B6084F31088EFF381
:103A4C00108182F3108840230268106803431360CE
:103A5C0081F3108830BDC046FFFF7FFF03000833A1
:103A6C00DB6F70B5212B0CD10300010080246A336D
:103A7C001B885631002B04D00A88002A02D1FFF78C
:103A8C00D1FF70BD0568EA69224208D0026D167834
:103A9C000132AE6202650A88013A92B20A80013B99
:103AAC009BB2E7E703000833DB6F70B5212B0CD119
:103ABC000300010080246A331B885631002B04D08C
:103ACC000A88002A02D1FFF7ADFF70BD0668F269C3
:103ADC0022420AD0056D2A880235D205D20DB26277
:103AEC0005650A88013A92B20A80013B9BB2E5E770
:103AFC00F0B506000836F46F03000220202C41D1EB
:103B0C00013800293ED0002A3CD080209D6840011D
:103B1C00854206D11869002803D11F3C20002142A0
:103B2C0030D11C00803427780220012F2AD0013894
:103B3C0020701965190054310A804A801A0000213E
:103B4C008C32116021228021F2678022586E9205FE
:103B5C004901904217D1164A8D4203D119690029A7
:103B6C0000D1144A00205A672070EFF31081012213
:103B7C0082F310881A68802394681B042343936093
:103B8C0081F31088F0BD0C4A8D4203D119690029CC
:103B9C0000D10A4A00205A672070EFF310810122ED
:103BAC0082F310881A688023146823431360E7E7B4
:103BBC00693A0008B13A0008C7390008F939000819
:103BCC007047806A0023020010B55E321380083AF9
:103BDC001380FFF7F5FF10BD70470000F7B50168C3
:103BEC00C14DCB6904000A6888682B4210D120258E
:103BFC002B4200D199E080267605154006403543CE
:103C0C0000D192E0236F2000002B00D082E082E0F4
:103C1C00B64D0540AC466646B54D1540354300D112
:103C2C0083E001252B4207D0D60505D526000D6271
:103C3C008C3637683D433560250002268C3501955E
:103C4C00334207D0C50705D5019D0E622F68B61902
:103C5C003E432E600426334209D0C50707D5270002
:103C6C000E628C373E68350002262E433E600826D5
:103C7C0033420AD02027654617402F4305D0270032
:103C8C000E628C373D682E433E60802726003F0134
:103C9C008C363B4206D0550104D50F622021376883
:103CAC00394331603168002935D020210B420AD0CC
:103CBC001140802252051040014304D0236F002B89
:103CCC0001D0200098472268019B40271B6896680A
:103CDC0028223E40134020001E4321D0FFF722FE35
:103CEC0023689B683B4217D0EFF31081012383F3C9
:103CFC00108822689368BB43936081F31088E06F4F
:103D0C00002809D07B4B8363FDF7CEFF002802D03F
:103D1C00E06F836B9847F7BD2000FFF751FFFAE780
:103D2C00FFF74EFF019B1E60F5E7E56E012D00D0FD
:103D3C0098E01026334200D194E0324200D191E059
:103D4C000E628B68402218001040134252D0E36F71
:103D5C0019684B689BB2002BDDD020005C300088CA
:103D6C009842D8D920005E300380096820230800CF
:103D7C0018400190194231D1EFF3108785F3108868
:103D8C0020685D4E01683140016087F31088EFF3C5
:103D9C00108785F3108820688168A943816087F3B8
:103DAC001088EFF3108085F3108821688F68974393
:103DBC008F6080F31088220088321360019BE366C9
:103DCC00EFF3108185F31088102022681368834369
:103DDC00136081F31088E06FFDF728FF23002200A9
:103DEC005E335C321B881188C91A89B22000FFF738
:103DFC00F3FE90E722005E32138812889BB2002AF1
:103E0C0000D188E722005C321188C91A89B20029D6
:103E1C0000D180E7EFF3108785F310882268374EC6
:103E2C0013683340136087F31088EFF3108785F322
:103E3C0010882268324E93683340936087F3108861
:103E4C002300202288331A60E0662067EFF310808D
:103E5C0085F31088102522681368AB43136080F338
:103E6C001088C3E780256D032B4206D0460204D58B
:103E7C0020000D6200F0FAFD4DE780210B4207D0C7
:103E8C0080252D0411402840084301D0636FBAE609
:103E9C0040210B4216D00A4214D0EFF310800123BC
:103EAC0083F31088226813688B43136080F31088A7
:103EBC00230020220833DA67002320006367FDF714
:103ECC0077F828E7190205D5510003D5200000F03A
:103EDC00CFFD20E7DB0100D41DE7002A00DB1AE749
:103EEC00200000F0C4FD16E70F08000001000010D0
:103EFC0020010004CF3B0008FFFEFFFFDFFEFFFFA9
:103F0C00FEFFFFEF70B5EFF31084012282F31088EF
:103F1C000168194D0B682B400B6084F31088EFF38C
:103F2C00108482F3108801688B6893438B6084F350
:103F3C00108803001F3288331A600022C36E026798
:103F4C00012B16D1C266EFF3108483F3108801683D
:103F5C000F330A689A430A6084F310880268D169A7
:103F6C00194200D0136203005C331988FFF734FE4A
:103F7C0070BDFDF723F8FBE7DFFEFFFF030088337E
:103F8C001A6810B50368222A14D1010060315A6AEC
:103F9C000988836D0A401A800200023383655E3201
:103FAC001388013B9BB213801388002B01D1FFF7C0
:103FBC00A9FF10BD082299690A439A61F9E7030029
:103FCC0088331A6810B50368222A15D102006032B2
:103FDC005B6A12881340826D13700200836D5E322F
:103FEC00013383651388013B9BB213801388002B2C
:103FFC0001D1FFF787FF10BD082299690A439A6126
:10400C00F9E70000F0B5036885B0DD691A689E68B1
:10401C0002920200883212680400222A00D0B7E013
:10402C00030060331B880193030068331B880393E0
:10403C002200039B5E32002B02D020231D4223D191
:10404C0013889AB2002B1DD0230068331B8893422F
:10405C0018D9EFF31080012282F3108821684F4D9C
:10406C008B682B408B6080F310884D4B2367EFF3EC
:10407C00108182F310882023226810680343136098
:10408C0081F3108805B0F0BD236801995B6A0B4081
:10409C00A16D0B70A36D0133A3651388013B9BB21B
:1040AC00138007232268D5691D422DD0063B1D4283
:1040BC0008D00299C90505D5210013628C31086816
:1040CC0003430B6002231D4208D0F10706D52100E3
:1040DC0013628C310868DB1803430B6004231D4208
:1040EC0008D0F10706D5136222008C321168023B0E
:1040FC000B43136027008C373B68002B04D0200047
:10410C00FFF75EFD00233B6023005E331B889AB2F1
:10411C00002B00D08CE7EFF31087013383F310886A
:10412C002068036819001F4B1940016087F3108841
:10413C00EFF31080012383F3108821681A4F8B68EA
:10414C003B408B6080F3108823002021883319605A
:10415C00E36E2267012B17D1E266EFF3108083F335
:10416C00108821680F330A689A430A6080F310881C
:10417C002268D169194200D0136223005C332000FD
:10418C001988FFF729FD53E72000FCF717FF4FE7CD
:10419C00082299690A439A6174E7C046FFFFFFEF52
:1041AC00CB3F0008FFFEFFFFFEFFFFEFF0B50368FB
:1041BC0085B0DD691A689E68029202008832126826
:1041CC000400222A00D0B5E0030060331B88019361
:1041DC00030068331B8803932100039B5E31002B83
:1041EC0002D020231D4223D10B889AB2002B1DD064
:1041FC00230068331B88934218D9EFF310800122F7
:10420C0082F3108821684E4D8B682B408B6080F3B5
:10421C0010884C4B2367EFF3108182F31088202316
:10422C00226810680343136081F3108805B0F0BD59
:10423C002368019D586AA26D284010800232A26545
:10424C000A88013A92B20A800722DD6915422DD004
:10425C00063A154208D00299C90505D521001A6203
:10426C008C31086802430A600222154208D0F1071B
:10427C0006D521001A628C310868921802430A6034
:10428C000422154208D0F10706D51A622200022337
:10429C008C3211680B43136027008C373B68002B62
:1042AC0004D02000FFF78CFC00233B6023005E331E
:1042BC001B889AB2002B00D08EE7EFF310870133E6
:1042CC0083F310882068036819001F4B19400160A4
:1042DC0087F31088EFF31080012383F31088216893
:1042EC001A4F8B683B408B6080F310882300202191
:1042FC0088331960E36E2267012B17D1E266EFF366
:10430C00108083F3108821680F330A689A430A607F
:10431C0080F310882268D169194200D013622300FF
:10432C005C3320001988FFF757FC55E72000FCF799
:10433C0045FE51E7082299690A439A6176E7C0461F
:10434C00FFFFFFEF893F0008FFFEFFFFFEFFFFEFBF
:10435C00F8B504002569A168026829436569C36939
:10436C0029431068704D194328400143116051686E
:10437C006E48A5690140E06801436D485160824276
:10438C0001D0216A0D4391686A4E314029430F25B3
:10439C009160D16AA943656A2943D16266498A4210
:1043AC0016D10321654A526D0A408021013A090257
:1043BC00022A00D989E06248805C8B4260D00828D0
:1043CC001CD8FBF7ABFEAA1B801B7D1B1B1B6B00B9
:1043DC005C498A4200D19CE082420FD1C0228021EC
:1043EC00564B12015B6D090113408B421BD007D851
:1043FC00002B0AD08022D200934211D0012009E078
:10440C009342FBD1802636020EE0FEF7FBFD061E22
:10441C000AD100204C4BA366002323676367F8BDC9
:10442C00FEF7FEFCF3E7494E636A494A5B009F5A6C
:10443C0030003900FBF786FE032365686B4383422B
:10444C00DCD82B038342D9D300233A003000190067
:10445C00FBF7EEFF0027060E0B02334302026E0839
:10446C0092197B41100019002A003B00FBF7E0FF7A
:10447C00384BC218384B9A42C0D82368D860C8E76A
:10448C000828BBD8FBF740FE23BA08BA05BABABA5B
:10449C002700FEF7C5FC1CE02C4B1CE08020000222
:1044AC00636A2B4A5B00995AFBF74CFE65686B08F4
:1044BC00C0182900FBF746FE0200284B103ADAE739
:1044CC00FEF7AEFC2BE02148EAE78B4225D1FEF744
:1044DC0099FD031E9DD0626A1D495200515A180065
:1044EC00FBF730FE656840006B08C0182900FBF72D
:1044FC0029FE0200194B103A9A4200D97EE70F238D
:10450C00020000079A4393B2400F22681843D06010
:10451C007FE7802212029342D9D0FEF773FD002868
:10452C0000D176E7BCE7C046F369FFCFFFCFFFFFB2
:10453C0000800040FFF4FF110038014000100240E1
:10454C001C8D000800440040010001000024F40010
:10455C00208D000800FDFFFFFFFC0F00EFFF0000A7
:10456C00836A30B5DA0706D50168284C4A682240C0
:10457C00C46A22434A609A0706D50168244C4A68EB
:10458C002240046B22434A605A0706D50168214C2D
:10459C004A682240446B22434A601A0706D50168D8
:1045AC001D4C4A682240846B22434A60DA0606D5C9
:1045BC0001681A4C8A682240C46B22438A609A06AE
:1045CC0006D50168164C8A682240046C22438A6026
:1045DC005A0610D50168134D4A68446C2A40224390
:1045EC004A6080225203944205D14A680E4C224004
:1045FC00846C22434A601B0606D502680B4953683B
:10460C000B40C16C0B43536030BDC046FFFFFDFF38
:10461C00FFFFFEFFFFFFFBFFFF7FFFFFFFEFFFFF33
:10462C00FFDFFFFFFFFFEFFFFFFF9FFFFFFFF7FF26
:10463C00F7B5802704000D00160001933F01226896
:10464C00D3692B405B1B59424B41B34201D0002034
:10465C002BE0089B0133F3D0FDF722FA019BC01A23
:10466C00089B984201D8002B20D1EFF31080012237
:10467C0082F310882168214D0B682B400B6080F36E
:10468C001088EFF3108082F3108821688B689343B5
:10469C008B6080F31088220020230832D36780328D
:1046AC0013600023032080342370FEBD0421236893
:1046BC001A680A42C3D0DA693A42C0D01F62EFF3DB
:1046CC001080012282F3108821680C4D0B682B405E
:1046DC000B6080F31088EFF3108082F31088216850
:1046EC008B6893438B6080F3108822002023083260
:1046FC00D367803213605360D3E7C0465FFEFFFF81
:10470C00F0B51600020087B008320593D36F040091
:10471C000D000220202B53D10138002950D0002E3F
:10472C004ED08023A1685B01994204D12369002BF0
:10473C0001D1054244D12300803303931B7802201E
:10474C00012B3DD0012303990B70230000218C33E6
:10475C0019602123D367FDF7A3F9230054331E807E
:10476C0002331E8004938023A268070000265B019D
:10477C009A4204D12369B34201D12E001D000023BB
:10478C00039A1370230056331B889AB2002B0CD15A
:10479C00059B4021009320003B00FFF749FF0028B8
:1047AC000DD120230834E3670AE0059B0022009317
:1047BC0080213B002000FFF73BFF002802D00320A4
:1047CC0007B0F0BD2268002D0BD133880236DB0513
:1047DC00DB0D9362049B049A1B88013B9BB21380F4
:1047EC00D0E72B7801359362F4E70000030073B532
:1047FC00002604008C331E60FDF752F92368050077
:10480C001B681B0719D423681B685B070AD580211A
:10481C00104B0022009320002B00C903FFF708FF68
:10482C00002815D12200202300200832D3678032C3
:10483C001360E066803420700BE08021054B320061
:10484C000093890303002000FFF7F2FE0028DAD062
:10485C00032076BDFFFFFF0170B5041E01D10120BE
:10486C0070BD05000835EB6F002B04D102008032BF
:10487C001370FCF7C5FF242301212268EB67136832
:10488C0020008B431360FFF763FD0128E7D0A36A78
:10489C00002B02D02000FFF763FE236807495A68FB
:1048AC0020000A402A215A609A688A439A600122A1
:1048BC0019680A431A60FFF799FFD1E7FFB7FFFFAA
:1048CC000300F0B500248025816581685C331A8073
:1048DC005A806D0104670433A9424FD10169A1428A
:1048EC004AD13F491980030000218C3319602231D1
:1048FC00043B1960EFF31084012383F310880168E3
:10490C008D682B438B6084F31088802680240100F3
:10491C00476E85680369B60564018031B7423FD1A3
:10492C0006006836368896423AD82E4AA54203D1FC
:10493C002D4A002B00D02B4A026700220A709342AA
:10494C000BD0EFF31081012383F310880268FF333F
:10495C0014682343136081F31088EFF31081012353
:10496C0083F31088802302685B059068034393608F
:10497C0081F310880020F0BDFF21B3E7002904D19A
:10498C0001690029F8D07F21ACE780256D05A9428B
:10499C0004D101690029F6D03F21A3E71C80A2E7CE
:1049AC00124AA54203D1124A002B00D00F4A0267CB
:1049BC0000220A700132002B0AD0EFF3108182F32F
:1049CC001088902302685B00106803431360CFE7E4
:1049DC00EFF3108182F31088026820231068F4E74B
:1049EC00FF01000011400008B9410008CB3F00084E
:1049FC00893F00080300883370B51C680223202C03
:104A0C0030D1013B00292DD0002A2BD08023846883
:104A1C005B019C4206D10369002B03D101242300C6
:104A2C0021421FD10400803425780223012D19D096
:104A3C00013B237000240C4DC4660468AC420ED0BC
:104A4C00646824020BD5EFF3108583F31088802360
:104A5C000468DB0426683343236085F31088FFF772
:104A6C002FFF0300180070BD008000407047704796
:104A7C00704738230371002301608360C360038295
:104A8C00704770B50C0001791500072322000068EF
:104A9C004900FCF737FC002801D1002070BD2378B9
:104AAC002B705BB2002BF8DB0320F7E780687047B4
:104ABC00C0687047F0B5FF2000243126A3420DDDFD
:104ACC00155D6840082547B24000C0B2002F00DADF
:104ADC007040013D002DF6D10134EFE7401A414200
:104AEC004841C0B2F0BD70B50C0016000623220080
:104AFC0089790500FFF7DEFF00281FD0A3786278C4
:104B0C001B0213435BBAE2789BB21B0112111A43CE
:104B1C00642353430F221B0DEB60E3781A40237977
:104B2C001202134362791B021A43FA23DB0053432C
:104B3C001B0DF53BFF3BAB6001233370002070BDB8
:104B4C0030B50C0085B003AD2A706B7001790095FF
:104B5C00490002232200C9B20068FCF776FB05B0BD
:104B6C0030BD67B505000E00101E08D029790092E3
:104B7C00490032002868DBB2C9B2FCF72DFB6EBDD0
:104B8C0007B500236A467121D37101330732FFF751
:104B9C00E8FF6B46D8790EBD10B5FFF7F1FFC043A7
:104BAC00C0B2C00910BD10B50400FFF7F5FF00231B
:104BBC00984205D03322AC212000FFF7C1FF03003F
:104BCC00180010BD13B500236A46D3710400407C55
:104BDC0003280ED8FBF7A2FA02090F152000FFF7E5
:104BEC00E2FF60746B46D87916BD5020FCF75EFF6F
:104BFC0002236374F6E72000054A0649FFF741FFDC
:104C0C00EFE7200003490732FFF76DFFE9E7C046E5
:104C1C008F0200208802002070B50400FFF7B0FF5F
:104C2C00082203000125134010420BD1BE212000A5
:104C3C00FFF786FF1420FCF739FF2000FFF7A0FFD9
:104C4C00C0080540280070BD10B5040000680123A1
:104C5C00002813D0237C002B09D02000FFF7DCFFA9
:104C6C00032300280AD001232374002306E02179B2
:104C7C004900FCF798FA02230028EED1180010BD69
:104C8C0010B51C00431A0298511A001B5843FBF72D
:104C9C00E3FA001910BDA02010B50221C005FDF7E4
:104CAC0041F943425841C0B210BDA02010B51021AB
:104CBC00C005FDF737F943425841C0B210BD0000A2
:104CCC0010B502210348FDF72DF943425841C0B2FB
:104CDC0010BDC04600040050F8B5FFF7E6FF040015
:104CEC00FFF7D9FF40000443E4B2FFF7E9FF2300CC
:104CFC000343DBB20600002B03D0FCF7D1FE2D4B97
:104D0C0018602D4F3B78B3421DD1012E0FD02B4E86
:104D1C003378A34227D02A4F002C39D00025032BFF
:104D2C0000D11C003470FCF7BBFE386009E0FCF7C6
:104D3C00B7FE244B19251B68C01AC8235B00984288
:104D4C00E5D92800F8BDFCF7ABFE1E4C0025236806
:104D5C00C01AC8235B00984200D20C353E70FCF799
:104D6C009FFE2060EDE7002C01D10025E9E7FCF760
:104D7C0097FE134B1B68C01AC8235B009842F4D9EA
:104D8C000525012CDDD06D19022CDAD00A35D8E7B7
:104D9C00FCF786FE3B682500C01AC8235B009842CE
:104DAC00C0D233780325012BBCD06D19022BB9D09E
:104DBC000335B7E7A00200209202002091020020E8
:104DCC00940200209802002070B5FFF785FF114D6A
:104DDC00041E12D0104B1B78002B0ED033235B42D9
:104DEC001A004243D2B20D49332A10D82A785343C1
:104DFC00DBB2332B0BD902230B702B78A34203D0DD
:104E0C0021000748FBF73CFF20002C7070BD0123EC
:104E1C00F2E7C04690020020100000209D02002006
:104E2C00388D000810B5FFF7CFFF032809D00628EE
:104E3C0009D03220FCF73AFE044A13780133137080
:104E4C00F1E7002010BD0120FCE7C0469C020020C9
:104E5C0010B508233221024A0248FCF768FA10BD4B
:104E6C004C8D00083C02002030B5040085B002AD2A
:104E7C00A8220623322100950848FCF7ADF9002240
:104E8C00AB5E1B1123800222AB5E1B1163800422DC
:104E9C00AB5E1B11A38005B030BDC0463C020020A8
:104EAC0010B532210148FCF77EF910BD3C02002000
:104EBC00B522322110B50748FCF7ACF903001028D5
:104ECC0006D0012803D00320022B00D1002010BDF6
:104EDC000320FCE73C0200200023017203604360C6
:104EEC00704770B504000068002805D085691C2146
:104EFC0002F04EFC2800F7E7200070BD0068002887
:104F0C0004D043688B4201D08069F8E77047F8B54C
:104F1C0004000F0016001D00FFF7F0FF002802D060
:104F2C0086600570F8BD1C2002F046FC0023C360AF
:104F3C000361436183612368476086600570002BC1
:104F4C0002D120606060EDE763689861FAE770B5A4
:104F5C0005000E000468002C13D06268002A01D1F1
:104F6C00A469F8E72378002BFAD0E368A168F31A58
:104F7C009942F5D85B1A6361E66090472B7A002B57
:104F8C00EED070BD70B5194C06000D00200001214B
:104F9C0002F0FAF82000164902F052F8200001F055
:104FAC0033FD200001F03DFD002E1CD02B1E04D142
:104FBC00104B1B685B699B685B680D22012120000C
:104FCC0001F0F6FF20000C4902F03AF80B4B1D22C1
:104FDC0001211B68200001F0EBFF200001F021FDF6
:104FEC00FFF720FF70BD064B1B68E6E79C04002012
:104FFC00EF8400081C0000202297000814000020F9
:10500C0018000020002110B50800FFF7BBFF10BDF1
:10501C0010B5FFF7F7FF10BD10B5FFF7F3FF10BD8C
:10502C0010B5FFF7EFFF10BD10B5FFF7EBFF10BD8C
:10503C00704710B500210120FFF7A4FF002803D012
:10504C00FCF7A4F9FCF7A0F910BD0000F0B500279F
:10505C004E4C89B0200001F0D7FC0121200002F059
:10506C0093F820004A4901F0EBFF4A4B00221B68E1
:10507C0001215B6920009B683D005B6801F098FF93
:10508C0006AB200044491F71069701F0D9FF01239C
:10509C000493FFF799FE414B1870002303930328E8
:1050AC0005D0013B0393062801D102330393FCF78F
:1050BC00F7FC01223A4E05903378BFF35B8F134215
:1050CC000BD1300002F068FB002806D0FCF7E8FC9E
:1050DC00344B1860300002F06CFB324B059A1B68A5
:1050EC00D31A314A934202D8049B002B1BD02D4B70
:1050FC00059A002120001A6002F046F810230021C6
:10510C00200000930F22703301F02EFC01212000AF
:10511C0002F03AF8002D35D129000F222000234B44
:10512C0001F03EFF0135039B01332DD1200001F02E
:10513C0078FC0020FCF7BAFC00230493A9E72A00B2
:10514C001B4906A802F0CEFC0F222000B1B206AB20
:10515C0001F026FF28266E430135F6B27F2DEED1E5
:10516C0000257E370522002106A8FFB202F0AEFB17
:10517C00AF42D8D10F22390020000E4B01F010FFA6
:10518C003D00D0E70025E5E709B0F0BD9C04002008
:10519C00EF8400081C000020229700089E020020CB
:1051AC00A8020020AC020020DC050000648D000881
:1051BC006F8D0008768D000810B500210120FFF7D7
:1051CC00E1FE002815D0FCF76BFC84B2FCF768FC00
:1051DC00084B001B984203D80020FCF767FCF5E74E
:1051EC00BFF34F8F044B054ADA60BFF34F8FC046B5
:1051FC00FDE710BD9A02000000ED00E00400FA0586
:10520C0010B50E4C200001F00CFCFFF70BFE002833
:10521C0013D0200001F0F8FB0A20FCF747FC0A2011
:10522C00FCF744FC0A20FCF741FC0A20FCF73EFC8E
:10523C00200001F0F6FBFFF7F5FD10BD9C040020EB
:10524C007047704710B50400242102F0A1FA200029
:10525C0010BD10B50400182102F09AFA200010BD00
:10526C00074B70B5040003604068231D984204D0BE
:10527C00056802F089FA2800F7E7200070BDC046E7
:10528C00308F000810B50400FFF7EAFF200024213E
:10529C0002F07EFA200010BDF0B585B01D000AABFF
:1052AC001F880BAB1B88160001930CAB1B78144AA0
:1052BC0002930DAB1B780260039310AB0E9A1B7814
:1052CC00C26003770F9A119B0400416082610362F4
:1052DC00182002F071FA0B4B46600360019B0572BB
:1052EC008381029B47818373039BA060C37301235B
:1052FC000374037500232000236105B0F0BDC04684
:10530C00208F0008108F0008F0B524250400002021
:10531C00554385B00F0002914E191E49AB104B43FB
:10532C0003921D4A20606060A0600191934202D9F3
:10533C001A4802F05FFA002B02D0280002F03CFA67
:10534C0003003A004519A560154D2060964213D014
:10535C0051681D60596091689960D168D960116974
:10536C0019615169596191699961117F1977116AB4
:10537C00243219622433E9E7F61B2427019BB60873
:10538C0073439E00B6087E4380196060200005B010
:10539C00F0BDC046398EE338E3388E03958D000896
:1053AC00208F000870B5040005684668AE4205D031
:1053BC002B6828001B6898472435F7E720680028DD
:1053CC0001D002F0E1F9200070BD0000F0B505003D
:1053DC00DBB0012800D076E300240A2663231BAF40
:1053EC00F84AF949079406940594049402900194A0
:1053FC0000933800613B0396FFF74EFF0C23F34AF2
:10540C00F34907940694059404940295019500932E
:10541C0003960A3B24A8FFF73FFF1F23ED4AEE49F2
:10542C0007940694059404940295019500930396B1
:10543C001D3B2DA8FFF730FF1723E84AE8490794D6
:10544C000694059404940295019400930396153BDD
:10545C0036A8FFF721FF3B23E24AE3490794069461
:10546C00059404940295019400930396393B3FA84C
:10547C00FFF712FF3B23DD4ADD49079406940594A0
:10548C0004940295019400930396393B48A8FFF7C6
:10549C0003FF0622D74C3900200017AB19971A923C
:1054AC00FFF732FF51AD243D2B6828001B6898474D
:1054BC00BD42F8D12100D048002400F0FBFB0126AE
:1054CC000A2717232800CD4AC5490794069405944A
:1054DC0004940296019400930397153BFFF7DCFEAE
:1054EC003B23C74AC049079406940594049402963A
:1054FC00019400930397393B24A8FFF7CDFE3B237F
:10550C00C04ABB49079406940594049402960194EE
:10551C0000930397393B2DA8FFF7BEFE0322BA4E2A
:10552C0029001795300015AB36AD18922C00FFF7FB
:10553C00EBFE243D2B6828001B6898471BAB9D4253
:10554C00F7D1B24F3100380000F0B4FB00260A232B
:10555C000122AF490796069605960496039302928C
:10556C0001920093AB4A083B2800FFF795FEAA4A2C
:10557C00AA4BAA6203226B62AB64A94BEE622E6348
:10558C00EE636E64EB642E659B4B6E652E66AE66A9
:10559C00A44EAB65290030006F6313AB15951692C2
:1055AC00FFF7B2FE243C236820001B6898471BAB16
:1055BC009C42F7D19C4D3100280000F07BFB25610B
:1055CC0000259A4B954E6360994B2660A362994BCC
:1055DC006662E3632BABA560E560A56125621D7077
:1055EC000123954AE562656365640592934A944983
:1055FC0004920093934A01952DA80693039302936A
:10560C000795FFF749FE04228F4BE66623678F4B05
:10561C0021003C933DAB1D708D486567E56711AB70
:10562C003E9513941492FFF76FFE3FAE243E336801
:10563C0030001B6898471BAB9E42F7D10024012514
:10564C000A2763233000834A5F4900930794613B28
:10565C00069405940494039702950194FFF71CFE9D
:10566C000C237D4A5A49009307940A3B06940594EF
:10567C00049403970295019524A8FFF70DFE1F23B0
:10568C00764A5549009307941D3B0694059404945F
:10569C000397029501952DA8FFF7FEFD1723704A7D
:1056AC004F4900930794153B069405940494039773
:1056BC000295019436A8FFF7EFFD3B23694A4A494E
:1056CC0000930794393B0694059404940397029530
:1056DC0001943FA8FFF7E0FD3B23634A4449009344
:1056EC000794393B0694059404940397029501940E
:1056FC0048A8FFF7D1FD0722484B310051935B4B73
:10570C005B4852935B4B1196579358AB1D700FAB84
:10571C005394559459941292FFF7F6FD5AAE243EC9
:10572C00336830001B6898471BAB9E42F7D1524B35
:10573C0000240593514B01250227642204930A236C
:10574C004F490794069703930092073B4D4A30004C
:10575C0002950195FFF7A0FD2B004B4A4B4907948E
:10576C00069405940494019403950295009524A83D
:10577C00FFF792FD3A0031000DAB454810970F969C
:10578C00FFF7C2FD736A24A81B68984764223B4943
:10579C0008370323079406940594049100923D491D
:1057AC003D4A3000039702950195FFF775FD2B00DC
:1057BC003A4A3B4907940694059404940194039542
:1057CC0002956FE054020020C68D0008560200209E
:1057DC00CA8D000858020020CE8D00085A02002005
:1057EC00D28D00085C020020D68D00085E020020DD
:1057FC00DA8D0008F00200209003002060020020E7
:10580C006202002064020020FC020020B40300208D
:10581C00DE8D000866020020EB8D0008208F00084A
:10582C00F88D000808030020D8030020058E00081E
:10583C00128E0008355000081D5000082C820008FC
:10584C001F8E0008680200202C8E000811500008E2
:10585C00E40200206E020020700200207202002080
:10586C00740200207602002078020020398E000895
:10587C00140300202D5000083D500008538E0008E2
:10588C00468E00087A0200207C020020558E00080B
:10589C0020030020628E00087E020020800200207F
:1058AC006F8E0008009524A8FFF7F6FC8A4B8B4AF4
:1058BC000493E1239B008A49079406940594019470
:1058CC0000930397032302952DA8FFF7E5FC032211
:1058DC00310084480BAB0D960E92FFF715FD36ACDC
:1058EC00243C236820001B681BAD9847AC42F7D1C1
:1058FC007D4B01226B607D4B7D48AB610023A86220
:10590C007C487D49E8632BA829602A77AB602B6122
:10591C002B62696202707948EB62E86478486B63C9
:10592C00286634A86B64A9640270E96675492B6516
:10593C0029677549AB65AB663C913DA90A70734804
:10594C006B67EB6703323E93290009AB0B950C9206
:10595C00FFF7DAFC3FAC243C236820001B68984717
:10596C00AC42F8D16A4F6B49380000F0A3F96A4E8B
:10597C006A49300000F09EF9694D6A49280000F030
:10598C0099F95849684800F095F96049674800F062
:10599C0091F9674B674963600023A1626649564AD7
:1059AC00E1646649226021675F49A360E360A361FB
:1059BC0023626262E3622363E3636364A264A565AA
:1059CC00236563652366A366E266E1676367A36785
:1059DC00276166633C933F924892594A59494992D0
:1059EC00594A409151494E924FAA3E93439141934B
:1059FC0042934593479313700622544D21004A93CA
:105A0C004C935093280008AB09940A92FFF77CFC46
:105A1C0051AC243C236820001B6898471BAB9C426C
:105A2C00F7D129004A4800F045F900222020494BC3
:105A3C0049491B609A605B60484B19604849588122
:105A4C0080205960022140031972D8601A741A75AB
:105A5C00444B19705BB0F0BD3D48FFF701FC3B486F
:105A6C00FFF7A0FC3148FFF7FBFB2F48FFF7F8FBD3
:105A7C002B48FFF7F5FB2848FFF7F2FB2448FFF70C
:105A8C00EFFB2248FFF78EFC1648FFF78BFC2548EE
:105A9C00FFF788FC2148FFF785FC1E48FFF782FCC6
:105AAC003148FFF7DDFB3148FFF77CFC3048FFF74E
:105ABC00D7FB3048FFF776FC2F48FFF7D1FB2F4878
:105ACC00FFF770FCC6E7234C2068A042C4D00568E1
