:020000040800F2
:1000000000200020651A0008AD190008AF1900088B
:1000100000000000000000000000000000000000E0
:10002000000000000000000000000000B1190008FE
:100030000000000000000000B3190008B519000816
:10004000B51A0008B51A0008B51A0008B51A000854
:10005000B51A0008B51A0008B51A0008B719000843
:1000600000000000C1190008D1190008B51A0008E5
:10007000B51A0008B51A0008B51A0008B51A000824
:10008000B51A0008B51A0008B51A0008B51A000814
:1000900000000000B51A0008E1190008B51A0008B0
:1000A000B51A0008B51A0008B51A0008B51A0008F4
:0C00B000F1190008B51A0008000000005B
:1000BC0010B5064C2378002B07D1054B002B02D032
:1000CC00044800E000BF0123237010BD880000200D
:1000DC0000000000AC8B0008044B10B5002B03D0C3
:1000EC000349044800E000BF10BDC04600000000FA
:1000FC008C000020AC8B00080023C25C0133002A6A
:10010C00FBD1581E7047000002B4714649084900E3
:10011C00095649008E4402BC7047C04602B4714671
:10012C0049084900095C49008E4402BC7047C0462E
:10013C0003B47146490840004900095E49008E44E9
:10014C0003BC7047002243088B4274D303098B42D3
:10015C005FD3030A8B4244D3030B8B4228D3030C8B
:10016C008B420DD3FF22090212BA030C8B4202D32D
:10017C001212090265D0030B8B4219D300E0090A55
:10018C00C30B8B4201D3CB03C01A5241830B8B425E
:10019C0001D38B03C01A5241430B8B4201D34B0347
:1001AC00C01A5241030B8B4201D30B03C01A5241AC
:1001BC00C30A8B4201D3CB02C01A5241830A8B4231
:1001CC0001D38B02C01A5241430A8B4201D34B021A
:1001DC00C01A5241030A8B4201D30B02C01A52417E
:1001EC00CDD2C3098B4201D3CB01C01A5241830932
:1001FC008B4201D38B01C01A524143098B4201D36C
:10020C004B01C01A524103098B4201D30B01C01A96
:10021C005241C3088B4201D3CB00C01A5241830810
:10022C008B4201D38B00C01A524143088B4201D33D
:10023C004B00C01A5241411A00D20146524110469D
:10024C007047FFE701B5002000F0F0F802BDC04692
:10025C000029F7D076E7704703460B437FD4002282
:10026C0043088B4274D303098B425FD3030A8B423E
:10027C0044D3030B8B4228D3030C8B420DD3FF22A8
:10028C00090212BA030C8B4202D31212090265D076
:10029C00030B8B4219D300E0090AC30B8B4201D329
:1002AC00CB03C01A5241830B8B4201D38B03C01A70
:1002BC005241430B8B4201D34B03C01A5241030BE7
:1002CC008B4201D30B03C01A5241C30A8B4201D398
:1002DC00CB02C01A5241830A8B4201D38B02C01A43
:1002EC005241430A8B4201D34B02C01A5241030ABA
:1002FC008B4201D30B02C01A5241CDD2C3098B429F
:10030C0001D3CB01C01A524183098B4201D38B011B
:10031C00C01A524143098B4201D34B01C01A5241BE
:10032C0003098B4201D30B01C01A5241C3088B4203
:10033C0001D3CB00C01A524183088B4201D38B00EE
:10034C00C01A524143088B4201D34B00C01A524190
:10035C00411A00D201465241104670475DE0CA0F67
:10036C0000D04942031000D34042534000229C4627
:10037C0003098B422DD3030A8B4212D3FC22890131
:10038C0012BA030A8B420CD3890192118B4208D307
:10039C00890192118B4204D389013AD0921100E069
:1003AC008909C3098B4201D3CB01C01A524183097D
:1003BC008B4201D38B01C01A524143098B4201D3AA
:1003CC004B01C01A524103098B4201D30B01C01AD5
:1003DC005241C3088B4201D3CB00C01A524183084F
:1003EC008B4201D38B00C01A5241D9D243088B42A5
:1003FC0001D34B00C01A5241411A00D20146634648
:10040C0052415B10104601D34042002B00D54942AB
:10041C00704763465B1000D3404201B5002000F0EA
:10042C0005F802BD0029F8D016E770477047C046A2
:10043C00002B11D1002A0FD1002900D1002802D0A5
:10044C000021C943081C07B4024802A140180290BD
:10045C0003BDC046D9FFFFFF03B4684601B502983F
:10046C0000F006F8019B9E4602B00CBC7047C046DB
:10047C00F0B557464E464546DE46E0B504000D0045
:10048C009246994683B08B4230D82DD0494650467F
:10049C0000F0D8F829000600200000F0D3F8331A39
:1004AC009846203B9B4633D45A465346934042468B
:1004BC001F00534693401E00AF423AD8AF4200D1C2
:1004CC0078E05B46A41BBD41002B00DA75E00022EE
:1004DC0000230092019301235A4693400193012378
:1004EC0042469340009328E08242CFD90022002359
:1004FC00009201930C9B002B01D01C605D60009856
:10050C00019903B0F0BCBB46B246A946A046F0BD6B
:10051C00424620239B1A5246DA40414613004A4673
:10052C008A40170042461F43534693401E00AF4279
:10053C00C4D900220023009201934346002BD9D04A
:10054C00FB0772081A4346467B080EE0AB4201D10A
:10055C00A2420CD8A41A9D41012024196D410021FE
:10056C00013E24184D41002E06D0AB42EED9013E7F
:10057C0024196D41002EF8D1009801995B460019A1
:10058C006941002B24DB2B005A464446D3402A00F9
:10059C00E2401C005B461500002B2ADB26009E4027
:1005AC00330026004746BE403200801A9941009025
:1005BC0001919FE7A342BCD883E742462023002148
:1005CC009B1A0022009101920122DA40019286E7E7
:1005DC00424620239B1A2A0046469A402300F340A9
:1005EC00444613432A00E2401C005B461500002BD6
:1005FC00D4DA42462F002023260097409B1ADE4077
:10060C003B003343CDE7C0461C2101231B04984219
:10061C0001D3000C10391B0A984201D3000A083987
:10062C001B09984201D30009043902A2105C40183E
:10063C007047C046040302020101010100000000E2
:10064C000000000010B5002903D1FFF7DDFF2030BA
:10065C0002E0081CFFF7D8FF10BDC04670B51A4D5C
:10066C001A4C2B7888B0002B15D0FA261848F600B7
:10067C000178837889194679427802960679019631
:10068C00C078009006A806F01DFB200006A906F015
:10069C00FDF900232B700625210006A806F04FFA61
:1006AC000C4C2A0006A9200007F0CAFD1E230C22C0
:1006BC000721009505A806F051FB210005AA06A804
:1006CC0006F03CFB08B070BD120200201C0200209A
:1006DC00130200200C020020F0B5BB4DBB4E2B7852
:1006EC0087B0002B06D0BA4B32781B789A4201D0D7
:1006FC0000232B7004F06EFC2B78B64C3070002B62
:10070C000ED10C280CD106F023F9200006F052FE75
:10071C00200006F05CFE012332782B70AC4B1A7073
:10072C00AD4B1A78002A00D18BE000250121200066
:10073C001D7007F0FFF9A94B642100269E5F300065
:10074C00FFF770FE0FB238000A21FFF76BFE0BB2F9
:10075C000393039AA14B64211A803000FFF77CFDB0
:10076C002C23162680B258439D4A2A3B801805211B
:10077C002A0001900096200006F02BFD0A2138007B
:10078C00FFF76AFD2C23022780B25843944A1521A7
:10079C00801801902A0020002A3B009606F019FDD3
:1007AC003B00142224212000009706F0B3FD6B4679
:1007BC0099892C2359438A4A3B00891820002A0026
:1007CC0001910096282106F004FD864B2A00019326
:1007DC000E233821200000930D3B06F0FAFC824AD0
:1007EC000A2115782800FFF733FDCAB2039203994A
:1007FC007D4A280011700A21FFF7A4FC2C25C0B2F9
:10080C006843774B1A22C01805213B0001900096D3
:10081C00200006F0DEFC039A714B6A43D5181521B3
:10082C003B001A2220000195009606F0D2FC6F4B7B
:10083C001A2201930A23252100932000093B06F07C
:10084C00C8FC644C0021200007F074F9684D694A1B
:10085C002B7830215B019B180193102318220093F5
:10086C00200006F02AFD287805210130FFF7DAFD7B
:10087C00297002250121200007F05CF94023172282
:10088C0000212000009506F045FD5B4E3368002BDF
:10089C0000D176E001F02AF93368C01AFA235B0024
:1008AC00984200D96DE000222B0011002000009529
:1008BC0006F030FD514D2B78BFF35B8F504F514EEE
:1008CC00DB0709D4280007F03DFC002804D073791D
:1008DC0028003B7007F043FC3A7873794A4D9A42F2
:1008EC005FD001F003F9002628606E60454D444B43
:1008FC006A79464920001A7007F078F8200007F052
:10090C0066F801212000059607F014F9404FEA78AB
:10091C00390005A807F0BCFD05AB302225212000CD
:10092C0007F014F805A8FFF7E7FB3100020005A853
:10093C0007F0A2FC2A79390005A807F0A9FD05AB40
:10094C0030223521200007F001F8324D20002978A3
:10095C0007F0F0F82A223221200007F0D0F82E22DE
:10096C003221200007F0CBF801232A7853402B705A
:10097C000121200007F0DEF8200006F028FD07B06A
:10098C00F0BD2000002107F0D5F802230022200042
:10099C001100009306F0BEFC0121200007F0CAF8FC
:1009AC0088E701F0A3F80023020028686968121A8E
:1009BC008B411100002B00D093E7FA235B00994286
:1009CC0000D38EE7D4E7C04613010020D2020020EA
:1009DC0010010020DC040020320200203002002034
:1009EC00B28C0008A48C0008330200209A8C0008FA
:1009FC0012010020FA8B000808020020E8000020F9
:100A0C00110100200C02002018010020E09B0008BE
:100A1C00749900080000002010B501F067F801007F
:100A2C00014804F09AFBF8E7F0000020002210B512
:100A3C00034B044904481A7005F0D0FF10BDC046A2
:100A4C0012020020380200201C02002010B50122E6
:100A5C000249034804F0AEF810BDC046D80100208E
:100A6C00FC07002070B5050001F040F8040001F00F
:100A7C003DF8001BA84203D20A2001F03DF8F6E72E
:100A8C00A02001224021C00501F078FA70BD0000C1
:100A9C00F7B50027019001F029F83B000200214D29
:100AAC00060028686968121A8B411F4CBB4201D1A1
:100ABC00642A2FD902211D4801F05AFA002818D1B6
:100ACC00206861686422002312184B412E606F600D
:100ADC00226063606368002B04DC1AD12368019ADE
:100AEC00934216D9A02000224021C00501F046FAFD
:100AFC000FE064225242D3172068616812184B41F0
:100B0C00002B02DB22606360E4E7002200232260FA
:100B1C006360F7BDA02001224021C00501F02EFA30
:100B2C00D8E7C04600010020080100200004005056
:100B3C0010B50D4C200007F0BDFA200006F08CFC1F
:100B4C002000002107F0BDFA2000012106F0F2FF81
:100B5C000021200006F0F4FA200006F02BFC200007
:100B6C0006F035FC10BDC046DC04002010B5024870
:100B7C0004F070F910BDC046DC01002010B50A4C21
:100B8C00200004F025F900280CD0200004F093F884
:100B9C00064B1880200004F090F80122044B1870CA
:100BAC00044B1A7010BDC046DC010020300200203E
:100BBC00330200203202002070B50125064C25704E
:100BCC0004F074FA002805D004F048FA002800D08C
:100BDC00257070BD2070FCE7A500002010B5FFF754
:100BEC00EBFF322000F088FF0022014B1A6010BD91
:100BFC000802002010B56420FFF734FF00211548CF
:100C0C0006F0EAF900F0B0FBFFF792FFFFF71EFFCA
:100C1C00FFF70CFFFFF7AAFFFFF7E0FF0E4C0123D5
:100C2C0019220E49200004F078FA012364220C49A1
:100C3C00200004F072FA0123C8220A49200004F0B3
:100C4C006CFAFA22012308499200200004F065FA9C
:100C5C00FFF7E2FE4C020020F0000020E506000841
:100C6C0069060008210F0008A10F000870B50A00E2
:100C7C00022400290AD0074901230D78ECB2002D7B
:100C8C0006D10B700100044803F012F8200070BD6F
:100C9C001C00FBE734020020FC0700200FB413B546
:100CAC00094C04AB04CB40212000019307F03CFC21
:100CBC00FA2382B221009B00044803F001FE13BC0E
:100CCC0008BC04B01847C046A6000020FC07002052
:100CDC00F8B500240A262200304B314D1C705C7094
:100CEC009C70DC701C715C71605D303809282DD9EA
:100CFC0001320134112CF7D1A41A2A4AE4B214702F
:100D0C00DA78294E172A3ED81A793B2A3BD85A79D9
:100D1C003B2A38D81A78632A35D85978481E0B28BC
:100D2C0031D802200D00854328009D78013DEDB29D
:100D3C00042801D009280ED11D2D24D80C2C22D129
:100D4C001A48FFF7ABFF01233370F8BD995C714370
:100D5C0009189954CDE702291DD1FA23DB00D718C5
:100D6C00930706D138006231FFF772FA89B2002975
:100D7C0007D1C82138004900FFF76AFA89B2002967
:100D8C0006D11C2DDAD90A48FFF788FF0023DBE7D0
:100D9C001B2DF8D8D2E71E2DF5D8CFE71302002073
:100DAC0098010020A400002012020020C48B00082F
:100DBC00D58B0008F0B5494C0123227885B015007D
:100DCC00BFF35B8F1D401A4212D1200007F0BAF915
:100DDC0000280DD080231B01009364222B002900D6
:100DEC000A2004F053F83E4B1860200007F0B7F9C6
:100DFC003C4B3D4E1B78002B06D0300004F03AF9EA
:100E0C0004F05CF9394B187039480023F45E017812
:100E1C00384A4B009C520225725F374F0392DA53CB
:100E2C000425725F354E94469A53354B01311B782D
:100E3C00002B10D1CBB25A00072B09D82D4D013302
:100E4C00AC52039DDBB2D553654695530232F3E7A2
:100E5C0001222B4B1A7007231940002301701A0032
:100E6C0019001800254F234DEE5E234D80195E5F4F
:100E7C008919DE5F02339219102BF4D10725CE1796
:100E8C002E40C3172B407118D617181835401D4B20
:100E9C00C010AA18C910D210041B186059609A60AF
:100EAC00E317E4185C40039BC91ACB17C9185940C7
:100EBC006346D21AD317D2185A406118124B8A18AB
:100ECC001A60074B1B689A4206DD00F00FFE0F4BB1
:100EDC0018600F48FFF7E2FE05B0F0BDEC000020F3
:100EEC0054010020A5000020FC010020010000207E
:100EFC0020010020220100203201002042010020AC
:100F0C00DA010020F0010020040200200802002079
:100F1C00E58B000810B5FFF74DFFFFF72FFEFA2009
:100F2C00C000FFF7B5FD10BDF8B5134C05002378D4
:100F3C00002B15D00123114F23703B78DDB2002B11
:100F4C0019D10F4E0F4932780F48D2B207F078F909
:100F5C003378DBB23B700D4B35701D7025700AE099
:100F6C000A4B1B78002B06D000F0C0FD084B1B6809
:100F7C00C01AA842DED8F8BD2A0200202B0200209D
:100F8C00290200205801002098010020280200208E
:100F9C002C02002070B50220FFF7C6FF084C237806
:100FAC00002B0BD0074B1B78DDB2002B06D1FFF7C3
:100FBC008FFE21780448FFF759FE257070BDC0469E
:100FCC002B02002034020020980100200022014B4B
:100FDC001A70704734020020114B026870B59A42A7
:100FEC001CD1104D104C2B78002B12D101260F4B1D
:100FFC001E7000F07BFD0E4B18600E4B207819789C
:10100C008A19D2B21A701B780B4A5054402B00D953
:10101C002E7001222100094803F0CCFD70BDC046A2
:10102C00004400402A020020D801002028020020A1
:10103C002C0200202902002058010020FC0700206F
:10104C0010B5A2220024084B08491A805C6008489D
:10105C0005F0E2FD2100074804F044F80649074872
:10106C0003F0E7FD10BDC0461C02002080436D3824
:10107C000C020020F000002038020020DC010020CF
:10108C0010B5024804F033F810BDC046F000002043
:10109C0010B5034800F094F8024800F091F810BD28
:1010AC00380200204002002001220168F0B50B68D4
:1010BC008BB093430B6011230693002308933D4B95
:1010CC0006000792984240D180235B01A024019333
:1010DC008023E4051B010093009B200005A90593C8
:1010EC0000F098FE6B461F8801223900200000F0AA
:1010FC0045FF019B200005A9059300F08BFE6B4674
:10110C009B88012219002000029300F037FF652311
:10111C0003932000029900F02BFF0500012819D041
:10112C0000223900200000F029FFC046C046C0460E
:10113C00C04601223900200000F020FF039B013B38
:10114C000393002BE5D10BB0F0BD80231A4C019317
:10115C00DB18C0E71223069300230893009B07902B
:10116C0005A92000059300F055FE019B05A9124826
:10117C00059300F04FFE2A003900200000F0FEFE1F
:10118C002A000299200000F0F9FE802332681B022D
:10119C0011680B431360C0463268084913680B4052
:1011AC001360C0463368186805431D60300001F0B9
:1011BC00E1F8C8E76407002000040050FF7FFFFF40
:1011CC0001230370704713B50400007800280DD07C
:1011DC00C8230093002349001A00606889B201F00B
:1011EC001FF9431E98410123C0B2237016BD10B5E0
:1011FC004068FFF759FF10BD7FB505780400002D3E
:10120C0013D0FA200193089B400002900093606871
:10121C00012392B289B201F0E1FA0126002807D02D
:10122C0000252000FFF7E3FF2670280004B070BDF6
:10123C002670FAE71FB503AC01230094FFF7DCFF1F
:10124C00207804B010BD7FB505780400002D13D0B4
:10125C00FA200193089B40000290009360680123E0
:10126C0092B289B201F000FA0126002807D00025BD
:10127C002000FFF7BCFF2670280004B070BD26705C
:10128C00FAE71FB50F246C44237001230094FFF779
:10129C00DAFF04B010BD37B505780400002D0DD071
:1012AC00012040420090606801F0BAF8002805D097
:1012BC002000FFF79CFF01230025237028003EBD72
:1012CC0037B505780400002D0DD001204042009068
:1012DC00606801F037F9002805D02000FFF787FF80
:1012EC0001230025237028003EBDF8B50325060018
:1012FC000F0014005D435519AC420ED0390030007C
:10130C0063782278FFF7BDFF002807D0A07800286B
:10131C0001D000F0F1FB0334EEE70120F8BD000032
:10132C00044B054A05495A6001221A70044B596056
:10133C001A70704738020020B007002064070020A4
:10134C00400200200122014B1A7070474802002015
:10135C0010B540230021024A024805F027FD10BDBC
:10136C00700200204C02002010B540230021034ADB
:10137C00034805F06BFD012010BDC0467002002033
:10138C004C0200200C4B0D4A0D491A600A221A71AE
:10139C00002299610B499A60D9610121DA601A61C6
:1013AC005A615A625A63084A08489A63084A196291
:1013BC00D8621963DA63704770020020E6070601F1
:1013CC00010001001600010032000500E6070000D4
:1013DC003C000101044B054A1A6002225A60044A7F
:1013EC001A816422DA6070474C020020B00700209A
:1013FC0008A0FFFF10B5124B124C01222360124BB8
:10140C00200063600023E260A36023616361A36139
:10141C00E361236200F0AEFF011E01D072B6FEE75D
:10142C00200001F043FB011E01D072B6FEE7200044
:10143C0001F062FB002801D072B6FEE710BDC04679
:10144C0000540040B00700207321600010B59CB020
:10145C00382200210EA806F00FFF1022002168464A
:10146C0006F00AFF2822002104A806F005FF8020C0
:10147C00800001F065FB80235B0011930023129325
:10148C0017930833189380239B02199380239B0492
:10149C001A938023022440229B050EA80E941392CB
:1014AC00159416941B9301F077FB002801D072B6AB
:1014BC00FEE70723029003902100684600930194F5
:1014CC0001F0D2FD002801D072B6FEE72023079070
:1014DC0004A8049301F0A4FE002801D072B6FEE724
:1014EC001CB010BDF0B50125022789B000F0DEFA62
:1014FC00FFF7ACFF1422002103A806F0BDFEA020CC
:10150C00644E0022736B64492B437363736BC00589
:10151C002B400193019B736B00243B437363736BF0
:10152C003B400293029B00F029FD002210215B48F6
:10153C0000F024FDA020122303A9C00503930494FA
:10154C00059500F067FCA020534B03A9C00503933D
:10155C0005940694049500F05DFC504803A904948E
:10156C000397059500F056FC10234C4803A90393F0
:10157C0005940694049500F04DFC202303938423DA
:10158C0046489B0303A90493059500F043FC2200F5
:10159C003900072000F0C2FA072000F0E9FA4048B1
:1015AC00404B84600360E1235B0243600C23C46006
:1015BC0004618461C461046244628462436103F027
:1015CC002BFA041E01D072B6FEE7B36B02002B435C
:1015DC00B363B36B03212B4009200393039B00F0EF
:1015EC009DFA092000F0C4FA220003210A2000F021
:1015FC0095FA0A2000F0BCFA2B482C4B846003604F
:10160C0082235B004360E023DB00C36080239B00EC
:10161C008361F13BFF3BC361093BC362013304614E
:10162C0044610462446284620463436301F0C6FF54
:10163C00002801D072B6FEE71D4C1E4BA060236043
:10164C001D4B20616061A061E0612062200063603D
:10165C00E56000F08FFE011E01D072B6FEE720009F
:10166C0001F024FA011E01D072B6FEE7200001F051
:10167C0043FA002801D072B6FEE7FFF7BBFEA020AC
:10168C002A004021C00500F079FCFFF701FDFFF7AF
:10169C00B1FAFEE700100240608000000004005028
:1016AC00FC070020004400400007002000300140EF
:1016BC006407002000580040BC7D7010034B02688A
:1016CC0010B59A4201D100F005FA10BD0048014056
:1016DC0072B6FEE701200A4B82B0196C0143196403
:1016EC0080211A6C490502400092009ADA6B0A4379
:1016FC00DA63DB6B0B400193019B02B07047C04671
:10170C000010024010B504008AB01422002105A874
:10171C0006F0B2FD2368254A934222D10221244CC3
:10172C002448626B0A436263636B0B400193019B19
:10173C00C0235B0005936F3BFF3B0693002305A979
:10174C00079308930633099300F064FB8021E26B46
:10175C0089030A43E263E36B0B400293029B0AB0DA
:10176C0010BD154A9342FAD10121114CA020626B95
:10177C00C0050A436263636B0B400393039BC02356
:10178C005B01059312230693002305A90793089385
:10179C000633099300F03EFB8021E26BC9030A4338
:1017AC00E263E36B0B400493049BD8E700540040C6
:1017BC0000100240000400500058004030B50400F6
:1017CC0089B01422002103A806F056FD1A4B22689A
:1017DC009A422FD18020194B4001196C02250143EC
:1017EC0019641A6C0024024001200092009A596B73
:1017FC00014359635A6B03A902400192019A5A6B37
:10180C00A0202A435A635B6BC0052B400293029BBA
:10181C0080230495039305940694079400F0FAFA38
:10182C000823074803A90393049505940694079489
:10183C0000F0F0FA09B030BD003001400010024059
:10184C000004005070B5060088B01422002103A8D3
:10185C0006F012FD2D4B32689A4254D180202C4B4D
:10186C008002D96B00250143D963DA6B02400192E7
:10187C00019A0122596BA020114359635B6BC0057F
:10188C0013400293029B0C2303A903930A3B04937A
:10189C0005950695079200F0BDFA1E4C1E4B2000D4
:1018AC002360342363604C33A560E560236165617C
:1018BC00A561E561256200F081F9A84201D0FFF72E
:1018CC0007FF164BF467A662154C80222360352364
:1018DC006360253BA36000232000E3602261636109
:1018EC00A361E361236200F069F9002801D0FFF7DE
:1018FC00EFFE00221C201100B467A66200F00EF966
:10190C001C2000F035F908B070BDC0460044004002
:10191C00001002408C080020080002401C0002400D
:10192C00E808002010B5010086B00022162000F057
:10193C00F5F8162000F01CF98020144AC002116C36
:10194C0001431164136C69460340019302A8019B87
:10195C0001F04CFC01F036FC0D4C0E4B0E49236093
:10196C000E4BE360FEF7EEFB0023013860602000B5
:10197C002361A36002F088F803000120002B02D140
:10198C00200001F051FF06B010BDC046001002400F
:10199C00440900200048014040420F00E7030000CA
:1019AC00FEE7FEE770477047704710B5202000F047
:1019BC00EDFA10BD10B5024800F0D8F910BDC046C4
:1019CC008C08002010B5024800F0D0F910BDC046BC
:1019DC00E808002010B5024801F05AFF10BDC046BF
:1019EC004409002010B5024802F0D8F910BDC046D9
:1019FC00FC0700200120704710B506F0E3FB16230E
:101A0C0003600120404210BD10B506F0DBFB16232D
:101A1C000360FEE70B4A0C490300891A0B4A10B508
:101A2C001068002801D10A4810601068C3188B4256
:101A3C0006D906F0C7FB0C2303600120404210BD01
:101A4C001360FCE70004000000200020B00200201E
:101A5C00A8090020704700000D488546FFF7FAFFE3
:101A6C000C480D490D4A002302E0D458C4500433ED
:101A7C00C4188C42F9D30A4A0A4C002301E01360C3
:101A8C000432A242FBD306F0A3FBFFF72BFDFEE7CB
:101A9C00002000200000002088000020C8A50008BD
:101AAC0088000020A4090020FEE700008023084ADB
:101ABC005B00116810B50B4303201360FFF732FF76
:101ACC00041E03D1FFF706FE200010BD0124FBE726
:101ADC0000200240034A044B11681B785B1813600A
:101AEC007047C0469009002008000020014B186880
:101AFC007047C0469009002070B50400FFF7F6FF50
:101B0C000500631C02D0044B1B78E418FFF7EEFFB2
:101B1C00401BA042FAD370BD0800002030B5FF2551
:101B2C0003242A000440E400A24089012940D24346
:101B3C00A140C3B200280ADBC0240B4B80088000F4
:101B4C00C018A40003591A401143015130BD0F2095
:101B5C000340083B05489B089B001B18D8690240B2
:101B6C001143D961F2E7C04600E100E000ED00E06E
:101B7C00002805DB1F2318401E3B8340014A1360DD
:101B8C007047C04600E100E010B50400036C094A40
:101B9C009B089B189B00436403681421D8B2083837
:101BAC00FEF7D0FA044BA3641F2318401E3B83405E
:101BBC00E36410BD008200108008024070B5040080
:101BCC000120002C49D02568274B1421E818FEF77A
:101BDC00B9FA02238000A61D2064F3772B68234AF0
:101BEC00E16813402B60A3682A680B43216920002D
:101BFC000B4361690B43A1690B43E1690B43216AF8
:101C0C000B4313432B60FFF7BFFF8023A268DB015C
:101C1C009A4201D1002363603F236268616C1340D8
:101C2C000B60E06CA16C013A4860032A16D8104A8C
:101C3C00104899180322013B1340023A9A40A265BE
:101C4C00130000228900216560650A604360002052
:101C5C000123E0630534F377E07770BD002323653F
:101C6C006365A365F3E7C046F8FFFDBF0F80FFFF78
:101C7C003F820010400902400300F0B50120002B08
:101C8C0009D0981DC27F5C1D022A05D00422DA639C
:101C9C0000230120E377F0BD0E2519685E6C0A68FD
:101CAC00AA430A603268114D2A40326001220E6844
:101CBC00944696430E601C211A6C0D4E11406246E0
:101CCC008A4077683A437260D96C9A6C51601A6D8D
:101CDC00002A05D01168294011605A6D9B6D536024
:101CEC000123C3770020E077D5E7C046FFFEFFFF56
:101CFC0000000240F8B5811DCB7F022B04D00423D9
:101D0C00C363033B1800F8BD0E240268154D13681D
:101D1C00076CA3431360012314689C431460446C48
:101D2C0022682A4022601C243C40A3400E4A56687C
:101D3C0033435360C26C836C5A60036D002B05D027
:101D4C001A682A401A60436D826D5A600123002480
:101D5C00CB77431DDC77826B1300A242D2D0904725
:101D6C002300CFE7FFFEFFFF00000240F8B51C2167
:101D7C000427046C264B21403C008C401E680268F2
:101D8C00156826420FD03D420DD01168890602D449
:101D9C001168B94311605A6814435C60036B002BE3
:101DAC001BD0984719E002273C008C40264215D0E6
:101DBC003D4213D01168890606D40A251168A9433F
:101DCC0011600121821DD1775A68144300225C6096
:101DDC00431DDA77C36A9342E3D1F8BD0824270088
:101DEC008F403E42F9D02542F7D00E251468AC4303
:101DFC001460012215008D4029005C682143596054
:101E0C00831DC263DA770022431DDA77436BE2E766
:101E1C00000002400023F0B585B00A681400DC40D5
:101E2C0001D105B0F0BD012514009D402C4001945A
:101E3C002A4200D18EE04A685E0094460322644632
:101E4C0022400324B440E4430294541E012C2AD8AB
:101E5C008768029C2740CC68B4403C43846044684B
:101E6C000127AC432500644624093C409C402C438C
:101E7C004460C568029C25408C68B4402C43C46007
:101E8C00022A12D1DC080725A4000419276A03943E
:101E9C000F241D40AD00AC40A7430C69AC40274358
:101EAC00039C276201E0032AE3D10468029DB2403F
:101EBC0025402C0014430460C0246246A402224234
:101ECC0048D0254A03259C08A400A4180F221D40C5
:101EDC00ED00AA40A027266EFF0596430022B842CB
:101EEC000CD01E4F0132B84208D01D4F0132B842FF
:101EFC0004D01C4F0132B84200D00232AA406746CF
:101F0C0032432266144C019A2668019DD243354314
:101F1C00FF0201D435001540674625606668019DB7
:101F2C003543BF0201D435001540674665600E4C41
:101F3C00019DE66F3543BF0301D43500154067465C
:101F4C00E5670A4C019EE56F2E43FF0301D4154053
:101F5C002E00E667013360E70018024000040050D1
:101F6C0000080050000C00500818024004180240F1
:101F7C0000690840411E8841C0B27047002A01D058
:101F8C00816170478162FCE77047000070B5084DB5
:101F9C000400EB68184202D0E860FFF7F5FF2B69EC
:101FAC00234203D020002C61FFF7CCF970BDC04652
:101FBC000018024003689A69920701D500229A62C0
:101FCC0001229969114202D199690A439A617047B9
:101FDC0030B5039C00682343120489051A43890D0C
:101FEC00054B45680A43640D1C435200A543520837
:101FFC002A43426030BDC046FF63FF03F0B585B095
:10200C00029202680191916910230F0004000025CF
:10201C001F40194208D02026D36123689A693242A6
:10202C006ED1002D2FD004278021236849009A6996
:10203C000A4202D00125D9612F438021C9000A42EE
:10204C0003D0082001250743D961802189000A4269
:10205C005CD00222D96117432000FFF7ABFF226846
:10206C002D49536801250B405360636C20221F439C
:10207C002300413367641A7022000023423240343B
:10208C001370237044E0019A0132C7D0FFF72EFD84
:10209C00029BC01A019B984201D8002BBDD1220093
:1020AC008027423223680392586811789A693F025C
:1020BC00C9B23A420BD08022D201104207D120295A
:1020CC0005D059680A435A60FFF710FD0290236847
:1020DC009B691F00374033429FD1FFF707FD029BDE
:1020EC00C01A1928F3D9636C0125334363642300A8
:1020FC0041331E70039B1F70230040331F70E6E7B3
:10210C000427002D90D1DE6101358DE7002DA3D180
:10211C00280005B0F0BDC04600E800FEF8B504008C
:10212C000D001600042723689B693B4211D1320035
:10213C0029002000FFF762FF002824D1202123680A
:10214C009A690A4223D09A693A4204D0228D002A15
:10215C0001D00020F8BD99691022080010401142EE
:10216C0013D0DA610C3A62642021D9615A681048A4
:10217C0002405A602300220041331970002342327E
:10218C001370403423700120E4E76064ECE7FFF740
:10219C00ADFC801BA84201D8002DC4D12022636C59
:1021AC0013436364230041331A7040340023E9E77E
:1021BC0000E800FEF8B504000D00160002272368A5
:1021CC009B693B4201D00020F8BD32002900200061
:1021DC00FFF714FF002815D16B1CF0D0FFF786FC1D
:1021EC00801BA84201D8002DE9D12022636C134337
:1021FC006364230041331A702200002342324034BE
:10220C00137023700120DFE7F8B504000D001600F1
:10221C00202723689B693B4201D00020F8BD320087
:10222C0029002000FFF7EAFE002813D1FFF75EFC1F
:10223C00801BA84201D8002DEBD12022636C1343E4
:10224C006364230041331A7022000023423240346D
:10225C00137023700120E1E7F8B504000E0017009D
:10226C001D002268936933409B1B59424B41BB4272
:10227C0001D0002017E06B1CF4D0FFF737FC069B55
:10228C00C01AA84201D8002DEBD12022636C01208A
:10229C0013436364230041331A702200002342323B
:1022AC00403413702370F8BDF7B514001E00DAB279
:1022BC00164B050000938023089F5B04FFF788FEF4
:1022CC0039002800099AFFF775FF002801D001207A
:1022DC00FEBD2B68012E0DD1E4B29C62099B00223D
:1022EC00009380213B002800FFF7B6FF431E984166
:1022FC00C0B2EDE7220A9A6239002800099AFFF76A
:10230C0059FF0028E3D12B68E6E7C0460020008087
:10231C00F7B5050014001E00DAB2154B089F0093A8
:10232C000023FFF755FE39002800099AFFF742FFFA
:10233C00002801D00120FEBD2B68012E0DD1E4B286
:10234C009C62099B0022009340213B002800FFF770
:10235C0083FF431E9841C0B2EDE7220A9A6239000E
:10236C002800099AFFF726FF0028E3D12B68E6E73F
:10237C000020008070B504000120002C3FD0250007
:10238C0041352B78DAB2002B05D1230040332000E5
:10239C001A70FFF7B7F9242301212B702368E0682A
:1023AC001A68A6688A431A6061681A4A0A401A6158
:1023BC009968194A11409960012821D1802109029C
:1023CC00314399605868154901435960D968002018
:1023DC000A40DA60616922690A43A16909020A4369
:1023EC00DA60216AE2690A431A60012219680A4319
:1023FC001A60202360642B7020634234207070BDFF
:10240C0084210902314399600228DBD18021090122
:10241C005960D7E7FFFFFFF0FF7FFFFF008000024E
:10242C00F0B587B0059303004133049203931B78F6
:10243C0004000F000220202B14D1230040331A7803
:10244C00012A0FD001261E70FFF750FB80210500DA
:10245C0000901923320020000902FFF7FDFE00282E
:10246C0002D0012007B0F0BD21232600039A42368A
:10247C001370113B3370049B60646362059B606353
:10248C006385628D2D4BFF2A20D9FF222285009374
:10249C0080235B0439002000FFF79AFD638D2A002E
:1024AC0020000C99002B19D1FFF7AEFE0028D8D1D3
:1024BC0020212368224DD9615A682A405A60230092
:1024CC0040344133197030702070CBE7628D92B27A
:1024DC002285D2B2009380239B04DBE7FFF76AFED0
:1024EC000028BED1636A2268197801339162636255
:1024FC00638D228D013B9BB26385013A638D92B251
:10250C002285002BCAD0002AC8D1802120000C9B28
:10251C000095FFF7A1FE0028A3D1638DFF2B06D9F0
:10252C00FF2323858023FF2200905B04B2E7628D9A
:10253C0092B22285D2B20090CDE7C0460020008036
:10254C0000E800FEF0B587B0059303004133049218
:10255C0003931B7804000F000220202B14D12300BE
:10256C0040331A78012A0FD001261E70FFF7BEFAED
:10257C008021050000901923320020000902FFF78A
:10258C006BFE002802D0012007B0F0BD22232600EC
:10259C00039A42361370123B3370049B606463627F
:1025AC00059B60636385628D2D4BFF2A20D9FF222A
:1025BC002285009380235B0439002000FFF708FD7F
:1025CC00638D2A0020000C99002B19D1FFF71CFEFB
:1025DC000028D8D120212368224DD9615A682A407D
:1025EC005A60230040344133197030702070CBE7AF
:1025FC00628D92B22285D2B2009380239B04DBE7DA
:10260C00FFF78CFD0028BED12368626A5B6A1370E9
:10261C00636A228D01336362638D013A013B9BB285
:10262C006385638D92B22285002BC9D0002AC7D155
:10263C00802120000C9B0095FFF70EFE0028A2D1F4
:10264C00638DFF2B06D9FF2323858023FF22009067
:10265C005B04B1E7628D92B22285D2B20090CCE7D6
:10266C000024008000E800FEF0B589B007930EABA3
:10267C00069204CB04001B8803920493030041339D
:10268C0005931B780F000220202B08D1002A02D0C2
:10269C00049B002B05D180239B006364012009B0AF
:1026AC00F0BD2300403302931B780220012BF6D09F
:1026BC000122029B1A70FFF719FA80210090050085
:1026CC001923012220000902FFF7C6FD061EE5D1E1
:1026DC002123059A390013702300423305934023BC
:1026EC00059A1370039B60646362049B606363854B
:1026FC00109B20000093069A079B0195FFF7D4FDD1
:10270C00002802D0029B1E70C8E7638DFF2B54D9A2
:10271C00FF22802322855B04009039002000802654
:10272C00FFF756FCB6042A0020001099FFF742FD73
:10273C000028B3D1636A226819780133916263620D
:10274C00638D228D013B9BB26385013A638D92B2FE
:10275C002285002B17D0002A15D180212000109B38
:10276C000095FFF779FD002800D097E7638DFF2BCC
:10277C002BD9FF2323858023FF2200905B04390093
:10278C002000FFF725FC638D002BCCD12A00200004
:10279C001099FFF739FD002800D07FE7202123682E
:1027AC000D4DD9615A682A405A6023004133197083
:1027BC00059B40341870207071E78023628D9B0458
:1027CC0092B22285D2B20090A7E7628D330092B20A
:1027DC002285D2B20090D2E700E800FEF0B58BB0B3
:1027EC00099310AB089204CB04001B880592069346
:1027FC000300413307931B780D000220202B08D1D6
:10280C00002A02D0069B002B05D180239B00636419
:10281C0001200BB0F0BD2300403304931B78022041
:10282C00012BF6D00127049B1F70FFF75FF9802165
:10283C000390009019233A0020000902FFF70CFDC9
:10284C00061EE5D12223079A290013702300423378
:10285C0007934023079A1370059B60646362069B81
:10286C0060636385039B20000193129B089A00937D
:10287C00099BFFF74DFD002802D0049B1E70C7E793
:10288C00628D364BFF2A59D9FF2222850093802373
:10289C005B04290020008026FFF79AFBFF27B60473
:1028AC00039B0022009304212000129BFFF7D4FC11
:1028BC000028ADD12368626A5B6A1370636A228D4B
:1028CC0001336362638D013A013B9BB26385638D77
:1028DC0092B22285002B17D0002A15D1039B8021A0
:1028EC0000932000129BFFF7B7FC002800D08FE765
:1028FC00638DFF2B2AD98023FF2227855B04009050
:10290C0029002000FFF764FB638D002BC8D1200049
:10291C00039A1299FFF778FC002800D078E7202161
:10292C0023680F4DD9615A682A405A6023004133FD
:10293C001970079B4034187020706AE7628D92B250
:10294C00228500938023D2B29B04A2E7628D3300D0
:10295C0092B22285D2B20090D2E7C0460024008009
:10296C0000E800FEF0B589B005921E0002000023BD
:10297C0041320793137804000225202B5CD10368A5
:10298C009869802307001B021F40184254D1200075
:10299C0040300378012B4FD001230370242089058C
:1029AC0010708A0D676404920393E368012B2BD19A
:1029BC003D4B049A134322685360FFF797F802903B
:1029CC002368039A9D699B696D091B091540134087
:1029DC001D431CD0236810279B691A003A403B42C8
:1029EC002DD1029B2021009320003300FFF734FCF3
:1029FC00002821D1202322680500D3612200403415
:102A0C0041321370207017E0A0239B01D1E7731C97
:102A1C00D6D0FFF76BF8029BC01AB04201D8002E3B
:102A2C00CED12200202341321370626C0125134356
:102A3C006364002340342370280009B0F0BD029B6E
:102A4C0000220093202133002000FFF705FC021E1A
:102A5C00F2D123680598DF612027DF610799814255
:102A6C000FD180215868C90101435960029B39007C
:102A7C00009320003300FFF7EFFB0028DCD1236824
:102A8C00DF61079B059A01330793079B934200D2A2
:102A9C008BE72200202341321370626C40341343C5
:102AAC00636000232370C7E700200002F0B5040028
:102ABC004134227803000F000220D6B2202A18D10C
:102ACC001D0040352A78012A13D0242222701B685D
:102ADC00233A19680748914319601968014000208E
:102AEC00196019683943196019680A431A6026700D
:102AFC002870F0BDFFEFFFFF0200F0B541321478F3
:102B0C000300E5B20220202C17D11C00403426789B
:102B1C00012E12D0223010701B6823381E68074F0C
:102B2C0086431E601E6809023E40314319601968D5
:102B3C0008431860002015702070F0BDFFF0FFFFF7
:102B4C0010B5114C1149236802000B40034323605C
:102B5C00802300209B009A420ED10D4B0D49186822
:102B6C0006235843FDF7EEFA8022431CD20061691C
:102B7C0008001040114200D110BD002B01D0013BC8
:102B8C00F5E70320F8E7C04600700040FFF9FFFFAF
:102B9C000400002040420F00F0B5040085B000286E
:102BAC0023D00368DB0710D423689B075ED423680B
:102BBC001B0700D5C3E023685B0700D5F5E0E2698D
:102BCC00002A00D07CE1002029E03822B04DAB680F
:102BDC001340EA68102B0AD1D243930709D12B6812
:102BEC009B03E1D56368002BDED1012017E0082B95
:102BFC00F5D0802263685202934212D12A681343A3
:102C0C002B60FEF773FF80270600BF022B683B4248
:102C1C00CAD1FEF76BFF801B6428F7D9032005B0DF
:102C2C00F0BDA021C9028B4208D180232968DB02A8
:102C3C000B432B602B681A432A60E2E72A689549FC
:102C4C000A402A602A6894490A402A60002BD8D18D
:102C5C00FEF74CFF80270600BF022B683B42A3D037
:102C6C00FEF744FF801B6428F7D9D7E73823884D3B
:102C7C00AA681340EA68102B28D103210A40022AC3
:102C8C0026D12A68520502D5E268002AADD06968BF
:102C9C0062698248120201400A436A60002B0DD11E
:102CAC002B687F4A1340226913432B602B687D4AA3
:102CBC009B045B0FDA4013007B4A13607B4B186854
:102CCC00FEF730FE002800D171E78EE7002BD8D03C
:102CDC00E368002B20D02B68714A802713402269AF
:102CEC00FF0013432B6080232A685B0013432B6087
:102CFC00FEF7FCFE06002B683B4207D06A6863694E
:102D0C0066491B020A4013436B6050E7FEF7EEFE68
:102D1C00801B0228EFD981E72B68654A8027134076
:102D2C002B60FEF7E3FE0600FF002B683B4200D150
:102D3C003DE7FEF7DBFE801B0228F6D96EE7382153
:102D4C00534B9A681D000A40182A08D11B6E9B072A
:102D5C0000D430E7A369002B00D02CE745E7A2692B
:102D6C000123002A10D02A6E022713432B66FEF78C
:102D7C00BDFE06002B6E3B4200D01CE7FEF7B6FEF4
:102D8C00801B0228F6D949E72A6E02279A432A6645
:102D9C00FEF7ACFE06002B6E3B4200D10BE7FEF7B4
:102DAC00A5FE801B0228F6D938E73821384B9A68E3
:102DBC001D000A40202A08D1DB6D9B0700D4FEE6DB
:102DCC00A368002B00D0FAE60FE780220021DB6B12
:102DDC0052050091134208D1EB6B1343EB63EB6B81
:102DEC0013400393039B012300938027314E7F00F4
:102DFC0033683B4215D0A368012B22D1EA6D1343F3
:102E0C00EB65FEF773FE02270600EB6D3B4238D0F4
:102E1C00009B012B00D0D2E6EB6B274A1340EB63EF
:102E2C00CDE633683B433360FEF760FE01903368B8
:102E3C003B42E0D1FEF75AFE019BC01A0228F6D99C
:102E4C00ECE6EA6D052B05D1013B1343EB65EA6D0E
:102E5C000123D4E701218A43EA65EA6D03318A43F1
:102E6C00EA65002BCDD1FEF741FE02270600EB6D83
:102E7C003B42CDD0FEF73AFE104B801B9842F6D960
:102E8C00CCE6FEF733FE0D4B801B9842BDD9C5E650
:102E9C0000100240FFFFFEFFFFFFFBFFFF80FFFF64
:102EAC00FFC7FFFF0024F400040000200C000020EA
:102EBC00FFFEFFFF00700040FFFFFFEF88130000D4
:102ECC003820434B99681D000140102952D01B68D3
:102EDC0040490B402B60022A37D1FEF707FE8027B2
:102EEC000600BF042B683B4229D1616A236AEA6859
:102EFC000B43394980260A401343E26AB604134354
:102F0C00226B1343626B1343A26A12021343EB60EE
:102F1C0080232A685B0413432B608023EA685B05DB
:102F2C001343EB60FEF7E2FD04002B68334200D044
:102F3C0049E6FEF7DBFD001B0228F6D96EE6FEF72C
:102F4C00D5FD801B0228CDD968E6FEF7CFFD802683
:102F5C000400B6042B6818003040334204D1EB68EF
:102F6C001E4A1340EB605AE6FEF7C0FD001B022818
:102F7C00F0D953E6012A00D137E60322DB68216A37
:102F8C001A408A4200D030E67022616A1A408A42A6
:102F9C0000D02AE6FE21A26AC90119401202914210
:102FAC0000D022E6F822E16A92031A408A4200D04D
:102FBC001BE6E022216B12051A408A4200D014E66F
:102FCC00626B5B0F5B07934200D1FCE50DE6C046DC
:102FDC0000100240FFFFFFFE8C80C111FCFFFEEED3
:102FEC0038231E4A70B591681400194205D1136834
:102FFC001B489B045B0FD84070BD91681940082991
:10300C0027D091681940102917D1D368D168DB43B8
:10301C007F22E5684906490F2D0A013115409B07AF
:10302C0009D11048FDF78EF8E1686843490F01316A
:10303C00FDF788F8E0E70A48F4E791681940202981
:10304C0009D0926800201340182BD5D1FA20C0016A
:10305C00D2E70448D0E780200002CDE70010024000
:10306C000024F40000127A00F7B505000E000028C9
:10307C0001D10120FEBD07274A4C23683B408B42FF
:10308C002AD329688B073BD4CB0748D4072723685E
:10309C003B40B3420AD92368BB4333432360FEF75A
:1030AC0025FD019023683B40B3426BD12B683E4C0D
:1030BC005B076FD4FFF794FFA3683C4A1B051B0FFB
:1030CC009B009B581F221340D840394B1860394B3A
:1030DC001868FEF727FCCDE72368BB430B4323603E
:1030EC00FEF704FD019023683B40B342C9D0FEF7C4
:1030FC00FDFC019BC01A304B9842F4D90320B9E770
:10310C00294A4B0704D5E0239068DB010343936005
:10311C0093682A480340A86803439360B4E76A683D
:10312C00214F012A19D13B689B03A2D50721BB680B
:10313C008B431343BB60FEF7D9FC01903823BA686C
:10314C001A406B68DB009A42A0D0FEF7CFFC019BC3
:10315C00C01A194B9842F1D9D0E7022A03D13B6827
:10316C009B01E3D485E7002A03D13B685B05DDD4E2
:10317C007FE70223032A03D1396E1942D6D178E7AF
:10318C00F96DFAE7FEF7B2FC019BC01A0A4B9842A4
:10319C0088D9B3E7A3680A4A1340EA681343A360CB
:1031AC0088E7C0460020024000100240B498000896
:1031BC00040000200C00002088130000FFF0FFFF2B
:1031CC00FF8FFFFF064B074A9B685B045B0F9B005E
:1031DC009B581F221340044A1068D8407047C046C1
:1031EC0000100240F498000804000020072230B5BB
:1031FC00F025094B02609C682D01144044609C68CA
:10320C002C408460E0249B68E4012340C360034BA2
:10321C001B6813400B6030BD0010024000200240C0
:10322C00F0B505002B68002085B09B033CD58022AF
:10323C00604C5205E36B0090134208D1E36B1343CF
:10324C00E363E36B13400393039B012300938027F9
:10325C00594E7F0033683B433360FEF747FC0190C7
:10326C0033683B4212D0E26DC02311009B00534ED9
:10327C0019401A4203D06B6A994200D07AE0E36D90
:10328C0000201E406B6A1E43E66506E0FEF72EFC2E
:10329C00019BC01A0228E3D90320009B012B03D108
:1032AC00E36B474A1340E3632B68DA0706D5032424
:1032BC0040494A6DA2436C6822434A65DA0606D53A
:1032CC003C49404C4A6D2240AC6822434A659A0501
:1032DC0006D538493C4C4A6D22406C6922434A65FC
:1032EC005A0506D53349394C4A6D2240AC69224304
:1032FC004A659A0606D52F49354C4A6D2240EC6832
:10330C0022434A655A040FD52A49EC694A6D92004A
:10331C00920822434A658022D205944204D180222D
:10332C00CC6852022243CA609A020FD52149294E19
:10333C004A6D2C6A324022434A658022D203944261
:10334C0004D18022CC6852042243CA601B050FD5DD
:10335C00184A214C536D296923400B435365802334
:10336C00DB01994204D18023D1685B020B43D3600B
:10337C0005B0F0BD8023E26DE06D11005B020343EC
:10338C00E365E36D154831400340E365E165D30720
:10339C0000D474E7FEF7AAFB07000222E36D134288
:1033AC0000D06CE7FEF7A2FB0D4BC01B9842F4D982
:1033BC0072E7C0460010024000700040FFFCFFFFA7
:1033CC00FFFFFFEFFFF3FFFFFFFFF3FFFFFFCFFF59
:1033DC00FFCFFFFFFFFFBFFFFF3FFFFFFFFFFEFF22
:1033EC0088130000F0B50E0085B015000400FEF740
:1033FC007DFBAD192D1AFEF779FB8027254B01902B
:10340C001B685B011B0D6B430393226893681800C8
:10341C0038403B4232D0731CF8D0FEF767FB019B5F
:10342C00C01AA8422CD3E02123685A688A435A60F8
:10343C0082226168520091420CD18021A26809025B
:10344C008A4203D08021C9008A4203D140211A68E4
:10345C008A431A608021A26A89018A4206D11968BE
:10346C000D480140196019680A431A6023000122B3
:10347C005D331A70002303205C34237005B0F0BD5B
:10348C00039B5A1E93415B421D40039B013B0393DC
:10349C00BBE7C04604000020FFDFFFFFF0B51700BC
:1034AC00002285B01D0002ABDA7004000E00FEF79E
:1034BC001DFBED192D1AFEF719FB23222368009032
:1034CC0001932A4B1B6853431B0D6B4303932168D9
:1034DC0002ABDA1C8B681800304033423BD0C0235F
:1034EC00DB009E4204D1019B1B7BDBB21370137873
:1034FC007B1CEFD0FEF7FAFA009BC01AA8422CD323
:10350C00E02123685A688A435A608222616852001B
:10351C0091420CD18021A26809028A4203D08021F9
:10352C00C9008A4203D140211A688A431A6080215B
:10353C00A26A89018A4206D119680D4801401960B6
:10354C0019680A431A60230001225D331A700023A4
:10355C0003205C34237005B0F0BD039B5A1E9341CD
:10356C005B421D40039B013BB0E7C04604000020BA
:10357C00FFDFFFFF70B513000D0016000A00C0211D
:10358C0049010400FFF78AFF002805D02023226E92
:10359C000320134323660FE0320029002000FFF7BD
:1035AC0021FF0028F2D1C02133002A002000C900DD
:1035BC00FFF774FF0028E9D170BD0000F8B50400D6
:1035CC000120002C67D0636A002B65D182226168D0
:1035DC005200914200D0E36100232500A3625D35C7
:1035EC002B78DAB2002B05D123005C3320001A7043
:1035FC00FEF7E4F8022340212B702268E56813687B
:10360C008B43E0211360C90000238D4248D88020F1
:10361C0040018D4200D0A362822366685B00334078
:10362C008426A76836023E40334302262769A169E7
:10363C003E40334301266769B44637403B438027FD
:10364C00BF000F403B433827E669090C37403B432A
:10365C008027266A37403B438027A66ABF01374044
:10366C003B43136010230827666A3340666B374070
:10367C003B43F0273F013D401D43042319402943A0
:10368C0008435060D369084900200B40D36163465E
:10369C0020665D342370F8BD0023236163619BE7D2
:1036AC00F02118000901B4E7FFF7FFFFF0B51E0089
:1036BC00030085B05C3301931B7804000D001700E8
:1036CC000220012B00D17DE00123019A1370FEF73B
:1036DC000DFA230000905D331A78D0B2012A00D085
:1036EC009FE0002D68D0002F66D002321A700023A4
:1036FC00A21D23662364A563A787E78702329387FD
:10370C00D3872365E3648023A16822681B02994256
:10371C0008D1402113688B43136080231168DB01AF
:10372C000B43136040231168194202D111680B43FB
:10373C001360E021E0686368C900884244D9002B1B
:10374C0001D0012F07D12B880235D360E38FA563FD
:10375C00013B9BB2E38702250CE0226893682B4265
:10376C0021D0A36B19880233D160A363E38F013B93
:10377C009BB2E387E38F002BEFD131002000009A3E
:10378C00FFF7F8FE002849D1A368002B06D103935C
:10379C002368DA6803929B680393039B206E431E95
:1037AC009841C0B208E0FEF7A1F9009BC01AB042E4
:1037BC00E0D3731CDED0032001235D34237000237F
:1037CC00019A137005B0F0BD002B01D0012F08D168
:1037DC002B781373A36B0133A363E38F013B9BB271
:1037EC00E38702250DE023689A682A420DD0A26B6C
:1037FC0012781A73A36B0133A363E38F013B9BB263
:10380C00E387E38F002BEED1B7E7FEF76FF9009B50
:10381C00C01AB042F5D3731CF3D0CCE72023236637
:10382C00B2E70220C8E770470200030001203D32D6
:10383C00117881421CD1022111701B68DA68024395
:10384C00DA600E4A934206D08022D205934202D00F
:10385C000B4A93420DD19A680A4900200A40062A65
:10386C0006D007398A4203D0012219680A431A602C
:10387C0070471A68104318600020F9E7002C0140CB
:10388C000004004007000100704770477047704704
:10389C000222036810B51969040011420ED0D968D0
:1038AC0011420BD0053A1A61043202779B699B07CF
:1038BC0000D186E0FFF7E9FF002323770422236879
:1038CC001969114211D0D96811420ED0093A1A6106
:1038DC00073222779A69C0239B0020001A4200D13C
:1038EC0075E0FFF7D2FF00232377082223681969BC
:1038FC0011420ED0D96811420BD0113A1A610D3217
:10390C002277DB6920009B0767D0FFF7BEFF0023FF
:10391C002377102223681969114210D0D9681142FB
:10392C000DD0213A1A6119322277DA69C0239B0033
:10393C0020001A4257D0FFF7A8FF0023237701225B
:10394C0023681969114207D0D968114204D0033A8F
:10395C0020001A61FDF7B2FE80222368196911421A
:10396C0008D0D968114205D0023AFF3A20001A61FA
:10397C0000F0B5F823681A69D20507D5DA68120683
:10398C0004D51C4A20001A6100F0AAF840222368D2
:10399C001969114207D0D968114204D0813A20002C
:1039AC001A61FFF774FF202223681969114207D0AE
:1039BC00D968114204D0413A20001A6100F08EF807
:1039CC0010BDFFF761FF2000FFF760FF74E7FFF702
:1039DC005BFF2000FFF75AFF85E7FFF755FF20003C
:1039EC00FFF754FF93E7FFF74FFF2000FFF74EFF61
:1039FC00A3E7C046FFFEFFFF1D4A10B503689042C7
:103A0C0006D08024E405A04202D01A4CA0420CD16E
:103A1C007024A3434C68234390420FD08024E405C8
:103A2C00A0420BD0134CA04208D0134CA04205D09E
:103A3C00124CA04202D0124CA04203D1114C234094
:103A4C00CC6823438024A3434C69234303608B68D5
:103A5C00C3620B688362904205D0084B984202D037
:103A6C00074B984201D10B6903630123436110BDDD
:103A7C00002C0140000400400020004000440140A4
:103A8C0000480140FFFCFFFF70B504000120002C32
:103A9C0023D025003D352B78DAB2002B05D123003D
:103AAC003C3320001A70FFF7BEFE02232B702068F7
:103ABC00211DFFF7A1FF22000123002048321370C3
:103ACC0047340A3A137053709370D3701371537157
:103ADC009371D371137223702B7070BD7047704744
:103AEC007047000030B5EFF31084012282F3108888
:103AFC000168134D0B682B400B6084F31088EFF3B7
:103B0C00108182F3108802680E4C936823409360F6
:103B1C0081F31088C36E012B0AD1EFF3108183F36C
:103B2C001088102402681368A343136081F3108873
:103B3C000300202288331A600023C366036730BD5C
:103B4C00DFFEFFFFFEFFFFEF30B5EFF31084012225
:103B5C0082F31088802501680B68AB430B6084F3FB
:103B6C001088EFF3108182F31088402302681068EC
:103B7C000343136081F3108830BD03000833DB6FFF
:103B8C0010B5212B06D1020056321388002B02D11E
:103B9C00FFF7DAFF10BD036D01681C7801338C62EE
:103BAC0003651388013B9BB21380F3E703000833D2
:103BBC00DB6F10B5212B06D1010056310B88002B81
:103BCC0002D1FFF7C1FF10BD026D046813880232E9
:103BDC00DB05DB0DA36202650B88013B9BB20B80FE
:103BEC00F1E7000030B5EFF31084012282F3108866
:103BFC000168094D8B682B408B6084F31088EFF3C0
:103C0C00108182F31088402302681068034313600C
:103C1C0081F3108830BDC046FFFF7FFF03000833DF
:103C2C00DB6F70B5212B0CD10300010080246A33AB
:103C3C001B885631002B04D00A88002A02D1FFF7CA
:103C4C00D1FF70BD0568EA69224208D0026D167872
:103C5C000132AE6202650A88013A92B20A80013BD7
:103C6C009BB2E7E703000833DB6F70B5212B0CD157
:103C7C000300010080246A331B885631002B04D0CA
:103C8C000A88002A02D1FFF7ADFF70BD0668F26901
:103C9C0022420AD0056D2A880235D205D20DB262B5
:103CAC0005650A88013A92B20A80013B9BB2E5E7AE
:103CBC00F0B506000836F46F03000220202C41D129
:103CCC00013800293ED0002A3CD080209D6840015C
:103CDC00854206D11869002803D11F3C20002142DF
:103CEC0030D11C00803427780220012F2AD00138D3
:103CFC0020701965190054310A804A801A0000217D
:103D0C008C32116021228021F2678022586E92053C
:103D1C004901904217D1164A8D4203D119690029E5
:103D2C0000D1144A00205A672070EFF31081012251
:103D3C0082F310881A68802394681B0423439360D1
:103D4C0081F31088F0BD0C4A8D4203D1196900290A
:103D5C0000D10A4A00205A672070EFF3108101222B
:103D6C0082F310881A688023146823431360E7E7F2
:103D7C00293C0008713C0008873B0008B93B00084F
:103D8C007047806A0023020010B55E321380083A37
:103D9C001380FFF7F5FF10BD70470000F7B5016801
:103DAC00C14DCB6904000A6888682B4210D12025CC
:103DBC002B4200D199E0802676051540064035430C
:103DCC0000D192E0236F2000002B00D082E082E033
:103DDC00B64D0540AC466646B54D1540354300D151
:103DEC0083E001252B4207D0D60505D526000D62B0
:103DFC008C3637683D433560250002268C3501959D
:103E0C00334207D0C50705D5019D0E622F68B61940
:103E1C003E432E600426334209D0C50707D5270040
:103E2C000E628C373E68350002262E433E60082613
:103E3C0033420AD02027654617402F4305D0270070
:103E4C000E628C373D682E433E60802726003F0172
:103E5C008C363B4206D0550104D50F6220213768C1
:103E6C00394331603168002935D020210B420AD00A
:103E7C001140802252051040014304D0236F002BC7
:103E8C0001D0200098472268019B40271B68966848
:103E9C0028223E40134020001E4321D0FFF722FE73
:103EAC0023689B683B4217D0EFF31081012383F307
:103EBC00108822689368BB43936081F31088E06F8D
:103ECC00002809D07B4B8363FDF714FF002802D038
:103EDC00E06F836B9847F7BD2000FFF751FFFAE7BF
:103EEC00FFF74EFF019B1E60F5E7E56E012D00D03C
:103EFC0098E01026334200D194E0324200D191E098
:103F0C000E628B68402218001040134252D0E36FAF
:103F1C0019684B689BB2002BDDD020005C30008808
:103F2C009842D8D920005E3003800968202308000D
:103F3C0018400190194231D1EFF3108785F31088A6
:103F4C0020685D4E01683140016087F31088EFF303
:103F5C00108785F3108820688168A943816087F3F6
:103F6C001088EFF3108085F3108821688F689743D1
:103F7C008F6080F31088220088321360019BE36607
:103F8C00EFF3108185F310881020226813688343A7
:103F9C00136081F31088E06FFDF76EFE23002200A2
:103FAC005E335C321B881188C91A89B22000FFF776
:103FBC00F3FE90E722005E32138812889BB2002A2F
:103FCC0000D188E722005C321188C91A89B2002915
:103FDC0000D180E7EFF3108785F310882268374E05
:103FEC0013683340136087F31088EFF3108785F361
:103FFC0010882268324E93683340936087F31088A0
:10400C002300202288331A60E0662067EFF31080CB
:10401C0085F31088102522681368AB43136080F376
:10402C001088C3E780256D032B4206D0460204D5C9
:10403C0020000D6200F0FAFD4DE780210B4207D005
:10404C0080252D0411402840084301D0636FBAE647
:10405C0040210B4216D00A4214D0EFF310800123FA
:10406C0083F31088226813688B43136080F31088E5
:10407C00230020220833DA67002320006367FCF753
:10408C00A5FF28E7190205D5510003D5200000F043
:10409C00CFFD20E7DB0100D41DE7002A00DB1AE787
:1040AC00200000F0C4FD16E70F080000010000100E
:1040BC00200100048F3D0008FFFEFFFFDFFEFFFF25
:1040CC00FEFFFFEF70B5EFF31084012282F310882E
:1040DC000168194D0B682B400B6084F31088EFF3CB
:1040EC00108482F3108801688B6893438B6084F38F
:1040FC00108803001F3288331A600022C36E0267D7
:10410C00012B16D1C266EFF3108483F3108801687B
:10411C000F330A689A430A6084F310880268D169E5
:10412C00194200D0136203005C331988FFF734FE88
:10413C0070BDFCF751FFFBE7DFFEFFFF0300883388
:10414C001A6810B50368222A14D1010060315A6A2A
:10415C000988836D0A401A800200023383655E323F
:10416C001388013B9BB213801388002B01D1FFF7FE
:10417C00A9FF10BD082299690A439A61F9E7030067
:10418C0088331A6810B50368222A15D102006032F0
:10419C005B6A12881340826D13700200836D5E326D
:1041AC00013383651388013B9BB213801388002B6A
:1041BC0001D1FFF787FF10BD082299690A439A6164
:1041CC00F9E70000F0B5036885B0DD691A689E68F0
:1041DC0002920200883212680400222A00D0B7E052
:1041EC00030060331B880193030068331B8803931F
:1041FC002200039B5E32002B02D020231D4223D1D0
:10420C0013889AB2002B1DD0230068331B8893426D
:10421C0018D9EFF31080012282F3108821684F4DDA
:10422C008B682B408B6080F310884D4B2367EFF32A
:10423C00108182F3108820232268106803431360D6
:10424C0081F3108805B0F0BD236801995B6A0B40BF
:10425C00A16D0B70A36D0133A3651388013B9BB259
:10426C00138007232268D5691D422DD0063B1D42C1
:10427C0008D00299C90505D5210013628C31086854
:10428C0003430B6002231D4208D0F10706D5210021
:10429C0013628C310868DB1803430B6004231D4246
:1042AC0008D0F10706D5136222008C321168023B4C
:1042BC000B43136027008C373B68002B04D0200085
:1042CC00FFF75EFD00233B6023005E331B889AB230
:1042DC00002B00D08CE7EFF31087013383F31088A9
:1042EC002068036819001F4B1940016087F3108880
:1042FC00EFF31080012383F3108821681A4F8B6829
:10430C003B408B6080F31088230020218833196098
:10431C00E36E2267012B17D1E266EFF3108083F373
:10432C00108821680F330A689A430A6080F310885A
:10433C002268D169194200D0136223005C3320003B
:10434C001988FFF729FD53E72000FCF745FE4FE7DE
:10435C00082299690A439A6174E7C046FFFFFFEF90
:10436C008B410008FFFEFFFFFEFFFFEFF0B5036877
:10437C0085B0DD691A689E68029202008832126864
:10438C000400222A00D0B5E0030060331B8801939F
:10439C00030068331B8803932100039B5E31002BC1
:1043AC0002D020231D4223D10B889AB2002B1DD0A2
:1043BC00230068331B88934218D9EFF31080012235
:1043CC0082F3108821684E4D8B682B408B6080F3F4
:1043DC0010884C4B2367EFF3108182F31088202355
:1043EC00226810680343136081F3108805B0F0BD98
:1043FC002368019D586AA26D284010800232A26584
:10440C000A88013A92B20A800722DD6915422DD042
:10441C00063A154208D00299C90505D521001A6241
:10442C008C31086802430A600222154208D0F10759
:10443C0006D521001A628C310868921802430A6072
:10444C000422154208D0F10706D51A622200022375
:10445C008C3211680B43136027008C373B68002BA0
:10446C0004D02000FFF78CFC00233B6023005E335C
:10447C001B889AB2002B00D08EE7EFF31087013324
:10448C0083F310882068036819001F4B19400160E2
:10449C0087F31088EFF31080012383F310882168D1
:1044AC001A4F8B683B408B6080F3108823002021CF
:1044BC0088331960E36E2267012B17D1E266EFF3A4
:1044CC00108083F3108821680F330A689A430A60BE
:1044DC0080F310882268D169194200D0136223003E
:1044EC005C3320001988FFF757FC55E72000FCF7D8
:1044FC0073FD51E7082299690A439A6176E7C04631
:10450C00FFFFFFEF49410008FFFEFFFFFEFFFFEF3B
:10451C00F8B504002569A168026829436569C36977
:10452C0029431068704D19432840014311605168AC
:10453C006E48A5690140E06801436D4851608242B4
:10454C0001D0216A0D4391686A4E314029430F25F1
:10455C009160D16AA943656A2943D16266498A424E
:10456C0016D10321654A526D0A408021013A090295
:10457C00022A00D989E06248805C8B4260D008280E
:10458C001CD8FBF7CBFDAA1B801B7D1B1B1B6B00D8
:10459C005C498A4200D19CE082420FD1C02280212A
:1045AC00564B12015B6D090113408B421BD007D88F
:1045BC00002B0AD08022D200934211D0012009E0B6
:1045CC009342FBD1802636020EE0FEF7FBFD061E61
:1045DC000AD100204C4BA366002323676367F8BD08
:1045EC00FEF7FEFCF3E7494E636A494A5B009F5AAB
:1045FC0030003900FBF7A6FD032365686B4383424B
:10460C00DCD82B038342D9D300233A0030001900A5
:10461C00FBF70EFF0027060E0B02334302026E0857
:10462C0092197B41100019002A003B00FBF700FF98
:10463C00384BC218384B9A42C0D82368D860C8E7A8
:10464C000828BBD8FBF760FD23BA08BA05BABABA7A
:10465C002700FEF7C5FC1CE02C4B1CE08020000260
:10466C00636A2B4A5B00995AFBF76CFD65686B0813
:10467C00C0182900FBF766FD0200284B103ADAE758
:10468C00FEF7AEFC2BE02148EAE78B4225D1FEF782
:10469C0099FD031E9DD0626A1D495200515A1800A3
:1046AC00FBF750FD656840006B08C0182900FBF74C
:1046BC0049FD0200194B103A9A4200D97EE70F23AC
:1046CC00020000079A4393B2400F22681843D0604F
:1046DC007FE7802212029342D9D0FEF773FD0028A7
:1046EC0000D176E7BCE7C046F369FFCFFFCFFFFFF1
:1046FC0000800040FFF4FF11003801400010024020
:10470C001499000800440040010001000024F4004A
:10471C001899000800FDFFFFFFFC0F00EFFF0000E1
:10472C00836A30B5DA0706D50168284C4A682240FE
:10473C00C46A22434A609A0706D50168244C4A6829
:10474C002240046B22434A605A0706D50168214C6B
:10475C004A682240446B22434A601A0706D5016816
:10476C001D4C4A682240846B22434A60DA0606D507
:10477C0001681A4C8A682240C46B22438A609A06EC
:10478C0006D50168164C8A682240046C22438A6064
:10479C005A0610D50168134D4A68446C2A402243CE
:1047AC004A6080225203944205D14A680E4C224042
:1047BC00846C22434A601B0606D502680B49536879
:1047CC000B40C16C0B43536030BDC046FFFFFDFF77
:1047DC00FFFFFEFFFFFFFBFFFF7FFFFFFFEFFFFF72
:1047EC00FFDFFFFFFFFFEFFFFFFF9FFFFFFFF7FF65
:1047FC00F7B5802704000D00160001933F012268D5
:10480C00D3692B405B1B59424B41B34201D0002072
:10481C002BE0089B0133F3D0FDF768F9019BC01A1C
:10482C00089B984201D8002B20D1EFF31080012275
:10483C0082F310882168214D0B682B400B6080F3AC
:10484C001088EFF3108082F3108821688B689343F3
:10485C008B6080F31088220020230832D3678032CB
:10486C0013600023032080342370FEBD04212368D1
:10487C001A680A42C3D0DA693A42C0D01F62EFF319
:10488C001080012282F3108821680C4D0B682B409C
:10489C000B6080F31088EFF3108082F3108821688E
:1048AC008B6893438B6080F310882200202308329E
:1048BC00D367803213605360D3E7C0465FFEFFFFBF
:1048CC00F0B51600020087B008320593D36F0400D0
:1048DC000D000220202B53D10138002950D0002E7E
:1048EC004ED08023A1685B01994204D12369002B2F
:1048FC0001D1054244D12300803303931B7802205D
:10490C00012B3DD0012303990B70230000218C3324
:10491C0019602123D367FDF7E9F8230054331E8077
:10492C0002331E8004938023A268070000265B01DB
:10493C009A4204D12369B34201D12E001D000023F9
:10494C00039A1370230056331B889AB2002B0CD198
:10495C00059B4021009320003B00FFF749FF0028F6
:10496C000DD120230834E3670AE0059B0022009355
:10497C0080213B002000FFF73BFF002802D00320E2
:10498C0007B0F0BD2268002D0BD133880236DB0551
:10499C00DB0D9362049B049A1B88013B9BB2138032
:1049AC00D0E72B7801359362F4E70000030073B570
:1049BC00002604008C331E60FDF798F82368050070
:1049CC001B681B0719D423681B685B070AD5802159
:1049DC00104B0022009320002B00C903FFF708FFA7
:1049EC00002815D12200202300200832D367803202
:1049FC001360E066803420700BE08021054B3200A0
:104A0C000093890303002000FFF7F2FE0028DAD0A0
:104A1C00032076BDFFFFFF0170B5041E01D10120FC
:104A2C0070BD05000835EB6F002B04D102008032FD
:104A3C001370FCF707FF242301212268EB6713682E
:104A4C0020008B431360FFF763FD0128E7D0A36AB6
:104A5C00002B02D02000FFF763FE236807495A6839
:104A6C0020000A402A215A609A688A439A600122DF
:104A7C0019680A431A60FFF799FFD1E7FFB7FFFFE8
:104A8C000300F0B500248025816581685C331A80B1
:104A9C005A806D0104670433A9424FD10169A142C8
:104AAC004AD13F491980030000218C33196022310F
:104ABC00043B1960EFF31084012383F31088016821
:104ACC008D682B438B6084F3108880268024010032
:104ADC00476E85680369B60564018031B7423FD1E2
:104AEC0006006836368896423AD82E4AA54203D13B
:104AFC002D4A002B00D02B4A026700220A709342E9
:104B0C000BD0EFF31081012383F310880268FF337D
:104B1C0014682343136081F31088EFF31081012391
:104B2C0083F31088802302685B05906803439360CD
:104B3C0081F310880020F0BDFF21B3E7002904D1D8
:104B4C0001690029F8D07F21ACE780256D05A942C9
:104B5C0004D101690029F6D03F21A3E71C80A2E70C
:104B6C00124AA54203D1124A002B00D00F4A026709
:104B7C0000220A700132002B0AD0EFF3108182F36D
:104B8C001088902302685B00106803431360CFE722
:104B9C00EFF3108182F31088026820231068F4E789
:104BAC00FF010000D1410008794300088B41000847
:104BBC00494100080300883370B51C680223202C7F
:104BCC0030D1013B00292DD0002A2BD080238468C2
:104BDC005B019C4206D10369002B03D10124230005
:104BEC0021421FD10400803425780223012D19D0D5
:104BFC00013B237000240C4DC4660468AC420ED0FB
:104C0C00646824020BD5EFF3108583F3108880239E
:104C1C000468DB0426683343236085F31088FFF7B0
:104C2C002FFF0300180070BD0080004070477047D4
:104C3C00704738230371002301608360C3600382D3
:104C4C007047000070B50F4D2B78BFF35B8F0E4C87
:104C5C00DB070AD4280003F075FA002805D0FCF70E
:104C6C0045FF2060280003F07AFAFCF73FFF236829
:104C7C00C31A0120502B03D9FCF738FF2060022007
:104C8C0070BDC046B4020020C002002070B50C00FC
:104C9C00017915000723220000684900FCF710FB7E
:104CAC00002801D1002070BD23782B705BB2002B43
:104CBC00F8DB0320F7E780687047C0687047F0B5F1
:104CCC00FF2000243126A3420DDD155D6840082528
:104CDC0047B24000C0B2002F00DA7040013D002DF9
:104CEC00F6D10134EFE7401A41424841C0B2F0BD61
:104CFC0070B50C0016000623220089790500FFF719
:104D0C00DEFF00281FD0A37862781B0213435BBA26
:104D1C00E2789BB21B0112111A43642353430F22F6
:104D2C001B0DEB60E3781A4023791202134362796E
:104D3C001B021A43FA23DB0053431B0DF53BFF3BCD
:104D4C00AB6001233370002070BD30B50C0085B012
:104D5C0003AD2A706B700179009549000223220083
:104D6C00C9B20068FCF76FFA05B030BD67B5050035
:104D7C000E00101E08D029790092490032002868D4
:104D8C00DBB2C9B2FCF738FA6EBD07B500236A4630
:104D9C007121D37101330732FFF7E8FF6B46D879E5
:104DAC000EBD10B5FFF7F1FFC043C0B2C00910BD76
:104DBC0010B50400FFF7F5FF0023984205D033220D
:104DCC00AC212000FFF7C1FF0300180010BD00004C
:104DDC0013B500236A46D3710400407C03281AD80B
:104DEC00FBF79CF902090D132000FFF7E1FF60743B
:104DFC006B46D87916BD2000FFF724FFF7E720009B
:104E0C00064A0749FFF742FFF1E720000449073241
:104E1C00FFF76EFFEBE76374EAE7C046BF020020C2
:104E2C00B802002070B50400FFF7AFFF08220300A2
:104E3C000125134010420BD1BE212000FFF785FF46
:104E4C001420FCF759FE2000FFF79FFFC008054017
:104E5C00280070BD10B5040000680123002813D091
:104E6C00237C002B09D02000FFF7DCFF0323002854
:104E7C000AD001232374002306E021794900FCF7B2
:104E8C00A2F902230028EED1180010BD10B51C00A9
:104E9C00431A0298511A001B5843FBF7DDF900190D
:104EAC0010BDA02010B50221C005FDF761F84342EA
:104EBC005841C0B210BDA02010B51021C005FDF79F
:104ECC0057F843425841C0B210BD000010B5022142
:104EDC000348FDF74DF843425841C0B210BDC046DF
:104EEC0000040050F8B5FFF7E6FF0400FFF7D9FF08
:104EFC0040000443E4B2FFF7E9FF23000343DBB2B5
:104F0C000600002B03D0FCF7F1FD2D4B18602D4F44
:104F1C003B78B3421DD1012E0FD02B4E3378A342D8
:104F2C0027D02A4F002C39D00025032B00D11C0090
:104F3C003470FCF7DBFD386009E0FCF7D7FD244B3F
:104F4C0019251B68C01AC8235B009842E5D92800B4
:104F5C00F8BDFCF7CBFD1E4C00252368C01AC823F6
:104F6C005B00984200D20C353E70FCF7BFFD206010
:104F7C00EDE7002C01D10025E9E7FCF7B7FD134B59
:104F8C001B68C01AC8235B009842F4D90525012C74
:104F9C00DDD06D19022CDAD00A35D8E7FCF7A6FD66
:104FAC003B682500C01AC8235B009842C0D23378F6
:104FBC000325012BBCD06D19022BB9D00335B7E7F3
:104FCC00D4020020C6020020C5020020C802002026
:104FDC00CC02002070B5FFF785FF114D041E12D0D6
:104FEC00104B1B78002B0ED033235B421A0042432C
:104FFC00D2B20D49332A10D82A785343DBB2332B63
:10500C000BD902230B702B78A34203D02100074845
:10501C00FBF744FE20002C7070BD0123F2E7C04664
:10502C00C402002010000020D1020020309900089A
:10503C0010B5FFF7CFFF032809D0062809D00020B0
:10504C00FCF75AFD044A137801331370F1E7002082
:10505C0010BD0120FCE7C046D002002010B508238B
:10506C003221024A0248FCF740F910BD449900086D
:10507C004002002030B5040085B002ADA822062302
:10508C00322100950848FCF7B7F80022AB5E1B11E3
:10509C0023800222AB5E1B1163800422AB5E1B11CA
:1050AC00A38005B030BDC0464002002010B53221AF
:1050BC000148FCF788F810BD40020020B5223221CF
:1050CC0010B50748FCF7B6F80300102806D00128E5
:1050DC0003D00320022B00D1002010BD0320FCE7DD
:1050EC00400200200023017203604360704770B5DA
:1050FC0004000068002805D085691C2103F01EF807
:10510C002800F7E7200070BD0068002804D0436831
:10511C008B4201D08069F8E77047F8B504000F00A6
:10512C0016001D00FFF7F0FF002802D08660057006
:10513C00F8BD1C2003F016F80023C3600361436123
:10514C0083612368476086600570002B02D1206064
:10515C006060EDE763689861FAE770B505000E00D2
:10516C000468002C13D06268002A01D1A469F8E706
:10517C002378002BFAD0E368A168F31A9942F5D88A
:10518C005B1A6361E66090472B7A002BEED070BD02
:10519C0010B5043002F0E2FB10BD000070B51B4CE2
:1051AC00200002F007F9200002F011F92000184944
:1051BC0002F01CFC174D0D2228000121164BFFF7A5
:1051CC00E7FF1D222800154B0121FFF7E1FF20000E
:1051DC00134902F00BFC134E0423B28A0D211E203E
:1051EC0001F092F8F28A04231D211E2001F08CF8A4
:1051FC000D4B2D2201211B682800FFF7C9FF200051
:10520C0002F0E5F8FFF714FF70BDC046DC04002087
:10521C00968E0008D80400205C9900086399000859
:10522C00989F0008700200201400002070B50C4DEF
:10523C000C486C8B2100FBF7F5F800290CD00A4BBD
:10524C0018780338072807D8FAF768FF0706070409
:10525C0006060604013C6C8370BD0134FBE7C046B6
:10526C007002002080510100D2020020024B5868CD
:10527C00C00180B2403870474C02002010B5FFF7D7
:10528C00F5FF0E4C400823003F331B7899075A0753
:10529C00D20FC90F89181A07D20F8918DA06D20F44
:1052AC0089189A06D20F5B06DB0F8918C918FAF712
:1052BC0049FFE38A834200D9E08210BD70020020CE
:1052CC00F0B50027040087B039000B2203A8029721
:1052DC0002F0D2FFA17863782278009102A81D49D0
:1052EC0003F0D6F81C4D0121280002F023FC280005
:1052FC0002F060F8280002F06AF82800174902F062
:10530C0075FB174E02AB0D2201213000FFF740FF59
:10531C0002A8FAF7F1FE3900020002A802F0ACFF75
:10532C0061792379E278009102A80E4903F0B0F874
:10533C0002AB1D2201213000FFF72AFF0A4B2D2260
:10534C0001211B683000FFF723FF280002F03FF813
:10535C0007B0F0BD6A990008DC040020989F000893
:10536C00D8040020799900081400002010B5FA2404
:10537C000D48E400818B86B00919C48C827FE4B29D
:10538C00038C0294848CDBB2E4B20194408C89B21D
:10539C00C0B2009004A801F095FC04A8FFF790FFA0
:1053AC00FFF746FE06B010BD70020020FA2010B5C3
:1053BC00174CC000A18B8AB00918E08CA27FC0B238
:1053CC00238C0290A08CDBB2C0B20190608C89B2AD
:1053DC00C0B2009006A801F075FC618B0D48FAF77D
:1053EC003BFFE18A414305A801F0B5FC05AA06A9DB
:1053FC0008A801F0A3FC062208A906A802F020FFC9
:10540C0006A8FFF75DFFFFF713FE0AB010BDC046FC
:10541C007002002080510100F7B51C4C07000E00F3
:10542C0020000121019202F085FB1949200002F0B5
:10543C00DDFA200001F0BEFF200001F0C8FF154D81
:10544C00002F1FD0331E04D1134B1B685B699B6864
:10545C005B680D2228000121FFF79AFE20000F49FE
:10546C0002F0C4FA019B01211A010D4B1D321B687D
:10547C00D2B22800FFF78CFE200001F0A8FFFFF746
:10548C00D7FDFEBD074B1B68E3E7C046DC040020DC
:10549C00968E0008D80400201C000020989F00085D
:1054AC001400002018000020002210B5110010007C
:1054BC00FFF7B2FF10BD10B5FFF7F6FF10BD10B52A
:1054CC00FFF7F2FF10BD7047002210B5110001204C
:1054DC00FFF7A2FF002803D0FBF754FFFBF738FFC0
:1054EC0010BD0000F0B500274E4C89B0200001F033
:1054FC0061FF0121200002F01DFB20004A4902F04F
:10550C0075FA4A4B00221B6801215B6948489B686D
:10551C003D005B68FFF73CFE06AB200045491F7160
:10552C00069702F063FA01230493FFF753FD424BF5
:10553C00187000230393032805D0013B039306281E
:10554C0001D102330393FCF7D1FA01223B4E0590B3
:10555C003378BFF35B8F13420BD1300002F0F2FDB6
:10556C00002806D0FCF7C2FA354B1860300002F068
:10557C00F6FD334B059A1B68D31A324A934202D874
:10558C00049B002B1BD02E4B059A002120001A6087
:10559C0002F0D0FA10230021200000930F22703368
:1055AC0001F0B8FE0121200002F0C4FA002D35D123
:1055BC0029000F222000244B02F0C8F90135039B6F
:1055CC0001332DD1200001F002FF0020FCF794FAEA
:1055DC0000230493A9E72A001C4906A802F058FFEF
:1055EC000F222000B1B206AB02F0B0F928266E43B0
:1055FC000135F6B27F2DEED100257E370522002134
:10560C0006A8FFB202F038FEAF42D8D10F22390003
:10561C0020000F4B02F09AF93D00D0E70025E5E79A
:10562C0009B0F0BDDC040020968E00081C000020A0
:10563C00D8040020989F0008D2020020DC02002031
:10564C00E0020020DC05000088990008939900080E
:10565C009A990008002210B511000120FFF7DCFE1A
:10566C00002815D0FCF742FA84B2FCF73FFA094B3C
:10567C00001B984203D80020FCF73EFAF5E7BFF375
:10568C004F8F054B054ADA60BFF34F8FC046FDE7DD
:10569C0010BDC0469A02000000ED00E00400FA05BF
:1056AC0010B50E4C200001F092FEFFF7C1FC002853
:1056BC0013D0200001F07EFE0A20FCF71DFA0A2010
:1056CC00FCF71AFA0A20FCF717FA0A20FCF714FA6E
:1056DC00200001F07CFEFFF7ABFC10BDDC040020C9
:1056EC007047704710B50400282102F027FD2000F8
:1056FC0010BD10B50400182102F020FD200010BDD3
:10570C00074B70B5040003604068231D984204D019
:10571C00056802F00FFD2800F7E7200070BDC046B9
:10572C00C09B000810B50400FFF7EAFF20002421FD
:10573C0002F004FD200010BDF0B585B01D000AABD1
:10574C001F880BAB1B88160001930CAB1B784160B8
:10575C0002930DAB1B780E99039310AB1A78104B78
:10576C00C160036000230F990400836003614361EF
:10577C00816102770362182002F0F4FC094B466049
:10578C000360019B05728381029B47818373039B9A
:10579C00A060C373012303740375200005B0F0BD32
:1057AC00B09B0008A09B0008F7B52825040000203A
:1057BC005543214B0192EA105343204A0F000091AC
:1057CC0020606060A0604E19934202D91C4802F020
:1057DC00E7FC002B02D0280002F0C4FC194903009E
:1057EC003A008C4645192060A560964218D0614657
:1057FC0019605168551D59609168ED7F9960D168A9
:10580C00D960116919615169596191699961117F67
:10581C001977116A28321962591DCD772833E4E7BC
:10582C00F71B094EFF087E432827F600F6087E4337
:10583C00801960602000FEBDCDCCCCCC333333035B
:10584C00B9990008B09B0008CDCCCC0C70B5040005
:10585C0005684668AE4205D02B6828001B6898473F
:10586C002835F7E72068002801D002F063FC2000FF
:10587C0070BD0000F0B50600E3B0012801D000F0C7
:10588C00FFFBFA4B1CAC1C93F94B00256360F94BE6
:10589C000A27A3616323A560E56025616561207714
:1058AC002562F54AF54906950595049502900195F2
:1058BC0000930397613B26A8FFF73EFF0C23F04AA9
:1058CC00F049069505950495029601960093039769
:1058DC000A3B30A8FFF730FF1F23EB4AEB49069534
:1058EC000595049502960196009303971D3B3AA8E3
:1058FC00FFF722FF1723E64AE6490695059504951E
:10590C000296019500930397153B44A8FFF714FFEB
:10591C003B23E14AE14906950595049502960195CC
:10592C0000930397393B4EA8FFF706FF3B23DC4A55
:10593C00DC4906950595049502960195009303970D
:10594C00393B58A8FFF7F8FE0722D74E210030004C
:10595C0018AB1A941B92FFF727FF62AD283D2B68FA
:10596C0028001B689847A542F8D13100CF4800F0B9
:10597C0095FCBE49CE4B75201C910125636000231C
:10598C00CC4A6844A360E36023616361A36123771D
:10599C002262C577C848A162E0622DA823636363C5
:1059AC00A363E36323646D1903702FA8A2640570CD
:1059BC00C2482165606537A8A365E3652366636605
:1059CC00A3660235037039A822670570BC48A1672D
:1059DC00E06741A83C933D933E933F93409304353D
:1059EC00037043A842920570B648449145904BA869
:1059FC0046934793489349934A93083503704DA8AF
:105A0C004C9205704E91B04950934F9155A95193BA
:105A1C005293539354930B7056922022AB4E57AB28
:105A2C001A7021001A3A300016AB18941992FFF72D
:105A3C00BBFE58AD283D2B6828001B689847A54233
:105A4C00F8D10024A24F3100380000F027FC874E1B
:105A5C00A04A1CAB1D921E941F9420972194229453
:105A6C001C961C770A230127039359339A4A9B49A6
:105A7C0006940594049402970197009326A8613B21
:105A8C002494FFF759FE964B022205930A230393A5
:105A9C0087239B01934906920494934A029701979A
:105AAC00009330A80423FFF747FE904B0222059386
:105ABC000A2303938E4B8F49069204948E4A0297C5
:105ACC00019700933AA80423FFF736FE06228B4B6E
