:020000040800F2
:100000000020002065120008490E00084B0E000871
:1000100000000000000000000000000000000000E0
:100020000000000000000000000000004D0E00086D
:1000300000000000000000004F0E0008510E0008F4
:10004000B5120008B5120008B5120008B512000874
:10005000B5120008530E0008B5120008630E000820
:10006000000000006D0E00087D0E0008950E0008CF
:10007000A50E0008B5120008B5120008B512000858
:10008000B5120008B5120008B5120008B512000834
:1000900000000000B5120008B50E0008B5120008F7
:1000A000B5120008B5120008B5120008B512000814
:0C00B000C50E0008B5120008000000009A
:1000BC0010B5064C2378002B07D1054B002B02D032
:1000CC00044800E000BF0123237010BDA8000020ED
:1000DC000000000008C80008044B10B5002B03D02A
:1000EC000349044800E000BF10BDC04600000000FA
:1000FC00AC00002008C800080023C25C0133002AB1
:10010C00FBD1581E7047000003B4714649084000EB
:10011C004900095E49008E4403BC70470022430825
:10012C008B4274D303098B425FD3030A8B4244D3B3
:10013C00030B8B4228D3030C8B420DD3FF220902F5
:10014C0012BA030C8B4202D31212090265D0030BB4
:10015C008B4219D300E0090AC30B8B4201D3CB03AA
:10016C00C01A5241830B8B4201D38B03C01A5241EC
:10017C00430B8B4201D34B03C01A5241030B8B42EE
:10018C0001D30B03C01A5241C30A8B4201D3CB02D9
:10019C00C01A5241830A8B4201D38B02C01A5241BE
:1001AC00430A8B4201D34B02C01A5241030A8B42C1
:1001BC0001D30B02C01A5241CDD2C3098B4201D3D9
:1001CC00CB01C01A524183098B4201D38B01C01A57
:1001DC00524143098B4201D34B01C01A52410309CE
:1001EC008B4201D30B01C01A5241C3088B4201D37D
:1001FC00CB00C01A524183088B4201D38B00C01A2A
:10020C00524143088B4201D34B00C01A5241411A50
:10021C0000D20146524110467047FFE701B500205D
:10022C0000F0F0F802BDC0460029F7D076E7704721
:10023C0003460B437FD4002243088B4274D303093B
:10024C008B425FD3030A8B4244D3030B8B4228D3DC
:10025C00030C8B420DD3FF22090212BA030C8B4202
:10026C0002D31212090265D0030B8B4219D300E0A2
:10027C00090AC30B8B4201D3CB03C01A5241830B27
:10028C008B4201D38B03C01A5241430B8B4201D3D7
:10029C004B03C01A5241030B8B4201D30B03C01A00
:1002AC005241C30A8B4201D3CB02C01A5241830A7A
:1002BC008B4201D38B02C01A5241430A8B4201D3A9
:1002CC004B02C01A5241030A8B4201D30B02C01AD3
:1002DC005241CDD2C3098B4201D3CB01C01A52413A
:1002EC0083098B4201D38B01C01A524143098B42C3
:1002FC0001D34B01C01A524103098B4201D30B01AC
:10030C00C01A5241C3088B4201D3CB00C01A5241D0
:10031C0083088B4201D38B00C01A524143088B4295
:10032C0001D34B00C01A5241411A00D2014652412E
:10033C00104670475DE0CA0F00D04942031000D34D
:10034C004042534000229C4603098B422DD3030AA2
:10035C008B4212D3FC22890112BA030A8B420CD3B2
:10036C00890192118B4208D3890192118B4204D3DB
:10037C0089013AD0921100E08909C3098B4201D35B
:10038C00CB01C01A524183098B4201D38B01C01A95
:10039C00524143098B4201D34B01C01A524103090C
:1003AC008B4201D30B01C01A5241C3088B4201D3BB
:1003BC00CB00C01A524183088B4201D38B00C01A68
:1003CC005241D9D243088B4201D34B00C01A52413F
:1003DC00411A00D20146634652415B10104601D3CC
:1003EC004042002B00D54942704763465B1000D356
:1003FC00404201B5002000F005F802BD0029F8D0FC
:10040C0016E770477047C046002B11D1002A0FD158
:10041C00002900D1002802D00021C943080007B4EC
:10042C00024802A14018029003BDC046D9FFFFFF4D
:10043C0003B4684601B5029800F006F8019B9E468D
:10044C0002B00CBC7047C046F0B557464E46454608
:10045C00DE46E0B504000D009246994683B08B420F
:10046C0030D82DD04946504600F0D8F82900060067
:10047C00200000F0D3F8331A9846203B9B4633D427
:10048C005A465346934042461F00534693401E0023
:10049C00AF423AD8AF4200D178E05B46A41BBD41D5
:1004AC00002B00DA75E00022002300920193012357
:1004BC005A4693400193012342469340009328E00F
:1004CC008242CFD900220023009201930C9B002B77
:1004DC0001D01C605D600098019903B0F0BCBB4674
:1004EC00B246A946A046F0BD424620239B1A52466E
:1004FC00DA40414613004A468A40170042461F43E1
:10050C00534693401E00AF42C4D9002200230092F0
:10051C0001934346002BD9D0FB0772081A43464679
:10052C007B080EE0AB4201D1A2420CD8A41A9D412B
:10053C00012024196D410021013E24184D41002E4B
:10054C0006D0AB42EED9013E24196D41002EF8D1F4
:10055C00009801995B4600196941002B24DB2B00A4
:10056C005A464446D3402A00E2401C005B46150024
:10057C00002B2ADB26009E40330026004746BE4057
:10058C003200801A9941009001919FE7A342BCD898
:10059C0083E74246202300219B1A002200910192FE
:1005AC000122DA40019286E7424620239B1A2A0058
:1005BC0046469A402300F340444613432A00E24047
:1005CC001C005B461500002BD4DA42462F0020237A
:1005DC00260097409B1ADE403B003343CDE7C046D4
:1005EC001C2101231B04984201D3000C10391B0A57
:1005FC00984201D3000A08391B09984201D300091B
:10060C00043902A2105C40187047C0460403020271
:10061C0001010101000000000000000010B50029DC
:10062C0003D1FFF7DDFF203002E00800FFF7D8FF11
:10063C0010BDC04600B585B00C22002101A80BF0FE
:10064C0005FC1E481E4B03608023DB054360002322
:10065C008360C36003610822426103764376073AE4
:10066C008276C26120214354436283620C3142542E
:10067C000363273941638163373142541B3202646F
:10068C0064324264836480239B05C36400F046FE9D
:10069C0000280CD10B4B019300230293039301A967
:1006AC00064801F05FF8002804D105B000BD00F049
:1006BC0087FAEFE700F084FAF7E7C046C4000020A1
:1006CC00002401400001002010B588B00400142261
:1006DC00002103A80BF0BAFB234B22689A4201D0ED
:1006EC0008B010BD214B196C8020400301431964E4
:1006FC001A6C02400192019A596B02221143596300
:10070C005B6B1A400292029B012303930233049306
:10071C0003A9174801F06AFE1648174B036005231E
:10072C00436000238360C360803303618033436183
:10073C008023DB0083612023C36180235B01036280
:10074C0001F082FC00280BD10A4B23659C6200222D
:10075C0002210C2001F0D8FB0C2001F005FCBFE7B6
:10076C0000F02EFAF0E7C0460024014000100240D1
:10077C0000040050280100203000024010B5040095
:10078C000A4B02689A4200D010BD094A136C094901
:10079C000B4013640121084801F0E4FE206D01F0C8
:1007AC00ABFC0C2001F0ECFBEEE7C0460024014052
:1007BC0000100240FFFFEFFF0004005000B583B0B3
:1007CC00114A916B012319439163926B134001936E
:1007DC00019B00220321092001F096FB092001F066
:1007EC00C3FB002203210A2001F08EFB0A2001F03A
:1007FC00BBFB002201210B2001F086FB0B2001F03A
:10080C00B3FB03B000BDC04600100240F0B5DE469D
:10081C0057464E464546E0B58BB01422002105A83C
:10082C000BF014FB504B5A6B042188460A435A6355
:10083C005A6B0A400192019A596B20221143596359
:10084C00596B0A400292029A5A6B01252A435A6349
:10085C005A6B2A400392039A596B02221143596333
:10086C005B6B1A400492049B802424023F4B9946F4
:10087C0000222100180001F0FEFE3D4B9A46A027F5
:10088C00FF0500221900380001F0F5FE394E002258
:10089C001021300001F0EFFE05940695002407941A
:1008AC00089405A9484601F0A1FD43460593013B78
:1008BC0098460693079405A92F4801F097FD0595D6
:1008CC0084239B039B460693079405A9380001F0EB
:1008DC008DFD122305930694079505A9380001F0A8
:1008EC0085FD5346059306950794089405A9380091
:1008FC0001F07CFD222305935B460693079505A921
:10090C00300001F073FD402705970694079505A963
:10091C00484601F06BFD1023059306950794089447
:10092C0005A9300001F062FD059743460693079434
:10093C0005A9300001F05AFD00220221052001F02A
:10094C00E3FA052001F010FB00220221072001F040
:10095C00DBFA072001F008FB0BB0F0BCBB46B2463B
:10096C00A946A046F0BDC046001002400008005049
:10097C0060800000000400500014005010B51448B2
:10098C00144B0360144B4360002383600122C2604C
:10099C00036143618361C361036202F081F8002843
:1009AC000CD100210A4802F0D9FC002809D1002101
:1009BC00074802F0FFFC002806D110BD00F000F93A
:1009CC00EFE700F0FDF8F2E700F0FAF8F5E7C046C3
:1009DC0084010020005400405B3D300010B51448E9
:1009EC00144B0360144B4360002383600122C260EC
:1009FC00036143618361C361036202F051F8002813
:100A0C000CD100210A4802F0A9FC002809D10021D0
:100A1C00074802F0CFFC002806D110BD00F0D0F83A
:100A2C00EFE700F0CDF8F2E700F0CAF8F5E7C046C2
:100A3C00D0010020005800405B3D300010B58CB058
:100A4C0004001422002107A80BF000FA2368334A93
:100A5C00934204D0324A934241D00CB010BD314B7A
:100A6C001B78002B1ED1304C626B02231A4362633D
:100A7C00626B13400393039BC0235B0007936F3B94
:100A8C00FF3B08930C3B0B9307A9284801F0AEFCE5
:100A9C00E26B802189030A43E263E36B0B4004930E
:100AAC00049BDAE7204C626B02231A436263626B8D
:100ABC0013400193019BC0230793AE3B08930C3B5F
:100ACC000B9307A9194801F091FCE26B8021890373
:100ADC000A43E263E36B0B400293029BBDE7124CAB
:100AEC00626B01231A436263626B13400593059B8F
:100AFC00C0235B010793122308930C3B0B93A0209C
:100B0C0007A9C00501F072FCE26B8021C9030A43FE
:100B1C00E263E36B0B400693069B9EE70054004098
:100B2C000058004035050020001002400004005021
:100B3C0010B50368144A934203D0144A934210D060
:100B4C0010BD134AD36B13490B40D363124C802155
:100B5C00200001F007FD80214900200001F002FD7A
:100B6C00EEE70B4AD36B0D490B40D3638021A024D5
:100B7C00E4050901200001F0F5FC80214901200069
:100B8C0001F0F0FCDCE7C046005400400058004087
:100B9C0000100240FFFFDFFF00040050FFFFBFFF0B
:100BAC0010B5FFF7EBFE10BD10B50268034B9A426F
:100BBC0000D010BD00F08EFBFBE7C04600480140A2
:100BCC0072B6FEE700B59DB0382200210EA80BF0DE
:100BDC003DF9102200210AA80BF038F92822002137
:100BEC0068460BF033F98020800002F033FC0223BE
:100BFC000E93FE33119300231293402213921593FC
:100C0C000EA802F051FC002818D107230A930023E8
:100C1C000B930C930D9300210AA802F0FDFE002803
:100C2C000ED1094B00930023039307930893684656
:100C3C0002F0ECFF002805D11DB000BDFFF7C0FF8E
:100C4C00FFF7BEFFFFF7BCFF2040200010B500F0FF
:100C5C002DFBFFF7B7FFFFF7D9FD00F04DFAFFF7BB
:100C6C00ADFD00F00FF8FFF7B9FEFFF787FEFFF7B9
:100C7C00E1FC00F0C1F908F0CBF808F0F7FF09F03F
:100C8C001BF8FCE710B51148114B036082235B0085
:100C9C00436000238360E022D200C26003614361A1
:100CAC00802292008261F13AFF3AC2610362436290
:100CBC008362093AC26203630833436303F0D2F9D7
:100CCC00002800D110BDFFF77BFFFBE71C020020C2
:100CDC000030014010B588B004001422002103A894
:100CEC000BF0B4F82268194B9A4201D008B010BD31
:100CFC00174B196C80204001014319641A6C024097
:100D0C000092009A596B012211435963596B0A40A6
:100D1C000192019A5A6B022422435A635B6B234063
:100D2C000293029B802303930494A02003A9C00583
:100D3C0001F05CFB082303930494002305930693B2
:100D4C00079303A9034801F051FBCFE700300140A2
:100D5C00001002400004005010B50268094B9A4282
:100D6C0000D010BD084A136C08490B401364A02036
:100D7C008021C00501F0F6FB0821054801F0F2FBCB
:100D8C00EFE7C0460030014000100240FFEFFFFFCC
:100D9C000004005082B00A4B196C012211431964F3
:100DAC00196C0A400092009ADA6B802149050A43BB
:100DBC00DA63DB6B0B400193019B02B07047C046BA
:100DCC000010024000B587B001000022162001F08F
:100DDC009BF8162001F0C8F8134A116C8020C00251
:100DEC0001431164136C03400093009B01A902A8FA
:100DFC0002F0F2FE02F0DCFE0C49FFF78FF9431E05
:100E0C000B480C4A02600C4AC26043600023036129
:100E1C00836003F0B1FD002802D0012007B000BDB3
:100E2C00034803F0DFFBF9E70010024040420F00DB
:100E3C008002002000480140E7030000FEE7FEE7C7
:100E4C0070477047704710B5012001F01BFC022061
:100E5C0001F018FC10BD10B5202001F013FC10BDE2
:100E6C0010B5024801F05CFA10BDC04678030020B2
:100E7C0010B5034801F054FA024801F051FA10BDC4
:100E8C00D40300202801002010B5024801F048FAD4
:100E9C0010BDC046D002002010B5024800F0B6FBD1
:100EAC0010BDC046C400002010B5024803F02EFC53
:100EBC0010BDC0468002002010B5024804F04AFA6A
:100ECC0010BDC046300400200120704710B50AF058
:100EDC0063FF162303600120404210BD10B50121B1
:100EEC004942FFF7F3FFFEE710B503000C4A0D492A
:100EFC00521A0D490968002907D00B490868C31814
:100F0C00934206D8084A136010BD07490748086089
:100F1C00F3E70AF041FF0C23036001204042F3E7A2
:100F2C000020002000040000CC020020D00A002089
:100F3C007047000010B582B00400174B02689A424B
:100F4C0001D002B010BD154A116C80200001014384
:100F5C001164136C03400193019B1148114B036006
:100F6C0014234360043B83600023C360802202612E
:100F7C008132FF32426183612033C36180239B0144
:100F8C00036201F061F8002803D1054B63629C6297
:100F9C00D7E7FFF715FEF8E7002C014000100240E0
:100FAC00D00200204400024010B586B00400142288
:100FBC00002101A80AF04AFF22680D4B9A4201D089
:100FCC0006B010BD0B4A516B012319435163526B90
:100FDC0013400093009B80235B000193FE3B029324
:100FEC0003930593A02001A9C00501F0FFF9E7E7E1
:100FFC00002C01400010024000B59DB010220021D1
:10100C0018A80AF023FF0C22002115A80AF01EFFD5
:10101C001C2200210EA80AF019FF3422002101A87D
:10102C000AF014FF3248334B0360002343608360A3
:10103C001322C26003614361836103F09DFC0028AD
:10104C0044D180235B01189318A9294803F0E2FDD1
:10105C0000283ED1264803F0BFFC00283CD10023D9
:10106C0015931693179315A9214804F059F80028E5
:10107C0035D160230E9300230F9310931193129389
:10108C001393149300220EA9194803F015FD0028A0
:10109C0028D1002301930293039304930593802298
:1010AC0092010692079308930993802292040A9264
:1010BC000B930C930D9301A90D4804F06DF80028C7
:1010CC0013D10B48FFF770FF1DB000BDFFF778FD83
:1010DC00B7E7FFF775FDBDE7FFF772FDBFE7FFF759
:1010EC006FFDC6E7FFF76CFDD3E7FFF769FDE8E797
:1010FC002C030020002C014010B50C480C4B036055
:10110C00E1235B02436000238360C36003610C2214
:10111C0042618361C36103624362836204F09CFD9C
:10112C00002800D110BDFFF74BFDFBE73004002079
:10113C000044004010B588B004001422002103A81C
:10114C000AF084FE2D4B22689A4201D008B010BDE3
:10115C002B4BD96B802080020143D963DA6B0240A0
:10116C000192019A596B0122114359635B6B134035
:10117C000293029B0C2303930A3B04930792A02037
:10118C0003A9C00501F032F91E481F4B036034233C
:10119C00436000238360C3608022026143618361EA
:1011AC00C361036200F050FF002821D1154BE367A7
:1011BC009C621648164B036035234360253B8360C5
:1011CC000023C3608022026143618361C3610362B7
:1011DC0000F03AFF00280ED10C4BA3679C62002252
:1011EC0002211C2000F090FE1C2000F0BDFEADE79B
:1011FC00FFF7E6FCDAE7FFF7E3FCEDE7004400401D
:10120C00001002407803002008000240D4030020A4
:10121C001C00024010B504000C4B02689A4200D02E
:10122C0010BD0B4AD36B0B490B40D363A0200C2190
:10123C00C00501F097F9E06F00F05EFFA06F00F0C1
:10124C005BFF1C2000F09CFEEAE7C0460044004017
:10125C0000100240FFFFFDFF0D488546FFF768FEBA
:10126C000C480D490D4A002302E0D458C4500433F5
:10127C00C4188C42F9D30A4A0A4C002301E01360CB
:10128C000432A242FBD30AF08DFDFFF7DFFCFEE730
:10129C000020002000000020A800002058E80008D2
:1012AC00A8000020D00A0020FEE7000010B5084A74
:1012BC00116880235B000B4313600320FFF782FD52
:1012CC00041E02D00124200010BDFFF763FDFAE7D5
:1012DC0000200240034B1B78034A11685B18136013
:1012EC007047C04604000020C0040020014B186861
:1012FC007047C046C004002070B50400FFF7F6FF2D
:10130C000500631C02D0044B1B78E418FFF7EEFFBA
:10131C00401BA042FAD370BD0400002030B583B04E
:10132C00040000230193002800D106E1836D002BFB
:10133C0013D023689A68D2001CD49A688049114053
:10134C00802252050A439A607E4B18687E49FEF74C
:10135C00E5FE01304000019009E0FFF7B5F90023EC
:10136C00E3655422A354E4E7019B013B0193019BE9
:10137C00002BF9D123689A68D20000D59DE0A26DAC
:10138C0010210A43A265E26D0F390A43E265012080
:10139C009A6804210D001540114200D00125A26D60
:1013AC00D20600D5C2E0002D00D0BFE0A26D674987
:1013BC000A400631FF310A43A2659A68D20752D41B
:1013CC00227E9203A1680A43617EC9030A43A57E6B
:1013DC0069030A43216B002901D0802149010A438A
:1013EC00E1680A432169002969DB802189030A43EA
:1013FC002C21615C49000A432021615C012961D0E8
:10140C00616A002905D0E0256D002940A56A2943B1
:10141C000A43D9684E4D29400A43DA6063689B0F32
:10142C009B07E26C1A433C21615C012959D021686D
:10143C000B69484D2B4013430B616368C0221206A5
:10144C00934210D08022D20593420CD080221206F7
:10145C00934208D040490A68404D2A40F025AD031C
:10146C002B4013430B602268536907218B43616B3C
:10147C000B43536121684B6970229343A26B120199
:10148C0013434B612369002B35D12268916A103BC1
:10149C000B43936223685A6907231340626B9A4289
:1014AC003BD0A36D12229343023A1343A365E36D21
:1014BC000F3A1343E36501203DE0002068E7490043
:1014CC00490894E7002D03D1802149020A4397E78C
:1014DC00A16D20252943A165E16D1F3D2943E165DF
:1014EC008EE7216C0B43616C0B43A16C0B431343D4
:1014FC0001221A439BE7802292039342CAD12168AE
:10150C008B6AE369013B9B001C221A4010235B424F
:10151C009340226E13438B62BCE70023E365A36DFB
:10152C0003229343023A1343A36504E0A36D1022F4
:10153C001343A365012003B030BD0120FBE7C04677
:10154C00E8FFFF6F00000020400D0300FDFEFFFFD1
:10155C000102FEFF02FCFF1F08270140FFFFC3FF33
:10156C007047704710B5806AFFF7FBFF10BD7047DE
:10157C00704710B5806A836D402213438365C36D39
:10158C003C3A1343C365FFF7F3FF10BD10B50300DE
:10159C00806A826D502111422AD1826D80239B007A
:1015AC00134383650368D968C0221201114213D119
:1015BC00827E002A10D11A6812070DD59A6852073C
:1015CC000DD45A680C218A435A60836D0E4A13401D
:1015DC000432FF3213438365FFF7C2FF10BD836DE6
:1015EC00202213438365C36D1F3A1343C365F3E78E
:1015FC00826DD20604D4026D526B18009047EDE751
:10160C00FFF7B6FFEAE7C046FEFEFFFF70B5040029
:10161C0003681E685D68B3070FD5AB070DD5836DE6
:10162C00DB0604D4826D80231B01134383652000E9
:10163C0000F068FC236802221A60730701D56B075F
:10164C0003D4330729D52B0727D5A36DDB0604D488
:10165C00A26D80239B001343A3652368D968C02225
:10166C001201114213D1A27E002A10D11A6812075E
:10167C000DD59A6852073BD45A680C218A435A609C
:10168C00A36D374A13400432FF321343A365200085
:10169C00FFF766FF23680C221A60330601D52B0670
:1016AC002FD4F30501D5EB0537D4B30501D5AB0524
:1016BC0040D4F30617D5EB0615D5236B002B03D0BE
:1016CC002368DB689B070BD0A26D8023DB001343E0
:1016DC00A365E36D02221343E3652000FFF748FF87
:1016EC00236810221A60B30401D5AB042FD470BD4B
:1016FC00A36D20221343A365E36D1F3A1343E365E7
:10170C00C5E7A26D80235B021343A3652000FFF79E
:10171C002EFF236880221A60C3E7A26D80239B02F0
:10172C001343A365200000F0EBFB236880225200DA
:10173C001A60BAE7A26D8023DB021343A365200075
:10174C0000F0DFFB2368802292001A60B1E72000D2
:10175C0000F0D9FB2368802292011A60C7E7C046CB
:10176C00FEFEFFFFF0B583B0040000230193056972
:10177C005433C35C012B00D130E154230122C254F9
:10178C0000688368033216001E401A4209D0A36D0C
:10179C001C321343A365012054230022E25403B0EE
:1017AC00F0BD4B68022B00D1D6E080221206954288
:1017BC0026D08B4A954223D01F221340103A9A40D0
:1017CC00256E95432A000D686F032FD1AD0E1F2691
:1017DC002E409E40164326664D68AB080133E269E5
:1017EC00934213D8826A1F231D40103B1E00AE404B
:1017FC00B2430E68B60E3340AB401343836205E030
:10180C00826A0B685B035B0B13438362206842693B
:10181C000B681B029A438D682B40724D2B4013436F
:10182C0043610B68002B4FDB0020B5E7EF07D0D4EA
:10183C00AE0727D46E0727D42E0727D4EE0627D45D
:10184C00AE0627D46E0627D42E0627D4EE0527D451
:10185C00AE0527D46E0527D42E0527D4EE0427D445
:10186C00AE0427D46E0427D42E0427D4EE0327D439
:10187C00AE0327D48027FF022E003E403D42A8D065
:10188C001226A6E70126A4E70226A2E70326A0E774
:10189C0004269EE705269CE706269AE7072698E786
:1018AC00082696E7092694E70A2692E70B2690E786
:1018BC000C268EE70D268CE70E268AE70F2688E786
:1018CC00102686E7112684E7474A1168E022520465
:1018DC000A404648834207D04548834222D04548B7
:1018EC0083422CD0002057E70802F5D480231B0438
:1018FC001A433D490B68404803401A430A603F4B6A
:10190C0018683F49FEF70AFC013043001B189B0086
:10191C00019302E0019B013B0193019B002BF9D148
:10192C00002039E7C801DAD480235B041A432E491E
:10193C000B68314803401A430A6000202CE74B0225
:10194C004AD48023DB031A4327490B682A480340F7
:10195C001A430A6000201FE780231B069D4202D019
:10196C001F4B9D4205D1826A0B685B035B0B9A434C
:10197C0082620B68002B01DB00200DE71A4A12680B
:10198C001A498B4207D01A498B420FD019498B4206
:10199C0017D0002000E7A0235B041A4012490B6803
:1019AC00154803401A430A600020F5E6C0231B04C7
:1019BC001A400D490B68104803401A430A60002076
:1019CC00EAE6C0235B041A4007490B680A48034047
:1019DC001A430A600020DFE60020DDE60220DEE686
:1019EC000400008000FFFF0708270140001000B032
:1019FC00004000B8002000B4FFFF3FFE00000020B4
:101A0C00400D030070B5040003689A68520724D592
:101A1C009A68920705D49A6811490A4010210A4322
:101A2C009A60FFF763FC050023689B685B0712D57F
:101A3C00FFF75CFC401B0228F6D923689B685B0708
:101A4C00F2D5A36D10221343A365E36D0F3A134334
:101A5C00E365012002E0002000E0002070BDC046DC
:101A6C00E8FFFF7F30B583B00400002301930368C7
:101A7C009A68D2074FD49968284A114211D19A68B2
:101A8C0027490A4001210A439A60264B1B681B0216
:101A9C0017D5254B18682549FEF740FB01300190FE
:101AAC000CE0836D102213438365C36D0F3A13430F
:101ABC00C365012030E0019B013B0193019B002B8E
:101ACC00F9D1637E012B01D1002025E0FFF70EFC3C
:101ADC00050023681A68D2071BD49A68D20705D46C
:101AEC009A680F490A4001210A439A60FFF7FEFBEE
:101AFC00401B0228EDD923681B68DB07E9D4A36DD2
:101B0C0010221343A365E36D0F3A1343E3650120E1
:101B1C0002E0002000E0002003B030BD1700008080
:101B2C00E8FFFF7F0827014000000020400D030064
:101B3C0070B504000D00160003689A68520747D46C
:101B4C005422825C012A45D0012254214254D96886
:101B5C000A420DD19A68D20705D59A681E490A40E7
:101B6C0002210A439A602268D36801210B43D36097
:101B7C002000FFF777FF00282BD1A36D174A1A40DE
:101B8C0080235B001343A3650023E365226D144996
:101B9C00D162226D13491163226D1349516322687E
:101BAC001C2111605422A354226853680C390B4336
:101BBC0053602168403133002A00206D00F0E2FAB6
:101BCC002268936804490B4004210B43936000E0A6
:101BDC00022070BD0220FCE7E8FFFF7FFEF0FFFF54
:101BEC0099150008711500087F15000870B50400E0
:101BFC0003689A68022108001040114200D00120AD
:101C0C009A68D20735D5002835D1996805220A4043
:101C1C00012A09D0A36D10221343A365E36D0F3A7B
:101C2C001343E365012025E09A6814490A40022118
:101C3C000A439A60236803221A60FFF757FB0500DA
:101C4C0023689B68DB0712D5FFF750FB401B02286B
:101C5C00F6D923689B68DB07F2D5A36D10221343DA
:101C6C00A365E36D0F3A1343E365012002E0002006
:101C7C0000E0002070BD0020FCE7C046E8FFFF7FBD
:101C8C0070B5041E4BD0836D022213438365FFF79E
:101C9C00B9FE051E36D02268536822490B405360AA
:101CAC002368214A1A602268D36820490B40D3600C
:101CBC00226813699B009B081361226853690721F2
:101CCC008B43536121680B6A194A13400B622168DC
:101CDC004B6A13404B622168CB6A1340CB6223687A
:101CEC009A6A00269E62134A136813490B401360CC
:101CFC002000FEF743FD2666E665A6655423E654F0
:101D0C00280070BD2000FFF771FF051E01D10123D3
:101D1C00A3652268936809490B409360BBE70125D2
:101D2C00EEE7C04660FCFFFF9F03000000023E830D
:101D3C0000F000F008270140FFFF03FEE8FFFF6FF3
:101D4C0070B504005423C35C012B36D054230122FC
:101D5C00C254FFF757FE051E1DD1206D2523C35C11
:101D6C00022B1DD02268536810218B435360002D29
:101D7C001FD12000FFF73AFF0500002D06D1A36DFF
:101D8C000F4A13400432FF321343A3652268D36811
:101D9C0001218B43D36054230022E254280070BDF0
:101DAC0000F03EFA051EDDD0A36D40221343A3655F
:101DBC00D8E72000FFF71AFFDFE70225EEE7C04661
:101DCC00FEFEFFFFF0B583B00400002301935433F3
:101DDC00C35C012B00D186E001265423C654FFF7C7
:101DEC0005FF050023689A6831001140164209D09E
:101DFC00A36D10221343A36554230022E254280040
:101E0C0003B0F0BDA26D394802400630FF300243EA
:101E1C00A265DE68364A1640DA6836480240DA6057
:101E2C00080005E0B4229A587F231340C0180131F2
:101E3C0007291DD82768BB682F4A1A4080231B0628
:101E4C001343BB6023689A68002AEBDA019B0133C9
:101E5C000193019A294B9A42F4D9A36D1222934310
:101E6C00023A1343A36554230022E2540125C6E72A
:101E7C00FEF754F923689A681F4F3A4001210A4330
:101E8C009A60B4232268D2587E318A431043226868
:101E9C00D050226893683B407D390B439360FFF729
:101EAC0025FA070023689A68D20709D4DA68164322
:101EBC00DE60A36D03229343023A1343A3659BE7B1
:101ECC00FFF714FAC01B0228ECD923689B68DB07C8
:101EDC00E8D5A36D10221343A365E36D0F3A1343AA
:101EEC00E36501258BE7022589E7C046FDFEFFFF70
:101EFC0003800000FC7FFFFFE8FFFF7FFFF1020083
:101F0C00704770477047704770B5002811DB830825
:101F1C00134EC0339B009D5903242040C000FF2268
:101F2C0014008440A54389010A4082402A439A51F7
:101F3C0070BD0F230340083B9B0806339B00094AE6
:101F4C00944663445C6803221040C000FC321500C8
:101F5C008540AC4389010A40824022435A60E7E73E
:101F6C0000E100E000ED00E0002805DB1F23184035
:101F7C001E3B8340014A13607047C04600E100E0FD
:101F8C0000280ADB1F2318401E3B83400349802294
:101F9C008B50BFF34F8FBFF36F8F704700E100E0A2
:101FAC00F0B5846CC56C6560046D002C02D0446D7A
:101FBC00856D65600B4F7C681C26056C2E400125D9
:101FCC00B5402C437C60046863608368102B04D09C
:101FDC00036899600368DA60F0BD03689A6003686F
:101FEC00D960F9E70000024010B50400036C9B08AF
:101FFC00094A944663449B004364FF2023681840BD
:10200C0008381421FEF78AF8044BA3641F231840E8
:10201C001E3B8340E36410BD008200108008024028
:10202C003F2342681340064A9A1892000265054AFB
:10203C004265013B03221A4001239340836570479C
:10204C003F8200104009024070B5041E4DD0056857
:10205C00274BE8181421FEF761F880002064252333
:10206C000222E2542B68234A13402B6021680A6831
:10207C00A368E06803432069034360690343A069D4
:10208C000343E0690343206A034313430B602000BE
:10209C00FFF7AAFF8023DB01A2689A4218D0626C7A
:1020AC003F2361680B401360A36CE26C5A60636859
:1020BC00013B032B0FD9002323656365A365002324
:1020CC00E36325220121A154013AA354002070BDE1
:1020DC0000236360E3E72000FFF7A2FF236D0022DB
:1020EC001A60636DA26D5A60E9E70120EFE7C04604
:1020FC00F8FFFDBF0F80FFFFF8B5041E3BD0026850
:10210C0013680125AB43136007681C4BF8181421A6
:10211C00FEF704F88000206400263E6018494B68E6
:10212C001C22206C024095401D434D602000FFF79F
:10213C005BFF636C1E60A36CE26C5A606368013BCE
:10214C00032B0ED9002323656365A365E362236328
:10215C006363A363E3632522A354013AA3540020D1
:10216C00F8BD2000FFF75CFF236D00221A60636D41
:10217C00A26D5A60E6E70120F2E7C046F8FFFDBF0A
:10218C000000024070B504002420205C012845D0DA
:10219C002420012525540130205C012806D0802301
:1021AC00E3635C3B0022E254012070BD2430013516
:1021BC0025540020E063256828680126B043286078
:1021CC002000FFF7EDFE236B002B1CD02268136858
:1021DC000E210B431360636C1A68D20304D5196883
:1021EC00802252000A431A60236D002B04D0196818
:1021FC00802252000A431A602268136801210B43A3
:10220C0013600020D1E72268136804218B4313600C
:10221C002268136806310B431360DCE70220C4E725
:10222C0030B5002836D02523C35C022B06D00423FE
:10223C00C36320330022C254012030BD02681368EE
:10224C000E218B431360426C136813490B401360CF
:10225C0001680A6801239A430A60104C62681C21C9
:10226C00056C29408B4013436360836CC26C5A60CD
:10227C00036D002B06D01A6807490A401A60436D9B
:10228C00826D5A6025230122C254013B0022C254A4
:10229C000020D2E70120D0E7FFFEFFFF0000024044
:1022AC0070B52523C35C022B03D00423C363012028
:1022BC0070BD026813680E218B43136001680A68B5
:1022CC0001239A430A60416C0A68134C22400A604D
:1022DC00124C62681C21056C29408B4013436360CF
:1022EC00836CC26C5A60036D002B06D01A680A49C5
:1022FC000A401A60436D826D5A6025230122C25434
:10230C00013B0022C254836B002B02D09847002063
:10231C00CEE70020CCE7C046FFFEFFFF00000240E6
:10232C0070B5314B1968046825681C23026C134086
:10233C0004229A40114216D06A0714D523689B06D2
:10234C0003D42368042293432360274C63681C2125
:10235C00026C114004228A4013436360036B002B10
:10236C0000D0984770BD02229A4011421CD0AA0797
:10237C001AD523689B0606D423680A22934323604C
:10238C002523093AC254184C63681C21026C114075
:10239C0002228A401343636024230022C254C36A7E
:1023AC00002BDFD09847DDE708229A401142D9D0A4
:1023BC002B07D7D523680E22934323600A4C6268FF
:1023CC001C21036C194001231D008D402A436260BF
:1023DC00C3632522835423330022C254436B002B46
:1023EC00C0D09847BEE7C04600000240F0B50023BD
:1023FC005AE084685F000326BE40B4432600CC68D4
:10240C00BC4034438460446894434A6816090122F2
:10241C0032409A402243426056E0DC080834A40063
:10242C00265805321A4092000F279740BE430F6979
:10243C0097403A00324322505AE0032600E000262F
:10244C00A64034003C43434E1832920094513468F9
:10245C00EA432600AE434F68FF0201D52C43260009
:10246C003C4C26606468260016404F68BF0201D5BC
:10247C002C432600374C66608426A459260016404F
:10248C004F68BF0301D52C432600324C8427E651FC
:10249C008026A45922404E68F60301D52A00224317
:1024AC002C4D80242A5101330C682200DA404FD085
:1024BC0001229A40250015401442F4D003244E68A2
:1024CC003440013C012C94D903224C682240032A4D
:1024DC0009D0C2685E000324B440A24314008A6889
:1024EC00B2402243C26003224C682240022A94D09C
:1024FC0004685E0003221700B740BC434F683A40A3
:10250C00B24022430260C02292024C681442CAD0EC
:10251C009A0814001834A4000E4EA75903241C402A
:10252C00E4000F26A640B743A026F605B04286D09D
:10253C00094EB04208D0094EB04207D0084EB04206
:10254C0000D17AE705267BE7012679E7022677E7B3
:10255C00F0BDC046001802400004005000080050B6
:10256C00000C0050F0B5CE46474680B58946002396
:10257C0023E00321884601E0002188464146A14022
:10258C00A94247D004685E000325B5402C43046083
:10259C00DC080834A400275807261E40B6000F217B
:1025AC00B1408F4327508468AC43846044689443A3
:1025BC004460C268AA43C26001334A46DA4046D03E
:1025CC0001229A404C461440A44649461142F3D08D
:1025DC009F083C001834A4001F4D655903241C406F
:1025EC00E4000F26A6403540A021C9058842C3D07F
:1025FC001A49884208D01A49884208D01949884299
:10260C00B7D005218846B9E701218846B6E70221F3
:10261C008846B3E7104D802188466C5861468C4340
:10262C0041466C50043188466C5861468C43414697
:10263C006C506C6861468C436C602C688C432C60CD
:10264C003C001834A4006759B74367519AE7C0BCE3
:10265C00B946B046F0BDC046001802400004005018
:10266C0000080050000C005003690B4201D00120FF
:10267C0070470020FCE7002A01D08161704781621D
:10268C00FCE7704710B50400094BDB68184204D115
:10269C00074B1B69234205D110BD054BD860FFF7D2
:1026AC00F0FFF5E7024B1C61200007F0D5F9F3E7CA
:1026BC000018024003689A69920701D500229A62B9
:1026CC0003689A69D20703D49A6901210A439A6173
:1026DC007047000010B58905890D12041143194388
:1026EC00029B194349004908046862685B0D80200D
:1026FC00C0000340024803439A431143616010BD7C
:10270C00FF63FF03F0B5C64600B504000E0090460B
:10271C0001688B69102217001F401A4248D0102301
:10272C00CB6100252368986982063AD4002D38D1F4
:10273C00731CF7D0FEF7DAFD4346C01AB04201D83D
:10274C00002EEFD121684B688022D2011340422227
:10275C00A25CD2B28869000403D5002B01D1202AD7
:10276C0016D123689B699B06DCD4FEF7BFFD43465C
:10277C00C01A1928F5D9636C2022134363644123D2
:10278C00E25400232232A354023AA3540125E8E771
:10279C004A688023DB0113434B60FEF7A7FD80469C
:1027AC00DFE7002D37D12022DA610427013500E064
:1027BC00002522689369D90504D501210F43FF3107
:1027CC00D16101255A0506D50822174322688021BC
:1027DC00C900D16101259B051FD502231F43236826
:1027EC0080229200DA6101252000FFF763FF226846
:1027FC0053680B490B405360636C3B436364412348
:10280C002022E25400232232A354023AA35428007B
:10281C0080BCB846F0BD0427CBE7002DF7D0E3E72A
:10282C0000E800FE70B504000D00160023689B69DB
:10283C009B071CD4320029002000FFF763FF0028FF
:10284C0017D16B1CF2D0FEF751FD801BA84201D8AA
:10285C00002DEBD1636C2022134363644123E254BB
:10286C0000232232A354023AA354012000E000209A
:10287C0070BD0120FCE7F0B5C64600B507000D00A1
:10288C0090461E003B689C692C40641B63425C4173
:10289C00444516D1731CF5D0FEF728FD069BC01AD3
:1028AC00B04201D8002EEDD17B6C202213437B6407
:1028BC004123FA5400232232BB54023ABB54012068
:1028CC0000E0002080BCB846F0BD000070B582B0BE
:1028DC00040015001E008023F2B2194800905B041E
:1028EC002000FFF7F7FE079A06992000FFF79AFFE2
:1028FC0000281ED1012E0ED12368EDB29D62079BDC
:10290C000093069B002280212000FFF7B4FF0028D3
:10291C0013D102B070BD23682A0A9A62079A0699ED
:10292C002000FFF77FFF002805D12368EDB29D62E0
:10293C00E5E70120EDE70120EBE70120E9E7C046E0
:10294C000020008070B582B0040015001E00DAB2C1
:10295C00184B00930023FFF7BDFE079A0699200041
:10296C00FFF760FF00281ED1012E0ED12368EDB2B7
:10297C009D62079B0093069B002240212000FFF7DD
:10298C007AFF002813D102B070BD23682A0A9A621C
:10299C00079A06992000FFF745FF002805D1236808
:1029AC00EDB29D62E5E70120EDE70120EBE70120A8
:1029BC00E9E7C0460020008070B505000C00160049
:1029CC002B689B699B061AD4320021002800FFF764
:1029DC0099FE002815D1FEF789FC801BA04201D876
:1029EC00002CEDD16B6C202213436B644123EA5411
:1029FC0000232232AB54023AAB54012070BD0020AC
:102A0C00FCE70120FAE7000070B504000D00160089
:102A1C0023689B695B073DD4320029002000FFF737
:102A2C0071FE002838D123689A69920611D4FEF7FA
:102A3C005DFC801BA84201D8002DE9D1636C2022DB
:102A4C00134363644123E254013B0022E25401200E
:102A5C0070BD9A69520702D5228D002AF8D19A6965
:102A6C00D20614D51022DA61042363642368202271
:102A7C00DA6121684B68094803404B604123E254FA
:102A8C0000232232A354023AA3540120E0E700238E
:102A9C006364EBE70020DBE70120D9E700E800FEE8
:102AAC0010B5041E59D04123C35C002B43D04123E5
:102ABC002422E2542268136801218B43136022689C
:102ACC00274B61680B4013612268936825490B40C2
:102ADC009360E368012B34D0226884231B02A16825
:102AEC000B439360E368022B32D0226851681E4B73
:102AFC000B4353602268D3681A490B40D360236997
:102B0C0062691343A269120221681343CB602268E5
:102B1C00E369216A0B4313602268136801210B439C
:102B2C0013600023636441221F31A15423630132DB
:102B3C00A354002010BD40330022C254FDF77EFF89
:102B4C00B5E7226880231B02A1680B439360C9E799
:102B5C002368802212015A60C7E70120EAE7C046C9
:102B6C00FFFFFFF0FF7FFFFF0080000270B5041E27
:102B7C0013D04125242343550268136801218B434C
:102B8C001360FDF7D5FF0023636463552363422272
:102B9C00A354023AA354002070BD0120FCE70000AE
:102BAC00F0B585B004000F00029203930A9D4123F7
:102BBC00C35C202B00D09BE02033C35C012B00D1E5
:102BCC0099E040230122C254FEF790FB06008021BD
:102BDC0000901923012209022000FFF74CFE002867
:102BEC0000D08AE041232122E2540133113AE2540D
:102BFC0000236364029A6262039A62856363638D45
:102C0C009BB2FF2B0BD9FF2323857F3B3F4A0092BE
:102C1C005B04FF2239002000FFF75CFD18E0628D99
:102C2C0092B222858023D2B2384900919B0439009C
:102C3C002000FFF74FFD0BE0628D92B222858023BE
:102C4C00D2B2002100919B0439002000FFF742FD15
:102C5C00638D9BB2002B34D0320029002000FFF78B
:102C6C00E1FD00284BD12368626A12789A62636A8C
:102C7C0001336362638D013B9BB26385238D013B02
:102C8C009BB22385628D92B2002AE1D0002BDFD15A
:102C9C0000962B00002280212000FFF7ECFD00287D
:102CAC002FD1638D9BB2FF2BC6D9FF2323857F3B8E
:102CBC00002200925B04FF3239002000FFF70AFD6E
:102CCC00C6E7320029002000FFF776FE00281AD153
:102CDC0023682022DA6121684B680D4D2B404B6034
:102CEC004123E25400232232A354023AA35400E0BD
:102CFC00022005B0F0BD0220FBE70120F9E701201E
:102D0C00F7E70120F5E70120F3E7C046002000803B
:102D1C0000E800FEF0B585B004000F0002920393AA
:102D2C000A9D4123C35C202B00D09BE02033C35C65
:102D3C00012B00D199E040230122C254FEF7D6FAB0
:102D4C000600802100901923012209022000FFF7C0
:102D5C0092FD002800D08AE041232222E254013364
:102D6C00123AE25400236364029A6262039A628507
:102D7C006363638D9BB2FF2B0BD9FF2323857F3BB2
:102D8C003F4A00925B04FF2239002000FFF7A2FCAF
:102D9C0018E0628D92B222858023D2B2384900911C
:102DAC009B0439002000FFF795FC0BE0628D92B27A
:102DBC0022858023D2B2002100919B04390020008F
:102DCC00FFF788FC638D9BB2002B34D032002900B6
:102DDC002000FFF719FE00284BD123685B6A626A5A
:102DEC001370636A01336362238D013B9BB22385AD
:102DFC00628D013A92B26285628D92B2002AE1D064
:102E0C00002BDFD100962B00002280212000FFF741
:102E1C0032FD00282FD1638D9BB2FF2BC6D9FF2327
:102E2C0023857F3B002200925B04FF323900200097
:102E3C00FFF750FCC6E7320029002000FFF7BCFD6D
:102E4C0000281AD123682022DA6121684B680D4DC5
:102E5C002B404B604123E25400232232A354023A0C
:102E6C00A35400E0022005B0F0BD0220FBE70120D6
:102E7C00F9E70120F7E70120F5E70120F3E7C04669
:102E8C000024008000E800FEF0B587B00400039138
:102E9C00049205930CAB20CB1F884123C35C202BE1
:102EAC0000D0B3E0002D18D0002F16D04023C35C07
:102EBC00012B00D1ADE040230122C254FEF716FADB
:102ECC000600802100901923012209022000FFF73F
:102EDC00D2FC002806D0012099E080239B0063647B
:102EEC00012094E041232122E25401331F32E254A9
:102EFC000023636465626785636301960E9B009390
:102F0C00059B049A03992000FFF7E0FC00280FD1E1
:102F1C00638D9BB2FF2B10D9FF2323857F3B0022AF
:102F2C0000925B04FF3203992000FFF7D3FB21E0F2
:102F3C0040230022E254012069E0628D92B2228586
:102F4C008023D2B2002100919B0403992000FFF74B
:102F5C00C1FB0FE0628D92B222858023D2B2002198
:102F6C0000919B0403992000FFF7B4FB638D9BB287
:102F7C00002B34D032000E992000FFF753FC0028B0
:102F8C0049D12368626A12789A62636A0133636278
:102F9C00638D013B9BB26385238D013B9BB22385E3
:102FAC00628D92B2002AE1D0002BDFD100960E9BED
:102FBC00002280212000FFF75EFC00282DD1638DBC
:102FCC009BB2FF2BC6D9FF2323857F3B00220092A7
:102FDC005B04FF3203992000FFF77CFBC6E732004D
:102FEC000E992000FFF7E8FC002818D12368202256
:102FFC00DA6121684B680B4D2B404B604123E25446
:10300C0000232232A354023AA35400E0022007B05A
:10301C00F0BD0220FBE70120F9E70120F7E70120D2
:10302C00F5E7C04600E800FEF0B587B00400039158
:10303C00049205930CAB20CB1F884123C35C202B3F
:10304C0000D0B5E0002D18D0002F16D04023C35C63
:10305C00012B00D1AFE040230122C254FEF746F908
:10306C000600802100901923012209022000FFF79D
:10307C0002FC002806D001209BE080239B006364A7
:10308C00012096E041232222E25401331E32E25405
:10309C000023636465626785636301960E9B0093EE
:1030AC00059B049A03992000FFF74CFC00280FD1D4
:1030BC00638D9BB2FF2B10D9FF2323857F3B424AA4
:1030CC0000925B04FF2203992000FFF703FB21E031
:1030DC0040230022E25401206BE0628D92B22285E3
:1030EC008023D2B2384900919B0403992000FFF74A
:1030FC00F1FA0FE0628D92B222858023D2B20021C8
:10310C0000919B0403992000FFF7E4FA638D9BB2B6
:10311C00002B36D000960E9B002204212000FFF7D6
:10312C00AAFB002849D123685B6A626A1370636A40
:10313C0001336362238D013B9BB22385628D013A7F
:10314C0092B26285628D92B2002ADFD0002BDDD163
:10315C0000960E9B002280212000FFF78CFB00289C
:10316C002DD1638D9BB2FF2BC4D9FF2323857F3BCD
:10317C00002200925B04FF3203992000FFF7AAFAA9
:10318C00C4E732000E992000FFF716FC002818D176
:10319C0023682022DA6121684B680C4D2B404B6070
:1031AC004123E25400232232A354023AA35400E0F8
:1031BC00022007B0F0BD0220FBE70120F9E7012057
:1031CC00F7E70120F5E7C0460024008000E800FE88
:1031DC00F0B5CE46474680B585B006008946904688
:1031EC001D00002303934133C35C202B00D0A6E0C9
:1031FC0003689B691B0400D5A3E04023C35C012B2F
:10320C0000D1A0E040230122C25401332332C25426
:10321C0000234364F368012B18D04B469A05920D9A
:10322C00A0239B01134332685360FEF75FF807003D
:10323C0033689A6920241440621E9441E2B29C695E
:10324C0010232340591E8B41DCB212E04B469A05E9
:10325C00920D414B1343E6E733689A6920241440DE
:10326C00621E9441E2B29B6910241C40631E9C4177
:10327C00E4B2144317D16B1CEED0FEF737F8C01B29
:10328C00A84201D8002DE7D120224123F254736CBF
:10329C001343736440230022F254012005B0C0BCD8
:1032AC00B946B046F0BD33689B69DB0622D5009762
:1032BC002B00002220213000FFF7DDFA002846D138
:1032CC0033681022DA6133681032DA61039B4345AC
:1032DC0022D0039B01330393039B43459AD32022B3
:1032EC004123F254736C1343736440230022F25451
:1032FC000120D3E700972B00002220213000FFF79C
:10330C00BAFA002821D132682023D3614122B35468
:10331C0020330022F254C1E7326851688023DB016C
:10332C000B43536000972B00002220213000FFF745
:10333C00A2FA00280DD133682022DA61C9E70220F5
:10334C00ACE70220AAE70220A8E70120A6E70120AB
:10335C00A4E70120A2E7C04600200002F0B54123FB
:10336C00C35C202B20D12033C35C012B1ED0402406
:10337C0001220255412524234355066833689343A3
:10338C003360066833680A4F3B4033600668336825
:10339C001943316001680B6813430B6020234355BC
:1033AC00002303550020F0BD0220FCE70220FAE7C1
:1033BC00FFEFFFFFF0B54123C35C202B1ED1203360
:1033CC00C35C012B1CD0402401220255412524232F
:1033DC004355066833689343336006683368094F76
:1033EC003B4009021943316001680B6813430B60C1
:1033FC0020234355002303550020F0BD0220FCE799
:10340C000220FAE7FFF0FFFF002816D00F4A1368DE
:10341C00072083430638034313600D4A13690420C5
:10342C000343136101290ED040BF20BF20BF084ABF
:10343C00136904218B4313617047044A13680720F6
:10344C0083431360E9E730BFF1E7C04600700040EA
:10345C0000ED00E010B5104A136810490B4003430F
:10346C00136080239B00984201D0002010BD0C4BB0
:10347C001B685800C01840000A49FCF74FFE013089
:10348C00054B5B695B0503D5002803D00138F7E7D2
:10349C000020EBE70320E9E700700040FFF9FFFF95
:1034AC000000002040420F0070B582B0041E00D115
:1034BC0031E20368DB0739D5C14A916838230B40E8
:1034CC00D16803220A40102B26D0082B26D0636823
:1034DC008022520293427FD0A022D202934200D18A
:1034EC0081E0B74B1A68B7490A401A601A68B649A6
:1034FC000A401A606368002B00D180E0FDF7F6FEED
:10350C000500AF4B1B689B0310D4FDF7EFFE401B6F
:10351C006428F6D90320FFE1032AD6D1A84B1B68F7
:10352C009B0303D56368002B00D1F7E123689B074D
:10353C0031D5A34A936838210B40D16803220A4045
:10354C00102B6AD0002B6BD19D4A1268520503D503
:10355C00E268002A00D1E3E1994842689B490A409D
:10356C00616909020A434260002B0DD10368984936
:10357C000B4021690B4303600368DB0A07221A40E6
:10358C00944BD340944A1360944B1868FDF71AFC83
:10359C00002800D0C6E123681B0700D481E0884BCB
:1035AC009A6838231340182B73D0A369002B00D1D1
:1035BC00B4E0834A136E01210B431366FDF796FEAC
:1035CC0005007F4B1B6E9B076BD4FDF78FFE401BDA
:1035DC000228F6D903209FE1794A116880235B0207
:1035EC000B43136086E7764B19688022D2020A439C
:1035FC001A601968802252020A431A607AE7FDF7B2
:10360C0075FE05006E4B1B689B038FD5FDF76EFE98
:10361C00401B6428F6D903207EE1022A92D193E75D
:10362C00E368002B22D0664A136869490B40216974
:10363C000B431360116880235B000B431360FDF791
:10364C0055FE05005E4B1B685B0506D4FDF74EFE70
:10365C00401B0228F6D903205EE159494B685B4AAE
:10366C0013406269120213434B6094E7544A136887
:10367C005B490B401360FDF739FE0500504B1B688E
:10368C005B0588D5FDF732FE401B0228F6D90320D6
:10369C0042E14B4B1B6E9B0703D5A369002B00D15A
:1036AC0042E123685B0700D4A2E0454B9A683823BB
:1036BC001340202B45D0424BDB6BDB004AD4404AF5
:1036CC00D16B802040050143D163D36B0340019340
:1036DC00019B0125434B1B68DB053DD5A368012BE2
:1036EC004ED0052B52D0364BDA6D01218A43DA6568
:1036FC00DA6D03318A43DA65A368002B50D0FDF7ED
:10370C00F5FD06002E4BDB6D9B076FD4FDF7EEFD30
:10371C00801B354B9842F5D90320FDE0284A136EE7
:10372C0001218B431366FDF7E1FD0500244B1B6E55
:10373C009B07B6D5FDF7DAFD401B0228F6D903200E
:10374C00EAE01F4BDB6D9B0752D5A368002B4FD1D2
:10375C000120E1E00025BDE7224A116880235B00CF
:10376C000B431360FDF7C2FD06001E4B1B68DB0507
:10377C00B4D4FDF7BBFD801B0228F6D90320CBE0A7
:10378C000F4AD36D01210B43D365B5E70C4BDA6DB2
:10379C0004210A43DA65DA6D03390A43DA65ABE7CB
:1037AC00FDF7A4FD0600064BDB6D9B071ED5FDF750
:1037BC009DFD801B0C4B9842F5D90320ACE0C04614
:1037CC0000100240FFFFFEFFFFFFFBFFFF80FFFF2B
:1037DC00FFC7FFFF0024F4000000002008000020B9
:1037EC00FFFEFFFF0070004088130000012D1ED06B
:1037FC00E369002B00D199E0544A916838220A40C1
:10380C00102A60D0022B18D0504A136850490B4034
:10381C001360FDF76BFD04004C4B1B689B014BD5F3
:10382C00FDF764FD001B0228F6D9032074E0474A1B
:10383C00D36B48490B40D363DAE7444A13684449D5
:10384C000B401360FDF752FD0500404B1B689B01BC
:10385C0006D5FDF74BFD401B0228F6D903205BE093
:10386C003A4AD3683C491940236A606A0343A06A08
:10387C0000020343E06A0343206B0343606B034382
:10388C000B43D360116880235B040B431360D16836
:10389C0080235B050B43D360FDF728FD04002B4B05
:1038AC001B689B0106D4FDF721FD001B0228F6D9ED
:1038BC00032031E000202FE0244AD36827490B4035
:1038CC00D360002028E0012B32D0204BDA68032390
:1038DC001340216A8B422DD170231340616A8B42B5
:1038EC002AD1FE21C9011140A36A1B02994225D19C
:1038FC00F8239B031340E16A8B4221D1E0231B0583
:10390C001340216B8B421DD1520F5207636B9A42AD
:10391C001AD1002000E0012002B070BD0120FBE7AD
:10392C000120F9E70120F7E70120F5E70020F3E794
:10393C000120F1E70120EFE70120EDE70120EBE7A3
:10394C000120E9E70120E7E70120E5E7001002404C
:10395C00FFFFFFFEFFFFFFEF8C80C111FCFFFEEEAF
:10396C0010B52A4B9B6838221A4207D1274B1A688C
:10397C00D20A072313402648D84010BD234B9A681F
:10398C0038231340082B3BD0204B9A683823134024
:10399C00102B0DD01D4B9A6838231340202B31D09F
:1039AC001A4B9A6838231340182B26D00020E4E7D2
:1039BC00164AD1680D3B0B40D26812090721114001
:1039CC000131032B0FD01248FCF7A8FB0F4BDA6820
:1039DC00120A7F23134058430C4BD968490F01310D
:1039EC00FCF79CFBC9E70B48FCF798FB074BDA6824
:1039FC00120A7F2313405843EEE7FA20C001BCE7BC
:103A0C000448BAE780200002B7E7C0460010024025
:103A1C000024F40000127A0070B504000D00002898
:103A2C0000D1AAE0574B1A68072313408B4221D3CD
:103A3C0023689A070ED55B0705D5534A9168E02396
:103A4C00DB010B439360504A936850490B40A168CB
:103A5C000B4393602368DB0754D56368012B20D09C
:103A6C00022B3BD0002B3FD1474A126852051CD485
:103A7C0001206AE0434A136807218B432B431360F0
:103A8C00FDF734FC06003F4B1A6807231340AB428A
:103A9C00CED0FDF72BFC801B3D4A9042F3D903207E
:103AAC0053E0394A1268920369D537498A6807206E
:103ABC00824313438B60FDF719FC0600324B9B6865
:103ACC0038221A406368DB009A421BD0FDF70EFCCB
:103ADC00801B2F4B9842F1D9032036E02A4A1268FA
:103AEC009201E2D4012030E0032B05D0264AD26D9E
:103AFC009207DAD4012028E0234A126E9207D4D41C
:103B0C00012022E01F4B1A6807231340AB421DD83B
:103B1C0023685B0706D51C4A93681E490B40E16875
:103B2C000B439360FFF71CFF174B9A68120A0F2385
:103B3C0013409B00184A9A581F231340D840174B28
:103B4C001860174B1868FDF73DF970BD0D4A1368E6
:103B5C0007218B432B431360FDF7C8FB0600094B71
:103B6C001A6807231340AB42D2D0FDF7BFFB801B72
:103B7C00074B9842F3D90320E7E70120E5E7012042
:103B8C00E3E7C0460020024000100240FFF0FFFFB8
:103B9C0088130000FF8FFFFF20C8000800000020E2
:103BAC0008000020014B18687047C0460000002038
:103BBC0010B5FFF7F7FF064B9A68120B072313405B
:103BCC009B00044A9A581F231340D84010BDC0468E
:103BDC000010024060C8000830B507230360094A92
:103BEC0094681C4044609468F0252D012C4084603E
:103BFC009268E024E4012240C260034A1268134038
:103C0C000B6030BD0010024000200240F0B583B0C4
:103C1C00040003689B0362D56D4BDB6BDB001ED489
:103C2C006B4AD16B802040050143D163D36B0340B9
:103C3C000193019B0126674A116880235B000B43AB
:103C4C001360FDF753FB0500624B1B68DB0508D4C2
:103C5C00FDF74CFB401B0228F6D9032502E0002699
:103C6C00E9E70025002D23D1594BD96DC0229200D4
:103C7C000B001340114210D0626A9A420DD0544A84
:103C8C00D36D55490B40D06D802149020143D1655C
:103C9C00D16D52480140D165D365DB0710D4002D9E
:103CAC0006D14B4AD36D4C490B40616A0B43D3652B
:103CBC00012E15D1464AD36B49490B40D3630FE013
:103CCC00FDF714FB0700424BDB6D9B07E7D4FDF7B8
:103CDC000DFBC01B434B9842F5D90325DFE70025AC
:103CEC002368DB0706D53A4A536D03218B43616881
:103CFC000B4353652368DB0606D5354A536D3A49A9
:103D0C000B40A1680B43536523689B0506D5304ACD
:103D1C00536D36490B4061690B43536523685B0552
:103D2C0006D52B4A536D32490B40A1690B435365A1
:103D3C0023689B0606D5264A536D2E490B40E16835
:103D4C000B43536523685B040BD5214A536D9B00D1
:103D5C009B08E1690B4353658023DB05E2699A42BA
:103D6C0020D023689B020BD5194A536D22490B4076
:103D7C00216A0B4353658023DB03226A9A4218D0D5
:103D8C0023681B050BD5124A536D1C490B40216946
:103D9C000B43536522698023DB019A4210D0280023
:103DAC0003B0F0BD0A4AD16880235B020B43D36099
:103DBC00D7E7074AD16880235B040B43D360DFE766
:103DCC00034AD16880235B020B43D360E7E7C0460C
:103DDC000010024000700040FFFCFFFFFFFFFEFFE1
:103DEC00FFFFFFEF88130000FFF3FFFFFFFFF3FF60
:103DFC00FFFFCFFFFFCFFFFFFFFFBFFFFF3FFFFF27
:103E0C00F0B5D6464F464646C0B582B006000D000A
:103E1C0090461F00FDF76AFA0A9B181A8146B944AE
:103E2C00FDF764FA82462E4B1B685B011B0D4A465C
:103E3C005343019333689C682C40641B63425C4180
:103E4C00444545D07B1CF5D0FDF750FA5346C01ABB
:103E5C0048450BD24B46002B08D0019A002A00D0C3
:103E6C004A46019B013B01939146E3E73268536854
:103E7C00E0218B43536082235B0072689A420CD022
:103E8C0080239B01B26A9A4216D05D230122F25420
:103E9C00013B0022F25403201BE0B3688022120283
:103EAC00934203D08022D2009342E9D13268136846
:103EBC0040218B431360E3E73268136809490B40D8
:103ECC0013603268116880239B010B431360DCE79D
:103EDC00002002B0E0BCBA46B146A846F0BDC046D0
:103EEC0000000020FFDFFFFFF0B5DE4657464E46D0
:103EFC004546E0B583B007000D00160098466B46AA
:103F0C000022DA70FDF7F2F90C9B181A4044814636
:103F1C00FDF7ECF982463B689B46364B1A689300DA
:103F2C009A18D3009B1A1B0D4A465343019302E087
:103F3C004346013311D13B689C682C40B44250D0AD
:103F4C00C023DB009D42F3D1002EF1D15B461B7BDD
:103F5C00DBB26A46D370D378EAE7FDF7C7F953466C
:103F6C00C01A48450BD24B46002B08D0019A002AA8
:103F7C0000D04A46019B013B01939146DBE73A682E
:103F8C005368E0218B43536082235B007A689A422A
:103F9C000CD080239B01BA6A9A4216D05D23012271
:103FAC00FA54013B0022FA5403201BE0BB68802228
:103FBC001202934203D08022D2009342E9D13A6894
:103FCC00136840218B431360E3E73A6813680A498E
:103FDC000B4013603A68116880239B010B431360FC
:103FEC00DCE7002003B0F0BCBB46B246A946A046B5
:103FFC00F0BDC04600000020FFDFFFFF70B582B0AF
:10400C0004000D001600C02100922B000022490173
:10401C00FFF76AFF002818D100962B0000228021A0
:10402C002000FFF7EDFE002816D1C02100962B00D2
:10403C000022C9002000FFF757FF00280AD0236E8A
:10404C00202213432366032004E0236E2022134313
:10405C002366032002B070BD236E20221343236617
:10406C000320F7E770B5041E00D178E0436A002BFB
:10407C0007D10533FF3342689A4205D00023C36150
:10408C0002E00023036143610023A3625D33E35C20
:10409C00002B5AD05D230222E2542268136840217F
:1040AC008B431360E368E022D200934254D9002280
:1040BC00F02109018B4205D0E021C9008B4201D0CF
:1040CC000023A36282235B0061680B4084210902F8
:1040DC00A06801400B430221206901400B430121E0
:1040EC0060690840034380208000A5692840034391
:1040FC003820E569284003438020256A2840034383
:10410C0080208001A56A2840034320680360608BEF
:10411C00042303401020656A284003430820656B84
:10412C0028400343F0200001E56828400343206841
:10413C00134343602268D3690A480340D3610023C8
:10414C0023665D33E154002070BD5C330022E254E1
:10415C002000FCF7BFFD9DE780225201A8E701205B
:10416C00F2E7C046FFF7FFFF70B5041E10D05D25C7
:10417C00022343550268136840218B431360FCF7FC
:10418C00EBFD0023236663555C22A354002070BD15
:10419C000120FCE7F0B5CE4600B584B004000191D7
:1041AC0091461D005C23C35C012B00D1C9E05C234C
:1041BC000122C254FDF79AF806005D23E35CDFB2DE
:1041CC00012B00D0A9E00199002900D1A6E04B46B3
:1041DC00002B00D1A2E05D230322E25400232366CE
:1041EC00A1634A46A287E28723644422A352023287
:1041FC00A3522365E36480231B02A2689A421ED05B
:10420C0023681A68520603D41A6840210A431A60BC
:10421C00E023DB00E2689A4239D96368002B02D0B4
:10422C004B46012B20D12368A26B1288DA60A36B5A
:10423C000233A363E38F013B9BB2E38714E0226854
:10424C00136840218B431360226811688023DB01C3
:10425C000B431360D4E7FDF749F8801BA84201D348
:10426C006B1C66D1002D66D0E18F89B200293CD041
:10427C0023689A689207EED5A26B1288DA60A36B5A
:10428C000233A363E38F013B9BB2E387ECE76368E4
:10429C00002B02D04B46012B14D1A36B1B78226848
:1042AC001373A36B0133A363E38F013B9BB2E387CF
:1042BC0008E0FDF71BF8801BA84201D36B1C3CD116
:1042CC00002D3CD0E18F89B200290ED023689A686A
:1042DC009207EED5A26B12781A73A36B0133A3630A
:1042EC00E38F013B9BB2E387ECE73200290020000F
:1042FC00FFF784FE002801D020232366A368002B3F
:10430C0006D103932368DA6803929B680393039B9B
:10431C00236E002B02D1002700E002275D2301222F
:10432C00E254013B0022E254380004B080BCB94690
:10433C00F0BD0327F2E70327F0E70327EEE7032797
:10434C00ECE70227F0E7000030B5036A0122934343
:10435C000362036A42688469154D2C400D682C4336
:10436C000225AB438D682B43124DA84205D0124D4C
:10437C00A84202D0114DA84205D10825AB43CD6807
:10438C002B430425AB430B4DA84205D00A4DA84244
:10439C0002D00A4DA84205D1094D2A404D692A4345
:1043AC008D692A43426084614A684263036230BD6E
:1043BC008CFFFEFF002C01400044014000480140EE
:1043CC00FFFCFFFF70B5036A184A13400362036ACF
:1043DC004468C269164D2A400E681643154A1340AC
:1043EC008A6812021343144A904216D0124A904221
:1043FC0005D0124A904202D0114A904207D1114A7C
:10440C0022404C69240114438A6915012C434460F1
:10441C00C6614A68C263036270BD0B4A1A40CB681E
:10442C001B021343094A1340E0E7C046FFFEFFFF9F
:10443C008CFFFEFFFFFDFFFF002C014000440140FC
:10444C0000480140FFCFFFFFFFF7FFFFFFFBFFFF1F
:10445C0030B5036A114A13400362036A4568C269A6
:10446C000F4C22400C68240222430E4C1C408B68DB
:10447C001B0323430C4CA04205D00C4CA04202D091
:10448C000B4CA04204D10B4C25404C69A401254394
:10449C004560C2614A680264036230BDFFEFFFFFF2
:1044AC00FF8CFFFEFFDFFFFF002C014000440140AA
:1044BC0000480140FFBFFFFF30B5036A114A1340AB
:1044CC000362036A4268446D0F4D2C400D682C4307
:1044DC000E4D1D408B681B042B430D4DA84205D07F
:1044EC000C4DA84202D00C4DA84204D1054D2A40D7
:1044FC004D692D022A43426044654A688265036215
:10450C0030BDC046FFFFFEFF8FFFFEFFFFFFFDFF2C
:10451C00002C0140004401400048014030B5036AC2
:10452C00114A13400362036A4568426D0F4C2240E6
:10453C000C68240222430E4C1C408B681B05234341
:10454C000C4CA04205D00C4CA04202D00B4CA0420B
:10455C0004D10B4C25404C69A402254345604265AF
:10456C004A68C265036230BDFFFFEFFFFF8FFFFE9D
:10457C00FFFFDFFF002C01400044014000480140D8
:10458C00FFFFFBFF30B5036A046A0125AC430462EC
:10459C008469EF35AC43120122430A24A3430B4335
:1045AC008261036230BD000030B5036A1024A3435E
:1045BC0003628469036A054D2C4012032243A02434
:1045CC00A343090119438261016230BDFF0FFFFF54
:1045DC008368034A13400B4307210B4383607047E6
:1045EC008FFFCFFF3D23C35C012B26D13C3302222E
:1045FC00C2540268D36801210B43D3600368124A8A
:10460C0093420CD08022D205934208D00F4A934299
:10461C0005D01A6801210A431A6000200EE09A683E
:10462C000B490A40062A0AD007398A4209D01A686F
:10463C0001210A431A60002000E00120704700208D
:10464C00FCE70020FAE7C046002C014000040040C3
:10465C000700010070477047704710B5846A636AA1
:10466C0083420ED0A36A834214D0E36A83421AD0E9
:10467C00236B834220D0200002F080FE002323779E
:10468C0010BD01232377C369002BF4D13E330122E3
:10469C00E254F0E702232377C369002BEBD13F33BD
:1046AC000122E254E7E704232377C369002BE2D10C
:1046BC0040330122E254DEE708232377C369002B41
:1046CC00D9D141330122E254D5E710B5846A636A2B
:1046DC0083420BD0A36A834210D0E36A834210D08A
:1046EC00236B834204D10823237701E00123237732
:1046FC00200002F0F3FD0023237710BD0223237763
:10470C00F6E704232377F3E77047000010B50400A5
:10471C0003681A6992070FD5DA6892070CD5032241
:10472C0052421A610123037703689B699B076AD085
:10473C00FFF792FF0023237723681A69520712D5DB
:10474C00DA6852070FD5052252421A6102232377E9
:10475C0023689A69C0239B001A425AD02000FFF7A5
:10476C007BFF0023237723681A69120710D5DA68B8
:10477C0012070DD5092252421A61042323772368AC
:10478C00DB699B074CD02000FFF766FF00232377E3
:10479C0023681A69D20612D5DA68D2060FD511220F
:1047AC0052421A61082323772368DA69C0239B00DD
:1047BC001A423CD02000FFF74FFF002323772368D9
:1047CC001A69D20702D5DA68D20737D423681A6976
:1047DC00120602D5DA68120637D423681A69D20594
:1047EC0002D5DA68120637D423681A69520602D544
:1047FC00DA68520636D423681A69920602D5DA684A
:10480C00920636D410BDFFF726FF200002F0B6FD4D
:10481C0090E72000FFF71FFF200002F0AFFDA0E79C
:10482C002000FFF718FF200002F0A8FDAEE72000E3
:10483C00FFF711FF200002F0A1FDBEE70222524259
:10484C001A612000FCF7B0F9C0E7812252421A61CC
:10485C00200000F008FDC0E7094A1A61200000F0B2
:10486C0003FDC1E7412252421A612000FFF74CFFC1
:10487C00C1E7212252421A61200000F0F3FCC1E78B
:10488C00FFFEFFFF704710B5846A636A83420CD049
:10489C00A36A834213D0E36A834216D0236B83420C
:1048AC0019D03D230122E25403E0012323773E2259
:1048BC00A3542000FFF7E6FF0023237710BD02234B
:1048CC0023773D330122E254F3E7042323773C336F
:1048DC000122E254EDE70823237739330122E25415
:1048EC00E7E7000003681E4A904206D08022D205FA
:1048FC00904202D01B4A904203D1702293434A68E3
:10490C001343174A90420FD08022D20590420BD00D
:10491C00144A904208D0144A904205D0134A90424F
:10492C0002D0134A904203D1124A1340CA6813436F
:10493C00802293434A69134303608B68C3620B68FC
:10494C008362074B984205D0084B984202D0084B23
:10495C00984201D10B690363012343617047C04640
:10496C00002C0140000400400020004000440140A5
:10497C0000480140FFFCFFFF70B5041E2AD03D2308
:10498C00C35C002B20D03D2502236355210001C9B7
:10499C00FFF7A8FF01234822A3540A3AA35401327B
:1049AC00A3540132A3540132A3540132A354013253
:1049BC00A3540132A3540132A3540132A354013243
:1049CC00A3546355002070BD3C330022C254FCF745
:1049DC00B1FAD8E70120F6E770B5041E2AD03D23C2
:1049EC00C35C002B20D03D2502236355210001C957
:1049FC00FFF778FF01234822A3540A3AA35401324B
:104A0C00A3540132A3540132A3540132A3540132F2
:104A1C00A3540132A3540132A3540132A3540132E2
:104A2C00A3546355002070BD3C330022C254FFF7E1
:104A3C0011FED8E70120F6E730B5036A1022934344
:104A4C000362036A45688469164A14400A681202B4
:104A5C001443202293438A6812011343124A904252
:104A6C0016D0114A904205D0104A904202D0104AFA
:104A7C00904207D10F4A2A404D69AD0015438A690F
:104A8C0092001543456084614A688263036230BDBD
:104A9C00802293431A00CB681B011343402293439B
:104AAC00DFE7C046FF8CFFFE002C014000440140B4
:104ABC0000480140FFF3FFFF70B504000D003C23DC
:104ACC00C35C012B00D192E03C230121C154142A78
:104ADC0000D987E09200474B9B589F4629000068FD
:104AEC00FFF732FC2268936908210B43936122681B
:104AFC00936904398B4393612268936929690B4349
:104B0C00936100206FE029000068FFF795FF226891
:104B1C00916980231B010B43936122689369364989
:104B2C000B40936121688B692A69120213438B61D4
:104B3C00002058E029000068FFF744FC2268D36984
:104B4C0008210B43D3612268D36904398B43D361A9
:104B5C002268D36929690B43D361002043E0290003
:104B6C000068FFF775FC2268D16980231B010B4399
:104B7C00D3612268D36920490B40D3612168CB698A
:104B8C002A6912021343CB6100202CE02900006833
:104B9C00FFF792FC2268536D08210B435365226882
:104BAC00536D04398B4353652268536D29690B434C
:104BBC005365002017E029000068FFF7AFFC22685E
:104BCC00516D80231B010B4353652268536D0A49B9
:104BDC000B40536521684B6D2A69120213434B65D8
:104BEC00002000E001203C230022E25470BD022092
:104BFC00FCE7C04680C80008FFFBFFFF30B58468A7
:104C0C00034D2C401B0213430B432343836030BDE5
:104C1C00FF00FFFF10B504003C23C35C012B00D147
:104C2C0078E03C230122C25401330132C2540268A1
:104C3C0093683948034093600B68602B50D02AD896
:104C4C00402B58D00CD9502B23D1CA684968206806
:104C5C00FFF798FC50212068FFF7BAFC002005E014
:104C6C00202B0ED009D9302B0BD001203D23012253
:104C7C00E254013B0022E25410BD002B01D0102B5A
:104C8C0005D119002068FFF7A3FC0020EEE70120F6
:104C9C00ECE70120EAE780225201934236D08022D1
:104CAC00920193420DD1CB684A6889682068FFF75E
:104CBC00A5FF226891688023DB010B4393600020E1
:104CCC00D4E7702B24D1CB684A6889682068FFF739
:104CDC0095FF2268936877210B4393600020C5E70A
:104CEC00CA6849682068FFF75FFC60212068FFF7FD
:104CFC006FFC0020BAE7CA6849682068FFF742FCDD
:104D0C0040212068FFF764FC0020AFE70020ADE7EE
:104D1C000120ABE70220AFE78800CEFF10B51F23C0
:104D2C00194001248C40036AA3430362036A8A403E
:104D3C001343036210BD000070B506000C00110097
:104D4C00002C41D13E22855C023D6A425541EDB2B8
:104D5C00002D00D028E1002C61D13E22B25C013A3A
:104D6C0050424241D2B2002A00D11FE1002900D1A9
:104D7C001EE1002B00D11DE1002C7BD13E22022034
:104D8C00B054082C00D1EAE000D991E0002C00D1FD
:104D9C00AAE0042C00D089E0B26A8D48D062B26AD5
:104DAC008C481063B26A8C48506332683832B06AEF
:104DBC00FDF7E8F9002800D000E13268D1688023C3
:104DCC00DB000B43D360A5E0042C0CD0082C11D0D5
:104DDC000C2C16D0102C1BD04322855C023D6A4251
:104DEC005541EDB2B4E73F22855C023D6A42554124
:104DFC00EDB2ADE74022855C023D6A425541EDB211
:104E0C00A6E74122855C023D6A425541EDB29FE71F
:104E1C004222855C023D6A425541EDB298E7042C72
:104E2C000CD0082C11D00C2C16D0102C1BD04322DB
:104E3C00B25C013A50424241D2B294E73F22B25C9A
:104E4C00013A50424241D2B28DE74022B25C013A63
:104E5C0050424241D2B286E74122B25C013A504202
:104E6C004241D2B27FE74222B25C013A5042424107
:104E7C00D2B278E7042C09D0082C0BD00C2C0DD016
:104E8C00102C0FD043220220B0547AE73F2202208C
:104E9C00B05476E740220220B05472E7412202203F
:104EAC00B0546EE742220220B0546AE701207EE043
:104EBC000C2C17D1326B4648D062326B45481063CC
:104ECC00326B4548506332684032306BFDF75AF90B
:104EDC00002800D076E03268D16880235B010B4358
:104EEC00D36017E0012062E0726A3948D062726ABE
:104EFC0038481063726A3848506332683432706ACA
:104F0C00FDF740F9002857D13268D16880239B0007
:104F1C000B43D360012221003068FFF7FFFE33689A
:104F2C002E4A934205D02E4A934202D02D4A9342E8
:104F3C0004D1596C802212020A435A643368274AFE
:104F4C00934223D08022D20593421FD0264A93420B
:104F5C001CD01A6801210A431A60002027E0F26A6B
:104F6C001B48D062F26A1B481063F26A1A485063FD
:104F7C0032683C32F06AFDF705F9002820D132681E
:104F8C00D16880231B010B43D360C3E79A68174990
:104F9C000A40062A18D007398A4217D01A6801210C
:104FAC000A431A60002002E0022000E0012070BDDC
:104FBC000120FCE70120FAE70120F8E70120F6E7E1
:104FCC000120F4E70120F2E70020F0E70020EEE7F3
:104FDC0067460008D746000893480008002C01409B
:104FEC00004401400048014000040040070001005B
:104FFC0070B505000C00082947D00ED8002919D02F
:10500C00042908D10268D3683B490B40D360806AFD
:10501C00FDF746F916E0012036E00C2908D10268AC
:10502C00D36836490B40D360006BFDF739F909E0C2
:10503C00012029E00268D36831490B40D360406AF3
:10504C00FDF72EF9002221002868FFF767FE2B6878
:10505C002C4A934222D02C4A93421FD02B4A934283
:10506C001CD02B68196A2A4A114207D1196A294A9D
:10507C00114203D11A6801218A431A60002C1AD1FB
:10508C003E230122EA54002070BD0268D3682249F5
:10509C000B40D360C06AFDF703F9D3E7196A1C4AC9
:1050AC001142DED1196A1B4A1142DAD15A6C1B49E2
:1050BC000A405A64D5E7042C0AD0082C0DD00C2CCD
:1050CC0010D0102C13D043230122EA540020DBE72C
:1050DC003F230122EA540020D6E740230122EA5460
:1050EC000020D1E741230122EA540020CCE74223DF
:1050FC000122EA540020C7E7FFFBFFFFFFEFFFFF91
:10510C00FFFDFFFF002C014000440140004801401E
:10511C001111000044040000FFF7FFFFFF7FFFFFA9
:10512C0030B53C23C35C012B2DD03C230122C2544F
:10513C0001330132C254026853689468134DAA4279
:10514C001CD07025AB430D682B43536003680F4A8A
:10515C00934206D08022D205934202D00C4A93424D
:10516C0004D1802294438A6814439C603D2301221D
:10517C00C254013B0022C254002030BD054D2B40CF
:10518C004D682B43DDE70220F7E7C046002C0140B9
:10519C0000040040FFFF0FFF10B53C23C35C012B44
:1051AC0044D03C230122C254214BCA6813408A6864
:1051BC001343204A13404A6813431F4A13400A689A
:1051CC0013431E4A13400A6913431D4A13404A698C
:1051DC0013431C4A13400A6B13431B4A13408A693E
:1051EC00120413430268194CA24208D0174CA24275
:1051FC000AD053643C230022C254002010BD144C2E
:10520C002340CC692343F1E7124C23408C6A2405DC
:10521C002343114C23400C6A2343104C23404C6A0B
:10522C0023430F4C2340C96A0B43E2E70220E5E716
:10523C00FFFCFFFFFFFBFFFFFFF7FFFFFFEFFFFF91
:10524C00FFDFFFFFFFBFFFFFFFFFF0FF002C014060
:10525C00FFFFFFEFFFFF0FFFFFFFFFFEFFFFFFFD55
:10526C00FFFFFFDF704770477047000030B5EFF36A
:10527C001084012282F3108801680B68124D2B40B8
:10528C000B6084F31088EFF3108182F310880268AE
:10529C0093680E4C2340936081F31088C36E012BEE
:1052AC0006D088232022C2500023C366036730BD7A
:1052BC00EFF3108183F31088026813681024A34362
:1052CC00136081F31088ECE7DFFEFFFFFEFFFFEFBA
:1052DC0070B5041E1AD084262423835102681368E7
:1052EC0001218B431360036800251D6003685D601A
:1052FC0003689D60FBF78EFF8C23E550A551043BA2
:10530C00E550E566083BE554002070BD0120FCE744
:10531C0010B5EFF31081012383F310880268136832
:10532C004024A343136081F3108884232022C250AD
:10533C000023436704F08AFB10BD704710B5806AE8
:10534C0000235E228352083A8352FFF7F6FF10BD0A
:10535C0070470000F8B504000268D36910689568BE
:10536C00B9491E000E400B4205D1990603D58106A2
:10537C002CD4E9002AD4002E07D0B4492E000E40BC
:10538C000D4229D1B249084226D1E16E012900D142
:10539C00A7E0D90202D5690200D53AE11A0605D573
:1053AC00020600D53CE12A0200D539E15A0602D5A5
:1053BC00420600D53BE11A0202D5420000D53AE183
:1053CC00DB0102D5002800DA39E1F8BD236F002B90
:1053DC00FBD020009847F8E7D90707D5C10505D5BC
:1053EC00012717628C2162583A4362509A0709D5FB
:1053FC00EA0707D52268022111628A316258042714
:10540C003A4362505A0709D5EA0707D522680421A6
:10541C0011628831625802273A4362501A070AD542
:10542C00820601D4002E06D02268082616628C2132
:10543C006258324362501A050AD5420108D52268D7
:10544C008021090111628C2162582026324362505E
:10545C008C22A258002AB8D09B0608D5830601D40A
:10546C00EB0004D5236F002B01D0200098478C2330
:10547C00E25823689B685B0602D42823134229D088
:10548C002000FFF7F3FE23689B685B061ED5EFF345
:10549C001081012383F31088226893684020834392
:1054AC00936081F31088E36F002B0BD0694A9A63E9
:1054BC00E06FFCF7F5FE002800D186E7E06F836B08
:1054CC00984782E72000FFF738FF7EE72000FFF7C0
:1054DC0034FF7AE72000FFF730FF8C230022E250E4
:1054EC0073E7D90600D454E7C10600D451E7102362
:1054FC00136223689B685B0651D5E26F13685B6887
:10550C009BB2002B00D160E75C21615A994200D814
:10551C005BE75E21635213681B689B0609D55C230D
:10552C00E15A0233E35AC91A89B22000FFF710FF7F
:10553C004BE7EFF31080012383F3108821680A688E
:10554C00454D2A400A6080F31088EFF3108083F3F6
:10555C00108821688A689A438A6080F31088EFF378
:10556C00108083F3108821688A684235FF35AA437E
:10557C008A6080F3108888222021A1500022E266E4
:10558C00EFF3108183F31088226813681020834393
:10559C00136081F31088E06FFCF742FEBFE75C23D9
:1055AC00E15A0233E25A891A89B2E35A9BB2002BB0
:1055BC0000D10AE7002900D107E7EFF3108501239A
:1055CC0083F3108820680268244E3240026085F311
:1055DC001088EFF3108583F3108820688268204EC2
:1055EC003240826085F3108888222020A05000224F
:1055FC00E2662267EFF3108083F310882268136849
:10560C001025AB43136080F310882000FFF7A0FE39
:10561C00DBE680235B031362200000F055FBD4E62D
:10562C00636F002B00D1D0E620009847CDE6200018
:10563C00FFF76EFEC9E6200000F048FBC5E620002F
:10564C0000F043FBC1E6C0460F080000010000104B
:10565C002001000449530008FFFEFFFFDFFEFFFF9F
:10566C00FEFFFFEFF8B5040001688368026913437D
:10567C0042691343C26913430A689A4802401343B0
:10568C000B602268536898490B40E1680B435360E8
:10569C00A1692268954B9A4201D0236A19439368F9
:1056AC00934803400B4393602268D36A0F218B43CA
:1056BC00616A0B43D36222688E4B9A4233D08E4B75
:1056CC009A4261D0894B9A423ED0102387498A4234
:1056DC0064D0E06980221202904200D1A8E0042B31
:1056EC0000D1F1E000D9D9E0002B00D1E5E0022B8C
:1056FC0000D0D1E08148636A5B00814A995AFAF77D
:10570C000DFD63685B08C0186168FAF707FD0200BD
:10571C00103A7C4B9A4200D9E1E023680004000C5B
:10572C00D8600020C0E0784B596D03230B40022B4E
:10573C0022D005D8002B21D0012B21D10333C5E772
:10574C00032B1FD10533C1E76F4B5B6DC0210901E2
:10575C000B40802109018B4218D007D8002B17D0A1
:10576C008021C9008B4215D10423AFE7C021090168
:10577C008B4211D10823A9E70223A7E70023A5E751
:10578C001023A3E71023A1E700239FE702239DE743
:10579C0000239BE7102399E7102397E7042B43D0B2
:1057AC0034D8002B39D0022B2ED1544D636A5B00B8
:1057BC00534A9F5A39002800FAF7B0FC6668730008
:1057CC009B19834200D982E03303834200D280E0EC
:1057DC003A00002328000021FAF716FE050E0B02F2
:1057EC002B4302027008002180185941320000231B
:1057FC00FAF70AFE454BC218454B9A4200D96AE0AB
:10580C002368D86000204FE001204DE0082B02D126
:10581C0080252D02CAE7012046E0FEF7C9F90500F4
:10582C00002DC3D100203FE0FEF79AF80500F7E702
:10583C00042B2ED023D8002B25D0022B1DD12F4882
:10584C00636A5B002E4A995AFAF768FC4000636859
:10585C005B08C0186168FAF761FC0200103A294B2A
:10586C009A423AD882B20F239A434008083B184018
:10587C0010432368D860002016E0012014E0082BA8
:10588C00DED0012010E0FEF793F90028D8D10020DB
:10589C000AE0FEF765F8F8E7012005E0082B02D1D5
:1058AC008020000227E7012001236A22A352023A3A
:1058BC00A352002323676367F8BDFEF779F900282C
:1058CC0000D018E70020EFE7FEF74AF8F7E70120D1
:1058DC00EAE70120E8E70120E6E70120E4E7012000
:1058EC00E2E7C046F369FFCFFFCFFFFF0080004027
:1058FC00FFF4FF1100380140004400400024F40084
:10590C00D4C80008EFFF00000010024000FDFFFFAC
:10591C00FFFC0F00836ADB0706D5026853682C492D
:10592C000B40C16A0B435360836A9B0706D5026820
:10593C00536828490B40016B0B435360836A5B0728
:10594C0006D50268536824490B40416B0B435360E6
:10595C00836A1B0706D50268536820490B40816B8C
:10596C000B435360836ADB0606D5026893681C49B7
:10597C000B40C16B0B439360836A9B0606D5026890
:10598C00936818490B40016C0B439360836A5B0668
:10599C000BD50268536814490B40416C0B435360A0
:1059AC0080235B03426C9A420AD0836A1B0606D59D
:1059BC00026853680D490B40C16C0B435360704730
:1059CC00026853680A490B40816C0B435360ECE747
:1059DC00FFFFFDFFFFFFFEFFFFFFFBFFFF7FFFFF52
:1059EC00FFEFFFFFFFDFFFFFFFFFEFFFFFFFF7FF03
:1059FC00FFFF9FFFF8B5CE46474680B506000D0069
:105A0C0017009946089B98463368DC692C40641B48
:105A1C0063425C41BC4257D143460133F4D0FBF79F
:105A2C0065FC4B46C01A40452ED84346002B2BD064
:105A3C0033681A685207E7D5DA691205E4D5802273
:105A4C0012011A62EFF31080012282F31088316880
:105A5C000B68204C23400B6080F31088EFF3108010
:105A6C0082F3108831688B6893438B6080F31088C5
:105A7C0020238332B3500432B3500432B35060331A
:105A8C000022F254032020E0EFF31080012282F375
:105A9C00108831680B680F4C23400B6080F3108822
:105AAC00EFF3108082F3108831688B6893438B601E
:105ABC0080F3108820238332B3500432B350603308
:105ACC000022F254032000E00020C0BCB946B046CE
