:020000040800F2
:10000000002000201D120008250E0008270E000801
:1000100000000000000000000000000000000000E0
:10002000000000000000000000000000290E000891
:1000300000000000000000002B0E00082D0E00083C
:100040006D1200086D1200086D1200086D12000894
:100050006D1200082F0E00086D1200083F0E0008F8
:1000600000000000490E0008590E0008710E00083B
:10007000810E00086D1200086D1200086D12000854
:100080006D1200086D1200086D1200086D12000854
:10009000000000006D120008910E00086D120008AB
:1000A0006D1200086D1200086D1200086D12000834
:0C00B000A10E00086D1200080000000006
:1000BC0010B5064C2378002B07D1054B002B02D032
:1000CC00044800E000BF0123237010BDA8000020ED
:1000DC000000000080C30008044B10B5002B03D0B7
:1000EC000349044800E000BF10BDC04600000000FA
:1000FC00AC00002080C300080023C25C0133002A3E
:10010C00FBD1581E7047000002B4714649084900E3
:10011C00095649008E4402BC7047C04602B4714671
:10012C0049084900095C49008E4402BC7047C0462E
:10013C0003B47146490840004900095E49008E44E9
:10014C0003BC7047002243088B4274D303098B42D3
:10015C005FD3030A8B4244D3030B8B4228D3030C8B
:10016C008B420DD3FF22090212BA030C8B4202D32D
:10017C001212090265D0030B8B4219D300E0090A55
:10018C00C30B8B4201D3CB03C01A5241830B8B425E
:10019C0001D38B03C01A5241430B8B4201D34B0347
:1001AC00C01A5241030B8B4201D30B03C01A5241AC
:1001BC00C30A8B4201D3CB02C01A5241830A8B4231
:1001CC0001D38B02C01A5241430A8B4201D34B021A
:1001DC00C01A5241030A8B4201D30B02C01A52417E
:1001EC00CDD2C3098B4201D3CB01C01A5241830932
:1001FC008B4201D38B01C01A524143098B4201D36C
:10020C004B01C01A524103098B4201D30B01C01A96
:10021C005241C3088B4201D3CB00C01A5241830810
:10022C008B4201D38B00C01A524143088B4201D33D
:10023C004B00C01A5241411A00D20146524110469D
:10024C007047FFE701B5002000F0F0F802BDC04692
:10025C000029F7D076E7704703460B437FD4002282
:10026C0043088B4274D303098B425FD3030A8B423E
:10027C0044D3030B8B4228D3030C8B420DD3FF22A8
:10028C00090212BA030C8B4202D31212090265D076
:10029C00030B8B4219D300E0090AC30B8B4201D329
:1002AC00CB03C01A5241830B8B4201D38B03C01A70
:1002BC005241430B8B4201D34B03C01A5241030BE7
:1002CC008B4201D30B03C01A5241C30A8B4201D398
:1002DC00CB02C01A5241830A8B4201D38B02C01A43
:1002EC005241430A8B4201D34B02C01A5241030ABA
:1002FC008B4201D30B02C01A5241CDD2C3098B429F
:10030C0001D3CB01C01A524183098B4201D38B011B
:10031C00C01A524143098B4201D34B01C01A5241BE
:10032C0003098B4201D30B01C01A5241C3088B4203
:10033C0001D3CB00C01A524183088B4201D38B00EE
:10034C00C01A524143088B4201D34B00C01A524190
:10035C00411A00D201465241104670475DE0CA0F67
:10036C0000D04942031000D34042534000229C4627
:10037C0003098B422DD3030A8B4212D3FC22890131
:10038C0012BA030A8B420CD3890192118B4208D307
:10039C00890192118B4204D389013AD0921100E069
:1003AC008909C3098B4201D3CB01C01A524183097D
:1003BC008B4201D38B01C01A524143098B4201D3AA
:1003CC004B01C01A524103098B4201D30B01C01AD5
:1003DC005241C3088B4201D3CB00C01A524183084F
:1003EC008B4201D38B00C01A5241D9D243088B42A5
:1003FC0001D34B00C01A5241411A00D20146634648
:10040C0052415B10104601D34042002B00D54942AB
:10041C00704763465B1000D3404201B5002000F0EA
:10042C0005F802BD0029F8D016E770477047C046A2
:10043C00002B11D1002A0FD1002900D1002802D0A5
:10044C000021C943080007B4024802A140180290D9
:10045C0003BDC046D9FFFFFF03B4684601B502983F
:10046C0000F006F8019B9E4602B00CBC7047C046DB
:10047C00F0B557464E464546DE46E0B504000D0045
:10048C009246994683B08B4230D82DD0494650467F
:10049C0000F0D8F829000600200000F0D3F8331A39
:1004AC009846203B9B4633D45A465346934042468B
:1004BC001F00534693401E00AF423AD8AF4200D1C2
:1004CC0078E05B46A41BBD41002B00DA75E00022EE
:1004DC0000230092019301235A4693400193012378
:1004EC0042469340009328E08242CFD90022002359
:1004FC00009201930C9B002B01D01C605D60009856
:10050C00019903B0F0BCBB46B246A946A046F0BD6B
:10051C00424620239B1A5246DA40414613004A4673
:10052C008A40170042461F43534693401E00AF4279
:10053C00C4D900220023009201934346002BD9D04A
:10054C00FB0772081A4346467B080EE0AB4201D10A
:10055C00A2420CD8A41A9D41012024196D410021FE
:10056C00013E24184D41002E06D0AB42EED9013E7F
:10057C0024196D41002EF8D1009801995B460019A1
:10058C006941002B24DB2B005A464446D3402A00F9
:10059C00E2401C005B461500002B2ADB26009E4027
:1005AC00330026004746BE403200801A9941009025
:1005BC0001919FE7A342BCD883E742462023002148
:1005CC009B1A0022009101920122DA40019286E7E7
:1005DC00424620239B1A2A0046469A402300F340A9
:1005EC00444613432A00E2401C005B461500002BD6
:1005FC00D4DA42462F002023260097409B1ADE4077
:10060C003B003343CDE7C0461C2101231B04984219
:10061C0001D3000C10391B0A984201D3000A083987
:10062C001B09984201D30009043902A2105C40183E
:10063C007047C046040302020101010100000000E2
:10064C000000000010B5002903D1FFF7DDFF2030BA
:10065C0002E00800FFF7D8FF10BDC0461FB50C2202
:10066C00002101A80BF0AEF91D4C1E4B0822236093
:10067C008023DB05636000236261073AA118CB7706
:10068C0021002C310A7005216163A1632100A36054
:10069C00E360236123836362A3622363A3648023E7
:1006AC003C31A276E2610A701B3222649B056432F3
:1006BC0020006264E36400F011FE002801D000F019
:1006CC00CDFA094B20000193002301A90293039357
:1006DC0001F01AF8002801D000F0C0FA1FBDC04686
:1006EC00C4000020002401400001002030B50500AA
:1006FC0089B01422002103A80BF064F9224B2A685C
:10070C009A423ED18020214B4003196C014319645D
:10071C0002211A6C02400192019A5A6B1C480A433E
:10072C005A635B6B0B400293029B012303935B1890
:10073C0003A9049301F098FD164C174B200023607D
:10074C00052363600023A360E3608033236180335F
:10075C0063618023DB00A3612023E36180235B01C1
:10076C00236201F0C7FB002801D000F077FA0C20BF
:10077C00002202212C65A56201F03CFB0C2001F04B
:10078C0063FB09B030BDC04600240140001002409C
:10079C000004005028010020300002400A4B02687F
:1007AC0010B504009A420ED1084A0949136C094845
:1007BC000B401364012101F005FE206D01F0F8FBE4
:1007CC000C2001F04DFB10BD002401400010024034
:1007DC00FFFFEFFF0004005013B50124104B032161
:1007EC009A6B092022439A639B6B0022234001934E
:1007FC00019B01F0FFFA092001F026FB00220321E6
:10080C000A2001F0F7FA0A2001F01EFB0022210059
:10081C000B2001F0EFFA0B2001F016FB13BDC046C4
:10082C0000100240F0B58BB01422002105A80BF08B
:10083C00C9F8042120200127494B8024A0265A6B9B
:10084C0024020A435A635A6B464D0A400192019A9C
:10085C00596BF605014359635A6B21000240029211
:10086C00029A5A6B1E383A435A635A6B3A400392B7
:10087C00039A5A6B02435A635B6B00220340049346
:10088C003948049B01F016FE30000022374901F074
:10089C0011FE00222800102101F00CFE059400240A
:1008AC0005AB1900304806970794089401F0DCFC5E
:1008BC000421032305912E4805A90693079401F002
:1008CC00D3FC84223000920305A906920597079465
:1008DC0001F0CAFC1223300005A905930694079772
:1008EC0001F0C2FC21493000059105A90697079437
:1008FC00089401F0B9FC842222234026920328009C
:10090C0005A906920593079701F0AEFC05A91648B8
:10091C0005960694079701F0A7FC1023280005A95B
:10092C00059306970794089401F09EFC0323280076
:10093C0005A906930596079401F096FC2200022166
:10094C00052001F057FA052001F07EFA2200022161
:10095C00072001F04FFA072001F076FA0BB0F0BD3A
:10096C00001002400004005000080050608000009D
:10097C000014005010B5134B134C01222360134B81
:10098C00200063600023E260A36023616361A361C4
:10099C00E361236201F08AFF002801D000F05EF9C8
:1009AC000021200002F038FB002801D000F056F99D
:1009BC000021200002F056FB002801D000F04EF977
:1009CC0010BDC04600540040840100205B3D300047
:1009DC0010B5134B134C01222360134B20006360A2
:1009EC000023E260A36023616361A361E36123627E
:1009FC0001F05CFF002801D000F030F9002120004C
:100A0C0002F00AFB002801D000F028F90021200098
:100A1C0002F028FB002801D000F020F910BDC046E0
:100A2C0000580040D00100205B3D300010B50400A0
:100A3C008CB01422002107A80AF0C4FF2368324AA4
:100A4C0093423ED1314B324C1A780223002A1BD0F0
:100A5C00626B07A91A436263626B2E4813400193C1
:100A6C00019BC0230793AE3B08930C3B0B9301F007
:100A7C00FBFB8021E26B89030A43E263E36B0B40CF
:100A8C000293029B0CB010BD626B07A91A43626300
:100A9C00626B204813400393039BC0235B000793B6
:100AAC006F3BFF3B08930C3B0B9301F0DDFB80216C
:100ABC00E26B89030A43E263E36B0B400493049BF0
:100ACC00E0E7154A9342DDD10121114CA020626B65
:100ADC00C0050A436263636B0B400593059BC023FF
:100AEC005B010793122307A908930C3B0B9301F0AE
:100AFC00BBFB8021E26BC9030A43E263E36B0B404F
:100B0C000693069BBEE7C0460054004045050020F6
:100B1C000010024000040050005800400368134AC3
:100B2C0010B593420ED1124A1249D36B12480B40A6
:100B3C00D363802101F046FC80210F48490001F06D
:100B4C0041FC10BD0D4A9342FBD1094A0C49D36BB1
:100B5C00A0200B408021C0050901D36301F032FCB9
:100B6C008021A0204901C005E9E7C046005400409F
:100B7C0000100240FFFFDFFF00040050005800404F
:100B8C00FFFFBFFF00B59DB0382200210EA80AF070
:100B9C0019FF1022002168460AF014FF00212822B8
:100BAC0004A80AF00FFF8020800002F0A1FA0223B3
:100BBC000E93FE334022119300230EA8129313922E
:100BCC00159302F0C1FA011E01D072B6FEE707239D
:100BDC000190029003906846009302F01FFD0028DC
:100BEC0001D072B6FEE7074B07900B900C9004A84F
:100BFC00049302F0EFFD002801D072B6FEE71DB0A1
:100C0C0000BDC0462040200010B500F02BFBFFF7C4
:100C1C00B9FFFFF707FE00F04FFAFFF7DDFD00F01C
:100C2C001FF8FFF7D5FEFFF7A5FEFFF717FD00F045
:100C3C00C9F907F06BFF08F0ABFE08F0F1FEFCE71A
:100C4C0010B5FFF797FE10BD034B026810B59A4222
:100C5C0001D100F01BFB10BD0048014072B6FEE74D
:100C6C00E0221148114B10B503608223D200C26000
:100C7C0080225B004360002392008261F13AFF3ACC
:100C8C00836003614361C261036243628362093A18
:100C9C0003630833C262436302F06AFF002801D089
:100CAC00FFF7DCFF10BDC0461C02002000300140E5
:100CBC0010B5040088B01422002103A80AF082FEAB
:100CCC00194B22689A422CD18020184B4001196C88
:100CDC000224014319641A6C024001200092009A0C
:100CEC00596B014359635A6B03A902400192019A53
:100CFC005A6BA02022435A635B6BC00523400293BE
:100D0C00029B80230494039301F0AEFA082303930F
:100D1C000023074803A9049405930693079301F055
:100D2C00A3FA08B010BDC0460030014000100240CC
:100D3C0000040050094B026810B59A420DD1A02056
:100D4C00074A0849136CC0050B401364802101F05D
:100D5C0039FB0821044801F035FB10BD003001407F
:100D6C0000100240FFEFFFFF0004005001200A4B6F
:100D7C0082B0196C0143196480211A6C4905024038
:100D8C000092009ADA6B0A43DA63DB6B0B40019337
:100D9C00019B02B07047C0460010024010B5010024
:100DAC0086B00022162001F025F8162001F04CF830
:100DBC008020144AC002116C01431164136C694603
:100DCC000340019302A8019B02F0EAFC02F0D4FC60
:100DDC000D4C0E4B0E4923600E4BE360FFF7B2F93E
:100DEC0000230138606020002361A36003F0DEFA69
:100DFC0003000120002B02D1200003F023F906B0E0
:100E0C0010BDC04600100240800200200048014086
:100E1C0040420F00E7030000FEE7FEE77047704713
:100E2C00704710B5012001F04DFB022001F04AFB88
:100E3C0010BD10B5202001F045FB10BD10B50248C7
:100E4C0001F0BEF910BDC0467803002010B5034870
:100E5C0001F0B6F9024801F0B3F910BDD40300203B
:100E6C002801002010B5024801F0AAF910BDC046B7
:100E7C00D002002010B5024800F09AFB10BDC0460D
:100E8C00C400002010B5024803F064F910BDC04640
:100E9C008002002010B5024803F0FAFF10BDC046D6
:100EAC00300400200120704710B50AF031FD1623E4
:100EBC0003600120404210BD10B50AF029FD162335
:100ECC000360FEE70B4A0C490300891A0B4A10B564
:100EDC001068002801D10A4810601068C3188B42B2
:100EEC0006D90AF015FD0C2303600120404210BD09
:100EFC001360FCE70004000000200020CC0200205E
:100F0C00700B00207047000037B5164B02680500C7
:100F1C009A4226D18020144A0001116C134C0143D3
:100F2C001164136C802203400193019B104B2261CE
:100F3C00236014236360043BA3600023E360A3617C
:100F4C002033E36180238132FF329B0120006261F8
:100F5C00236200F0CFFF002801D0FFF77FFE6C6208
:100F6C00A56237BD002C014000100240D0020020C9
:100F7C004400024010B5040086B01422002101A8E0
:100F8C000AF020FD0D4B22689A4214D101200C4A24
:100F9C00516B01435163536B01A903400093009BB8
:100FAC008023A0205B000193C005FE3B02930393BA
:100FBC00059301F059F906B010BDC046002C014054
:100FCC000010024030B59DB01022002104A80AF098
:100FDC00F9FC0C22002101A80AF0F4FC1C220021CF
:100FEC0008A80AF0EFFC342200210FA80AF0EAFC52
:100FFC002F4D304B13222B60002328006B60AB600D
:10100C00EA602B616B61AB6103F0D0F9002801D071
:10101C00FFF724FE802328005B0104A9049303F04E
:10102C00E5FA002801D0FFF719FE280003F0E8F9D3
:10103C00002801D0FFF712FE0023280001A901931C
:10104C000293039303F0FEFC002801D0FFF706FE89
:10105C00002460232200280008A9089309940A940C
:10106C000B940C940D940E9403F030FAA04201D022
:10107C00FFF7F4FD80239B011493802328009B042D
:10108C000FA90F9410941194129413941594169410
:10109C001794189319941A941B9403F007FD0028C5
:1010AC0001D0FFF7DBFD2800FFF764FF1DB030BD5A
:1010BC002C030020002C01400C480D4B10B5036094
:1010CC00E1235B020C224360002342618360C36016
:1010DC0003618361C36103624362836204F046FD72
:1010EC00002801D0FFF7BAFD10BDC0463004002027
:1010FC000044004030B5050089B01422002103A83B
:10110C000AF060FC2C4B2A689A4252D180202B4B5F
:10111C008002D96B0143D963DA6B02400192019AC8
:10112C000122596BA020114359635B6BC00513401E
:10113C000293029B0C2303A903930A3B049307928B
:10114C0001F092F81E4C1F4B802223603423636005
:10115C0000232000A360E36022616361A361E3616B
:10116C00236200F0C7FE002801D0FFF777FD164B75
:10117C00EC67A562154C8022236035236360253B08
:10118C00A36000232000E36022616361A361E3613B
:10119C00236200F0AFFE002801D0FFF75FFD1C209A
:1011AC0000220221AC67A56200F024FE1C2000F096
:1011BC004BFE09B030BDC046004400400010024058
:1011CC0078030020080002401C000240D4030020D9
:1011DC000C4B026810B504009A4212D1A0200A4AA6
:1011EC000A49D36BC0050B40D3630C2101F0EAF81C
:1011FC00E06F00F0DDFEA06F00F0DAFE1C2000F0C6
:10120C002FFE10BD0044004000100240FFFFFDFF08
:10121C000D488546FFF776FE0C480D490D4A002314
:10122C0002E0D458C4500433C4188C42F9D30A4A8F
:10123C000A4C002301E013600432A242FBD30AF0F3
:10124C006DFBFFF7E1FCFEE7002000200000002012
:10125C00A8000020A4E20008A8000020700B0020C9
:10126C00FEE700008023084A5B00116810B50B43B1
:10127C0003201360FFF792FD041E03D1FFF776FDE8
:10128C00200010BD0124FBE700200240034A044B60
:10129C0011681B785B1813607047C046C0040020AF
:1012AC0004000020014B18687047C046C0040020A1
:1012BC0070B50400FFF7F6FF0500631C02D0044B69
:1012CC001B78E418FFF7EEFF401BA042FAD370BD69
:1012DC000400002080684007C00F70470023F0B561
:1012EC0085B0040001250393984200D1B7E0856DC9
:1012FC009D4205D1FFF7FAF923005433E5651D70C3
:10130C00802326685B05B2681A4200D1AAE0B36854
:10131C000025DB0007D410230125A26D1343A36520
:10132C00E36D2B43E3653000FFF7D4FF1022A36D70
:10133C001340034300D0D0E0A36D6A4A1A40022345
:10134C001343A36523689A68D20766D4227EA07ED5
:10135C009203667E276B94464203A168F6030192C2
:10136C00002F01D080277F01E268114362461143B0
:10137C003143420311432269002A00DB87E052000B
:10138C00560822002C32127852000A43611CC97F85
:10139C003A433243012905D1002800D07AE080215C
:1013AC0049020A43616A002905D0E020400001404F
:1013BC00A06A01430A43D9684B48E76C01400A43D1
:1013CC00DA60220061683C3212788E0FB6079446C0
:1013DC003743012A09D1606C226C0243A06C3A435A
:1013EC00024360463243104307001A693F480240EB
:1013FC0080203A431A614A005208C00582420CD040
:10140C0080221206914208D039483A4E0268324086
:10141C00F026B603314011430160072070265A694B
:10142C00616B82430A435A615869A26BB043120143
:10143C0002435A612269002A34D1986A103A024355
:10144C009A6207225B69134099423AD10023E36503
:10145C00A36D043A93431A0001231343A365280098
:10146C0005B0F0BDB26824490A401343B360234B66
:10147C0023491868FEF766FE013040000390039B79
:10148C00002B00D143E7039B013B0393F7E7802636
:10149C00B60376E72020A66D3043A065E06D0143CE
:1014AC00E1657FE7802080038242CAD11C209A6AC2
:1014BC00E269013A920002402C3890400200206E02
:1014CC00BDE71222A36D012593431A001023134389
:1014DC00A365E36D2B43E365C1E7A36D01251A43B7
:1014EC00A265BCE7FDFEFFFF0102FEFF02FCFF1F31
:1014FC0008270140FFFFC3FFE8FFFF6F000000203B
:10150C00400D03007047704710B5806AFFF7FBFF72
:10151C0010BD704770474023806A10B5826D13432D
:10152C0083650423C26D1343C365FFF7F3FF10BD3E
:10153C00502310B5846AA26D1A422CD1A26DB1331E
:10154C00FF331343A365C02320681B01C2681A42F2
:10155C0014D1A37E002B11D103681B070ED5FFF706
:10156C00B9FE00280ED10C21226853688B435360BE
:10157C00A36D0E4A1A4001231343A3652000FFF705
:10158C00C1FF10BD2023A26D1343A3650123E26D9F
:10159C001343E365F2E7A36DDB0603D52000FFF7E9
:1015AC00B9FFEEE7236D5B6B9847EAE7FEFEFFFFA2
:1015BC00F8B5036804001E685D6802231E420FD054
:1015CC001D420DD0836DDB0604D48023826D1B017C
:1015DC0013438365200000F00BFC022223681A6081
:1015EC0004231E4201D01D4204D108231E422AD0DE
:1015FC001D4228D0A36DDB0604D48023A26D9B0072
:10160C001343A365C02320681B01C2681A4214D17E
:10161C00A37E002B11D103681B070ED5FFF75AFED2
:10162C00002866D10C21226853688B435360A36D4C
:10163C00344A1A4001231343A3652000FFF762FFCD
:10164C000C2223681A6080273E420BD03D4209D001
:10165C008023A26D5B021343A3652000FFF759FFA3
:10166C0023681F6080277F003E420BD03D4209D08B
:10167C008023A26D9B021343A365200000F0B6FBF0
:10168C0023681F608027BF003E420BD03D4209D02B
:10169C008023A26DDB021343A365200000F0A7FB9F
:1016AC0023681F6010231E4217D01D4215D0236BD8
:1016BC00002B03D02368DB689B070BD08023A26D23
:1016CC00DB001343A3650223E26D20001343E365A3
:1016DC00FFF720FF102223681A608027BF013E42CB
:1016EC0006D03D4204D0200000F083FB23681F602D
:1016FC00F8BD2023A26D1343A3650123E26D1343B0
:10170C00E3659AE7FEFEFFFF0023F0B587B0059373
:10171C00030054331A7805000E000220012A00D170
:10172C00C3E001241C702868FFF7D4FD002800D00A
:10173C00F9E004222F697368974380220193120603
:10174C009446019A3368022A00D1C2E05903490B2E
:10175C002A68029167450FD1906A01439162B16882
:10176C0054691802734E0140314084432143516146
:10177C00002B64DB002095E01F21019F0F40BC462D
:10178C000F2761468F40F9430391296EB9430F002F
:10179C000299002914D1980E1F31084061468840E7
:1017AC00019907438908E86901312F668142D6D82F
:1017BC0064469900090FA140906A039C2040CCE735
:1017CC002342EBD1022120000B42E7D1080049183B
:1017DC000B42E3D101301907E0D40130D906DDD436
:1017EC0001309906DAD401305906D7D401301906E4
:1017FC00D4D40130D905D1D401309905CED40130DF
:10180C005905CBD401301905C8D40130D904C5D43D
:10181C0001309904C2D401305904BFD401301904E9
:10182C00BCD40130D903B9D401309903B6D480218A
:10183C001800C90208400B42B0D01220AEE7E024D9
:10184C003D4A3E48116864040C4083421AD18023FF
:10185C001B0419428ED111683948014021431943A8
:10186C00384B116018683849FEF76CFC431C0C208F
:10187C0058430590059B002B00D17BE7059B013B52
:10188C000593F7E73148834211D18026080076048E
:10189C003040314200D06DE71168294B194021438B
:1018AC000E431660002354352B7007B0F0BD28484A
:1018BC00834200D05EE780230800DB031840194206
:1018CC0000D057E711681E4E314021430B43136083
:1018DC00E8E7674505D128685903826A490B8A43B2
:1018EC008262002B00DB45E7134A144811688342DF
:1018FC0008D1A02310685B041940114B0340194315
:10190C00116037E71148834203D1C02310681B04D0
:10191C00F2E70F48834200D02CE7C020400401407E
:10192C0013680748EAE72023AA6D20001343AB6530
:10193C00B8E7C04600FFFF0708270140001000B0C1
:10194C00FFFF3FFE00000020400D0300004000B8E8
:10195C00002000B470B504000068FFF7BBFC002841
:10196C0001D1002070BD23689A68920705D49A684B
:10197C000F49114010220A439A60FFF793FC04268A
:10198C00050023689B683342EBD0FFF78BFC401BB0
:10199C000228F6D923689B683342F2D01023012029
:1019AC00A26D1343A365E36D0343E365DAE7C04619
:1019BC00E8FFFF7F0023F7B50400019303680120C3
:1019CC009A68024201D00020FEBD9968224A114259
:1019DC0007D01023A26D1343A365E36D0343E365A6
:1019EC00F2E79A681D4D2A40104398601C4B1B6807
:1019FC001B0223D4637E012BE5D0FFF753FC012699
:101A0C000700226813683342DDD19368334203D157
:101A1C0093682B4033439360FFF744FCC01B0228B0
:101A2C00EFD923681B683342EBD11023A26D012040
:101A3C001343A365E36D1E43E665C5E7094B0A49ED
:101A4C001868FEF77FFB01300190019B002BD1D071
:101A5C00019B013B0193F8E717000080E8FFFF7F33
:101A6C000827014000000020400D0300F8B50400D9
:101A7C0000680D001600FFF72DFC0223002840D152
:101A8C00270054373A78012A3BD001223A70236858
:101A9C00D96811420CD19968114205D09A681A493B
:101AAC00114002220A439A600122D9680A43DA6083
:101ABC002000FFF77FFF031E23D1A26D13491140B5
:101ACC00802252000A43A265E065114A206D21680C
:101ADC00C262104A0263104A42631C220A603B70C5
:101AEC004A68103313434B602A003300403100F036
:101AFC00A3FA0300206804498268114004220A43B7
:101B0C0082601800F8BDC046E8FFFF7FFEF0FFFFC3
:101B1C003D1500081515000823150008036870B55D
:101B2C000400012099689A68024201D1002070BD1E
:101B3C0002221142FAD105219D680D40012D1FD1C1
:101B4C009968134801400A439A6003221A60FFF710
:101B5C00A9FB060023689B682B42E7D0FFF7A2FB8A
:101B6C00801B0228F6D923689B682B42F2D01023E5
:101B7C00A26D01201343A365E36D1D43E565D6E714
:101B8C001023A26D1343A365E36D0343E365CEE716
:101B9C00E8FFFF7F70B504000125002840D0022328
:101BAC00826D13438365FFF7D5FE051E0BD1200014
:101BBC00FFF7B4FF051E01D10123A3652268194963
:101BCC0093680B409360236817495A6800260A40B3
:101BDC005A60164A16491A60DA6820000A40072132
:101BEC00DA601A695434920092081A615A698A436D
:101BFC005A611A6A0F490A401A625A6A0A405A62B2
:101C0C00DA6A0A40DA629A6A0B4A9E6213680B49D6
:101C1C000B401360FEF7C2FDA660E660666026709E
:101C2C00280070BDE8FFFF6F60FCFFFF9F03000002
:101C3C0000023E8300F000F008270140FFFF03FE86
:101C4C0070B506005436337805000224012B25D0DC
:101C5C0001233370FFF77EFE041E1DD1286D831DFA
:101C6C00DB7F022B07D100F031FA041E03D0402396
:101C7C00AA6D1343AB6510212A68280053688B4367
:101C8C005360002C0CD1FFF749FF041E0BD001212F
:101C9C002A68D3688B43D36000233370200070BD57
:101CAC00FFF73CFFF3E7AB6D024A1A4001231343E5
:101CBC00AB65ECE7FEFEFFFFF0B50023060085B038
:101CCC0003935436337804000225012B35D00127B9
:101CDC003770FFF723FF2368050099680A003A4024
:101CEC000092394200D071E0A16D3B4807370840A3
:101CFC0002210143A165D96838480191D968014096
:101D0C00D96080219868364A090610400843354945
:101D1C0098608C469868002812DA0398013003907A
:101D2C0003986045F6D91222A36D93431A00102331
:101D3C001343A365002333700125280005B0F0BDC3
:101D4C0018007F22B4300168013F11408C46009A84
:101D5C0062440092002FD4D101269F682049D208FA
:101D6C000F407F2137439F6007688F433A430260DF
:101D7C009A681B490A40022111439960FFF792FAB5
:101D8C0007002268936833420FD1174B0198D16832
:101D9C00184003000B43D3600322A36D93431E43EF
:101DAC00A665002354342370C7E7FFF77BFAC01BEA
:101DBC000228E6D923689B683342E2D01023A26D37
:101DCC001343A365E36D1E43E665B5E71023A26DCF
:101DDC001343A365E5E7C046FDFEFFFFFC7FFFFF55
:101DEC00E8FFFF7FFFF1020003800000704770479F
:101DFC007047704730B5FF2503242A000440E400E7
:101E0C00A24089012940D243A140C3B200280ADB79
:101E1C00C0240B4B80088000C018A40003591A4042
:101E2C001143015130BD0F200340083B05489B086E
:101E3C009B001B18D86902401143D961F2E7C046D8
:101E4C0000E100E000ED00E0002805DB1F23184056
:101E5C001E3B8340014A13607047C04600E100E01E
:101E6C00002809DB1F2318401E3B8340034AD3671D
:101E7C00BFF34F8FBFF36F8F7047C04604E100E094
:101E8C00F0B5846CC56C6560046D002C02D0446D9B
:101E9C00856D65601C25046C084E25400124AC4002
:101EAC0077683C437460046863608368102B02D1CC
:101EBC00A260E160F0BDA160E260FBE700000240BF
:101ECC0010B50400036C094A9B089B189B004364E3
:101EDC0003681421D8B20838FEF734F9044BA36414
:101EEC001F2318401E3B8340E36410BD008200108A
:101EFC008008024070B504000120002C49D02568F0
:101F0C00274B1421E818FEF71DF902238000A61DAB
:101F1C002064F3772B68234AE16813402B60A36895
:101F2C002A680B43216920000B4361690B43A169AB
:101F3C000B43E1690B43216A0B4313432B60FFF7FF
:101F4C00BFFF8023A268DB019A4201D100236360AA
:101F5C003F236268616C13400B60E06CA16C013A2A
:101F6C004860032A16D8104A104899180322013BDE
:101F7C001340023A9A40A2651300002289002165A1
:101F8C0060650A60436000200123E0630534F37749
:101F9C00E07770BD002323656365A365F3E7C04656
:101FAC00F8FFFDBF0F80FFFF3F8200104009024089
:101FBC00F8B5012504002800002C34D02768142122
:101FCC003B680026AB433B60174BF818FEF7BAF89A
:101FDC001C238000206418402B008340134A3E6071
:101FEC00516820000B435360FFF76AFF636CE26C8F
:101FFC001E60A36C5A6063685A1E032A06D895406B
:10200C000B495B189B001E600A4B5D600020A31DF2
:10201C0020656065A065E06220636063A063E06397
:10202C000534D877E077F8BDF8FFFDBF000002401B
:10203C003F82001040090240F7B5451D0193EE7F29
:10204C0004000220012E34D00138E877A71DFE7F52
:10205C00B4466346F6B200960026834231D1013075
:10206C00F8772568E6632868009B98432860019BF5
:10207C002000FFF705FF226B2368B2421AD00E2214
:10208C0019680A431A60626C1168C90304D580216F
:10209C001068490001431160226D002A04D0802190
:1020AC0010684900014311600122002019680A439D
:1020BC001A60FEBD04211A688A431A6019680A2244
:1020CC00DFE78023E363EE77F3E700000300F0B56E
:1020DC000120002B09D0981DC27F5C1D022A05D05F
:1020EC000422DA6300230120E377F0BD0E25196882
:1020FC005E6C0A68AA430A603268114D2A4032604D
:10210C0001220E68944696430E601C211A6C0D4EEB
:10211C00114062468A4077683A437260D96C9A6C77
:10212C0051601A6D002A05D01168294011605A6D52
:10213C009B6D53600123C3770020E077D5E7C04641
:10214C00FFFEFFFF00000240F8B5811DCB7F022B84
:10215C0004D00423C363033B1800F8BD0E240268AB
:10216C00154D1368076CA3431360012314689C433B
:10217C001460446C22682A4022601C243C40A3401A
:10218C000E4A566833435360C26C836C5A60036DBD
:10219C00002B05D01A682A401A60436D826D5A6074
:1021AC0001230024CB77431DDC77826B1300A24202
:1021BC00D2D090472300CFE7FFFEFFFF0000024084
:1021CC00F8B51C210427046C264A21403C008C40A5
:1021DC00166803681D6826420FD03D420DD0196861
:1021EC00890602D41968B943196053681C43036B00
:1021FC005460002B1BD0984719E002273C008C4000
:10220C00264215D03D4213D01968890606D40A25FA
:10221C001968A94319600121831DD97753681C43A0
:10222C0054600022431DDA77C36A9342E3D1F8BDB0
:10223C00082427008F403E42F9D02542F7D00E25C6
:10224C001C68AC431C6001231D008D4029005468A0
:10225C0021435160821DC363D3770022431DDA777B
:10226C00436BE2E7000002400023F0B585B00A683A
:10227C001400DC4001D105B0F0BD012514009D40D7
:10228C002C4001942A4200D18EE04A685E009446AC
:10229C000322644622400324B440E4430294541EB7
:1022AC00012C2AD88768029C2740CC68B4403C4358
:1022BC00846044680127AC432500644624093C40F3
:1022CC009C402C434460C568029C25408C68B440FB
:1022DC002C43C460022A12D1DC080725A40004197F
:1022EC00276A03940F241D40AD00AC40A7430C6932
:1022FC00AC402743039C276201E0032AE3D1046826
:10230C00029DB24025402C0014430460C024624658
:10231C00A402224248D0254A03259C08A400A418F4
:10232C000F221D40ED00AA40A027266EFF05964304
:10233C000022B8420CD01E4F0132B84208D01D4FBB
:10234C000132B84204D01C4F0132B84200D00232E4
:10235C00AA40674632432266144C019A2668019DB6
:10236C00D2433543FF0201D4350015406746256042
:10237C006668019D3543BF0201D4350015406746A0
:10238C0065600E4C019DE66F3543BF0301D43500EB
:10239C0015406746E5670A4C019EE56F2E43FF0327
:1023AC0001D415402E00E667013360E700180240A7
:1023BC000004005000080050000C005008180240A7
:1023CC0004180240F0B500230F0085B03A00DA4043
:1023DC0001D105B0F0BD01229A40140001923C409D
:1023EC00174253D02A4903259A08920052180F21FC
:1023FC001D40ED00A940166E02910E400396A026DA
:10240C000021F605B0420FD022498C4601216045CF
:10241C000AD021498C460221604505D01F498C46C3
:10242C000321604500D00231A940039DA94212D17D
:10243C001B4E1749F56FA543F5671A4EF56FA5436B
:10244C00F5674D68A5434D600D68A5430D60116E91
:10245C00029CA1431166032459008C4007210F26CE
:10246C00194089008E400268019922430260DA0803
:10247C0092008218156AB54315628268A243826085
:10248C0042688A434260C268A243C26001339DE73E
:10249C00001802400004005000080050000C0050CE
:1024AC00041802400818024000690840431E984175
:1024BC00C0B27047002A01D0816170478162FCE78D
:1024CC007047000070B5084D0400EB68184202D04C
:1024DC00E860FFF7F5FF2B69234203D020002C6145
:1024EC0007F074F970BDC0460018024003689A6981
:1024FC00920701D500229A6201229969114202D1F8
:10250C0099690A439A61704730B5039C006823436C
:10251C00120489051A43890D054B45680A43640D5D
:10252C001C435200A54352082A43426030BDC046AA
:10253C00FF63FF03F0B585B00292026801919169C7
:10254C0010230F00040000251F40194208D020263C
:10255C00D36123689A6932426ED1002D2FD00427A3
:10256C008021236849009A690A4202D00125D96169
:10257C002F438021C9000A4203D0082001250743BC
:10258C00D961802189000A425CD00222D9611743AB
:10259C002000FFF7ABFF22682D49536801250B4043
:1025AC005360636C20221F432300413367641A700D
:1025BC0022000023423240341370237044E0019A0D
:1025CC000132C7D0FEF76EFE029BC01A019B9842E7
:1025DC0001D8002BBDD12200802742322368039200
:1025EC00586811789A693F02C9B23A420BD08022DE
:1025FC00D201104207D1202905D059680A435A60EC
:10260C00FEF750FE029023689B691F00374033424F
:10261C009FD1FEF747FE029BC01A1928F3D9636CB1
:10262C00012533436364230041331E70039B1F70E9
:10263C00230040331F70E6E70427002D90D1DE61A4
:10264C0001358DE7002DA3D1280005B0F0BDC046A3
:10265C0000E800FEF8B504000D0016000227236800
:10266C009B693B4201D00020F8BD320029002000BC
:10267C00FFF760FF002815D16B1CF0D0FEF712FE9F
:10268C00801BA84201D8002DE9D12022636C134392
:10269C006364230041331A70220000234232403419
:1026AC00137023700120DFE7F8B504000D0016004D
:1026BC00042723689B693B4211D13200290020007A
:1026CC00FFF738FF002824D1202123689A690A4299
:1026DC0023D09A693A4204D0228D002A01D00020DE
:1026EC00F8BD9969102208001040114213D0DA612C
:1026FC000C3A62642021D9615A68104802405A6031
:10270C0023002200413319700023423213704034ED
:10271C0023700120E4E76064ECE7FEF7C3FD801B47
:10272C00A84201D8002DC4D12022636C13436364EA
:10273C00230041331A7040340023E9E700E800FE1F
:10274C00F8B504000E0017001D0022689369334091
:10275C009B1B59424B41BB4201D0002017E06B1C24
:10276C00F4D0FEF79FFD069BC01AA84201D8002D9D
:10277C00EBD12022636C01201343636423004133AB
:10278C001A70220000234232403413702370F8BDBB
:10279C00F7B514001E00DAB2164B05000093802327
:1027AC00089F5B04FFF7B0FE39002800099AFFF779
:1027BC0051FF002801D00120FEBD2B68012E0DD148
:1027CC00E4B29C62099B0022009380213B0028000C
:1027DC00FFF7B6FF431E9841C0B2EDE7220A9A629A
:1027EC0039002800099AFFF735FF0028E3D12B6840
:1027FC00E6E7C04600200080F7B5050014001E0077
:10280C00DAB2154B089F00930023FFF77DFE3900C9
:10281C002800099AFFF71EFF002801D00120FEBDF9
:10282C002B68012E0DD1E4B29C62099B002200930F
:10283C0040213B002800FFF783FF431E9841C0B2A4
:10284C00EDE7220A9A6239002800099AFFF702FF85
:10285C000028E3D12B68E6E700200080F8B50400DF
:10286C000D001600202723689B693B4201D00020F5
:10287C00F8BD320029002000FFF75CFE002813D1C0
:10288C00FEF710FD801BA84201D8002DEBD12022B1
:10289C00636C13436364230041331A7022000023DA
:1028AC0042324034137023700120E1E770B504000C
:1028BC000120002C3FD0250041352B78DAB2002BBB
:1028CC0005D12300403320001A70FEF7AFF8242303
:1028DC0001212B7023681D481A68A6688A431A6068
:1028EC0061681B4A0A401A619A6802409A60E26861
:1028FC00012A21D180210902314399605A68154976
:10290C0011435960DA6861690240DA60226900207B
:10291C000A43A16909020A43DA60216AE2690A439F
:10292C001A60012219680A431A60202360642B7014
:10293C0020634234207070BD8421090231439960B8
:10294C00022ADBD1802212015A60D7E7FF7FFFFFFA
:10295C00FFFFFFF00080000270B504000120002C86
:10296C0013D02500242341352B7022681368834330
:10297C0013602000FEF7D2F800202300606442337D
:10298C002870206340341870207070BDF0B587B08B
:10299C00059303004133049203931B7804000F004A
:1029AC000220202B14D1230040331A78012A0FD097
:1029BC0001261E70FEF776FC80210500009019237D
:1029CC00320020000902FFF7BBFE002802D00120D4
:1029DC0007B0F0BD21232600039A42361370113B39
:1029EC003370049B60646362059B60636385628DD6
:1029FC002D4BFF2A20D9FF222285009380235B04D4
:102A0C0039002000FFF780FD638D2A0020000C990F
:102A1C00002B19D1FFF722FF0028D8D120212368E1
:102A2C00224DD9615A682A405A6023004034413300
:102A3C00197030702070CBE7628D92B22285D2B2C1
:102A4C00009380239B04DBE7FFF704FE0028BED134
:102A5C00636A22681978013391626362638D228DF7
:102A6C00013B9BB26385013A638D92B22285002BA8
:102A7C00CAD0002AC8D1802120000C9B0095FFF7FA
:102A8C005FFE0028A3D1638DFF2B06D9FF2323857E
:102A9C008023FF2200905B04B2E7628D92B2228504
:102AAC00D2B20090CDE7C0460020008000E800FEC6
:102ABC00F0B587B0059303004133049203931B7860
:102ACC0004000F000220202B14D1230040331A786D
:102ADC00012A0FD001261E70FEF7E4FB80210500B1
:102AEC0000901923320020000902FFF729FE00286C
:102AFC0002D0012007B0F0BD22232600039A4236F3
:102B0C001370123B3370049B60646362059B6063BB
:102B1C006385628D2D4BFF2A20D9FF2222850093DD
:102B2C0080235B0439002000FFF7EEFC638D2A0044
:102B3C0020000C99002B19D1FFF790FE0028D8D15A
:102B4C0020212368224DD9615A682A405A602300FB
:102B5C0040344133197030702070CBE7628D92B2E3
:102B6C002285D2B2009380239B04DBE7FFF79CFD08
:102B7C000028BED12368626A5B6A1370636A228D77
:102B8C0001336362638D013A013B9BB26385638DB4
:102B9C0092B22285002BC9D0002AC7D180212000F7
:102BAC000C9B0095FFF7CCFD0028A2D1638DFF2B69
:102BBC0006D9FF2323858023FF2200905B04B1E715
:102BCC00628D92B22285D2B20090CCE700240080B4
:102BDC0000E800FEF0B589B007930EAB069204CB6B
:102BEC0004001B88039204930300413305931B7864
:102BFC000F000220202B08D1002A02D0049B002BAE
:102C0C0005D180239B006364012009B0F0BD230033
:102C1C00403302931B780220012BF6D00122029B39
:102C2C001A70FEF73FFB802100900500192301224A
:102C3C0020000902FFF784FD061EE5D12123059A29
:102C4C00390013702300423305934023059A137007
:102C5C00039B60646362049B60636385109B20002C
:102C6C000093069A079B0195FFF792FD002802D06E
:102C7C00029B1E70C8E7638DFF2B54D9FF22802363
:102C8C0022855B040090390020008026FFF73CFC75
:102C9C00B6042A0020001099FFF7DCFC0028B3D101
:102CAC00636A22681978013391626362638D228DA5
:102CBC00013B9BB26385013A638D92B22285002B56
:102CCC0017D0002A15D180212000109B0095FFF70A
:102CDC0037FD002800D097E7638DFF2B2BD9FF23FE
:102CEC0023858023FF2200905B0439002000FFF72E
:102CFC000BFC638D002BCCD12A0020001099FFF720
:102D0C00ADFD002800D07FE7202123680D4DD9614F
:102D1C005A682A405A60230041331970059B40348D
:102D2C001870207071E78023628D9B0492B222850B
:102D3C00D2B20090A7E7628D330092B22285D2B254
:102D4C000090D2E700E800FEF0B58BB0099310AB11
:102D5C00089204CB04001B880592069303004133B0
:102D6C0007931B780D000220202B08D1002A02D0DB
:102D7C00069B002B05D180239B00636401200BB0C4
:102D8C00F0BD2300403304931B780220012BF6D0B6
:102D9C000127049B1F70FEF785FA80210390009099
:102DAC0019233A0020000902FFF7CAFC061EE5D1E0
:102DBC002223079A290013702300423307934023E0
:102DCC00079A1370059B60646362069B606363855E
:102DDC00039B20000193129B089A0093099BFFF719
:102DEC000BFD002802D0049B1E70C7E7628D364B8A
:102DFC00FF2A59D9FF222285009380235B042900E6
:102E0C0020008026FFF780FBFF27B604039B0022DF
:102E1C00009304212000129BFFF792FC0028ADD1F7
:102E2C002368626A5B6A1370636A228D0133636282
:102E3C00638D013A013B9BB26385638D92B222850F
:102E4C00002B17D0002A15D1039B80210093200062
:102E5C00129BFFF775FC002800D08FE7638DFF2BCA
:102E6C002AD98023FF2227855B04009029002000AB
:102E7C00FFF74AFB638D002BC8D12000039A1299EF
:102E8C00FFF7ECFC002800D078E7202123680F4DD9
:102E9C00D9615A682A405A60230041331970079B44
:102EAC004034187020706AE7628D92B222850093CC
:102EBC008023D2B29B04A2E7628D330092B22285AA
:102ECC00D2B20090D2E7C0460024008000E800FE99
:102EDC00F0B51E00002389B007930300059241331F
:102EEC001A7804000225202A5BD102689769802297
:102EFC00380012021040174253D12200403217788A
:102F0C00012F4ED0013D1570242289051A708B0DAE
:102F1C0060640493E368012B2BD13E4B049A13435A
:102F2C0022685360FEF7BEF90390012223689D6965
:102F3C009B696D091B09154013401D431CD0236868
:102F4C0010279B691A003A403B422DD1039B20214C
:102F5C00009320003300FFF7F3FB002821D120233E
:102F6C0022680500D3612200403441321370207076
:102F7C0017E0A0239B01D1E7731CD6D0FEF792F982
:102F8C00039BC01AB04201D8002ECED122002023C0
:102F9C0041321370626C0125134363640023403487
:102FAC002370280009B0F0BD039B00220093202160
:102FBC0033002000FFF7C4FB021EF2D123680598F2
:102FCC00DF612027DF61079981420FD1802158688A
:102FDC00C90101435960039B390000932000330061
:102FEC00FFF7AEFB0028DCD12368DF61079B059A55
:102FFC0001330793079B934200D28BE722002023D7
:10300C0041321370626C40341343636000232370AD
:10301C00C7E7C04600200002F0B504004134227816
:10302C0003000F000220D6B2202A18D11D00403513
:10303C002A78012A13D0242222701B68233A19689B
:10304C0007489143196019680140002019601968FC
:10305C003943196019680A431A6026702870F0BD4C
:10306C00FFEFFFFF0200F0B5413214780300E5B228
:10307C000220202C17D11C0040342678012E12D0AF
:10308C00223010701B6823381E68074F86431E6061
:10309C001E6809023E4031431960196808431860E4
:1030AC00002015702070F0BDFFF0FFFF10B50E4B27
:1030BC000724002811D001221868A04302431A608B
:1030CC0004220A4B186902431A61012908D130BF46
:1030DC0004211A698A431A6110BD1A68A243EEE7EB
:1030EC0040BF20BF20BFF3E70070004000ED00E0C0
:1030FC0010B5114C1149236802000B4003432360A7
:10310C00802300209B009A420ED10D4B0D4918686C
:10311C0006235843FDF716F88022431CD200616940
:10312C0008001040114200D110BD002B01D0013B12
:10313C00F5E70320F8E7C04600700040FFF9FFFFF9
:10314C000000002040420F00F0B5040085B00028BC
:10315C0023D00368DB0710D423689B075ED4236855
:10316C001B0700D5C3E023685B0700D5F4E0E369D7
:10317C00002B00D07AE1002029E03822AF4DAB685B
:10318C001340EA68102B0AD1D243930709D12B685C
:10319C009B03E1D56368002BDED1012017E0082BDF
:1031AC00F5D0802263685202934212D12A681343ED
:1031BC002B60FEF777F880270600BF022B683B4296
:1031CC00CAD1FEF76FF8801B6428F7D9032005B02D
:1031DC00F0BDA021C9028B4208D180232968DB02F3
:1031EC000B432B602B681A432A60E2E72A68944948
:1031FC000A402A602A6893490A402A60002BD8D1D9
:10320C00FEF750F880270600BF022B683B42A3D084
:10321C00FEF748F8801B6428F7D9D7E73823874D89
:10322C00AA681340EA68102B28D103210A40022A0D
:10323C0026D12A68520502D5E268002AADD0696809
:10324C0062698148120201400A436A60002B0DD169
:10325C002B687E4A1340226913432B602B687C4AEF
:10326C009B045B0FDA4013007A4A13607A4B1868A0
:10327C00FDF794FD002800D171E78EE7002BD8D024
:10328C00E368002B20D02B68704A802713402269FA
:10329C00FF0013432B6080232A685B0013432B60D1
:1032AC00FEF700F806002B683B4207D06A6863699A
:1032BC0065491B020A4013436B6050E7FDF7F2FFB0
:1032CC00801B0228EFD981E72B68644A80271340C2
:1032DC002B60FDF7E7FF0600FF002B683B4200D197
:1032EC003DE7FDF7DFFF801B0228F6D96EE7382299
:1032FC00524DAB681340182B08D12B6E9B0700D492
:10330C0031E7A369002B00D02DE746E7A269012322
:10331C00002A10D02A6E022713432B66FDF7C2FF3A
:10332C0006002B6E3B4200D01DE7FDF7BBFF801B58
:10333C000228F6D94AE72A6E02279A432A66FDF735
:10334C00B1FF06002B6E3B4200D10CE7FDF7AAFF44
:10335C00801B0228F6D939E73822384DAB68134068
:10336C00202B08D1EB6D9B0700D400E7A368002B42
:10337C0000D0FCE611E780220021EB6B5205009196
:10338C00134208D1EB6B1343EB63EB6B13400393CA
:10339C00039B012300938027314E7F0033683B420F
:1033AC0015D0A368012B22D1EA6D1343EB65FDF711
:1033BC0079FF02270600EB6D3B4238D0009B012BB6
:1033CC0000D0D4E6EB6B274A1340EB63CFE63368AF
:1033DC003B433360FDF766FF019033683B42E0D11D
:1033EC00FDF760FF019BC01A0228F6D9EEE6EA6DE4
:1033FC00052B05D1013B1343EB65EA6D0123D4E7A3
:10340C0001218A43EA65EA6D03318A43EA65002BA0
:10341C00CDD1FDF747FF02270600EB6D3B42CDD027
:10342C00FDF740FF104B801B9842F6D9CEE6FDF716
:10343C0039FF0D4B801B9842BDD9C7E600100240E6
:10344C00FFFFFEFFFFFFFBFFFF80FFFFFFC7FFFF3C
:10345C000024F4000000002008000020FFFEFFFF05
:10346C0000700040FFFFFFEF881300003821444D2F
:10347C00AA680A40102A55D0424A022B3AD12B682E
:10348C00802713402B60FDF70DFF0600BF042B684F
:10349C003B4229D1616A236AEA680B433A49802688
:1034AC000A401343E26AB6041343226B1343626B64
:1034BC001343A26A12021343EB6080232A685B0455
:1034CC0013432B608023EA685B051343EB60FDF725
:1034DC00E9FE04002B68334200D04CE6FDF7E2FE17
:1034EC00001B0228F6D971E6FDF7DCFE801B0228D2
:1034FC00CDD96BE62B68802613402B60FDF7D2FEEE
:10350C000400B6042B6818003040334204D1EB6839
:10351C001E4A1340EB605AE6FDF7C4FE001B02285E
:10352C00F0D953E6012B00D137E60322EB68216A70
:10353C001A408A4200D030E67022616A1A408A42F0
:10354C0000D02AE6FE21A26AC9011940120291425A
:10355C0000D022E6F822E16A92031A408A4200D097
:10356C001BE6E022216B12051A408A4200D014E6B9
:10357C00626B5B0F5B07934200D1FCE50DE6C04626
:10358C0000100240FFFFFFFE8C80C111FCFFFEEE1D
:10359C00382370B51E4CA2681A4205D123681D4809
:1035AC009B045B0FD84070BDA2681A40082A2AD031
:1035BC00A2681A40102A1AD1E368E168DB43490675
:1035CC00490F7F2501319B070CD1E36812481B0A78
:1035DC001D40FCF7B7FDE1686843490F0131FCF76A
:1035EC00B1FDE0E7E3680B481B0A1D40F1E7A26858
:1035FC001A40202A09D0A26800201340182BD2D1DF
:10360C00FA20C001CFE70448CDE780200002CAE7CA
:10361C00001002400024F40000127A00F7B50400F8
:10362C000D00002801D10120FEBD07274A4E33684A
:10363C003B408B422AD321688B073BD4CB0748D421
:10364C00072733683B40AB420AD93368BB432B4353
:10365C003360FDF727FE019033683B40AB426BD1E2
:10366C0023683E4D5B076FD4FFF792FFAB683C4A73
:10367C001B051B0F9B009B581F221340D840394B36
:10368C001860394B1868FDF789FBCDE73368BB43ED
:10369C000B433360FDF706FE019033683B40AB42B1
:1036AC00C9D0FDF7FFFD019BC01A304B9842F4D9ED
:1036BC000320B9E7294A4B0704D5E0239068DB01C6
:1036CC000343936093682A480340A06803439360C4
:1036DC00B4E76268214F012A19D13B689B03A2D53C
:1036EC000721BB688B431343BB60FDF7DBFD0190E7
:1036FC003823BA681A406368DB009A42A0D0FDF701
:10370C00D1FD019BC01A194B9842F1D9D0E7022A7E
:10371C0003D13B689B01E3D485E7002A03D13B68C6
:10372C005B05DDD47FE70223032A03D1396E1942EE
:10373C00D6D178E7F96DFAE7FDF7B4FD019BC01A15
:10374C000A4B984288D9B3E7AB680A4A1340E2683F
:10375C001343AB6088E7C0460020024000100240D3
:10376C0098C3000800000020080000208813000007
:10377C00FFF0FFFFFF8FFFFF064B074A9B685B04C0
:10378C005B0F9B009B581F221340044A1068D840C3
:10379C007047C04600100240D8C30008000000204B
:1037AC00072230B5F025094B02609C682D011440AE
:1037BC0044609C682C408460E0249B68E4012340B6
:1037CC00C360034B1B6813400B6030BD00100240FC
:1037DC0000200240F0B505002B68002085B09B034B
:1037EC003CD58022604C5205E36B0090134208D10B
:1037FC00E36B1343E363E36B13400393039B0123DA
:10380C0000938027594E7F0033683B433360FDF7AC
:10381C0049FD019033683B4212D0E26DC023110088
:10382C009B00534E19401A4203D06B6A994200D048
:10383C007AE0E36D00201E406B6A1E43E66506E0ED
:10384C00FDF730FD019BC01A0228E3D90320009B31
:10385C00012B03D1E36B474A1340E3632B68DA0770
:10386C0006D5032440494A6DA2436C6822434A653D
:10387C00DA0606D53C49404C4A6D2240AC682243DE
:10388C004A659A0506D538493C4C4A6D22406C690C
:10389C0022434A655A0506D53349394C4A6D2240B4
:1038AC00AC6922434A659A0606D52F49354C4A6DB8
:1038BC002240EC6822434A655A040FD52A49EC6928
:1038CC004A6D9200920822434A658022D2059442A6
:1038DC0004D18022CC6852022243CA609A020FD5CE
:1038EC002149294E4A6D2C6A324022434A65802276
:1038FC00D203944204D18022CC6852042243CA6081
:10390C001B050FD5184A214C536D296923400B43D5
:10391C0053658023DB01994204D18023D1685B027B
:10392C000B43D36005B0F0BD8023E26DE06D110058
:10393C005B020343E365E36D154831400340E365E7
:10394C00E165D30700D474E7FDF7ACFC0700022255
:10395C00E36D134200D06CE7FDF7A4FC0D4BC01BCC
:10396C009842F4D972E7C046001002400070004043
:10397C00FFFCFFFFFFFFFFEFFFF3FFFFFFFFF3FF76
:10398C00FFFFCFFFFFCFFFFFFFFFBFFFFF3FFFFF9B
:10399C00FFFFFEFF88130000F0B51700002285B072
:1039AC001D0002ABDA7004000E00FDF77BFCED1974
:1039BC002D1AFDF777FC23222368009001932A4BE4
:1039CC001B6853431B0D6B430393216802ABDA1C3A
:1039DC008B681800304033423BD0C023DB009E4242
:1039EC0004D1019B1B7BDBB2137013787B1CEFD0D3
:1039FC00FDF758FC009BC01AA8422CD3E021236889
:103A0C005A688A435A6082226168520091420CD1F2
:103A1C008021A26809028A4203D08021C9008A420F
:103A2C0003D140211A688A431A608021A26A890155
:103A3C008A4206D119680D480140196019680A4379
:103A4C001A60230001225D331A70002303205C34BA
:103A5C00237005B0F0BD039B5A1E93415B421D4081
:103A6C00039B013BB0E7C04600000020FFDFFFFFD7
:103A7C00F0B50E0085B015000400FDF713FCAD1970
:103A8C002D1AFDF70FFC8027254B01901B685B015D
:103A9C001B0D6B43039322689368180038403B421C
:103AAC0032D0731CF8D0FDF7FDFB019BC01AA84265
:103ABC002CD3E02123685A688A435A6082226168B9
:103ACC00520091420CD18021A26809028A4203D093
:103ADC008021C9008A4203D140211A688A431A60A6
:103AEC008021A26A89018A4206D119680D480140D9
:103AFC00196019680A431A60230001225D331A7099
:103B0C00002303205C34237005B0F0BD039B5A1EC8
:103B1C0093415B421D40039B013B0393BBE7C046B3
:103B2C0000000020FFDFFFFF70B513000D00160032
:103B3C000A00C02149010400FFF72EFF002805D020
:103B4C002023226E0320134323660FE0320029004A
:103B5C002000FFF78DFF0028F2D1C02133002A008E
:103B6C002000C900FFF718FF0028E9D170BD000044
:103B7C00F8B504000120002C67D0636A002B65D1D6
:103B8C00822261685200914200D0E361002325003B
:103B9C00A3625D352B78DAB2002B05D123005C33A0
:103BAC0020001A70FDF784F8022340212B70226844
:103BBC00E56813688B43E0211360C90000238D4234
:103BCC0048D8802040018D4200D0A36282236668D1
:103BDC005B0033408426A76836023E4033430226FE
:103BEC002769A1693E40334301266769B4463740D3
:103BFC003B438027BF000F403B433827E669090C45
:103C0C0037403B438027266A37403B438027A66AD0
:103C1C00BF0137403B43136010230827666A3340CB
:103C2C00666B37403B43F0273F013D401D43042367
:103C3C001940294308435060D369084900200B40C0
:103C4C00D361634620665D342370F8BD0023236185
:103C5C0063619BE7F02118000901B4E7FFF7FFFF50
:103C6C0070B504000120002C10D025000223402147
:103C7C005D352B702268200013685C348B43136015
:103C8C00FDF758F8002060602870207070BDF0B50A
:103C9C001D00030085B05C3301931B7804000E00FB
:103CAC0017000220012B00D17DE00123019A137033
:103CBC00FDF7F8FA230000905D331A78D0B2012A90
:103CCC0000D0A5E0002E68D0002F66D002321A700A
:103CDC000023A21D23662364A663A787E78702320D
:103CEC009387D3872365E3648023A16822681B0232
:103CFC00994208D1402113688B43136080231168CB
:103D0C00DB010B43136040231168194202D1116887
:103D1C000B431360E021E0686368C900884247D90F
:103D2C00002B01D0012F07D133880236D360E38FEB
:103D3C00A663013B9BB2E38702260CE022689368E2
:103D4C00334221D0A36B19880233D160A363E38F74
:103D5C00013B9BB2E387E38F002BEFD129002000BE
:103D6C00009AFFF7E1FE00284FD1A368002B06D183
:103D7C0003932368DA6803929B680393039B206E7A
:103D8C00431E9841C0B208E0FDF78CFA009BC01AA4
:103D9C00A8420AD36B1CDED0032001235D342370B0
:103DAC000023019A137005B0F0BD002DD3D1F3E7B9
:103DBC00002B01D0012F08D133781373A36B01337F
:103DCC00A363E38F013B9BB2E38702260DE02368DC
:103DDC009A6832420DD0A26B12781A73A36B01331E
:103DEC00A363E38F013B9BB2E387E38F002BEED100
:103DFC00B4E7FDF757FA009BC01AA84202D36B1C1C
:103E0C00F3D0C9E7002DF0D1C6E720232366ACE739
:103E1C000220C2E70122036A70B593430362036A6E
:103E2C00164A4468856915400A6815430222934373
:103E3C008A681343124A904205D0124EB04202D007
:103E4C00114EB04213D10826B343CE683343042637
:103E5C00B343904205D00B4A904202D00A4A90429A
:103E6C0005D10A4A8E6922404C69344314434A688E
:103E7C00446085614263036270BDC0468CFFFEFFE7
:103E8C00002C01400044014000480140FFFCFFFFB2
:103E9C00036A174A70B513400362036A154D4268F2
:103EAC00C4692C400D682C43134D2B408D682D029A
:103EBC002B43124DA8420ED1114D1D40CB681B0255
:103ECC002B43104D2B40104D4E6915408A693243DF
:103EDC0012012A4305E00D4DA842F4D00C4DA84226
:103EEC00F1D042604A68C461C263036270BDC046CF
:103EFC00FFFEFFFF8CFFFEFFFFFDFFFF002C0140CC
:103F0C00FFF7FFFFFFFBFFFFFFCFFFFF0044014068
:103F1C0000480140036A124A30B513400362026A3A
:103F2C00104C4368C56925400C68240225430E4C8F
:103F3C0022408C68240322430C4CA04205D00C4C2C
:103F4C00A04202D00B4CA04204D10B4C23404C6934
:103F5C00A401234343604B68C5610364026230BD16
:103F6C00FFEFFFFFFF8CFFFEFFDFFFFF002C014088
:103F7C000044014000480140FFBFFFFF036A70B5D9
:103F8C00104E114C33400362026A4368456D254064
:103F9C000C6825430D4C22408C68240422430C4CA5
:103FAC00A04205D00B4CA04202D00B4CA04203D136
:103FBC004C6933402402234343604B684565836559
:103FCC00026270BDFFFFFEFF8FFFFEFFFFFFFDFFD4
:103FDC00002C01400044014000480140036A124A91
:103FEC0030B513400362026A104C4368456D25409E
:103FFC000C68240225430E4C22408C682405224375
:10400C000C4CA04205D00C4CA04202D00B4CA04250
:10401C0004D10B4C23404C69A402234343604B68EE
:10402C004565C365026230BDFFFFEFFFFF8FFFFEEA
:10403C00FFFFDFFF002C014000440140004801401D
:10404C00FFFFFBFF0200030001203D32117881428B
:10405C001CD1022111701B68DA680243DA600E4A27
:10406C00934206D08022D205934202D00B4A93424F
:10407C000DD19A680A4900200A40062A06D0073951
:10408C008A4203D0012219680A431A6070471A68E1
:10409C00104318600020F9E7002C01400004004098
:1040AC000700010070477047704710B5846A626A58
:1040BC0082420DD101232377D269002A02D122003A
:1040CC003E321370200003F0C7F90023237710BD94
:1040DC00A36A834209D102222277DB69002BF1D13A
:1040EC002300013A3F331A70ECE7E36A834208D1AC
:1040FC0004222277DB69002BE4D12300033A4033FE
:10410C00F1E7236B8342DDD108222277DB69002B98
:10411C00D8D12300073A4133E5E710B5846A636AC6
:10412C00834207D101232377200003F051F90023A8
:10413C00237710BDA36A834201D10223F3E7E36A1C
:10414C00834201D10423EEE7236B8342ECD1082395
:10415C00E9E770470222036810B51969040011429F
:10416C000ED0D96811420BD0053A1A61043202778D
:10417C009B699B0700D186E0FFF796FF002323770E
:10418C00042223681969114211D0D96811420ED04A
:10419C00093A1A61073222779A69C0239B002000E2
:1041AC001A4200D175E0FFF77FFF00232377082226
:1041BC002368196911420ED0D96811420BD0113AFB
:1041CC001A610D322277DB6920009B0767D0FFF75D
:1041DC006BFF00232377102223681969114210D03A
:1041EC00D96811420DD0213A1A6119322277DA6955
:1041FC00C0239B0020001A4257D0FFF755FF002325
:10420C002377012223681969114207D0D96811421A
:10421C0004D0033A20001A61FCF716FD80222368B3
:10422C001969114208D0D968114205D0023AFF3AF7
:10423C0020001A6100F099FC23681A69D20507D591
:10424C00DA68120604D51C4A20001A6100F08EFCB4
:10425C00402223681969114207D0D968114204D051
:10426C00813A20001A61FFF774FF20222368196934
:10427C00114207D0D968114204D0413A20001A618A
:10428C0000F072FC10BDFFF70EFF200003F0E4F805
:10429C0074E7FFF708FF200003F0DEF885E7FFF76F
:1042AC0002FF200003F0D8F893E7FFF7FCFE200094
:1042BC0003F0D2F8A3E7C046FFFEFFFF704710B52E
:1042CC00846A636A834205D10123220023773E323C
:1042DC00137008E0A36A83420BD1022323772300D7
:1042EC0001223F331A702000FFF7E8FF00232377E9
:1042FC0010BDE26A0123824204D1042222772200FB
:10430C004032E5E7226B824204D108222277220058
:10431C004132DDE722003D32DAE700001D4A10B5DC
:10432C000368904206D08024E405A04202D01A4CC7
:10433C00A0420CD17024A3434C68234390420FD06D
:10434C008024E405A0420BD0134CA04208D0134C9F
:10435C00A04205D0124CA04202D0124CA04203D174
:10436C00114C2340CC6823438024A3434C69234342
:10437C0003608B68C3620B688362904205D0084B64
:10438C00984202D0074B984201D10B690363012379
:10439C00436110BD002C014000040040002000408F
:1043AC000044014000480140FFFCFFFF70B50400D1
:1043BC000120002C23D025003D352B78DAB2002BC0
:1043CC0005D123003C3320001A70FCF79DFD02231D
:1043DC002B702068211DFFF7A1FF22000123002074
:1043EC004832137047340A3A137053709370D37079
:1043FC00137153719371D371137223702B7070BD41
:10440C0070B504000120002C23D025003D352B78FD
:10441C00DAB2002B05D123003C3320001A70FFF7D1
:10442C0041FE02232B702068211DFFF777FF22002D
:10443C00012300204832137047340A3A137053702A
:10444C009370D370137153719371D3711372237072
:10445C002B7070BD1022036A70B593430362026A1D
:10446C00154C4368856925400C682402254320249B
:10447C00A2438C6824012243104CA0420FD180240B
:10448C00A2431400CA68120122434024A2430C4EDA
:10449C004C691E408B6923439B00334305E0094C58
:1044AC00A042F4D0084CA042F1D043604B68856127
:1044BC008363026270BDC046FF8CFFFE002C01407E
:1044CC00FFF3FFFF0044014000480140F8B507002E
:1044DC003C373B7804000D0016000220012B0CD059
:1044EC00013838700C2A51D008D8042A2DD0082A4B
:1044FC003CD0002A17D000233B70F8BD102A56D0B0
:10450C00142AF8D12068FFF769FD80222368120174
:10451C00596D0A435A655A6D2D490A405A652A69E4
:10452C00596D120251E02068FFF774FC08222368D1
:10453C0099690A4304219A619A698A439A619A6932
:10454C0029690A439A610020D5E72068FFF782FFAA
:10455C0080222368120199690A439A619A691C495D
:10456C000A409A612A6999691202EAE72068FFF702
:10457C008FFC04212368DA691643DE61DA698A4309
:10458C00DA61DA6929690A43DA61DCE72068FFF746
:10459C00C1FC802223681201D9690A43DA61DA6905
:1045AC000B490A40DA612A69D9691202EBE72068E3
:1045BC00FFF7E4FC08222368596D0A4304215A656D
:1045CC005A6D8A435A655A6D29690A435A65BAE786
:1045DC00FFFBFFFF30B58468034D0A431B022C40E0
:1045EC0013432343836030BDFF00FFFFF8B5050084
:1045FC0002233C35040028781A0001281DD026001F
:10460C0001273D362F7033702068474A836813406A
:10461C0083600B68602B58D034D8402B00D16CE0F1
:10462C0015D8202B0DD00AD810221900914308D090
:10463C003A000123337000232B701000F8BD302B8F
:10464C00F6D1826839490A401343072217E0502BF0
:10465C00EED1CA684C68016A036ABB43F027036257
:10466C008369BB431F0013010A2291430A003B4399
:10467C0022438361026283682C4A1A4057231343F6
:10468C00836016E080225201944600226345D0D00C
:10469C008022920193420ED03A00702BC9D1CB6884
:1046AC004A688968FFF796FF7723226891680B4365
:1046BC0093600022BDE7CB684A688968FFF78AFFE0
:1046CC0080232268DB019168F1E74A68CF681021EA
:1046DC00036A174C8B4303628169036A2140A0244F
:1046EC00A3431C003F03130123433943816103623D
:1046FC0083680E4A1A406723C1E7CA684C68016A8E
:10470C00036ABB43F02703628369BB431F00130199
:10471C000A2291430A003B4322438361026283686D
:10472C00024A1A404723AAE78800CEFF8FFFCFFF2B
:10473C00FF0FFFFF1F2310B5012419408C408A4046
:10474C00036AA3430362036A1A43026210BD0000AA
:10475C0070B50E00050011000200002E09D13E328A
:10476C0014780220023C62425441E4B2002C12D074
:10477C0070BD042E01D13F32F2E7082E01D1403238
:10478C00EEE70C2E01D14132EAE7102E01D1423274
:10479C00E6E74332E4E72A00002E09D13E321278D4
:1047AC00013A50424241D2B2002A13D10120DFE734
:1047BC00042E01D13F32F2E7082E01D14032EEE750
:1047CC000C2E01D14132EAE7102E3AD14232127846
:1047DC00012AEBD10029E9D0002BE7D00222002ED0
:1047EC0031D128003E300270686A4B4AC2624B4A93
:1047FC0002634B4A42632A683432FDF71DFC0028E1
:10480C00D4D180232A689B00D1680B43D36031003C
:10481C0001222868FFF78EFF2B6842498B425FD03C
:10482C00414A93425CD0414A934259D08022D205EE
:10483C0093425DD19A683E490A40062A60D1002015
:10484C0096E74332C3E7042E14D128003F300270A0
:10485C00A86A314AC262314A0263314A42632A6809
:10486C003832FDF7E9FB0028A0D180232A68DB0051
:10487C00D168CAE7082E14D1280040300270E86ACB
:10488C00254AC262254A0263254A42632A683C32A1
:10489C00FDF7D2FB002889D180232A681B01D1683F
:1048AC00B3E70C2E15D1280041300270286B1A4A40
:1048BC00C2621A4A02631A4A42632A684032FDF7FE
:1048CC00BBFB002800D071E780232A685B01D1680C
:1048DC009BE7102E02D142352A7067E74335FBE780
:1048EC008022586C120202435A648B429ED1A1E77B
:1048FC00104A93429ED0012219680A431A609EE71F
:10490C008021002049028A4200D131E70122196836
:10491C000A431A602CE7C046B7400008274100083C
:10492C00CB420008002C01400044014000480140EB
:10493C00070001000004004010B5FFF709FF10BD8F
:10494C0070B504000D0008294BD005D800290CD0F7
:10495C0004293FD0012070BD0C29FBD102682D49E0
:10496C00D368006B0B40D36005E002682A49D3681A
:10497C00406A0B40D360FDF7E7FB0022290020685A
:10498C00FFF7D8FE2368254A2549934205D0254ACE
:10499C00934202D0244A93420AD11A6A0A4207D19E
:1049AC00186A224A104203D15A6C214802405A64B8
:1049BC001A6A0A4207D1196A1C4A114203D1012111
:1049CC001A688A431A600123002D11D13E3400204D
:1049DC002370C0E702681749D368806A0B40D36024
:1049EC00C9E702681449D368C06A0B40D360C2E7B8
:1049FC00042D01D13F34EAE7082D01D14034E6E71C
:104A0C000C2D01D14134E2E7102D01D14234DEE707
:104A1C004334DCE7FFEFFFFFFFFDFFFF002C0140FD
:104A2C001111000000440140004801404404000002
:104A3C00FF7FFFFFFFFBFFFFFFF7FFFF10B5FFF747
:104A4C007FFF10BDF0B5040002223C342578030032
:104A5C001000012D23D01D003D352A701A68104E10
:104A6C0053689068B24203D10E4F3B404F683B43B2
:104A7C007027BB430F683B435360B24206D0802380
:104A8C00DB059A4202D0084B9A4204D1802398430A
:104A9C008B6818439060012300202B702070F0BDB0
:104AAC00002C0140FFFF0FFF0004004010B5040074
:104ABC003C34237802000220012B39D0C8681D4BEE
:104ACC0012680340886803431B480340486803434B
:104ADC001A48034008680343194803400869034314
:104AEC00184803404869034317480340086B0343C5
:104AFC00164803408869000403431548824214D1C8
:104B0C0014480340C8690343134818408B6A1B05BB
:104B1C00034312480340086A034311480340486AA0
:104B2C00C96A03430F4803400B43002053642070B1
:104B3C0010BDC046FFFCFFFFFFFBFFFFFFF7FFFFB1
:104B4C00FFEFFFFFFFDFFFFFFFBFFFFFFFFFF0FFE8
:104B5C00002C0140FFFFFFEFFFFF0FFFFFFFFFFEE9
:104B6C00FFFFFFFDFFFFFFDF70477047704700003E
:104B7C0030B5EFF31084012282F310880168134DD5
:104B8C000B682B400B6084F31088EFF3108182F3D9
:104B9C00108802680E4C93682340936081F3108850
:104BAC00C36E012B0AD1EFF3108183F3108810240C
:104BBC0002681368A343136081F31088030020225A
:104BCC0088331A600023C366036730BDDFFEFFFF26
:104BDC00FEFFFFEF30B5EFF31084012282F3108853
:104BEC00802501680B68AB430B6084F31088EFF3EE
:104BFC00108182F31088402302681068034313600D
:104C0C0081F3108830BD03000833DB6F10B5212B06
:104C1C0006D1020056321388002B02D1FFF7DAFFBF
:104C2C0010BD036D01681C7801338C620365138819
:104C3C00013B9BB21380F3E703000833DB6F10B525
:104C4C00212B06D1010056310B88002B02D1FFF726
:104C5C00C1FF10BD026D046813880232DB05DB0D49
:104C6C00A36202650B88013B9BB20B80F1E700004D
:104C7C0003000833DB6F70B5212B21D10300010039
:104C8C0080246A331B885631002B19D00A88002ADD
:104C9C0017D1EFF31084013282F310880168114DA3
:104CAC008B682B408B6084F31088EFF3108182F3B8
:104CBC0010884023026810680343136081F3108846
:104CCC0070BD0568EA69224208D0026D167801327F
:104CDC00AE6202650A88013A92B20A80013B9BB22D
:104CEC00D2E7C046FFFF7FFF03000833DB6F70B5D0
:104CFC00212B21D10300010080246A331B885631FB
:104D0C00002B19D00A88002A17D1EFF31084013236
:104D1C0082F310880168124D8B682B408B6084F3F2
:104D2C001088EFF3108182F310884023026810681A
:104D3C000343136081F3108870BD0668F269224248
:104D4C000AD0056D2A880235D205D20DB2620565EE
:104D5C000A88013A92B20A80013B9BB2D0E7C04666
:104D6C00FFFF7FFF70B505000120002D18D02E002D
:104D7C00242300240836F3672B681A6882431A60D0
:104D8C0028001C605C609C60FCF722FA2B00200061
:104D9C008C331C60043BF4671C60EC6680352C7013
:104DAC0070BD0000F0B506000836F46F0300022059
:104DBC00202C41D1013800293ED0002A3CD0802043
:104DCC009D684001854206D11869002803D11F3C1B
:104DDC002000214230D11C00803427780220012F82
:104DEC002AD0013820701965190054310A804A8084
:104DFC001A0000218C32116021228021F26780225E
:104E0C00586E92054901904217D1164A8D4203D132
:104E1C001969002900D1144A00205A672070EFF359
:104E2C001081012282F310881A68802394681B0475
:104E3C002343936081F31088F0BD0C4A8D4203D15B
:104E4C001969002900D10A4A00205A672070EFF333
:104E5C001081012282F310881A688023146823437E
:104E6C001360E7E77D4C0008F54C0008134C000874
:104E7C00454C00087047806A0023020010B55E3272
:104E8C001380083A1380FFF7F5FF10BD7047000040
:104E9C00F7B50168C14DCB6904000A6888682B42DC
:104EAC0010D120252B4200D199E0802676051540A3
:104EBC000640354300D192E0236F2000002B00D038
:104ECC0082E082E0B64D0540AC466646B54D1540D5
:104EDC00354300D183E001252B4207D0D60505D5FB
:104EEC0026000D628C3637683D433560250002265E
:104EFC008C350195334207D0C50705D5019D0E624F
:104F0C002F68B6193E432E600426334209D0C507DC
:104F1C0007D527000E628C373E68350002262E43DB
:104F2C003E60082633420AD02027654617402F439F
:104F3C0005D027000E628C373D682E433E608027DB
:104F4C0026003F018C363B4206D0550104D50F623A
:104F5C0020213768394331603168002935D0202150
:104F6C000B420AD01140802252051040014304D05C
:104F7C00236F002B01D0200098472268019B40270B
:104F8C001B68966828223E40134020001E4321D007
:104F9C00FFF7EEFD23689B683B4217D0EFF31081BF
:104FAC00012383F3108822689368BB43936081F3D9
:104FBC001088E06F002809D07B4B8363FDF7C4F8A1
:104FCC00002802D0E06F836B9847F7BD2000FFF7F5
:104FDC0051FFFAE7FFF74EFF019B1E60F5E7E56E08
:104FEC00012D00D098E01026334200D194E03242DB
:104FFC0000D191E00E628B684022180010401342E1
:10500C0052D0E36F19684B689BB2002BDDD02000A7
:10501C005C3000889842D8D920005E300380096843
:10502C002023080018400190194231D1EFF310876A
:10503C0085F3108820685D4E01683140016087F36C
:10504C001088EFF3108785F3108820688168A943D6
:10505C00816087F31088EFF3108085F31088216846
:10506C008F6897438F6080F310882200883213601A
:10507C00019BE366EFF3108185F310881020226802
:10508C0013688343136081F31088E06FFDF71EF8FB
:10509C00230022005E335C321B881188C91A89B246
:1050AC002000FFF7F3FE90E722005E32138812888F
:1050BC009BB2002A00D188E722005C321188C91A01
:1050CC0089B2002900D180E7EFF3108785F31088AF
:1050DC002268374E13683340136087F31088EFF360
:1050EC00108785F310882268324E936833409360A2
:1050FC0087F310882300202288331A60E06620672B
:10510C00EFF3108085F31088102522681368AB43E9
:10511C00136080F31088C3E780256D032B4206D003
:10512C00460204D520000D6200F02AFE4DE78021D6
:10513C000B4207D080252D0411402840084301D094
:10514C00636FBAE640210B4216D00A4214D0EFF33B
:10515C001080012383F31088226813688B4313603B
:10516C0080F31088230020220833DA670023200004
:10517C00636704F0F1FA28E7190205D5510003D54D
:10518C00200000F0FFFD20E7DB0100D41DE7002A22
:10519C0000DB1AE7200000F0F4FD16E70F08000012
:1051AC000100001020010004834E0008FFFEFFFFE9
:1051BC00DFFEFFFFFEFFFFEF010088310A68F8B544
:1051CC000368222A49D1020060325B6A12881340BC
:1051DC00826D13700200836D5E3201338365138818
:1051EC00013B9BB2138013889CB2002B31D1EFF39F
:1051FC001086012282F3108805681A4F2B683B40F9
:10520C002B6086F31088EFF3108682F31088056804
:10521C00AB689343AB6086F3108820230B60C36E9E
:10522C000467934216D1C466EFF3108483F310889D
:10523C00102301680A689A430A6084F31088026894
:10524C00D169194200D0136203005C331988FFF74F
:10525C001DFEF8BD04F086FAFBE7082299690A43A3
:10526C009A61F6E7DFFEFFFF020088321168F8B59D
:10527C000368222948D104006034596A2488836D5C
:10528C00214019800100023383655E310B88013B9C
:10529C009BB20B800B889CB2002B31D1EFF31086A4
:1052AC00012181F3108805681A4F2B683B402B6055
:1052BC0086F31088EFF3108681F310880568AB68CD
:1052CC008B43AB6086F3108820231360C36E046796
:1052DC008B4216D1C466EFF3108483F3108810232D
:1052EC0001680A689A430A6084F310880268D169DD
:1052FC00194200D0136203005C331988FFF7C6FD16
:10530C00F8BD04F02FFAFBE7082299690A439A6169
:10531C00F6E7C046DFFEFFFFF0B5036885B0DD6938
:10532C001A689E6802920200883212680400222ACF
:10533C0000D0B7E0030060331B880193030068338F
:10534C001B8803932200039B5E32002B02D0202388
:10535C001D4223D113889AB2002B1DD02300683331
:10536C001B88934218D9EFF31080012282F3108826
:10537C0021684F4D8B682B408B6080F310884D4B10
:10538C002367EFF3108182F31088202322681068C2
:10539C000343136081F3108805B0F0BD23680199B5
:1053AC005B6A0B40A16D0B70A36D0133A365138871
:1053BC00013B9BB2138007232268D5691D422DD077
:1053CC00063B1D4208D00299C90505D52100136280
:1053DC008C31086803430B6002231D4208D0F1078F
:1053EC0006D5210013628C310868DB1803430B606F
:1053FC0004231D4208D0F10706D5136222008C321B
:10540C001168023B0B43136027008C373B68002B61
:10541C0004D02000FFF72EFD00233B6023005E33F9
:10542C001B889AB2002B00D08CE7EFF31087013366
:10543C0083F310882068036819001F4B1940016022
:10544C0087F31088EFF31080012383F31088216811
:10545C001A4F8B683B408B6080F31088230020210F
:10546C0088331960E36E2267012B17D1E266EFF3E4
:10547C00108083F3108821680F330A689A430A60FE
:10548C0080F310882268D169194200D0136223007E
:10549C005C3320001988FFF7F9FC53E7200004F077
:1054AC0061F94FE7082299690A439A6174E7C0468B
:1054BC00FFFFFFEFC5510008FFFEFFFFFEFFFFEFF0
:1054CC00F0B5036885B0DD691A689E680292020027
:1054DC00883212680400222A00D0B5E00300603341
:1054EC001B880193030068331B8803932100039BE3
:1054FC005E31002B02D020231D4223D10B889AB29F
:10550C00002B1DD0230068331B88934218D9EFF36E
:10551C001080012282F3108821684E4D8B682B403D
:10552C008B6080F310884C4B2367EFF3108182F370
:10553C0010882023226810680343136081F31088BD
:10554C0005B0F0BD2368019D586AA26D28401080FB
:10555C000232A2650A88013A92B20A800722DD69FA
:10556C0015422DD0063A154208D00299C90505D529
:10557C0021001A628C31086802430A60022215422B
:10558C0008D0F10706D521001A628C3108689218F0
:10559C0002430A600422154208D0F10706D51A62AC
:1055AC00220002238C3211680B43136027008C37C6
:1055BC003B68002B04D02000FFF75CFC00233B6011
:1055CC0023005E331B889AB2002B00D08EE7EFF3DA
:1055DC001087013383F310882068036819001F4B70
:1055EC001940016087F31088EFF31080012383F3D7
:1055FC00108821681A4F8B683B408B6080F31088B1
:10560C002300202188331960E36E2267012B17D108
:10561C00E266EFF3108083F3108821680F330A6879
:10562C009A430A6080F310882268D169194200D02D
:10563C00136223005C3320001988FFF727FC55E721
:10564C00200004F08FF851E7082299690A439A6107
:10565C0076E7C046FFFFFFEF75520008FFFEFFFF25
:10566C00FEFFFFEFF8B504002569A1680268294325
:10567C006569C36929431068704D1943284001437B
:10568C00116051686E48A5690140E06801436D489E
:10569C005160824201D0216A0D4391686A4E3140BB
:1056AC0029430F259160D16AA943656A2943D162C8
:1056BC0066498A4216D10321654A526D0A408021FF
:1056CC00013A0902022A00D989E06248805C8B42C7
:1056DC0060D008281CD8FAF721FDAA1B801B7D1B63
:1056EC001B1B6B005C498A4200D19CE082420FD1AB
:1056FC00C0228021564B12015B6D090113408B4275
:10570C001BD007D8002B0AD08022D200934211D094
:10571C00012009E09342FBD1802636020EE0FEF711
:10572C002BF8061E0AD100204C4BA36600232367DE
:10573C006367F8BDFDF72CFFF3E7494E636A494AEE
:10574C005B009F5A30003900FAF7FCFC03236568B4
:10575C006B438342DCD82B038342D9D300233A001A
:10576C0030001900FAF764FE0027060E0B023343D3
:10577C0002026E0892197B41100019002A003B00AE
:10578C00FAF756FE384BC218384B9A42C0D82368E9
:10579C00D860C8E70828BBD8FAF7B6FC23BA08BA11
:1057AC0005BABABA2700FDF7F3FE1CE02C4B1CE03F
:1057BC0080200002636A2B4A5B00995AFAF7C2FCFC
:1057CC0065686B08C0182900FAF7BCFC0200284B6E
:1057DC00103ADAE7FDF7DCFE2BE02148EAE78B42D2
:1057EC0025D1FDF7C9FF031E9DD0626A1D495200E9
:1057FC00515A1800FAF7A6FC656840006B08C018EF
:10580C002900FAF79FFC0200194B103A9A4200D972
:10581C007EE70F23020000079A4393B2400F2268E1
:10582C001843D0607FE7802212029342D9D0FDF753
:10583C00A3FF002800D176E7BCE7C046F369FFCF91
:10584C00FFCFFFFF00800040FFF4FF110038014044
:10585C0000100240F8C300080044004001000100A1
:10586C000024F400FCC3000800FDFFFFFFFC0F0048
:10587C00EFFF0000836A30B5DA0706D50168284CC3
:10588C004A682240C46A22434A609A0706D50168D6
:10589C00244C4A682240046B22434A605A0706D5BE
:1058AC000168214C4A682240446B22434A601A0723
:1058BC0006D501681D4C4A682240846B22434A601D
:1058CC00DA0606D501681A4C8A682240C46B22435A
:1058DC008A609A0606D50168164C8A682240046CC8
:1058EC0022438A605A0610D50168134D4A68446CED
:1058FC002A4022434A6080225203944205D14A68CE
:10590C000E4C2240846C22434A601B0606D502686A
:10591C000B4953680B40C16C0B43536030BDC04600
:10592C00FFFFFDFFFFFFFEFFFFFFFBFFFF7FFFFF02
:10593C00FFEFFFFFFFDFFFFFFFFFEFFFFFFF9FFF0B
:10594C00FFFFF7FFF7B5802704000D001600019349
:10595C003F012268D3692B405B1B59424B41B34238
:10596C0001D000202BE0089B0133F3D0FBF79AFC0D
:10597C00019BC01A089B984201D8002B20D1EFF351
:10598C001080012282F310882168214D0B682B4076
:10599C000B6080F31088EFF3108082F3108821687D
:1059AC008B6893438B6080F310882200202308328D
:1059BC00D367803213600023032080342370FEBD34
:1059CC00042123681A680A42C3D0DA693A42C0D06B
:1059DC001F62EFF31080012282F3108821680C4DB6
:1059EC000B682B400B6080F31088EFF3108082F370
:1059FC00108821688B6893438B6080F31088220099
:105A0C0020230832D367803213605360D3E7C0463B
:105A1C005FFEFFFFF0B51600020087B00832059359
:105A2C00D36F04000D000220202B53D10138002924
:105A3C0050D0002E4ED08023A1685B01994204D136
:105A4C002369002B01D1054244D1230080330393F9
:105A5C001B780220012B3DD0012303990B702300EE
:105A6C0000218C3319602123D367FBF71BFC230027
:105A7C0054331E8002331E8004938023A2680700D7
:105A8C0000265B019A4204D12369B34201D12E0056
:105A9C001D000023039A1370230056331B889AB2FF
:105AAC00002B0CD1059B4021009320003B00FFF7FD
:105ABC0049FF00280DD120230834E3670AE0059B39
:105ACC000022009380213B002000FFF73BFF0028C1
