:020000040800F2
:100000000020002019120008210E0008230E00080D
:1000100000000000000000000000000000000000E0
:10002000000000000000000000000000250E000895
:100030000000000000000000270E0008290E000844
:1000400069120008691200086912000869120008A4
:10005000691200082B0E0008691200083B0E000808
:1000600000000000450E0008550E00086D0E000847
:100070007D0E000869120008691200086912000864
:100080006912000869120008691200086912000864
:1000900000000000691200088D0E000869120008B7
:1000A0006912000869120008691200086912000844
:0C00B0009D0E000869120008000000000E
:1000BC0010B5064C2378002B07D1054B002B02D032
:1000CC00044800E000BF0123237010BD98000020FD
:1000DC000000000054C20008044B10B5002B03D0E4
:1000EC000349044800E000BF10BDC04600000000FA
:1000FC009C00002054C200080023C25C0133002A7B
:10010C00FBD1581E7047000002B4714649084900E3
:10011C00095649008E4402BC7047C04602B4714671
:10012C0049084900095C49008E4402BC7047C0462E
:10013C0003B47146490840004900095E49008E44E9
:10014C0003BC7047002243088B4274D303098B42D3
:10015C005FD3030A8B4244D3030B8B4228D3030C8B
:10016C008B420DD3FF22090212BA030C8B4202D32D
:10017C001212090265D0030B8B4219D300E0090A55
:10018C00C30B8B4201D3CB03C01A5241830B8B425E
:10019C0001D38B03C01A5241430B8B4201D34B0347
:1001AC00C01A5241030B8B4201D30B03C01A5241AC
:1001BC00C30A8B4201D3CB02C01A5241830A8B4231
:1001CC0001D38B02C01A5241430A8B4201D34B021A
:1001DC00C01A5241030A8B4201D30B02C01A52417E
:1001EC00CDD2C3098B4201D3CB01C01A5241830932
:1001FC008B4201D38B01C01A524143098B4201D36C
:10020C004B01C01A524103098B4201D30B01C01A96
:10021C005241C3088B4201D3CB00C01A5241830810
:10022C008B4201D38B00C01A524143088B4201D33D
:10023C004B00C01A5241411A00D20146524110469D
:10024C007047FFE701B5002000F0F0F802BDC04692
:10025C000029F7D076E7704703460B437FD4002282
:10026C0043088B4274D303098B425FD3030A8B423E
:10027C0044D3030B8B4228D3030C8B420DD3FF22A8
:10028C00090212BA030C8B4202D31212090265D076
:10029C00030B8B4219D300E0090AC30B8B4201D329
:1002AC00CB03C01A5241830B8B4201D38B03C01A70
:1002BC005241430B8B4201D34B03C01A5241030BE7
:1002CC008B4201D30B03C01A5241C30A8B4201D398
:1002DC00CB02C01A5241830A8B4201D38B02C01A43
:1002EC005241430A8B4201D34B02C01A5241030ABA
:1002FC008B4201D30B02C01A5241CDD2C3098B429F
:10030C0001D3CB01C01A524183098B4201D38B011B
:10031C00C01A524143098B4201D34B01C01A5241BE
:10032C0003098B4201D30B01C01A5241C3088B4203
:10033C0001D3CB00C01A524183088B4201D38B00EE
:10034C00C01A524143088B4201D34B00C01A524190
:10035C00411A00D201465241104670475DE0CA0F67
:10036C0000D04942031000D34042534000229C4627
:10037C0003098B422DD3030A8B4212D3FC22890131
:10038C0012BA030A8B420CD3890192118B4208D307
:10039C00890192118B4204D389013AD0921100E069
:1003AC008909C3098B4201D3CB01C01A524183097D
:1003BC008B4201D38B01C01A524143098B4201D3AA
:1003CC004B01C01A524103098B4201D30B01C01AD5
:1003DC005241C3088B4201D3CB00C01A524183084F
:1003EC008B4201D38B00C01A5241D9D243088B42A5
:1003FC0001D34B00C01A5241411A00D20146634648
:10040C0052415B10104601D34042002B00D54942AB
:10041C00704763465B1000D3404201B5002000F0EA
:10042C0005F802BD0029F8D016E770477047C046A2
:10043C00002B11D1002A0FD1002900D1002802D0A5
:10044C000021C943080007B4024802A140180290D9
:10045C0003BDC046D9FFFFFF03B4684601B502983F
:10046C0000F006F8019B9E4602B00CBC7047C046DB
:10047C00F0B557464E464546DE46E0B504000D0045
:10048C009246994683B08B4230D82DD0494650467F
:10049C0000F0D8F829000600200000F0D3F8331A39
:1004AC009846203B34D49B4653465A46934042468A
:1004BC001F00534693401E00AF423BD8AF4200D1C1
:1004CC0079E05B46A41BBD41002B00DA76E00022EC
:1004DC0000230092019301235A4693400193012378
:1004EC0042469340009329E08242CFD90022002358
:1004FC00009201930C9B002B01D01C605D60009856
:10050C00019903B0F0BCBB46B246A946A046F0BD6B
:10051C0042469B4620239B1A5246DA404146130022
:10052C004A468A40170042461F43534693401E00DA
:10053C00AF42C3D900220023009201934346002B03
:10054C00D8D0FB0772081A4346467B080EE0AB4234
:10055C0001D1A2420CD8A41A9D41012024196D414D
:10056C000021013E24184D41002E06D0AB42EED99D
:10057C00013E24196D41002EF8D1009801995B467B
:10058C0000196941002B24DB2B005A464446D3400A
:10059C002A00E2401C005B461500002B2ADB2600DB
:1005AC009E40330026004746BE403200801A9941D7
:1005BC00009001919EE7A342BCD882E742462023DB
:1005CC0000219B1A0022009101920122DA40019233
:1005DC0085E7424620239B1A2A0046469A40230070
:1005EC00F340444613432A00E2401C005B461500CE
:1005FC00002BD4DA42462F002023260097409B1A6A
:10060C00DE403B003343CDE71C2101231B04984201
:10061C0001D3000C10391B0A984201D3000A083987
:10062C001B09984201D30009043902A2105C40183E
:10063C007047C046040302020101010100000000E2
:10064C000000000010B5002903D1FFF7DDFF2030BA
:10065C0002E00800FFF7D8FF10BDC0461FB50C2202
:10066C00002101A80BF01DFA1D4C1E4B0822236023
:10067C008023DB05636000236261073AA118CB7706
:10068C0021002C310A7005216163A1632100A36054
:10069C00E360236123836362A3622363A3648023E7
:1006AC003C31A276E2610A701B3222649B056432F3
:1006BC0020006264E36400F00FFE002801D000F01B
:1006CC00CBFA094B20000193002301A90293039359
:1006DC0001F018F8002801D000F0BEFA1FBDC0468A
:1006EC0010010020002401400001002030B505005D
:1006FC0089B01422002103A80BF0D3F9224B2A68ED
:10070C009A423ED18021214B49031A6C20480A435E
:10071C001A641A6C0A4002210192019A5A6B0A431C
:10072C005A635B6B0B400293029B012303935B1890
:10073C0003A9049301F076FD164C174B200023609F
:10074C00052363600023A360E3608033236180335F
:10075C0063618023DB00A3612023E36180235B01C1
:10076C00236201F0B1FB002801D000F075FA0C20D7
:10077C00002202212C65A56201F026FB0C2001F061
:10078C004DFB09B030BDC0460024014000100240B2
:10079C0000040050B4000020300002400A4B0268F4
:1007AC0010B504009A420ED1084A0949136C094845
:1007BC000B401364012101F0E7FD206D01F0DEFB1D
:1007CC000C2001F037FB10BD00240140001002404A
:1007DC00FFFFEFFF0004005013B50124104B032161
:1007EC009A6B092022439A639B6B0022234001934E
:1007FC00019B01F0E9FA092001F010FB0022032112
:10080C000A2001F0E1FA0A2001F008FB0022210085
:10081C000B2001F0D9FA0B2001F000FB13BDC046F0
:10082C0000100240F0B504278BB01422002105A85B
:10083C000BF037F9202101250226484B80245A6BF6
:10084C0024023A435A635A6B45483A400192019A42
:10085C005A6B0A435A635A6B0A400292029A5A6BB9
:10086C0021002A435A635A6B2A400392039A5A6B0B
:10087C0032435A635B6B002233400493049B01F0B8
:10088C00FBFDA02000223749C00501F0F5FD002238
:10089C001021354801F0F0FD0594002405A93048DD
:1008AC0006950794089401F0BDFC032305A92F4875
:1008BC00069305970794842701F0B4FCA020BF038E
:1008CC0005A9C00506970595079401F0ABFCA0207F
:1008DC00122305A9C00505930694079501F0A2FC07
:1008EC00A020204A05A9C0050592069507940894F6
:1008FC0001F098FC22230697402705A91A48059376
:10090C00079501F08FFC05A91548059706940795E6
:10091C0001F088FC102305A913480593069507944C
:10092C00089401F07FFC032305A90F480693059753
:10093C00079401F077FC22003100052001F044FA05
:10094C00052001F06BFA22003100072001F03CFA7F
:10095C00072001F063FA0BB0F0BDC0460010024056
:10096C00000800506080000000040050001400508B
:10097C0010B5134B134C01222360134B2000636002
:10098C000023E260A36023616361A361E3612362DE
:10099C0001F06AFF002801D000F05EF90021200070
:1009AC0002F0F0FA002801D000F056F900212000E6
:1009BC0002F00EFB002801D000F04EF910BDC0462D
:1009CC0000540040C00100205B3D300010B5134BBB
:1009DC00134C01222360134B200063600023E26060
:1009EC00A36023616361A361E361236201F03CFFB7
:1009FC00002801D000F030F90021200002F0C2FAEA
:100A0C00002801D000F028F90021200002F0E0FAC3
:100A1C00002801D000F020F910BDC046005800405D
:100A2C00740100205B3D300010B504008CB0142222
:100A3C00002107A80BF035F82368324A93423ED1C7
:100A4C00314B324C1A780223002A1BD0626B30488F
:100A5C001A436263626B07A913400193019BC02385
:100A6C000793AE3B08930C3B0B9301F0DBFB80220E
:100A7C00E36B92031343E363E36B13400293029B18
:100A8C000CB010BD626B22481A436263626B07A9FB
:100A9C0013400393039BC0235B0007936F3BFF3B07
:100AAC0008930C3B0B9301F0BDFB8022E36B92038C
:100ABC001343E363E36B13400493049BE0E7154A91
:100ACC009342DDD10122114CA020636B07A9134383
:100ADC006363636BC00513400593059BC0235B01E7
:100AEC000793122308930C3B0B9301F09BFB802282
:100AFC00E36BD2031343E363E36B13400693069B50
:100B0C00BEE7C046005400403C05002000100240E7
:100B1C0000040050005800400368134A10B593427B
:100B2C000ED1124A1249D36B12480B40D363802169
:100B3C0001F02AFC80210F48490001F025FC10BD72
:100B4C000D4A9342FBD1094A0C49D36BA0200B40B0
:100B5C008021C0050901D36301F016FC8021A0207F
:100B6C004901C005E9E7C0460054004000100240AE
:100B7C00FFFFDFFF0004005000580040FFFFBFFFE5
:100B8C0000B59DB0382200210EA80AF08AFF102271
:100B9C00002168460AF085FF0021282204A80AF0EB
:100BAC0080FF8020800002F059FA02230E93FE335E
:100BBC004022119300230EA812931392159302F066
:100BCC0079FA011E01D072B6FEE70723019002905C
:100BDC0003906846009302F0D5FC002801D072B651
:100BEC00FEE7074B07900B900C9004A8049302F0BF
:100BFC00A5FD002801D072B6FEE71DB000BDC046B1
:100C0C002040200010B500F02BFBFFF7B9FFFFF7D9
:100C1C0009FE00F04FFAFFF7DFFD00F01FF8FFF7B9
:100C2C00D5FEFFF7A5FEFFF719FD00F0C9F907F097
:100C3C00D3FE08F0F3FD08F039FEFCE710B5FFF722
:100C4C0097FE10BD034B026810B59A4201D100F01B
:100C5C001BFB10BD0048014072B6FEE7E0221148B4
:100C6C00114B10B503608223D200C26080225B005E
:100C7C004360002392008261F13AFF3A8360036182
:100C8C004361C261036243628362093A03630833BE
:100C9C00C262436302F01EFF002801D0FFF7DCFFA5
:100CAC0010BDC0460C0200200030014010B50400FD
:100CBC0088B01422002103A80AF0F3FE194B226815
:100CCC009A422CD18021184B49011A6C02240A43F8
:100CDC001A641A6CA0200A4001210092009A5A6BE7
:100CEC00C0050A435A635A6B0A400192019A5A6B27
:100CFC0003A922435A635B6B049423400293029B27
:100D0C008023039301F08EFA0823039300230748F2
:100D1C0003A9049405930693079301F083FA08B092
:100D2C0010BDC046003001400010024000040050CD
:100D3C00094B026810B59A420DD1A020074A084908
:100D4C00136CC0050B401364802101F01DFB0821BE
:100D5C00044801F019FB10BD0030014000100240A6
:100D6C00FFEFFFFF0004005001210A4B82B01A6C08
:100D7C000A431A641A6C0A4080210092009ADA6BBA
:100D8C0049050A43DA63DB6B0B400193019B02B00C
:100D9C007047C0460010024010B5010086B000221A
:100DAC00162001F011F8162001F038F88021144BB0
:100DBC00C9021A6C02A80A431A641B6C0B400193FB
:100DCC006946019B02F0A0FC02F08AFC0D4C0E4B14
:100DDC000E4923600E4BE360FFF7B4F90023013892
:100DEC00606020002361A36003F08CFA03000120F3
:100DFC00002B02D1200003F0D1F806B010BDC04684
:100E0C0000100240700200200048014040420F00D8
:100E1C00E7030000FEE7FEE770477047704710B528
:100E2C00012001F031FB022001F02EFB10BD10B5AA
:100E3C00202001F029FB10BD10B5024801F09EF9ED
:100E4C0010BDC046C403002010B5034801F096F94C
:100E5C00024801F093F910BD68030020B400002093
:100E6C0010B5024801F08AF910BDC046C00200203E
:100E7C0010B5024800F098FB10BDC04610010020D0
:100E8C0010B5024803F012F910BDC04670020020E4
:100E9C0010B5024803F0ACFF10BDC0462004002082
:100EAC000120704710B50AF05FFE16230360012085
:100EBC00404210BD10B50AF057FE16230360FEE742
:100ECC000B490C4A0300521A0B4910B5086800284C
:100EDC0001D10A4808600868C318934206D90AF081
:100EEC0043FE0C2303600120404210BD0B60FCE765
:100EFC000004000000200020BC020020A00C0020F8
:100F0C007047000037B5164B026805009A4226D18F
:100F1C008021144B09011A6C134C0A431A641B6C84
:100F2C0080220B400193019B104B22612360142300
:100F3C006360043BA3600023E360A3612033E3619F
:100F4C0080238132FF329B0120006261236200F01A
:100F5C00BBFF002801D0FFF77FFE6C62A56237BD96
:100F6C00002C014000100240C0020020440002404E
:100F7C0010B5040086B01422002101A80AF091FDDE
:100F8C000D4B22689A4214D101210C4BA0205A6BB4
:100F9C00C0050A435A635B6B0B400093009B802394
:100FAC005B00019301A9FE3B02930393059301F0AF
:100FBC0039F906B010BDC046002C014000100240AB
:100FCC0030B59DB01022002104A80AF06AFD0C2255
:100FDC00002101A80AF065FD1C22002108A80AF0D6
:100FEC0060FD342200210FA80AF05BFD2F4D304B21
:100FFC0013222B60002328006B60AB60EA602B612E
:10100C006B61AB6103F07EF9002801D0FFF724FE81
:10101C00802328005B0104A9049303F095FA0028AF
:10102C0001D0FFF719FE280003F096F9002801D033
:10103C00FFF712FE0023280001A9019302930393EA
:10104C0003F0AEFC002801D0FFF706FE002460235D
:10105C002200280008A9089309940A940B940C9474
:10106C000D940E9403F0DEF9A04201D0FFF7F4FDCD
:10107C0080239B011493802328009B040FA90F94B9
:10108C001094119412941394159416941794189315
:10109C0019941A941B9403F0B7FC002801D0FFF7A5
:1010AC00DBFD2800FFF764FF1DB030BD1C030020E2
:1010BC00002C01400C480D4B10B50360E1235B0282
:1010CC000C224360002342618360C360036183612F
:1010DC00C36103624362836204F0DCFC002801D02C
:1010EC00FFF7BAFD10BDC0462004002000440040AC
:1010FC0030B5050089B01422002103A80AF0D1FCF8
:10110C002C4B2A689A4252D180212B4B8902DA6BE4
:10111C00A0200A43DA63DA6BC0050A400192019AF7
:10112C000122596B114359635B6B03A91340029362
:10113C00029B0C2303930A3B0493079201F072F871
:10114C001E4C1F4B8022236034236360002320003D
:10115C00A360E36022616361A361E361236200F039
:10116C00B3FE002801D0FFF777FD164BEC67A562A4
:10117C00154C8022236035236360253BA36000233C
:10118C002000E36022616361A361E361236200F0EC
:10119C009BFE002801D0FFF75FFD1C2000220221DE
:1011AC00AC67A56200F010FE1C2000F037FE09B001
:1011BC0030BDC0460044004000100240C403002073
:1011CC00080002401C000240680300200C4B02681F
:1011DC0010B504009A4212D1A0200A4A0A49D36BD6
:1011EC00C0050B40D3630C2101F0CEF8E06F00F08A
:1011FC00C5FEA06F00F0C2FE1C2000F01BFE10BD4F
:10120C000044004000100240FFFFFDFF0D488546E2
:10121C00FFF776FE0C480D490D4A002302E0D45826
:10122C00C4500433C4188C42F9D30A4A0A4C002324
:10123C0001E013600432A242FBD30AF09BFCFFF7DF
:10124C00E1FCFEE7002000200000002094000020BC
:10125C00FCE0000898000020A00C0020FEE7000035
:10126C008023084A5B00116810B50B430320136000
:10127C00FFF792FD041E03D1FFF776FD200010BD91
:10128C000124FBE700200240034A044B11681B7841
:10129C005B1813607047C046B004002004000020A7
:1012AC00014B18687047C046B004002070B50400AC
:1012BC00FFF7F6FF0500631C02D0044B1B78E41803
:1012CC00FFF7EEFF401BA042FAD370BD04000020D4
:1012DC0080684007C00F70470023F0B585B004004C
:1012EC000393984200D1F0E0856D9D4205D1FFF744
:1012FC00FDF923005433E5651D70802325685B05DB
:10130C00AA681A4200D1A7E00022AB680192DB0068
:10131C0008D410230126A26D01961343A365E36D37
:10132C003343E3652800FFF7D3FF1022A36D13406E
:10133C00034300D0CCE0A26D674B20691A40063302
:10134C00FF331343A365AB68DB0761D4276BE168FC
:10135C007B1E9F41A368A27E0B43217E3F03890322
:10136C000B43617EC9030B4351030B439C4600287E
:10137C0000DB86E041004908230066462C331B78CD
:10138C005B0033433B430B43611CC97F012905D1EF
:10139C00002A00D078E0802252021343626A002AAD
:1013AC0005D0E02149000A40A16A0A431343EA68C8
:1013BC004A490A401343EB60230062683C33E16CFA
:1013CC001B78970FBF079C463943012B08D1236C20
:1013DC00666C33430B43A16C0B4361463B4319438F
:1013EC002B693F4F3B400B4380212B6153005B0823
:1013FC00C9058B420CD080231B069A4208D0394970
:10140C00394F0B683B40F027BF033A4013430B6046
:10141C00072170276B69626B8B4313436B6169699E
:10142C00A36BB9431B010B436B61002834D1102310
:10143C00A96A5B420B43AB6207216B690B409A4272
:10144C0039D10023E365A26D03339A43023B134366
:10145C00A365019805B0F0BDAA6824490A4013435E
:10146C00AB60234B23491868FEF76CFE013040003B
:10147C000390039B002B00D146E7039B013B039396
:10148C00F7E78021890377E72022A76D3A43A2650D
:10149C00E26D1143E16581E780239B039842CBD138
:1014AC001C21AB6AE369013B9B000B402C39994032
:1014BC000B00216EBEE71223A26D9A43023B13432D
:1014CC00A3650123E26D1343E36501230193C0E798
:1014DC00A36D1A43A265F8E7FDFEFFFF0102FEFFB4
:1014EC0002FCFF1F08270140FFFFC3FFE8FFFF6F4F
:1014FC0000000020400D03007047704710B5806A53
:10150C00FFF7FBFF10BD704770474023806A10B592
:10151C00826D134383650423C26D1343C365FFF7C8
:10152C00F3FF10BD502370B5846AA26D1A422DD101
:10153C00A26DB133FF331343A365C02325681B0190
:10154C00EA681A4215D1A37E002B12D12B681B0717
:10155C000FD52800FFF7BCFE00280ED10C226B68BB
:10156C0093436B60A26D0F4B1A400433FF3313434C
:10157C00A3652000FFF7C0FF70BD2023A26D1343AD
:10158C00A3650123E26D1343E365F2E7A36DDB066C
:10159C0003D52000FFF7B8FFEEE7236D5B6B984790
:1015AC00EAE7C046FEFEFFFFF8B5036804001E68BC
:1015BC005D6802231E420FD01D420DD0836DDB06E9
:1015CC0004D48023826D1B0113438365200000F03B
:1015DC00F9FB022223681A6004231E4201D01D422B
:1015EC0004D108231E422BD01D4229D0A36DDB064B
:1015FC0004D48023A26D9B001343A365C0232768EA
:10160C001B01FA681A4215D1A37E002B12D13B683C
:10161C001B070FD53800FFF75BFE002866D10C22A4
:10162C007B6893437B60A26D354B1A400433FF33C8
:10163C001343A3652000FFF75FFF0C2223681A6099
:10164C0080273E420BD03D4209D08023A26D5B0225
:10165C001343A3652000FFF756FF23681F60802704
:10166C007F003E420BD03D4209D08023A26D9B02ED
:10167C001343A365200000F0A3FB23681F608027A1
:10168C00BF003E420BD03D4209D08023A26DDB024D
:10169C001343A365200000F094FB23681F60102304
:1016AC001E4217D01D4215D0236B002B03D023688C
:1016BC00DB689B070BD08023A26DDB001343A36573
:1016CC000223E26D20001343E365FFF71DFF102298
:1016DC0023681A608027BF013E4206D03D4204D0E9
:1016EC00200000F070FB23681F60F8BD2023A26D62
:1016FC001343A3650123E26D1343E3659AE7C046E8
:10170C00FEFEFFFF0023F0B585B0039303000091AC
:10171C0054331A7804000220012A4CD00122276984
:10172C001A7025682800FFF7D3FD002800D0E9E0E7
:10173C00009B04225B6880219C4697436246009B79
:10174C0009061B68022A00D1B0E05A03520B8F42E3
:10175C0033D1A96A0A43AA62009A6869926819028D
:10176C006B4E0A403240884302436A61002B1EDAFA
:10177C00E021684A6848156849042940834200D032
:10178C007EE080200004054211D11368634D2B408C
:10179C000B431843624B106018686249FEF7D2FC89
:1017AC00431C0C2058430390039B002B64D1002056
:1017BC0000235434237005B0F0BD1F2167460F4041
:1017CC001039B940CE430196266E8E433100002A63
:1017DC0012D1980E1F321040B8406246084392084E
:1017EC00E169013220668A42B6D8A96A01989A004A
:1017FC00120FBA400140ADE701221342ECD192180E
:10180C0001201342E8D1100002321342E4D101301E
:10181C001A07E1D40130DA06DED401309A06DBD4A3
:10182C0001305A06D8D401301A06D5D40130DA0565
:10183C00D2D401309A05CFD401305A05CCD4013022
:10184C001A05C9D40130DA04C6D401309A04C3D4C1
:10185C0001305A04C0D401301A04BDD40130DA036B
:10186C00BAD401309A03B7D480221800D2021040A7
:10187C001342B1D01220AFE7039B013B039393E7D4
:10188C00294883420BD180204004054200D08EE7CA
:10189C001368224D2B400B431843106087E72348F5
:1018AC00834200D083E78020C003EEE78F4204D14F
:1018BC00AA6A5903490B8A43AA62002B00DB76E71C
:1018CC00144A15481168834208D1A02310685B04A0
:1018DC000B40124901400B43136068E712488342E6
:1018EC0003D1C02310681B04F2E71048834200D0D8
:1018FC005DE7C020400413680140084803401943C9
:10190C00116054E72023A26D01201343A3654FE718
:10191C0000FFFF0708270140001000B0FFFF3FFE4B
:10192C0000000020400D0300004000B8002000B46F
:10193C0070B5056804002800FFF7CAFC002801D127
:10194C00002070BDAB689B0705D4AA680F4B1A40EA
:10195C0010231343AB60FFF7A3FC04260500236898
:10196C009B683342ECD0FFF79BFC401B0228F6D956
:10197C0023689B683342F2D010230120A26D1343DD
:10198C00A365E36D0343E365DBE7C046E8FFFF7F38
:10199C000023F7B5026801939168013304001942E2
:1019AC0001D00020FEBD90682249084208D01022C8
:1019BC00A16D0A43A265E26D13430120E365F1E7D3
:1019CC0091681D4F39400B4393601C4B1B681B02E5
:1019DC0021D4637E012BE4D0FFF762FC01250600C5
:1019EC00226813682B42DCD193682B4203D1936895
:1019FC003B402B439360FFF753FC801B0228EFD92D
:101A0C0023681B682B42EBD11023A26D1343A365F3
:101A1C00E36D2B43D1E70A4B0A491868FEF792FB9A
:101A2C0001300190019B002BD3D0019B013B019312
:101A3C00F8E7C04617000080E8FFFF7F0827014049
:101A4C0000000020400D0300F7B5056804002800D5
:101A5C000E000192FFF73CFC022300283FD1270027
:101A6C0054373A78012A3AD0013B3B70EA681A4263
:101A7C000CD1AA681A4205D0AA681A4B1A40022344
:101A8C001343AB600123EA681343EB602000FFF7BC
:101A9C007FFF031E23D1A16D134A114080225200F7
:101AAC000A43A265E065114A206D2168C262104AA2
:101ABC000263104A42631C220A603B704A6810336E
:101ACC0013434B603200019B403100F09BFA030042
:101ADC002068044A8168114004220A43826018007D
:101AEC00FEBDC046E8FFFF7FFEF0FFFF311500088A
:101AFC0009150008171500080122036870B50400C9
:101B0C0098689968114201D1002070BD02210842E9
:101B1C00FAD105209D680540012D1ED19A68134805
:101B2C0002401143032299601A60FFF7B9FB0600CB
:101B3C0023689B682B42E7D0FFF7B2FB801B02287F
:101B4C00F6D923689B682B42F2D01023A26D134365
:101B5C00A365E36D2B43E36506E01023A16D0B43F6
:101B6C00A365E36D1A43E2650120CEE7E8FFFF7F32
:101B7C0070B504000125002840D00223826D134368
:101B8C008365FFF7D5FE051E0BD12000FFF7B4FFD0
:101B9C00051E01D10123A3652268194993680B40E6
:101BAC009360236817495A6800260A405A60164AFF
:101BBC0016491A60DA6820000A400721DA601A69AF
:101BCC005434920092081A615A698A435A611A6A0B
:101BDC000F490A401A625A6A0A405A62DA6A0A4083
:101BEC00DA629A6A0B4A9E6213680B490B401360C7
:101BFC00FEF7D4FDA660E66066602670280070BD16
:101C0C00E8FFFF6F60FCFFFF9F03000000023E83B4
:101C1C0000F000F008270140FFFF03FE70B506003E
:101C2C005436337804000225012B26D0012333705F
:101C3C00FFF77EFE051E1ED1206D831DDB7F022B60
:101C4C0008D100F027FA002804D040230500A26D2B
:101C5C001343A36510212268200053688B43536003
:101C6C00002D0CD1FFF748FF051E0BD00121226877
:101C7C00D3688B43D36000233370280070BDFFF70B
:101C8C003BFFF3E7A26D034B1A400433FF331343BE
:101C9C00A365EBE7FEFEFFFF0023F0B585B00393D1
:101CAC00030054331A7804000225012A3DD0012682
:101CBC001E70FFF721FF2368050099680A00324067
:101CCC00314207D01023A26D1343A3650023543473
:101CDC0023702AE008267F27A06D3449084006317E
:101CEC00FF310143A165D868314908400190D9689A
:101CFC0030480140D96098682F4908401831084392
:101D0C0098609868002813DA0398013003900399BF
:101D1C002A488142F5D91223A26D54349A43023BCE
:101D2C0013436360002323700125280005B0F0BD28
:101D3C001800B4300168013E39408C466244002ED4
:101D4C00D9D19E681C49D2080E40B4460126614682
:101D5C00314399600168B9430A4302609A68164995
:101D6C00114002220A439A60FFF79AFA070023688F
:101D7C009A68324208D1DA6801990A43DA60032280
:101D8C00A36D93433343A0E7FFF78AFAC01B0228E5
:101D9C00EDD923689B683342E9D01023A26D13431D
:101DAC00A365E36D3343E365BEE7C046FDFEFFFF6D
:101DBC0003800000FC7FFFFFE8FFFF7FFFF10200C4
:101DCC00704770477047704710B5FF2403220B0013
:101DDC0021000240D20091409B012340C943934013
:101DEC0000280ADBC0240B4A800880008018A4005D
:101DFC0002590A401343035110BD0F2210400838FA
:101E0C00054A800880008018C26911401943C161DD
:101E1C00F2E7C04600E100E000ED00E0002805DB41
:101E2C001F2318401E3B8340014A13607047C04675
:101E3C0000E100E0002809DB1F2318401E3B834013
:101E4C00034AD367BFF34F8FBFF36F8F7047C04602
:101E5C0004E100E0F0B5846CC56C6560046D002C89
:101E6C0002D0446D856D65601C24056C084E2540C0
:101E7C001B3CAC4077683C437460046863608368C7
:101E8C00102B02D1A260E160F0BDA160E260FBE723
:101E9C000000024010B50400036C094A9B089B1813
:101EAC009B00436400681421C0B20838FEF74AF95D
:101EBC00044BA3641F2318401E3B8340E36410BDF6
:101ECC000082001080080240F8B504000120002CAC
:101EDC0046D02568254B1421E818FEF733F9022368
:101EEC008000A61D2064F3772B68214AA768134055
:101EFC002B60E36821693B430B4361692A680B4300
:101F0C00A16920000B43E1690B43216A0B43134386
:101F1C002B60FFF7BFFF8023DB019F4201D1002321
:101F2C0063603F236268616C13400B60E06CA16CD2
:101F3C00013A4860032A14D80E4A0F489918012216
:101F4C00013B9A40A265130000228900216560655F
:101F5C000A60436000200123E0630534F377E077E7
:101F6C00F8BD002323656365A365F3E7F8FFFDBFA8
:101F7C000F80FFFF3F82001040090240F8B5012599
:101F8C0004002800002C34D0276814213B6800265C
:101F9C00AB433B60174BF818FEF7D4F81C238000BA
:101FAC00206418402B008340134A3E605168200087
:101FBC000B435360FFF76EFF636CE26C1E60A36C07
:101FCC005A6063685A1E032A06D895400B495B1861
:101FDC009B001E600A4B5D600020A31D20656065A0
:101FEC00A065E06220636063A063E0630534D8778A
:101FFC00E077F8BDF8FFFDBF000002403F82001003
:10200C0040090240F7B5451D0193EE7F0400022004
:10201C00012E33D00138E877A71DFE7FB446634606
:10202C00F6B200960026834230D10130F87725684D
:10203C00E6632868009B98432860019B2000FFF70B
:10204C0009FF236BB3421AD00E232A6813432B606B
:10205C00636C1A68D20304D58022196852000A43B3
:10206C001A60236D002B04D08022196852000A4399
:10207C001A60012300202A6813432B60FEBD042242
:10208C002B6893432B602A680A23DFE78023E363E2
:10209C00EE77F3E7F0B5002808D0841DE37F411DEF
:1020AC00022B05D00423C3630023CB770120F0BDA2
:1020BC000E250268466C1368AB4313603368104DF1
:1020CC002B403360012316689E431660026C1B3351
:1020DC001A401B3B93400B4E77683B437360C26CBA
:1020EC00836C5A60036D002B05D01A682A401A6065
:1020FC00436D826D5A6001230020E377C877D6E7E1
:10210C00FFFEFFFF00000240F8B5811DCB7F022BC4
:10211C0003D00423C3630120F8BD0E2402681C27DE
:10212C001368456CA3431360012314689C4314602B
:10213C002A68104C22402A60026C0F4D3A409340A2
:10214C006E6833436B60C26C836C5A60036D002BFA
:10215C0005D01A6822401A60436D826D5A600123C3
:10216C000022CB77431DDA77836B934200D09847DC
:10217C000020D1E7FFFEFFFF00000240F8B51C2451
:10218C000427016C264A21403C008C4016680368E9
:10219C001D6826420FD03D420DD01968890602D425
:1021AC001968B943196053681C43036B5460002BC6
:1021BC001BD0984719E002273C008C40264215D0D2
:1021CC003D4213D01968890606D40A251968A9431B
:1021DC0019600121831DD97753681C435460002278
:1021EC00431DDA77C36A9342E3D1F8BD0824270074
:1021FC008F403E42F9D02542F7D00E251C68AC43E7
:10220C001C6001231D008D4029005468214351603E
:10221C00821DC363D3770022431DDA77436BE2E759
:10222C00000002400023F0B585B00A681400DC40C1
:10223C0001D105B0F0BD012514009D402C40009447
:10224C002A4200D191E04A685F009446032264461A
:10225C0022400324BC40E4430194541E012C2ED88C
:10226C008668019C2640CC68BC403443846044683A
:10227C000126AC4325006446240934409C402C4381
:10228C004460C568019C25408C68BC402C43C460EC
:10229C00022A16D107250F261D40AD00AE40DC08E2
:1022AC00A40004190294246A03962600039CA643F6
:1022BC0034000E69AE402643029C266201E0032ADC
:1022CC00DFD1BA400468019D25402A43C024026036
:1022DC006246A402224248D0254A03259C08A40049
:1022EC00A4180F221D40ED00AA40A027266EFF0562
:1022FC0096430022B8420CD01E4F0132B84208D08F
:10230C001D4F0132B84204D01C4F0332B84200D1E9
:10231C00023AAA40674632432266154C009A266858
:10232C00009DD2433543FF0201D43500154067466A
:10233C0025606668009D3543BF0201D43500154009
:10234C00674665600E4C009DE66F3543BF0301D4B4
:10235C00350015406746E5670A4C009EE56F2E4335
:10236C00FF0301D415402E00E66701335DE7C0463C
:10237C00001802400004005000080050000C0050EF
:10238C000818024004180240F0B500230F0085B075
:10239C003A00DA4001D105B0F0BD01229A40140098
:1023AC0001923C40174253D02A4903259A089200C7
:1023BC0052180F211D40ED00A940166E02910E40DF
:1023CC000396A0260021F605B0420FD022498C4678
:1023DC00012160450AD021498C460221604505D077
:1023EC001F498C460321604500D00231A940039D52
:1023FC00A94212D11B4E1749F56FA543F5671A4E2A
:10240C00F56FA543F5674D68A5434D600D68A54371
:10241C000D60116E029CA1431166032459008C407F
:10242C0007210F26194089008E400268019922432A
:10243C000260DA0892008218156AB5431562826848
:10244C00A243826042688A434260C268A243C2606F
:10245C0001339DE7001802400004005000080050B2
:10246C00000C005004180240081802400069084093
:10247C00431E9841C0B27047002A01D08161704759
:10248C008162FCE77047000070B5084D0400EB68F2
:10249C00184202D0E860FFF7F5FF2B69234203D006
:1024AC0020002C6107F0D8F870BDC046001802401F
:1024BC0003689A69920701D500229A6201229969F0
:1024CC00114202D199690A439A61704730B5039C55
:1024DC0000682343120489051A43890D054B45688E
:1024EC000A43640D234352009D4352082A43426021
:1024FC0030BDC046FF63FF03F0B51500026885B020
:10250C000191916910230E0004001E400020194215
:10251C000AD00700D361236820219A690A426ED140
:10252C00002F2FD004260120802225685200AB6991
:10253C00134202D00120EA6106438022D2001342EA
:10254C0003D0082101200E43EA618022920013423D
:10255C005AD00223EA611E432000FFF7A9FF6B68E3
:10256C002B4A012013406B60636C2022334363645D
:10257C00230041331A70220000234232403413707E
:10258C00237043E0019A0132C6D0FEF789FE019B0D
:10259C00401B984201D8002BBDD122002368423247
:1025AC000292586811789A69C9B212040BD580222C
:1025BC00D201104207D1202905D059680A435A602C
:1025CC00FEF76EFE0500202611E0FEF769FE401BAB
:1025DC0019280CD9636C039A334363642300413389
:1025EC001E70029B01271A70230040331A70236857
:1025FC009B691A00324003923342E6D08BE7002FDE
:10260C0090D12022DA618DE70028A5D105B0F0BD6C
:10261C0000E800FEF8B504000D0016000227236840
:10262C009B693B4201D000201DE0320029002000B4
:10263C00FFF762FF002815D16B1CF0D0FEF730FEBF
:10264C00801BA84201D8002DE9D12022636C1343D2
:10265C006364230041331A70220000234232403459
:10266C00137023700120F8BDF8B504000D0016009E
:10267C00202723689B693B4201D000201BE03200DD
:10268C0029002000FFF738FF002813D1FEF708FEC1
:10269C00801BA84201D8002DEBD12022636C134380
:1026AC006364230041331A70220000234232403409
:1026BC00137023700120F8BDF8B504000D0016004E
:1026CC00042723689B693B4211D13200290020006A
:1026DC00FFF712FF002824D1202123689A690A42AF
:1026EC0023D09A693A4204D0228D002A01D00020CE
:1026FC00F8BD9969102208001040114213D0DA611C
:10270C000C3A62642021D9615A68104802405A6020
:10271C0023002200413319700023423213704034DD
:10272C0023700120E4E76064ECE7FEF7B9FD801B41
:10273C00A84201D8002DC4D12022636C13436364DA
:10274C00230041331A7040340023E9E700E800FE0F
:10275C00F8B504000E0017001D0022689369334081
:10276C009B1B59424B41BB4201D0002017E06B1C14
:10277C00F4D0FEF795FD069BC01AA84201D8002D97
:10278C00EBD12022636C012013436364230041339B
:10279C001A70220000234232403413702370F8BDAB
:1027AC00F7B514001E00DAB2154B05000093802318
:1027BC00099F5B04FFF78AFE3A0028000899FFF78F
:1027CC0029FF002801D00120FEBD2B68012E0CD161
:1027DC00E4B29C62089B0022802128000097FFF73E
:1027EC00B7FF431E9841C0B2EEE7220A9A62280056
:1027FC003A000899FFF70EFF0028E4D12B68E7E7B1
:10280C0000200080F7B5050014001E00DAB2154B4D
:10281C00099F00930023FFF759FE3A0028000899FE
:10282C00FFF7F8FE002801D00120FEBD2B68012E19
:10283C000CD1E4B29C62089B002240212800009736
:10284C00FFF786FF431E9841C0B2EEE7220A9A6258
:10285C0028003A000899FFF7DDFE0028E4D12B6828
:10286C00E7E7C0460020008070B504000120002C72
:10287C003FD0250041352B78DAB2002B05D123004F
:10288C00403320001A70FEF7CFF8242301212B705F
:10289C002368E0681A68A6688A431A601A49626855
:1028AC000A401A619A6819490A409A60012821D194
:1028BC008022120232439A605868154A02435A60C9
:1028CC00DA6800200A40DA60616922690A43A1696A
:1028DC0009020A43DA60216AE2690A431A6001229A
:1028EC0019680A431A60202360642B7020634234F9
:1028FC00207070BD8422120232439A600228DBD110
:10290C00802212015A60D7E7FFFFFFF0FF7FFFFF25
:10291C000080000270B504000120002C13D02500AB
:10292C00242341352B7022681368834313602000E5
:10293C00FEF7F2F800202300606442332870206315
:10294C0040341870207070BDF0B5060085B002924E
:10295C0003934136337804000F000220202B14D14E
:10296C00230040331A78012A0FD001221A70FEF787
:10297C0097FC8021050000901923012220000902F8
:10298C00FFF7E6FE002802D0012005B0F0BD2123A0
:10299C0033702600113B42363370029B60646362D5
:1029AC00039B60636385628D2B4BFF2A20D9FF222A
:1029BC002285009380235B0439002000FFF786FDFD
:1029CC00638D2A0020000A99002B19D1FFF74CFEC9
:1029DC000028D9D120212368204DD9615A682A407A
:1029EC005A60230040344133197030702070CCE7AA
:1029FC00628D92B22285D2B2009380239B04DBE7D6
:102A0C00FFF708FE0028BFD1636A226819780133EA
:102A1C0091626362638D228D013B9BB26385013AA7
:102A2C00638D92B22285002BCAD0002AC8D1802196
:102A3C0020000A9B0095FFF78BFE0028A4D1638D24
:102A4C00FF2B03D9FF2222850090B3E7628D92B24F
:102A5C002285D2B20090D0E70020008000E800FE72
:102A6C00F0B5060085B0029203934136337804002A
:102A7C000F000220202B14D1230040331A78012A96
:102A8C000FD001221A70FEF70BFC8021050000907C
:102A9C001923012220000902FFF75AFE002802D058
:102AAC00012005B0F0BD222333702600123B4236C4
:102ABC003370029B60646362039B60636385628D09
:102ACC002C4BFF2A20D9FF222285009380235B0404
:102ADC0039002000FFF7FAFC638D2A0020000A99C8
:102AEC00002B19D1FFF7C0FD0028D9D12021236874
:102AFC00214DD9615A682A405A6023004034413331
:102B0C00197030702070CCE7628D92B22285D2B2EF
:102B1C00009380239B04DBE7FFF7CEFD0028BFD199
:102B2C0023685A6A636A1A70636A228D013363627E
:102B3C00638D013A013B9BB26385638D92B2228512
:102B4C00002BC9D0002AC7D1802120000A9B0095F8
:102B5C00FFF7FEFD0028A3D1638DFF2B03D9FF22C5
:102B6C0022850090B2E7628D92B22285D2B200909B
:102B7C00CFE7C0460024008000E800FEF0B5070057
:102B8C0089B007930EAB069204CB02911B8804927A
:102B9C00059341373B7804000220202B08D1002AF2
:102BAC0002D0059B002B05D180239B006364012080
:102BBC0009B0F0BD2300403303931B780220012B96
:102BCC00F6D00126039B1E70FEF76AFB80213200B3
:102BDC0000900500192320000902FFF7B9FD061E1D
:102BEC00E5D121233B7027001F3342373B70049BF8
:102BFC0060646362059B60636385109B2000009397
:102C0C00069A079B02990195FFF7CAFD002802D08E
:102C1C00039B1E70CBE7638DFF2B4FD9FF228023C4
:102C2C0022855B04009020000299FFF74FFC2A00DC
:102C3C0020001099FFF7EEFC0028B8D1636A2268D7
:102C4C001978013391626362638D228D013B9BB2D3
:102C5C006385013A638D92B22285002B15D0002A30
:102C6C0013D180212000109B0095FFF771FD0028E7
:102C7C009DD1638DFF2B29D9FF22802322855B04F4
:102C8C00009020000299FFF721FC638D002BCED120
:102C9C002A0020001099FFF7E7FC002800D086E7F7
:102CAC00202123680D4DD9615A682A405A602300AF
:102CBC004034413319703870207079E78023628D6D
:102CCC009B0492B22285D2B20090ACE78023628D35
:102CDC009B0492B22285D2B20090D2E700E800FEAB
:102CEC00F0B5070089B007930EAB069204CB0291A6
:102CFC001B880492059341373B7804000220202B5B
:102D0C0008D1002A02D0059B002B05D180239B0003
:102D1C006364012009B0F0BD2300403303931B789A
:102D2C000220012BF6D00126039B1E70FEF7B8FA89
:102D3C008021320000900500192320000902FFF7C2
:102D4C0007FD061EE5D122233B7027001E334237B8
:102D5C003B70049B60646362059B60636385109B9E
:102D6C0020000093069A079B02990195FFF74AFDF4
:102D7C00002802D0039B1E70CBE7628D334BFF2AD9
:102D8C0053D9FF222285009380235B0420000299F3
:102D9C00FFF79CFB002204212000109B0095FFF7FD
:102DAC00D7FC0028B5D123685A6A636A1A70636A23
:102DBC00228D01336362638D013A013B9BB26385C3
:102DCC00638D92B22285002B16D0002A14D180215B
:102DDC002000109B0095FFF7BBFC002800D098E763
:102DEC00638DFF2B29D9FF22802322855B04009061
:102DFC0020000299FFF76AFB638D002BCAD12A00D1
:102E0C0020001099FFF730FC002800D081E720212A
:102E1C0023680F4DD9615A682A405A602300403408
:102E2C00413319703870207074E7628D92B222852C
:102E3C0000938023D2B29B04A8E78023628D9B046D
:102E4C0092B22285D2B20090D2E7C0460024008014
:102E5C0000E800FEF0B51D00002389B007930300C5
:102E6C004133059203931B7804000220202B59D187
:102E7C0023689E69802332001B021A401E4251D1E6
:102E8C00230040331E78012E4CD001261E702423C3
:102E9C000398890503708B0D62640493E368012B1E
:102EAC0029D1374B049A134322685360FEF7F8F983
:102EBC0002902268936992695B091209334032408F
:102ECC0013431BD0236810279B691A003A403B42DE
:102EDC002AD1029B2021009320002B00FFF738FC05
:102EEC0000281ED120232268D361220040344132B5
:102EFC001370207016E0A0239B01D3E76B1CD8D075
:102F0C00FEF7CEF9029BC01AA84201D8002DD0D1F1
:102F1C002023039A403413706268134363600023C8
:102F2C002370012009B0F0BD029B002200932021E8
:102F3C002B002000FFF70CFC021EF2D12368059831
:102F4C00DF612027DF61079981420FD1802158680A
:102F5C00C90101435960029B3900009320002B00EA
:102F6C00FFF7F6FB0028DCD12368DF61079B059A8D
:102F7C0001330793079B934200D28FE7C8E7C04603
:102F8C0000200002F0B504004134227803000F0049
:102F9C000220D6B2202A18D11D0040352A78012AE9
:102FAC0013D0242222701B68233A196807489143D6
:102FBC0019601968014000201960196839431960BB
:102FCC0019680A431A6026702870F0BDFFEFFFFFE6
:102FDC000200F0B5413214780300E5B20220202C37
:102FEC0017D11C0040342678012E12D022301070DC
:102FFC001B6823381E68074F86431E601E68090233
:10300C003E40314319601968084318600020157060
:10301C002070F0BDFFF0FFFF10B50E4B0724002809
:10302C0011D001221868A04302431A6004220A4BF3
:10303C00186902431A61012908D130BF04211A69A9
:10304C008A431A6110BD1A68A243EEE740BF20BF45
:10305C0020BFF3E70070004000ED00E010B5114C0C
:10306C001149236802000B40034323608023002096
:10307C009B009A420ED10D4B0D49186806235843FC
:10308C00FDF760F88022431CD200616908001040F3
:10309C00114200D110BD002B01D0013BF5E70320FC
:1030AC00F8E7C04600700040FFF9FFFF0000002069
:1030BC0040420F00F0B5040085B0002802D1012079
:1030CC0005B0F0BD0368DB0710D423689B075CD404
:1030DC0023681B0700D5C1E023685B0700D5F2E02D
:1030EC00E369002B00D079E10020E9E73822AF4DED
:1030FC00AB681340EA68102B09D1D3439B0708D166
:10310C002B689B03E1D56368002BDED1D7E7082B36
:10311C00F6D0802263685202934211D12A6813437D
:10312C002B60FEF7BDF880270600BF022B683B42E0
:10313C00CBD1FEF7B5F8801B6428F7D90320BFE785
:10314C00A021C9028B4208D180232968DB020B43E2
:10315C002B602B681A432A60E3E72A6894490A40DB
:10316C002A602A6893490A402A60002BD9D1FEF7BD
:10317C0097F880270600BF022B683B42A5D0FEF7CC
:10318C008FF8801B6428F7D9D8E73822874DAB68B5
:10319C001340EA68102B28D103210A40022A26D1B9
:1031AC002A68520503D5E268002A00D187E76968CE
:1031BC0062698148120201400A436A60002B0CD1FB
:1031CC002B687E4A7E491340226913432B602B687F
:1031DC007C4A9B045B0FDA400A607B4B1868FDF756
:1031EC00DBFD002800D173E769E7002BD8D0E3683A
:1031FC00002B20D02B68714A802713402269FF00D6
:10320C0013432B6080232A685B0013432B60FEF76B
:10321C0047F806002B683B4207D06A686369664929
:10322C001B020A4013436B6052E7FEF739F8801B10
:10323C000228EFD982E72B68644A802713402B6061
:10324C00FEF72EF80600FF002B683B4200D13FE74B
:10325C00FEF726F8801B0228F6D96FE73822534D6B
:10326C00AB681340182B08D12B6E9B0700D433E7A7
:10327C00A369002B00D02FE721E7A2690123002AC4
:10328C0010D02A6E022713432B66FEF709F80600AE
:10329C002B6E3B4200D01FE7FEF702F8801B022882
:1032AC00F6D94BE72A6E02279A432A66FDF7F8FFF8
:1032BC0006002B6E3B4200D10EE7FDF7F1FF801BA1
:1032CC000228F6D93AE73822384DAB681340202B48
:1032DC0008D1EB6D9B0700D402E7A368002B00D04C
:1032EC00FEE6ECE680220021EB6B520500911342C6
:1032FC0008D1EB6B1343EB63EB6B13400393039B12
:10330C00012300938027324E7F0033683B4215D057
:10331C00A368012B22D1EA6D1343EB65FDF7C0FFC7
:10332C0002270600EB6D3B4238D0009B012B00D0EE
:10333C00D6E6EB6B274A1340EB63D1E633683B438D
:10334C003360FDF7ADFF019033683B42E0D1FDF7F0
:10335C00A7FF019BC01A0228F6D9EFE6EA6D052BF0
:10336C0005D1013B1343EB65EA6D0123D4E7012141
:10337C008A43EA65EA6D03318A43EA65002BCDD1B5
:10338C00FDF78EFF02270600EB6D3B42CDD0FDF71B
:10339C0087FF114B801B9842F6D9CFE6FDF780FFD3
:1033AC000D4B801B9842BDD9C8E6C04600100240A8
:1033BC00FFFFFEFFFFFFFBFFFF80FFFFFFC7FFFFCD
:1033CC00000000200024F40008000020FFFEFFFF96
:1033DC0000700040FFFFFFEF881300003821434DC1
:1033EC00AA680A40102A53D0414A022B3AD12B68C2
:1033FC00802713402B60FDF753FF0600BF042B689A
:10340C003B4229D1616A236AEA680B433949802619
:10341C000A401343E26AB6041343226B1343626BF4
:10342C001343A26A12021343EB6080232A685B04E5
:10343C0013432B608023EA685B051343EB60FDF7B5
:10344C002FFF04002B68334200D04DE6FDF728FF18
:10345C00001B0228F6D971E6FDF722FF801B02281B
:10346C00CDD96BE62B68802613402B60FDF718FF37
:10347C000400B6042B68334204D1EB681E4A134097
:10348C00EB6031E6FDF70CFF001B0228F2D955E684
:10349C00012B00D113E60322E868216A02408A421C
:1034AC0000D00CE67022616A02408A4200D006E627
:1034BC00FE21A26AC90101401202914200D0FEE530
:1034CC00F822E16A920302408A4200D0F7E5E0223A
:1034DC00216B120502408A4200D0F0E5636B400F6D
:1034EC004007C01A431E9841C0B2E9E500100240E3
:1034FC00FFFFFFFE8C80C111FCFFFEEE382370B580
:10350C001D4CA2681A4205D123681C489B045B0F12
:10351C00D84070BDA2681A40082A27D0A2681A4069
:10352C00102A17D1E368E168DB43E5684906490FC7
:10353C006F322D0A013115409B0709D11048FCF759
:10354C0001FEE1686843490F0131FCF7FBFDE0E740
:10355C000A48F4E7A2681A40202A09D0A268002081
:10356C001340182BD5D1FA20C001D2E70448D0E77C
:10357C0080200002CDE7C046001002400024F40079
:10358C0000127A00F7B504000D00002801D10120CB
:10359C00FEBD07274A4E33683B408B422AD3226834
:1035AC0093073BD4D20748D4072733683B40AB4240
:1035BC000AD93368BB432B433360FDF771FE01908E
:1035CC0033683B40AB426BD123683E4D5B076FD4F5
:1035DC00FFF794FFAB683C491B051B0F9B005B5826
:1035EC001F210B40D840394A394B10601868FDF741
:1035FC00D3FBCDE73368BB430B433360FDF750FE81
:10360C00019033683B40AB42C9D0FDF749FE019BAA
:10361C00C01A304B9842F4D90320B9E72949530713
:10362C0004D5E0238868DB0103438B608B682A4850
:10363C000340A06803438B60B4E76268214F012A02
:10364C0019D13B689B03A2D50721BB688B4313435D
:10365C00BB60FDF725FE01903823BA681A406368F9
:10366C00DB009A42A0D0FDF71BFE019BC01A194B40
:10367C009842F1D9D0E7022A03D13B689B01E3D4ED
:10368C0085E7002A03D13B685B05DDD47FE7022385
:10369C00032A03D1396E1942D6D178E7F96DFAE7CE
:1036AC00FDF7FEFD019BC01A0A4B984288D9B3E77F
:1036BC00AB680A4A1340E2681343AB6088E7C04624
:1036CC0000200240001002408CC2000800000020C4
:1036DC000800002088130000FFF0FFFFFF8FFFFFA2
:1036EC00064B07499B68074A5B045B0F9B005B58C2
:1036FC001F2110680B40D8407047C0460010024094
:10370C006CC2000800000020072230B5F025094BE0
:10371C0002609C682D01144044609C682C408460BD
:10372C00E0249B68E4012340C360034B1B681340F7
:10373C000B6030BD0010024000200240F0B5036861
:10374C00050085B000209B0352D580225F4C5205AA
:10375C00E36B0090134208D1E36B1343E363E36B19
:10376C0013400393039B012300938027584E7F0043
:10377C0033683B433360FDF793FD019033683B4264
:10378C0028D0E16DC022080092006B6A10401142F3
:10379C0018D098420CD0E36D4E4AE16D1340802254
:1037AC0052020A43E265E26D4B490A40E265E36569
:1037BC00DB0707D5FDF774FD02270600E36D3B42DE
:1037CC0000D17BE0E36D434A002013406A6A134347
:1037DC00E36506E0FDF764FD019BC01A0228CDD914
:1037EC000320009B012B03D1E36B3C4A1340E363A2
:1037FC002B68DA0706D5032434494A6DA2436C685A
:10380C0022434A65DA0606D53049354C4A6D2240CA
:10381C00AC6822434A659A0506D52C49314C4A6D51
:10382C0022406C6922434A655A0506D527492E4C1D
:10383C004A6D2240AC6922434A659A0606D5234953
:10384C002A4C4A6D2240EC6822434A655A040FD533
:10385C001E49EC694A6D9200920822434A65802207
:10386C00D205944204D18022CC6852022243CA6011
:10387C009A020FD515491E4E4A6D2C6A32402243CE
:10388C004A658022D203944204D18022CC6852042F
:10389C002243CA601B050FD50C4A164C536D29697F
:1038AC0023400B4353658023DB01994204D18023D1
:1038BC00D1685B020B43D36005B0F0BDFDF7F0FCA3
:1038CC000D4B801B984200D878E789E70010024026
:1038DC0000700040FFFCFFFFFFFFFEFFFFFFFFEF4C
:1038EC00FFF3FFFFFFFFF3FFFFFFCFFFFFCFFFFF54
:1038FC00FFFFBFFFFF3FFFFF88130000F0B50E0076
:10390C0085B015000400FDF7CBFCAD192D1AFDF7A1
:10391C00C7FC8027254B01901B685B011B0D6B437B
:10392C00039322689368180038403B4232D0731CD2
:10393C00F8D0FDF7B5FC019BC01AA8422CD3E021AE
:10394C0023685A688A435A60822261685200914205
:10395C000CD18021A26809028A4203D08021C900BF
:10396C008A4203D140211A688A431A608021A26AD4
:10397C0089018A4206D119680D48014019601968FD
:10398C000A431A60230001225D331A7000230320BE
:10399C005C34237005B0F0BD039B002B00D02B00D2
:1039AC00039A1D00013A0392BBE7C04600000020B9
:1039BC00FFDFFFFFF0B51700002285B01D0002AB42
:1039CC00DA7004000E00FDF76BFCED192D1AFDF7F3
:1039DC0067FC23222368009001932A4B1B685343F6
:1039EC001B0D6B43039302AB2168DA1C8B68180028
:1039FC00304033423BD0C023DB009E4204D1019BBC
:103A0C001B7BDBB2137013787B1CEFD0FDF748FCEB
:103A1C00009BC01AA8422CD3E02123685A688A4321
:103A2C005A6082226168520091420CD18021A268B6
:103A3C0009028A4203D08021C9008A4203D1402165
:103A4C001A688A431A608021A26A89018A4206D1C7
:103A5C0019680D480140196019680A431A6023005F
:103A6C0001225D331A70002303205C34237005B0EF
:103A7C00F0BD039B002B00D02B00039A1D00013AD4
:103A8C000392B0E700000020FFDFFFFF70B51300CA
:103A9C000D0016000A00C02149010400FFF78AFF3F
:103AAC00002805D020230320226E1343236670BD0B
:103ABC00320029002000FFF721FF0028F2D1C0219D
:103ACC0033002A002000C900FFF774FF0028EED055
:103ADC00E8E70000F8B504000120002C67D0636A09
:103AEC00002B65D1822261685200914200D0E361C3
:103AFC0000232500A3625D352B78DAB2002B05D1AB
:103B0C0023005C3320001A70FDF7D0F8022340220A
:103B1C002B702168E6680B689343E0220B60D2009F
:103B2C000023964248D9F02218001201964200D088
:103B3C00A36282228427636852001340A2683F026A
:103B4C003A40022713432269A5693A4013430122E4
:103B5C00676917403B438027BF002F403B43E76911
:103B6C00373217403B43276A4832174080223B4389
:103B7C00A76A920117403B43102708220B60636A27
:103B8C002D0C3B40676B17403B43F0273F013E40F9
:103B9C003343042635402B4303434B60CB69084821
:103BAC0003400020CB61012320665D342370F8BDF7
:103BBC000023236163619BE780204001B6E7C04688
:103BCC00FFF7FFFF70B504000120002C10D025007A
:103BDC00022340215D352B702268200013685C3471
:103BEC008B431360FDF7A4F80020606028702070F0
:103BFC0070BDF0B51E00030085B05C3301931B78DB
:103C0C0004000D0017000220012B00D17DE00123E0
:103C1C00019A1370FDF744FB230000905D331A7872
:103C2C00D0B2012A00D09FE0002D68D0002F66D0C2
:103C3C0002321A700023A21D23662364A563A78792
:103C4C00E78702329387D3872365E3648023A168D7
:103C5C0022681B02994208D1402113688B431360E0
:103C6C0080231168DB010B43136040231168194258
:103C7C0002D111680B431360E021E0686368C9004E
:103C8C00884244D9002B01D0012F07D12B88023553
:103C9C00D360E38FA563013B9BB2E38702250CE065
:103CAC00226893682B4221D0A36B19880233D16010
:103CBC00A363E38F013B9BB2E387E38F002BEFD130
:103CCC0031002000009AFFF7E1FE002849D1A368DB
:103CDC00002B06D103932368DA6803929B68039345
:103CEC00039B206E431E9841C0B208E0FDF7D8FA42
:103CFC00009BC01AB042E0D3731CDED0032001231A
:103D0C005D3423700023019A137005B0F0BD002BB5
:103D1C0001D0012F08D12B781373A36B0133A3634C
:103D2C00E38F013B9BB2E38702250DE023689A6881
:103D3C002A420DD0A26B12781A73A36B0133A363C2
:103D4C00E38F013B9BB2E387E38F002BEED1B7E708
:103D5C00FDF7A6FA009BC01AB042F5D3731CF3D042
:103D6C00CCE720232366B2E70220C8E70122036ACE
:103D7C0070B593430362036A164A4468856915401B
:103D8C000A681543022293438A681343124A9042ED
:103D9C0005D0124EB04202D0114EB04213D10826BB
:103DAC00B343CE6833430426B343904205D00B4A49
:103DBC00904202D00A4A904205D10A4A8E692240AA
:103DCC004C69344314434A6844608561426303621E
:103DDC0070BDC0468CFFFEFF002C0140004401402A
:103DEC0000480140FFFCFFFF036A174A70B51340FF
:103DFC000362056A154B4268C4691C400B681C437E
:103E0C00134B1D408B681B022B43124DA8420ED145
:103E1C00114D1D40CB681B022B43104D2B40104DF8
:103E2C004E6915408A69324312012A4305E00D4D53
:103E3C00A842F4D00C4DA842F1D042604A68C4614B
:103E4C00C263036270BDC046FFFEFFFF8CFFFEFF26
:103E5C00FFFDFFFF002C0140FFF7FFFFFFFBFFFF03
:103E6C00FFCFFFFF0044014000480140036A124AA3
:103E7C0030B513400362046A104D4368C2692A408E
:103E8C000D682D0215430E4A14408A681203224312
:103E9C000C4CA04205D00C4CA04202D00B4CA042C2
:103EAC0004D10B4C1C404B699B01234343604B6872
:103EBC00C5610364026230BDFFEFFFFFFF8CFFFEA4
:103ECC00FFDFFFFF002C014000440140004801408F
:103EDC00FFBFFFFF036A70B5104C114A2340036209
:103EEC00066A4368456D15400A6815430D4A16402D
:103EFC008A68120432430C4EB04205D00B4EB042CD
:103F0C0002D00B4EB04203D11C404B691B02234321
:103F1C0043604B6845658365026270BDFFFFFEFF21
:103F2C008FFFFEFFFFFFFDFF002C0140004401400E
:103F3C0000480140036A124A30B513400362046A18
:103F4C00104D4368426D2A400D682D0215430E4AF0
:103F5C0014408A68120522430C4CA04205D00C4C2C
:103F6C00A04202D00B4CA04204D10B4C1C404B691C
:103F7C009B02234343604B684565C365026230BDB9
:103F8C00FFFFEFFFFF8FFFFEFFFFDFFF002C014065
:103F9C000044014000480140FFFFFBFF010003000B
:103FAC00012010B53D310C78E2B284421CD10018CE
:103FBC0008701B68D9681143D9600D498B4206D033
:103FCC008021C9058B4202D00A498B420DD19A68D7
:103FDC0009490A40062A06D007398A4203D0012231
:103FEC0019680A431A60002010BD1968F9E7C04629
:103FFC00002C01400004004007000100704770478E
:10400C00704710B5846A626A82420DD1012323770E
:10401C00D269002A02D122003E321370200003F034
:10402C0093F90023237710BDA36A834209D102229E
:10403C002277DB69002BF1D12300013A3F331A7050
:10404C00ECE7E36A834208D104222277DB69002B78
:10405C00E4D12300033A4033F1E7236B8342DDD1F3
:10406C0008222277DB69002BD8D12300073A413391
:10407C00E5E710B5846A636A834207D1012323778D
:10408C00200003F01DF90023237710BDA36A83429F
:10409C0001D10223F3E7E36A834201D10423EEE763
:1040AC00236B8342ECD10823E9E7704702220368B3
:1040BC0010B51969040011420ED0D96811420BD009
:1040CC00053A1A61043202779B699B0700D186E09E
:1040DC00FFF796FF00232377042223681969114206
:1040EC0011D0D96811420ED0093A1A6107322277E1
:1040FC009A69C0239B0020001A4200D175E0FFF79B
:10410C007FFF0023237708222368196911420ED000
:10411C00D96811420BD0113A1A610D322277DB6942
:10412C0020009B0767D0FFF76BFF0023237710223B
:10413C0023681969114210D0D96811420DD0213A67
:10414C001A6119322277DA69C0239B0020001A42C7
:10415C0057D0FFF755FF00232377012223681969F5
:10416C00114207D0D968114204D0033A20001A61D9
:10417C00FCF768FD802223681969114208D0D968C0
:10418C00114205D0023AFF3A20001A6100F09BFC64
:10419C0023681A69D20507D5DA68120604D51C4AB9
:1041AC0020001A6100F090FC40222368196911422A
:1041BC0007D0D968114204D0813A20001A61FFF768
:1041CC0074FF202223681969114207D0D968114263
:1041DC0004D0413A20001A6100F074FC10BDFFF7C6
:1041EC000EFF200003F0B0F874E7FFF708FF200083
:1041FC0003F0AAF885E7FFF702FF200003F0A4F80C
:10420C0093E7FFF7FCFE200003F09EF8A3E7C046FF
:10421C00FFFEFFFF704710B5846A636A834205D1C5
:10422C000123220023773E32137008E0A36A8342F5
:10423C000BD102232377230001223F331A70200075
:10424C00FFF7E8FF0023237710BDE26A01238242C7
:10425C0004D10422227722004032E5E7226B82420D
:10426C0004D10822227722004132DDE722003D32C0
:10427C00DAE700001D4A10B50368904206D080248E
:10428C00E405A04202D01A4CA0420CD17024A343E6
:10429C004C68234390420FD08024E405A0420BD0FD
:1042AC00134CA04208D0134CA04205D0124CA04293
:1042BC0002D0124CA04203D1114C1C40CB682343BA
:1042CC008024A3434C69234303608B68C3620B684F
:1042DC008362904205D0084B984202D0074B98421B
:1042EC0001D10B6903630123436110BD002C014014
:1042FC000004004000200040004401400048014000
:10430C00FFFCFFFF70B504000120002C23D025001A
:10431C003D352B78DAB2002B05D123003C3320003D
:10432C001A70FCF7EFFD02232B702068211DFFF79C
:10433C00A1FF2200012300204832137047340A3AAF
:10434C00137053709370D370137153719371D37145
:10435C00137223702B7070BD70B504000120002CFB
:10436C0023D025003D352B78DAB2002B05D1230064
:10437C003C3320001A70FFF741FE02232B7020689B
:10438C00211DFFF777FF2200012300204832137014
:10439C0047340A3A137053709370D370137153717E
:1043AC009371D371137223702B7070BD1022036A3A
:1043BC0070B593430362056A154C426883692340C8
:1043CC000C6824021C4320239D438B681B012B4348
:1043DC00104DA8420FD18025AB431E00CB68403D49
:1043EC001B013343AB430C4D4E6915408A69324374
:1043FC0092002A4305E0094DA842F4D0084DA8428A
:10440C00F1D042604A6884618263036270BDC04629
:10441C00FF8CFFFE002C0140FFF3FFFF0044014026
:10442C0000480140F8B507003C3715003A78030006
:10443C000C000220012A0CD0013838700C2D51D000
:10444C0008D8042D2DD0082D3CD0002D17D00023DA
:10445C003B70F8BD102D58D0142DF8D11D682800D4
:10446C00FFF768FD80236A6D1B0113436B656B6D51
:10447C002E4A13406B6523696A6D1B0253E01D685D
:10448C002800FFF773FC0823AA6913430422AB61CD
:10449C00AB699343AB61AB6922691343AB610020F9
:1044AC00D5E71D682800FFF781FF8023AA691B014F
:1044BC001343AB61AB691D4A1340AB612369AA6915
:1044CC001B02EAE71E683000FFF78EFC0422F3693A
:1044DC001D43F561F3699343F361F3692269134357
:1044EC00F361DCE71D682800FFF7C0FC8023EA6954
:1044FC001B011343EB61EB690C4A1340EB6123691D
:10450C00EA691B021343EB61C9E71D682800FFF73A
:10451C00E1FC08236A6D134304226B656B6D9343B6
:10452C006B656B6D226913436B65B8E7FFFBFFFF8F
:10453C0030B58468034D0A431B022C4013432343BC
:10454C00836030BDFF00FFFFF8B5050002223C354B
:10455C002C7803001000012C1BD01E0001383D36B6
:10456C00287032701C68414AA3681340A3600B6822
:10457C00602B4ED02DD8402B62D013D8202B0BD0D3
:10458C0008D810221900914306D001233370002360
:10459C002B70F8BD302BF8D1A26835490A40134373
:1045AC00072228E0502BF0D14A68CB68216A276A91
:1045BC001B0187432762F027A069B84303430A20F5
:1045CC0081430A43A3612262294BA2681A405723F4
:1045DC0011E08022520193420FD08022920193422B
:1045EC000DD0702BD1D1CB684A6820008968FFF7B9
:1045FC009FFF7723A2681343A3600020C5E7CB6815
:10460C004A6820008968FFF793FF8023A268DB01CA
:10461C00F1E710204B68CA68216A164F814321626A
:10462C00A069120338400243A020216A1B01814378
:10463C000B43A2612362A2680D4B1A406723DAE791
:10464C004A68CB68216A276A1B0187432762F027D7
:10465C00A069B84303430A2081430A43A361226241
:10466C00034BA2681A404723C5E7C0468800CEFF1B
:10467C008FFFCFFFFF0FFFFF1F2310B50124194041
:10468C008C408A40036AA3430362036A1A430262A2
:10469C0010BD000070B50E0005001100082E1CD0D6
:1046AC0006D8002E0BD0042E14D02A00433208E07A
:1046BC000C2E15D0102EF8D10200423201E002006F
:1046CC003E3214780220023C62425441E4B2002C87
:1046DC0009D070BD02003F32F3E702004032F0E730
:1046EC0002004132EDE7082E30D01AD8002E1FD030
:1046FC00042E28D02A0043321278012A21D1002915
:10470C001FD0002B1DD00222082E71D024D8002ED1
:10471C0029D0042E57D0280043300270042E10D11B
:10472C0054E00C2E15D0102EE4D12A00423201E0B8
:10473C002A003E321278013A50424241D2B2002A4B
:10474C00DDD10120C5E72A003F32F3E72A004032D1
:10475C00F0E72A004132EDE70C2E5ED0102EDAD1B4
:10476C0042352A70EDE728003E300270686A404AF4
:10477C00C262404A0263404A42632A683432FDF7FF
:10478C0041FC0028DDD180232A689B00D1682C686D
:10479C000B43D360310001222000FFF76DFF374A35
:1047AC0094424FD0364B9C424CD0364B9C4249D015
:1047BC008023DB059C424DD1A368334A1340062B62
:1047CC0050D1002085E728003F300270A86A284AA3
:1047DC00C262284A0263284A42632A683832FDF7CB
:1047EC0011FC0028ADD180232A68DB00D168CEE70C
:1047FC00280040300270E86A1D4AC2621D4A0263FA
:10480C001D4A42632A683C32FDF7FCFB002898D114
:10481C0080232A681B01D168B9E728004130027057
:10482C00286B134AC262134A0263134A42632A6812
:10483C004032FDF7E7FB002883D180232A685B0117
:10484C00D168A4E78023616C1B020B436364944220
:10485C00B2D0ADE70D4B9C42AED00123226813437E
:10486C002360AEE7802252029342F6D1A9E7C046FC
:10487C000F4000087F40000823420008002C014034
:10488C0000440140004801400700010000040040C2
:10489C0010B5FFF7FFFE10BD70B504000D00082920
:1048AC004BD005D800290CD004293FD0012070BD75
:1048BC000C29FBD102682E49D368006B0B40D360E6
:1048CC0005E002682B49D368406A0B40D360FDF7C2
:1048DC001BFC2668002229003000FFF7CDFE264B7A
:1048EC00264A9E4205D0264B9E4202D0254B9E4224
:1048FC000AD1336A134207D1316A234B194203D1CF
:10490C00736C22490B407364336A134207D1326AC9
:10491C001D4B1A4203D101223368934333600123A8
:10492C00002D11D13E3400202370C0E702681849D5
:10493C00D368806A0B40D360C9E702681549D36815
:10494C00C06A0B40D360C2E70C2D0ED005D8042DE5
:10495C0007D0082D07D04334E5E7102DFBD14234A6
:10496C00E1E73F34DFE74034DDE74134DBE7C046C5
:10497C00FFEFFFFFFFFDFFFF002C014011110000B6
:10498C00004401400048014044040000FF7FFFFF49
:10499C00FFFBFFFFFFF7FFFF10B5FFF77DFF10BD1B
:1049AC00F0B5040002223C34257803001000012DE0
:1049BC0023D01D003D352A701A68104E536890683C
:1049CC00B24203D10E4F3B404F683B437027BB4371
:1049DC000F683B435360B24206D08023DB059A42FA
:1049EC0002D0084B9A4204D1802398438B68184319
:1049FC009060012300202B702070F0BD002C014032
:104A0C00FFFF0FFF0004004010B504003C34237876
:104A1C0002000220012B39D01D48CB6812680340DC
:104A2C00886803431B480340486803431A48034003
:104A3C0008680343194803400869034318480340B6
:104A4C004869034317480340086B03431648034067
:104A5C008869000403431548824214D11448184055
:104A6C00CB691843134B18408B6A1B050343124840
:104A7C000340086A034311480340486AC96A034368
:104A8C000F4803400B4300205364207010BDC046F8
:104A9C00FFFCFFFFFFFBFFFFFFF7FFFFFFEFFFFF39
:104AAC00FFDFFFFFFFBFFFFFFFFFF0FF002C014008
:104ABC00FFFFFFEFFFFF0FFFFFFFFFFEFFFFFFFDFD
:104ACC00FFFFFFDF704770477047000030B5EFF312
:104ADC001084012282F310880168134D0B682B405F
:104AEC000B6084F31088EFF3108182F31088026856
:104AFC000E4C93682340936081F31088C36E012B96
:104B0C000AD1EFF3108183F3108810240268136824
:104B1C00A343136081F310880300202288331A60AA
:104B2C000023C366036730BDDFFEFFFFFEFFFFEF10
:104B3C0030B5EFF31084012282F3108880250168D0
:104B4C000B68AB430B6084F31088EFF3108182F396
:104B5C0010884023026810680343136081F31088A7
:104B6C0030BD03000833DB6F10B5212B06D10200DA
:104B7C0056321388002B02D1FFF7DAFF10BD036DFC
:104B8C0001681C7801338C6203651388013B9BB26E
:104B9C001380F3E703000833DB6F10B5212B06D12C
:104BAC00010056310B88002B02D1FFF7C1FF10BD5D
:104BBC00026D046813880232DB05DB0DA36202650B
:104BCC000B88013B9BB20B80F1E70000030008331C
:104BDC00DB6F70B5212B21D10300010080246A33D7
:104BEC001B885631002B19D00A88002A17D1EFF3F5
:104BFC001084013282F310880168114D8B682B40B0
:104C0C008B6084F31088EFF3108182F310884023BB
:104C1C00026810680343136081F3108870BD056847
:104C2C00EA69224208D0026D16780132AE62026542
:104C3C000A88013A92B20A80013B9BB2D2E7C04685
:104C4C00FFFF7FFF03000833DB6F70B5212B21D1F1
:104C5C000300010080246A331B885631002B19D0C5
:104C6C000A88002A17D1EFF31084013282F31088DE
:104C7C000168124D8B682B408B6084F31088EFF326
:104C8C00108182F31088402302681068034313607C
:104C9C0081F3108870BD0668F26922420AD0056D56
:104CAC002A880235D205D20DB26205650A88013A0E
:104CBC0092B20A80013B9BB2D0E7C046FFFF7FFF58
:104CCC0070B505000120002D18D02E0024230024DF
:104CDC000836F3672B681A6882431A6028001C6038
:104CEC005C609C60FCF772FA2B0020008C331C601B
:104CFC00043BF4671C60EC6680352C7070BD0000C2
:104D0C00F0B506000836F46F03000220202C42D1C7
:104D1C00013800293FD0002A3DD080209D684001F9
:104D2C00854206D11869002803D11F3C200021427E
:104D3C0031D11C00803427780220012F2BD0013870
:104D4C0020701965190054310A804A801A0000211C
:104D5C008C32116021228021F2678022586E9205DC
:104D6C004901904218D1174A8D4203D11969002983
:104D7C0000D1154A5A6700222270EFF310810132DC
:104D8C0082F310881A68802390681B040343936095
:104D9C0081F310880020F0BD0C4A8D4203D11969B3
:104DAC00002900D10A4A5A6700222270EFF31081C1
:104DBC00013282F310881A68802310680343136051
:104DCC00E6E7C046D94B0008514C00086F4B000871
:104DDC00A14B00087047806A0023020010B55E32B8
:104DEC001380083A1380FFF7F5FF10BD70470000E1
:104DFC00F7B50668C24BF16904003068B768194210
:104E0C0010D12023194200D19AE080225205034090
:104E1C003A40134300D193E0236F2000002B00D0C5
:104E2C0084E084E0B74B3B400093B74B009A0340BF
:104E3C00134300D184E0250001238C35194205D0A1
:104E4C00C20503D533622A6813432B60022319422F
:104E5C000CD0FA070AD5220033628C321368019207
:104E6C009C46042362461343019A1360042319429F
:104E7C000CD0FA070AD5220033628C3213680192E7
:104E8C009C46022362461343019A136008239C46F6
:104E9C00194209D02022009B02401A4304D06346D9
:104EAC0033622A6813432B6080231B01194206D0FE
:104EBC00420104D5336220232A6813432B602B68EC
:104ECC00002B34D0202319420AD0802252050340F3
:104EDC003A40134304D0236F002B01D02000984795
:104EEC0022682B684027966828223E4013402000F9
:104EFC001E4321D0FFF7EAFD23689B683B4217D085
:104F0C00EFF31081012383F3108822689368BB436D
:104F1C00936081F31088E06F002809D07B4B83638A
:104F2C00FDF7F2F8002802D0E06F836B9847F7BDCD
:104F3C002000FFF74FFFFAE7FFF74CFF2E60F6E774
:104F4C00E36E012B00D098E01022114200D194E0C6
:104F5C00104200D191E03262B16840200D00054052
:104F6C00014252D0E16F0D68696889B20029DED028
:104F7C0026005C3636888E42D9D926005E363180C2
:104F8C002D6820212E000E4000960D4231D1EFF3FA
:104F9C00108783F3108826685D4A356815403560A4
:104FAC0087F31088EFF3108783F310882668B568B1
:104FBC009D43B56087F31088EFF3108683F3108858
:104FCC002568AF688743AF6086F310882000009A8D
:104FDC0088300160E266EFF3108083F310881022B2
:104FEC0021680B6893430B6080F31088E06FFDF72A
:104FFC0051F8230022005E335C321B881188C91AD9
:10500C0089B22000FFF7F2FE91E7260021005E3600
:10501C00308836885C31098880B2002E00D186E752
:10502C00091A89B2002900D181E7EFF3108783F3C5
:10503C0010882668374A30681040306087F3108833
:10504C00EFF3108783F310882668334AB06810405A
:10505C00B06087F310882000202688300660E56653
:10506C002567EFF3108583F31088102220680368FE
:10507C009343036085F31088C3E780235B031942D5
:10508C0006D07A0204D52000336200F00FFE4EE702
:10509C008023194207D080221204034017403B435F
:1050AC0001D0636FB9E64022114216D0104214D0E1
:1050BC00EFF31080012383F3108821680B6893436E
:1050CC000B6080F310882300203A0833DA67002342
:1050DC002000636704F086FA29E70B0205D543002C
:1050EC0003D5200000F0E4FD21E7C90100D41EE740
:1050FC00002800DB1BE7200000F0D9FD17E7C046B5
:10510C000F0800000100001020010004E34D00080E
:10511C00FFFEFFFFDFFEFFFFFEFFFFEF0100F8B514
:10512C00030088310C6860331A880368222C46D13E
:10513C005B6A846D134002002370836D5E32013311
:10514C0083651388013B9BB2138013889CB2002BA0
:10515C0031D1EFF31086012282F3108805681A4FC3
:10516C002B683B402B6086F31088EFF3108682F39C
:10517C0010880568AB689343AB6086F310882023D6
:10518C000B60C36E0467934216D1C466EFF31084B0
:10519C0083F31088102301680A689A430A6084F329
:1051AC0010880268D169194200D0136203005C3385
:1051BC001988FFF71BFEF8BD04F01AFAFBE708226A
:1051CC0099690A439A61F6E7DFFEFFFF0200F8B522
:1051DC0003008832116860331C880368222945D18A
:1051EC00596A836D214019800100023383655E3159
:1051FC000B88013B9BB20B800B889CB2002B31D1EE
:10520C00EFF31086012181F3108805681A4F2B6883
:10521C003B402B6086F31088EFF3108681F31088E7
:10522C000568AB688B43AB6086F310882023136052
:10523C00C36E04678B4216D1C466EFF3108483F3FC
:10524C001088102301680A689A430A6084F3108856
:10525C000268D169194200D0136203005C331988CB
:10526C00FFF7C4FDF8BD04F0C3F9FBE70822996908
:10527C000A439A61F6E7C046DFFEFFFF0300F0B574
:10528C0060331B8885B0029303680400DD691A68DB
:10529C0003929A680192020088321268222A00D086
:1052AC00B1E0030068331B88002B02D020231D4281
:1052BC0025D123005E331B889AB2002B1DD023000E
:1052CC0068331B88934218D9EFF31080012282F3C4
:1052DC00108821684E4D8B682B408B6080F31088B2
:1052EC004C4B2367EFF3108182F310882023226844
:1052FC0010680343136081F3108805B0F0BD2600DD
:10530C00236802995B6AA26D0B401370A36D5E3625
:10531C000133A36533882268013B9BB2338007239A
:10532C00D5691D422FD0063B1D4208D00399C905F3
:10533C0005D5210013628C31086803430B600223EE
:10534C001D4209D00199C90706D5210013628C3181
:10535C000868DB1803430B6004231D4209D0019934
:10536C00C90706D5136222008C321168023B0B432D
:10537C00136027008C373B68002B04D02000FFF70C
:10538C0029FD00233B6033889AB2002B00D08DE7B7
:10539C00EFF31086012181F3108820681E4F0368FB
:1053AC003B40036086F31088EFF3108081F3108884
:1053BC0021681A4E8B6833408B6080F31088230071
:1053CC00202188331960E36E2267012B17D1E26626
:1053DC00EFF3108083F3108821680F330A689A4327
:1053EC000A6080F310882268D169194200D01362D8
:1053FC0023005C3320001988FFF7F8FC56E72000E7
:10540C0004F0F6F852E7082299690A439A6174E7A6
:10541C00FFFFFFEF29510008FFFEFFFFFEFFFFEF2C
:10542C000300F0B560331B8885B002930368040059
:10543C00DD691A6803929A68019202008832126838
:10544C00222A00D0AFE0030068331B88002B02D067
:10545C0020231D4225D123005E331B889AB2002BDA
:10546C001DD0230068331B88934218D9EFF31080AA
:10547C00012282F3108821684D4D8B682B408B6084
:10548C0080F310884B4B2367EFF3108182F3108865
:10549C002023226810680343136081F3108805B041
:1054AC00F0BD260023680298596AA26D0140118054
:1054BC000232A2655E363288013A92B232800722FD
:1054CC00DD6915422FD0063A154208D00399C9055B
:1054DC0005D521001A628C31086802430A60022249
:1054EC00154209D00199C90706D521001A628C31E1
:1054FC000868921802430A600422154209D00199E7
:10550C00C90706D51A62220002238C3211680B439C
:10551C00136027008C373B68002B04D02000FFF76A
:10552C0059FC00233B6033889AB2002B00D08FE7E4
:10553C00EFF31086012181F3108820681E4F036859
:10554C003B40036086F31088EFF3108081F31088E2
:10555C0021681A4E8B6833408B6080F310882300CF
:10556C00202188331960E36E2267012B17D1E26684
:10557C00EFF3108083F3108821680F330A689A4385
:10558C000A6080F310882268D169194200D0136236
:10559C0023005C3320001988FFF728FC58E7200013
:1055AC0004F026F854E7082299690A439A6176E7D1
:1055BC00FFFFFFEFD9510008FFFEFFFFFEFFFFEFDB
:1055CC00F8B504002569A26803682A43656919685F
:1055DC00C0692A43674D024329400A431A605A683E
:1055EC006549A5690A40E1680A4364495A608B42DF
:1055FC0001D0226A15439A68614E32402A430F2526
:10560C009A60DA6AAA43656A2A43DA625D4A93426F
:10561C0013D15D4B5A6D03231A4080231B02022ABF
:10562C0000D198E0032A00D1A0E0012A00D098E034
:10563C0098425AD0FDF762FF7BE0544A934200D166
:10564C008DE08B420FD1C02280214F4B12015B6D3C
:10565C00090113408B421BD007D8002B15D0802298
:10566C00D200934206D0012009E09342FBD1802660
:10567C0036020EE0FDF742FF061E0AD10020444B15
:10568C00A366002323676367F8BDFEF729F8F3E7E9
:10569C00404E626A404B5200D75A30003900FAF73C
:1056AC0051FD032365686B438342DCD82B03834293
:1056BC00D9D300233A0030001900FAF7B9FE0027BD
:1056CC00060E0B02334302026E0892197B41100046
:1056DC0019002A003B00FAF7ABFE304BC218304BD6
:1056EC009A42C0D82368D860C8E7FDF707FF0028A6
:1056FC00C4D0626A284B5200D15AFAF723FD656870
:10570C0040006B08C0182900FAF71CFD0200254B5D
:10571C00103A9A42A7D80F23020000079A4393B27B
:10572C00400F22680343D360A8E71A48E1E7FDF76E
:10573C00D7FF0028A2D0626A174B5200D15AFAF751
:10574C0001FD65686B08C0182900FAF7FBFC020024
:10575C00144B103AC4E79842E7D00E48EBE780238D
:10576C001B029842E3D1FDF7BBFFC0E79842C0D0C3
:10577C001800E0E7F369FFCFFFCFFFFF0080004088
:10578C00FFF4FF11003801400010024000440040BB
:10579C00010001000024F400CCC2000800FDFFFF52
:1057AC00FFFC0F00EFFF0000836A30B5DA0706D567
:1057BC000168284C4A682240C46A22434A609A070E
:1057CC0006D50168244C4A682240046B22434A6087
:1057DC005A0706D50168214C4A682240446B224383
:1057EC004A601A0706D501681D4C4A682240846B32
:1057FC0022434A60DA0606D501681A4C8A682240B0
:10580C00C46B22438A609A0606D50168164C8A68D6
:10581C002240046C22438A605A0610D50168134D4D
:10582C004A68446C2A4022434A60802252039442C4
:10583C0005D14A680E4C2240846C22434A601B06F8
:10584C0006D502680B4953680B40C16C0B4353607F
:10585C0030BDC046FFFFFDFFFFFFFEFFFFFFFBFF5C
:10586C00FF7FFFFFFFEFFFFFFFDFFFFFFFFFEFFFFC
:10587C00FFFF9FFFFFFFF7FFF8B504000D001700B7
:10588C001E002268D3692B405B1B59424B41BB4223
:10589C0001D000202AE0069B0133F3D0FBF700FD7A
:1058AC00069B801B984201D8002B20D1EFF310806F
:1058BC00012282F310882168214D0B682B400B606C
:1058CC0080F31088EFF3108082F3108821688B68C6
:1058DC0093438B6080F3108823001F320833DA6700
:1058EC0080331A600023032080342370F8BD2368B2
:1058FC001A685207C5D58022D96912011142C0D04D
:10590C001A62EFF31080012282F3108821680C4D8B
:10591C000B682B400B6080F31088EFF3108082F340
:10592C00108821688B6893438B6080F31088220069
:10593C0020230832D367803213605360D2E7C0460D
:10594C005FFEFFFFF0B51600020087B0083205932A
:10595C00D36F04000D000220202B50D101380029F8
:10596C004DD0002E4BD08023A1685B01994204D10D
:10597C002369002B01D1054241D1270080373B78A8
:10598C000220012B3BD001233B70230000218C33E0
:10599C0019602123D367FBF783FC230054331E804B
:1059AC0002331E8003938023A268002604905B01BF
:1059BC009A4204D12369B34201D12E001D00002369
:1059CC003B70230056331B889AB2002B0CD1059BDD
:1059DC00402100932000049BFFF74EFF00280DD1BF
:1059EC0020230834E3670AE0059B00220093802102
:1059FC002000049BFFF740FF002802D0032007B0D3
:105A0C00F0BD2268002D0BD133880236DB05DB0D8F
:105A1C009362039B039A1B88013B9BB21380D0E7D4
:105A2C002B7801359362F4E7030073B5002604006C
:105A3C008C331E60FBF734FC236805001B681B07C6
:105A4C0019D423681B685B070AD58021104B0022F0
:105A5C00009320002B00C903FFF70EFF002815D17F
:105A6C002200202300200832D36780321360E066C6
:105A7C00803420700BE08021054B320000938903A9
:105A8C0003002000FFF7F8FE0028DAD0032076BDD3
:105A9C00FFFFFF0170B5041E01D1012070BD050090
:105AAC000835EB6F002B04D1020080321370FBF72A
:105ABC001FFB242301212268EB67136820008B4312
:105ACC001360FFF77DFD0128E7D0A36A002B02D0FD
